:100000000C94E5010C940D020C940D020C940D025D
:100010000C940D020C940D020C940D020C949D0F87
:100020000C940D020C940D020C940D020C940D0214
:100030000C940D020C940D020C940D020C940D0204
:100040000C9477100C940D020C9445100C941F1016
:100050000C940D020C940D020C940D020C940D02E4
:100060000C94C1100C940D02000000002400270025
:100070002A0000000000250028002B0000000000DE
:1000800023002600290004040404040404040202DA
:100090000202020203030303030301020408102007
:1000A0004080010204081020010204081020000012
:1000B0000008000201000003040700000000000027
:1000C000000002207F01010000000000000000008D
:1000D00000005E00000000000006000006000000B6
:1000E000247E24247E240000246B2A2A6B12000024
:1000F0004626100864620000344A4A54205000002A
:10010000000000060000000000003C42000000006B
:100110000000423C000000002A1C3E1C2A00000097
:1001200008083E0808000000004030000000000001
:10013000080808080808000000004000000000004F
:1001400040201008040200003C62524A463C000075
:1001500040447E404000000064525252524C000025
:1001600024424A4A4A340000382422227E200000D9
:100170002E4A4A4A4A3200003C4A4A4A4A30000063
:10018000020262120A060000344A4A4A4A34000057
:100190000C525252523C00000000240000000000AB
:1001A00000402400000000000008142200000000AD
:1001B0001414141414140000000022140800000089
:1001C0000402520A0400000018245A5A241800009D
:1001D0007C121212127C00007E4A4A4A4A34000005
:1001E0003C424242422400007E424242423C0000E5
:1001F0007E4A4A4A424200007E0A0A0A020200007F
:100200003C424252523400007E080808087E00003A
:1002100000427E420000000020404040403E00007E
:100220007E080808146200007E4040404040000004
:100230007E040808047E00007E040810207E000072
:100240003C424242423C00007E121212120C00005C
:100250003C425262423C00007E121212324C0000BC
:10026000244A4A4A4A30000002027E02020000008C
:100270003E404040403E00001E204040201E000006
:100280007E201010207E0000422418182442000016
:1002900002047804020000004262524A4642000012
:1002A000007E4242000000000204081020400000CE
:1002B000000042427E0000000000040204000080B2
:1002C00080808080808080000000020400000000A8
:1002D00020545454780000007E4848483000000004
:1002E0003844444428000000304848487E0000005C
:1002F000385454544800000000087C0A02000000F2
:1003000018A4A4A47C0000007E0808087000000067
:1003100000487A4000000000408080887A00000099
:100320007E1010284400000000427E4000000000C3
:100330007C047804780000007C0404047800000049
:100340003844444438000000FC4444443800000071
:1003500038444444FC0000007C080404040000000D
:10036000485454542400000000043E44000000009F
:100370003C4040207C0000001C2040201C0000006D
:100380001C601C601C000000442810284400000071
:100390001CA0A0A07C0000004464544C4400000059
:1003A00000083641000000000000FF0000000000CF
:1003B000004136080000000804040810100800007E
:1003C0000000000000000000E01111241FBECFEF6C
:1003D000D8E0DEBFCDBF13E0A0E0B1E0E4E2FCE393
:1003E00002C005900D92A03FB107D9F727E0A0EF1A
:1003F000B3E001C01D92AA30B207E1F711E0C5EEEB
:10040000D1E004C02197FE010E94E01DC43ED10747
:10041000C9F70E9495120C94101E0C94000080E005
:10042000089590910F069111FCCF91E090930F06E3
:1004300090930E062FEF20930D0610920C06260FB8
:1004400020930B0690930A0690910A06880F892B39
:1004500080930A06809109068130F9F4109209060A
:1004600080910A068093BB008091BC0083FDF8CF89
:1004700085EC8093BC0080910F068130E1F3809180
:100480000C06861710F460910C06A9EEB5E0E9ECB5
:10049000F5E080E0861303C0089585EEEACF9D91D4
:1004A00091938F5FF7CF982F2091C80581E021327B
:1004B00008F043C080910F068111FCCF8091C705E1
:1004C00032E030930F0690930E069FEF90930D0647
:1004D00010920C0620930B06A7EAB5E0E9EEF5E0D2
:1004E00090E0291331C010920A0690910A06880FF5
:1004F000892B80930A0680910906813049F5109274
:10050000090680910A068093BB008091BC0083FDA0
:10051000F8CF85EC8093BC0080910F068230E1F328
:1005200080910D068F3FB1F080910D068032A1F0D1
:1005300080910D06803391F084E01092A605109210
:10054000C8051092A50508953D9131939F5FC9CFCD
:1005500085EEE0CF80E0F1CF82E0EFCF83E0EDCF1A
:1005600091E09093A5058093C7051092A60510927F
:10057000C80508951F93CF93DF9300D000D01F923A
:10058000CDB7DEB71C8221E02B839A838983E0916B
:10059000D406F091D50611891D82A091D406B091A0
:1005A000D506E091D806F091D9069E012F5F3F4F06
:1005B00050964C916FE084ED96E009958D818F5FA8
:1005C0008D83811750F30F900F900F900F900F9025
:1005D000DF91CF911F910895089508958091A3050B
:1005E0009091A405891B990B08959B01DC01189635
:1005F000ED91FC9141E067E10994AF92BF92CF92F7
:10060000DF92EF92FF920F931F93CF93DF936C01D2
:100610007B018B01040F151FEB015E01AE18BF08B3
:10062000C017D10759F06991D601ED91FC91019065
:10063000F081E02DC6010995892B79F7C501DF917D
:10064000CF911F910F91FF90EF90DF90CF90BF90CF
:10065000AF900895FC01538D448D252F30E0842FF9
:1006600090E0821B930B541710F0CF9608950197DA
:100670000895FC01918D828D981761F0A28DAE0FC7
:10068000BF2FB11D5D968C91928D9F5F9F73928F4E
:1006900090E008958FEF9FEF0895FC01918D828D7A
:1006A000981731F0828DE80FF11D858D90E0089547
:1006B0008FEF9FEF0895FC01918D228D892F90E09F
:1006C000805C9F4F821B91098F739927089580E169
:1006D00096E00E945B0321E0892B09F420E0822F41
:1006E000089580E090E0892B29F00E946703811132
:1006F0000C9400000895FC01A48DA80FB92FB11D22
:10070000A35ABF4F2C91848D90E001968F73992747
:10071000848FA689B7892C93A089B1898C91837025
:1007200080648C93938D848D981306C00288F3891E
:10073000E02D80818F7D80830895EF92FF920F934B
:100740001F93CF93DF93EC0181E0888F9B8D8C8D7D
:1007500098131AC0E889F989808185FF15C09FB771
:10076000F894EE89FF896083E889F9898081837034
:10077000806480839FBF81E090E0DF91CF911F91E3
:100780000F91FF90EF900895F62E0B8D10E00F5F04
:100790001F4F0F731127E02E8C8D8E110CC00FB6DA
:1007A00007FCFACFE889F989808185FFF5CFCE0172
:1007B0000E947B03F1CFEB8DEC0FFD2FF11DE35A6F
:1007C000FF4FF0829FB7F8940B8FEA89FB898081F5
:1007D0008062CFCFCF93DF93EC01888D8823B9F06F
:1007E000AA89BB89E889F9898C9185FD03C080813C
:1007F00086FD0DC00FB607FCF7CF8C9185FFF2CFB9
:10080000808185FFEDCFCE010E947B03E9CFDF9190
:10081000CF910895833081F028F4813099F08230AF
:10082000A9F008958730A9F08830C9F08430B1F478
:10083000809180008F7D03C0809180008F778093AE
:100840008000089584B58F7784BD089584B58F7D29
:10085000FBCF8091B0008F778093B0000895809196
:10086000B0008F7DF9CFCF93DF93282F30E0F901CF
:10087000E255FF4F8491F901E656FF4FD491F901FB
:10088000EA57FF4FC491CC23A1F081110E940A04C2
:10089000EC2FF0E0EE0FFF1FE458FF4FA591B4914D
:1008A000EC91ED2381E090E009F480E0DF91CF91BD
:1008B000089580E090E0FACF1F93CF93DF93282F25
:1008C00030E0F901E255FF4F8491F901E656FF4F00
:1008D000D491F901EA57FF4FC491CC23A9F0162F08
:1008E00081110E940A04EC2FF0E0EE0FFF1FEE587A
:1008F000FF4FA591B4918FB7F894EC91111108C0F6
:10090000D095DE23DC938FBFDF91CF911F910895A7
:10091000DE2BF8CF1092A4051092A3051092A60525
:100920001092C80510920F0681E080930E06109277
:10093000090661E082E10E945C0461E083E10E94BB
:100940005C04E9EBF0E080818E7F808380818D7F85
:10095000808388E48093B80085E48093BC008CEEAB
:1009600092E09093A2058093A1058DEE92E0909382
:10097000A00580939F050895CF93DF9390E0FC013D
:10098000E656FF4F24918A579F4FFC01849188239C
:10099000C9F090E0880F991FFC01E859FF4FA5911D
:1009A000B491FC01EE58FF4FC591D49161110DC077
:1009B0009FB7F8948C91209582238C93888128236B
:1009C00028839FBFDF91CF910895623051F49FB784
:1009D000F8943C91822F809583238C93E8812E2B71
:1009E000EFCF8FB7F894EC912E2B2C938FBFEACFDB
:1009F0003FB7F8948091630490916404A0916504DA
:100A0000B091660426B5A89B05C02F3F19F001964A
:100A1000A11DB11D3FBFBA2FA92F982F8827BC0158
:100A2000CD01620F711D811D911D42E0660F771F80
:100A3000881F991F4A95D1F708958F929F92AF9280
:100A4000BF92CF92DF92EF92FF926B017C010E94E6
:100A5000F8044B015C01C114D104E104F104B9F0C4
:100A60000E94F804681979098A099B09683E734055
:100A70008105910580F321E0C21AD108E108F1084F
:100A800088EE880E83E0981EA11CB11CE4CFFF9075
:100A9000EF90DF90CF90BF90AF909F908F90089590
:100AA00085ED8093BC008091BC0084FDFCCF10924A
:100AB0000F06089520913F04260F3327331F21325C
:100AC0003105ECF420910F06FC0190E080E0243029
:100AD00069F082E00895A0913F042191AC01415E4C
:100AE0005B4FA40FB52FB11D2C930196861798F379
:100AF00080913F04680F60933F0480E0089581E097
:100B000008950895E091A4058091A305E81730F4B5
:100B1000F0E0E753FA4F808190E008958FEF9FEF68
:100B200008959091A4058091A3052FEF3FEF9817AA
:100B300048F4E92FF0E0E753FA4F208130E09F5F5F
:100B40009093A405C9010895CF92DF92EF92FF928E
:100B50000F931F93CF93DF937C01CB018A012091E8
:100B6000A505222389F0EB016B01C40ED51ECC151F
:100B7000DD0569F06991D701ED91FC910190F0815B
:100B8000E02DC7010995F3CF642F0E945A05C801D3
:100B9000DF91CF911F910F91FF90EF90DF90CF9059
:100BA0000895CF93DF931F92CDB7DEB7698320916D
:100BB000A5052223F9F02091C805203258F021E044
:100BC00030E0FC013383228390E080E00F90DF91DE
:100BD000CF9108958091A605E82FF0E0E955FA4FEE
:100BE000998190838F5F8093A6058093C80581E0EB
:100BF00090E0ECCF61E0CE0101960E945A05F7CF5C
:100C000081E00C9453020F931F93CF93DF93082F2F
:100C1000162FC9EBD6E088810E94B0028F8198859B
:100C2000DC01ED91FC910190F081E02D602F0995A0
:100C30008F819885DC01ED91FC910190F081E02D90
:100C4000612F09958F819885DF91CF911F910F9129
:100C50000C940006DC011A96ED91FC9130E020E046
:100C60000994DC011696ED91FC9130E020E040E023
:100C700069E10994DC011696ED91FC9130E020E0E9
:100C800040E068E109949A01DC011696ED91FC912F
:100C9000462F67E10994EF92FF920F931F93CF9332
:100CA000DF931F92CDB7DEB77C018B01D8016C9129
:100CB000673129F150F46531A0F40F90DF91CF91A5
:100CC0001F910F91FF90EF9008956A3118F16E3FD8
:100CD000A1F7F8014181498369E2C7010E942A0610
:100CE0000BC0F80141814983D7011696ED91FC9123
:100CF00030E020E0C70109950E5F1F4FD7CFF80104
:100D000081818983AE014F5F5F4F61E0C7010E941F
:100D10004306F2CF0F5F1F4FD7011696ED91FC915E
:100D200030E020E040E0C7010995C0CF462FDC014C
:100D30001696ED91FC9130E020E066E10994462F93
:100D4000DC011696ED91FC9130E020E065E109941C
:100D5000EF92FF920F931F93CF93DF93EC01042F39
:100D600079016D3009F446C050F46B30C9F1693037
:100D700009F49FC06A3009F465C080E046C06E3057
:100D800009F452C06F3099F70E943A06F7011381B7
:100D9000110F110F110F6C89160F60E4CE010E9424
:100DA0009F06612F62956F706061CE010E949F0661
:100DB000612F6F70CE010E949606F7016481606B0F
:100DC000CE010E949606F701408151816281660F33
:100DD000660F660FCE010E9443060150A1F72EC098
:100DE00065E171E0442311F060E171E0CE010E9401
:100DF0004B060AC0411110C069E071E00E944B0629
:100E0000E881F98182898C8B81E0DF91CF911F91FC
:100E10000F91FF90EF90089562E071E00E944B0601
:100E2000E881F9818389EFCF0E943A0661E8CE011B
:100E30000E949F06602FCE010E949606CE010E945E
:100E40003106E2CFEA85FB8530E020E040E068E251
:100E5000CE010995EE81FF8130E020E040E064E1C1
:100E6000CE01099541E06BE4CE010E942A06E8819B
:100E7000F981448169E2CE010E942A0640E06BE4D8
:100E8000CE010E942A06E881F981448169E2CE01FF
:100E90000E942A0641E06BE4CE010E942A06E88106
:100EA000F981458169E2CE010E942A066AE171E07A
:100EB0009DCF8FE491E0998388831C8AA5CFDC01C4
:100EC0001896ED91FC9130E020E040E069E1099452
:100ED000DC011896ED91FC9130E020E040E068E103
:100EE0000994CF93DF931F92CDB7DEB76983BE011C
:100EF0006F5F7F4F0E94F5020F90DF91CF910895B1
:100F0000EF92FF921F93CF93DF93EC01162F7A019C
:100F10000E94680760E4CE010E947107E885F985A8
:100F20009701412F67E1CE010995CE01DF91CF9165
:100F30001F91FF90EF900C945F07EF92FF921F9329
:100F4000CF93DF93EC01142F7901663181F138F4EE
:100F5000643109F44BC0653179F080E022C068311A
:100F6000C9F150F16931C9F780911E04882391F1CC
:100F7000CE010E945F072EC080911E04882319F0C5
:100F8000CE010E945F07CE010E94680760E0CE019B
:100F90000E947107612FCE010E94710781E080934A
:100FA0001E04DF91CF911F91FF90EF900895642F61
:100FB0000E94710781E0F5CF80911E04882319F00B
:100FC000CE010E945F07A701193138F4612FCE01CD
:100FD0000E94800710921E04EDCF68E1CE010E94AE
:100FE0008007185188E1E80EF11CEDCF8E898F3F04
:100FF00011F488E78E8BE885F9859701412F64E12C
:10100000CE01DF91CF911F91FF90EF900994CF9384
:10101000DF93EC01A889B989FD013491319694914F
:10102000319684911396FD01A4916317A8F1961748
:1010300098F1631B770B8A9FE02D1124E69FC00176
:10104000E79F900D1124280F392F311D83E0220FC7
:10105000331F8A95E1F7C9010496DA01245F3F4FF7
:10106000E889F989E80FF91FE491ED930196821759
:101070009307B1F78D89882361F0FA019A01285FFF
:101080003F4F8191DF01119780958C932E173F0779
:10109000C1F7DF91CF910895FA01CA010896119224
:1010A000E817F907E1F7E6CFCF93DF93EC0168315A
:1010B00081F130F46431A1F0673159F080E006C06D
:1010C000693109F43FC06032C9F781E0DF91CF9107
:1010D000089550E0B9018DEA96E00E94A405F5CF8D
:1010E0008C859D85AE85BF85892B8A2B8B2B71F4D2
:1010F000E881F981A585B0E020EA36E841E050E0DA
:101100000E944A1C6C877D878E879F870E948A0475
:10111000DCCF2C853D854E855F8560E074E284EFF1
:1011200090E00E94021C2051310941095109569555
:101130004795379527952093B8008E8986950E940C
:10114000B002C3CF8DEA96E00E940006BECF0F9397
:101150001F93CF93DF938C01C62F642FCC32E8F41A
:10116000CA3208F041C0C83271F1C93209F442C034
:1011700080E0C034D0F1CF73F801EC0FF11D868D03
:101180008F3F91F1C031E0F00E94330421E0892BC0
:1011900009F420E0F801218F27C0CD3289F140F316
:1011A00084EB8C0F823020F7CF73C00FD12FD11D6D
:1011B0008E8D411133C061E00E94BC0460E08E8DD1
:1011C0000E945C0411C0025E1F4FD0E0F8018191C3
:1011D0008F018F3F31F061E0D03108F062E00E9472
:1011E000BC04DF5FD63191F781E0DF91CF911F9191
:1011F0000F91089570E090E080E00E941D05F4CF0B
:1012000085E090E0433010F082E090E0880F991F75
:10121000880F991F05970197F1F7E6CF62E00E94CA
:10122000BC04E2CF2F923F924F925F926F927F92D7
:101230008F929F92AF92BF92CF92DF92EF92FF92E6
:101240000F931F93CF93DF93CDB7DEB72D970FB6D4
:10125000F894DEBF0FBECDBFDC015496ED91FC913A
:101260005597D996DC90D997CF0103966A3019F536
:10127000FC018491D80ED996DC92D997D8961C920D
:1012800081E090E02D960FB6F894DEBF0FBECDBF83
:10129000DF91CF911F910F91FF90EF90DF90CF9052
:1012A000BF90AF909F908F907F906F905F904F9086
:1012B0003F902F90089532962490D8965C90D897BE
:1012C0005D0124E0A20EB11CF490FC01E490352CE9
:1012D0003F0CED0C81E0850D381610F4FF24F394DB
:1012E000C62E8D01612CCE0101964C01462C752C29
:1012F000242DA4016C2DC5010E9407087C86DD8683
:1013000091E09B879A868986D8011896ED91FC9189
:101310009E01275F3F4F41E06FE0C501099543946F
:101320007394731428F3D3946F0CDE14F8F2F8015D
:1013300080AD820D80AFA4CF8EBD00000DB407FE3E
:10134000FDCF8EB50895CF93DF932091BE063091E7
:10135000BF06232BA1F0D62FC82F60E08091BD06D9
:101360000E945C048C2F0E949C098D2F0E949C0976
:1013700061E08091BD06DF91CF910C945C04DF9118
:10138000CF910C940306E3E8F4E02FEF208325E5EA
:10139000218325E0228324E023836483758386836D
:1013A000978348E050E0BF0180E196E00C94FD0295
:1013B000E3E8F4E09FEF908395E5918392E09283D8
:1013C00091E09383848345E050E0BF0180E196E0A3
:1013D0000C94FD02E3E8F4E08FEF808385E58183E0
:1013E000128243E050E0BF0180E196E00C94FD02E0
:1013F000E82FF0E0E259FB4FE081EC5FF0E0ED57C1
:10140000FB4F9181808108952F923F924F925F927E
:101410006F927F928F929F92AF92BF92CF92DF9204
:10142000EF92FF920F931F93CF93DF9300D000D0E2
:101430001F92CDB7DEB78B011A012A01550F66083E
:101440007708909100018917F1F09F3F09F483C05C
:10145000C301B2010F900F900F900F900F90DF918A
:10146000CF911F910F91FF90EF90DF90CF90BF90A1
:10147000AF909F908F907F906F905F904F903F9034
:101480002F900C941D05E2ECF0E094919D8397FD64
:10149000DFCF61E00E94BC048D81882321F09D8113
:1014A000923009F04AC14801B12CA12C60E072E1F0
:1014B0008AE790E0A50198010E94241C29833A83C1
:1014C0004B835C8369017A0181E0C81AD108E10885
:1014D000F1089FEFC916D104E104F10409F00CF4FE
:1014E00001C160E472E48FE090E0A50198010E94E0
:1014F000241C69017A0181E0C81AD108E108F108C9
:101500009D81923009F0A2C08FEFC816D104E1048A
:10151000F10409F00CF4E5C160E970ED83E090E0BE
:10152000A50198010E94241C69017A0191E0C91A61
:10153000D108E108F1088FEFC816D104E104F104E5
:1015400011F00CF07EC183E09091B100987F892B5F
:101550008093B100CFC080930001E2ECF0E0949161
:101560009D839F3F09F474CF913041F150F0923048
:1015700009F446C09D8197FD6BCF61E00E94BC04D9
:101580008ECF14BC15BC94B5926094BD95B5916096
:1015900095BD282F30E0F901EA57FF4FE491F0E0C4
:1015A000EE0FFF1FEE58FF4F45915491F901E6569B
:1015B000FF4FE491E09315041D826BCF10928000E1
:1015C0001092810090918100986090938100909199
:1015D0008100916090938100282F30E0F901EA5753
:1015E000FF4FE491F0E0EE0FFF1FEE58FF4F4591E3
:1015F0005491F901E656FF4FE491E093140449CF6A
:101600001092B0001092B1009091B000926090934F
:10161000B0009091B10091609093B100282F30E01C
:10162000F901EA57FF4FE491F0E0EE0FFF1FEE588B
:10163000FF4F459154915093680440936704F9011A
:10164000E656FF4FE491E093690423CF9FEFC9165C
:10165000D104E104F10409F00CF46DC068E478EE03
:1016600081E090E0A50198010E94241C69017A01A3
:1016700081E0C81AD108E108F1089D81992309F495
:10168000F9C08FEFC816D104E104F10411F00CF099
:10169000FAC0EEC064E274EF80E090E0A50194012E
:1016A0000E94241C69017A0181E0C81AD108E1086E
:1016B000F10885E09FEFC916D104E104F10409F0B7
:1016C00008F442CF62E17AE780E090E0A50194015E
:1016D0000E94241C69017A0181E0C81AD108E1083E
:1016E000F108E4C081E09D8191112ECF95B5987FDE
:1016F000892B85BD2FEF3FEFA901411451046104EF
:10170000710409F043C09D81913009F45DC09230AD
:1017100009F46CC091119CCEC7BC20931A0430937D
:101720001B0440931C0450931D0480916E00826042
:1017300080936E008DCE82E0D6CFB12CA12C60E0DC
:1017400072E18AE790E0A50198010E94241C6901DA
:101750007A0181E0C81AD108E108F108C114D10466
:1017600091E0E906F104FCF491E08D81813011F6FD
:1017700080918100887F892B809381002FEF3FEF3C
:10178000A9014114510461047104F1F09801220F80
:10179000331FD1010E94431C28EE33E040E050E0AB
:1017A0000E94021CB0CF68E478EE81E090E0A501D1
:1017B00098010E94241C69017A0181E0C81AD108AD
:1017C000E108F10893E0D1CFD0928900C09288005F
:1017D000209316043093170440931804509319046F
:1017E00080916F00826080936F0032CEC092B30010
:1017F00020936A0430936B0440936C0450936D04FF
:101800008091700082608093700022CE84E09FEF10
:10181000C916D104E104F10409F008F467CFC980C6
:10182000DA80EB80FC808AE0F594E794D794C79443
:101830008A95D1F781E0C81AD108E108F10885E05E
:1018400055CF68E478EE81E090E0A50198010E9410
:10185000241C69017A0181E0C81AD108E108F10865
:101860009FEFC916D104E104F10411F00CF012CF7E
:1018700084E06ACE83E09FEFC916D104E104F1044D
:1018800009F00CF433CF62E17AE780E090E0A50143
:1018900094010E94241C69017A0181E0C81AD108D0
:1018A000E108F1089D81992309F4B0CF86E09FEF0C
:1018B000C916D104E104F10409F008F445CEC98049
:1018C000DA80EB80FC809AE0F594E794D794C79493
:1018D0009A95D1F781E0C81AD108E108F10887E0AC
:1018E00033CE82E031CECF92DF92EF92FF920F9310
:1018F0001F93CF93DF936C01EB017B01E40EF51E88
:1019000010E000E0CE15DF0561F06991D601ED91A0
:10191000FC910190F081E02DC6010995080F191F77
:10192000F1CFC801DF91CF911F910F91FF90EF9000
:10193000DF90CF900895089590E080E0089561329F
:1019400008F060E20E9411021092A4058093A305A2
:101950000895CF93C82F87E70E94B0026C2F8DEABD
:1019600096E00E94D1058DEA96E00E94000662E0B2
:1019700070E087E790E00E949F0C8091A305909112
:10198000A405891B990B82309105ECF38DEA96E052
:101990000E949105C82F8DEA96E00E94910520E0F3
:1019A0003C2FA901482BCA01982789279827CF9156
:1019B00008958F929F92AF92BF92CF92DF92EF9253
:1019C000FF92F82E87E70E94B0026F2D8DEA96E015
:1019D0000E94D1058DEA96E00E94000663E070E067
:1019E00087E790E00E949F0C8091A3059091A40549
:1019F000891B990B83309105ECF38DEA96E00E94E8
:101A00009105092E000CAA0BBB0B8824982EA92E39
:101A1000BA2E8DEA96E00E949105092E000CAA0BC1
:101A2000BB0B6C017D01C828D928EA28FB28FE2CB5
:101A3000ED2CDC2CCC248DEA96E00E949105BC01B3
:101A4000990F880B990B6C297D298E299F29FF906E
:101A5000EF90DF90CF90BF90AF909F908F900895C0
:101A60008F929F92AF92BF92CF92DF92EF92FF92AE
:101A70008AEF0E94D90CE3E8F5E020813181C72E7E
:101A8000D82EE92EFF24E7FCFA94C21AD30AE10803
:101A9000F10857E095958795779567955A95D1F711
:101AA000220F331F4B015C01821A930AA108B1086F
:101AB000A5019401A281B3810E94551C4B015C01D8
:101AC000BBE0B594A79497948794BA95D1F7A701F2
:101AD0009601C701B6010E94F21B9B01AC018CE08C
:101AE00055954795379527958A95D1F7A481B58166
:101AF0000E94551C9B01AC019EE05595479537957A
:101B000027959A95D1F7280D391D4A1D5B1D208F09
:101B1000318F428F538FA5E0B0E00E944A1C60587D
:101B20007F4F8F4F9F4F672F782F892F992787FDE2
:101B30009A950E94F91A20E030E048EC52E40E94A5
:101B4000561AFF90EF90DF90CF90BF90AF909F908C
:101B50008F9008951F93CF93DF931F92CDB7DEB779
:101B6000182F8091BE069091BF06892BC1F060E0CE
:101B70008091BD060E945C04812F806C0E949C09AC
:101B800080E00E949C09898361E08091BD060E94EB
:101B90005C0489810F90DF91CF911F91089580910E
:101BA000B9060E94B0028091C0069091C106612FD3
:101BB0006068DC01ED91FC910190F081E02D0995C8
:101BC0008091C0069091C1060E94000661E080915C
:101BD000B9060E9411021092A4058093A30580917A
:101BE000C0069091C106DC01ED91FC910084F18565
:101BF000E02D0995892B69F28091C0069091C1066C
:101C0000DC01ED91FC910284F385E02D0995898337
:101C10008091C0069091C106DC01ED91FC91008499
:101C2000F185E02D0995B5CFCF93C82F80E20E94B2
:101C3000AA0D8F70682F6C2B80E20E94A30964E6C6
:101C400070E080E090E0CF910C941D05EF92FF9240
:101C50001F93CF93DF9361E08091C8060E945C04DC
:101C60006AEF70E080E090E00E941D052FB7F894C5
:101C700080917F0490918004A0918104B0918204AE
:101C80002FBF4091CB065091CC066091CD0670914C
:101C9000CE0684179507A607B70740F41092CB0627
:101CA0001092CC061092CD061092CE062091CF064F
:101CB000211118C04091CB065091CC066091CD0601
:101CC0007091CE06841B950BA60BB70B803D9740F9
:101CD000A105B10538F481E0DF91CF911F91FF900C
:101CE000EF9008951092CF062FB7F89480917F045B
:101CF00090918004A0918104B09182042FBF8093C1
:101D0000CB069093CC06A093CD06B093CE0610924E
:101D1000C6061092C5061092C4061092C306109211
:101D2000C20661E08091C8060E94BC0460E0809118
:101D3000C8060E945C0464E170E080E090E00E94CC
:101D40001D0561E08091C8060E945C048BE990E06B
:101D50000197F1F760E08091C8060E94BC0410E092
:101D600081E0C0E0D0E0E82EF12C8091C8060E940E
:101D700033048E159F0519F4DF5FDF3FB1F78091C3
:101D8000C8060E943304DF3FC1F0C43098F0C0FDA4
:101D900011C0E12FE695E695E695F0E0EE53F94F98
:101DA0009081990F90832091CA062D1710F49160AD
:101DB00090831F5FCF5FC535A9F61832B8F0409108
:101DC000C6062091C2068091C306280F3327331F11
:101DD0008091C406280F311D8091C506820F932F74
:101DE000911D99274817190609F475CF80E074CF23
:101DF0001F93CF93DF93182FC82FD0E0AE0163E875
:101E000074E088E894E00E94F51DE3E8F4E08FEFC9
:101E1000808385E5818382E0810F828387E08383ED
:101E20001483AE014B5F5F4FBF0180E196E0DF910D
:101E3000CF911F910C94FD02EF92FF920F931F938D
:101E4000CF93DF93EB010E949F0C8091A3059091AB
:101E5000A405891B990B8C179D078CF003E814E0EF
:101E6000CE018D579B4F7C010E151F0581F08DEA29
:101E700096E00E949105F80181938F01F5CFDF91E3
:101E8000CF911F910F91FF90EF900C94EA098C2F46
:101E9000DF91CF911F910F91FF90EF900C94F80E6E
:101EA000FB0101900020E9F73197AF01461B570B6A
:101EB000DC01ED91FC910280F381E02D09940F93F8
:101EC0001F93CF93DF938C01D0E0C0E061157105C3
:101ED00019F00E94500FEC016EEC73E0C8010E94F3
:101EE000500F8C0F9D1FDF91CF911F910F9108957F
:101EF0008091C9068A30C1F488E30E94B00261EE85
:101F00008DEA96E00E94D10568E08DEA96E00E9495
:101F1000D10560E08DEA96E00E94D1058DEA96E059
:101F20000E94000690E0089567E273E080E196E089
:101F30000E945F0F90E080E008951F920F920FB60D
:101F40000F9211242F933F934F935F936F937F933F
:101F50008F939F93AF93BF93EF93FF9380916A0406
:101F600090916B04A0916C04B0916D04892B8A2B25
:101F70008B2BD1F190916904E0916704F091680492
:101F800080818927808380916A0490916B04A0915D
:101F90006C04B0916D04181619061A061B069CF401
:101FA00080916A0490916B04A0916C04B0916D04CF
:101FB0000197A109B10980936A0490936B04A093DF
:101FC0006C04B0936D04FF91EF91BF91AF919F911D
:101FD0008F917F916F915F914F913F912F910F90D2
:101FE0000FBE0F901F90189580910001E2ECF0E079
:101FF000E4919FEF90930001E13051F030F0E23036
:1020000069F060E00E945C04DECF10926E00F9CFB0
:1020100090916F009D7F90936F00F3CF909170002F
:102020009D7F9093700091E09093B0009091B100EB
:10203000987F94609093B1001092B300E2CF1F920A
:102040000F920FB60F9211242F933F934F935F93EC
:102050006F937F938F939F93AF93BF93EF93FF9370
:1020600080E196E00E947B03FF91EF91BF91AF91D9
:102070009F918F917F916F915F914F913F912F91A0
:102080000F900FBE0F901F9018951F920F920FB6D2
:102090000F9211242F938F939F93EF93FF93E091CF
:1020A0002006F09121068081E0912606F091270616
:1020B00082FD1BC09081809129068F5F8F732091D4
:1020C0002A06821741F0E0912906F0E0E05FF94F1F
:1020D000958F80932906FF91EF919F918F912F917A
:1020E0000F900FBE0F901F9018958081F4CF1F9214
:1020F0000F920FB60F9211242F933F938F939F93BC
:10210000AF93BF9380917F0490918004A09181044C
:10211000B09182043091620423E0230F2D3758F5EB
:102120000196A11DB11D2093620480937F049093BA
:102130008004A0938104B093820480916304909101
:102140006404A0916504B09166040196A11DB11DBF
:102150008093630490936404A0936504B093660431
:10216000BF91AF919F918F913F912F910F900FBE93
:102170000F901F90189526E8230F0296A11DB11D00
:10218000D2CF1F920F920FB60F9211242F933F932D
:102190004F935F936F937F938F939F93AF93BF936F
:1021A000EF93FF938091B900887F803609F44AC08D
:1021B000F0F5883209F4A7C018F5803109F49BC006
:1021C000B8F4882309F4F9C0883009F494C0FF9169
:1021D000EF91BF91AF919F918F917F916F915F919F
:1021E0004F913F912F910F900FBE0F901F90189518
:1021F000883109F488C0803251F780930D0614C0ED
:10220000803409F49DC040F48033B9F38833F9F683
:1022100080930D0685ECB0C0803509F485C0883503
:1022200009F496C0883499F60E945005D0CF8839B9
:1022300009F48CC038F5883729F050F4883611F04D
:10224000803729F683E080930F061092610457C00F
:10225000883809F47BC0803919F0803809F0B7CF8D
:1022600080916104803208F071C0E091610481E0E6
:102270008E0F809361048091BB00F0E0EF5BFB4F19
:1022800080833DC0803B39F0E0F4803A09F479C0A6
:10229000883A09F09CCF84E080930F0610924004A6
:1022A00010923F04E091A105F091A205099580915B
:1022B0003F0481110FC081E080933F0410921F04FE
:1022C00009C0803C09F4A6CF883C09F4A3CF883B21
:1022D00009F07DCFE091400481E08E0F80934004AF
:1022E000F0E0E15EFB4F80818093BB009091400461
:1022F00080913F0429C080910A068093BB0085EC41
:102300008093BC0064CF90910C0680910B069817C7
:1023100058F5E0910C0681E08E0F80930C06F0E0FA
:10232000E751FA4F8081E9CFE0910C0681E08E0FF2
:1023300080930C068091BB00F0E0E751FA4F808358
:1023400090910C0680910B069817C8F285E8D8CFBB
:10235000E0910C0681E08E0F80930C068091BB000B
:10236000F0E0E751FA4F808380910E0681115CCF37
:1023700081E08093090684EA8093BC0010920F06E6
:1023800026CF85EC8093BC0010920F0680916104EB
:10239000803230F4E0916104F0E0EF5BFB4F10829B
:1023A0006091610470E0E0919F05F091A00581E4E7
:1023B00094E00995109261040ACF10920D0634CF73
:1023C000CF93109213061092120688EE93E0A0E0CD
:1023D000B0E08093140690931506A0931606B09370
:1023E00017062BEF32E0309311062093100625ECF0
:1023F00030E030931D0620931C0624EC30E030932F
:102400001F0620931E0620EC30E030932106209317
:10241000200621EC30E0309323062093220622ECA4
:1024200030E0309325062093240626EC30E03093EC
:102430002706209326061092290610922A0610924B
:102440002B0610922C061092B0061092AF068093C5
:10245000B1069093B206A093B306B093B4068DE094
:1024600093E09093AE068093AD061092D30610923F
:10247000D20610920807109209078FE193E090931B
:10248000D1068093D0061092D5061092D4061092F1
:10249000E9061092EC061092E0061092E106109206
:1024A000E2061092E3068FEF8093EA068093EE0631
:1024B000E2EFF6E088E097E0CFEFC1938E179F0739
:1024C000E1F788EA96E09093D9068093D8068DE9E3
:1024D00097E09093DB068093DA0684E598E090938A
:1024E000DD068093DC0687EA98E09093DF06809310
:1024F000DE0630E020E040E069E084ED96E00E94F6
:10250000A806C093FD06C093FE06C093FF0683E0B5
:102510008093C8068BE08093C90686E08093CA0644
:1025200081E08093CF06CF910895CF93DF93CDB70D
:10253000DEB76E970FB6F894DEBF0FBECDBF7894AE
:1025400084B5826084BD84B5816084BD85B58260B8
:1025500085BD85B5816085BD80916E008160809369
:102560006E001092810080918100826080938100D2
:1025700080918100816080938100809180008160E2
:10258000809380008091B10084608093B10080913D
:10259000B00081608093B00080917A008460809365
:1025A0007A0080917A00826080937A0080917A002C
:1025B000816080937A0080917A00806880937A00AD
:1025C0001092C10014BE0FB6F894A89580916000D7
:1025D000886180936000109260000FBE61E085E02A
:1025E0000E94BC0444E650E06BE072E085E00E948B
:1025F000040AE0912006F091210682E08083E091B8
:102600001C06F0911D061082E0911E06F0911F0637
:1026100080E1808310922806E0912406F09125063F
:1026200086E08083E0912206F0912306808180611C
:102630008083E0912206F091230680818860808368
:10264000E0912206F0912306808180688083E091EA
:102650002206F091230680818F7D808380EA96E8B0
:10266000A1E0B0E08093E0069093E106A093E2063B
:10267000B093E306E091D806F091D90630E020E06F
:1026800040E06AE084ED96E00995CE01019628E0ED
:10269000DC011D922A95E9F70E94BA02E091D80662
:1026A000F091D90630E020E040E06BE084ED96E068
:1026B0000995E091D806F091D90630E020E041E09C
:1026C0006DE084ED96E0099583EC90E09093E5064B
:1026D0008093E4066CE473E080ED96E00E945F0F67
:1026E0008091C9068A3009F09CC064EF71E080E0F7
:1026F00090E00E941D058091C9068A3061F488E34C
:102700000E94B0026AEB8DEA96E00E94D1058DEA44
:1027100096E00E9400066CE271E080E090E00E948A
:102720001D050E94780F892B31F064E573E080E18C
:1027300096E00E945F0F64EF71E080E090E00E94FD
:102740001D0506E010E08091C9068A3009F062C0DC
:1027500061E070E088E390E00E949F0C2AE0E22EA6
:10276000F12C8091A3059091A405891B990B0197E9
:1027700061F0B1E0EB1AF10809F444C061E070E0E7
:1027800080E090E00E941D05ECCF8DEA96E00E946B
:10279000910583FD58C069E873E080E196E00E94EE
:1027A0005F0F8091C9068A3061F488E30E94B0020D
:1027B0006AEB8DEA96E00E94D1058DEA96E00E94D0
:1027C000000664EF71E080E090E00E941D050E9429
:1027D000780F892B31F064E573E080E196E00E9488
:1027E0005F0F64EF71E080E090E00E941D050150F2
:1027F000110909F0A8CF61ED73E080E196E00E9435
:102800005F0FFFCF64E773E080E196E00E945F0F07
:1028100080E0BFCF67E273E080E196E00E945F0F47
:10282000BACF60E08091C8060E94BC0461E080914C
:10283000C8060E945C041092CB061092CC0610923F
:10284000CD061092CE060E948A0487E70E94B0024D
:1028500060ED8DEA96E00E94D1058DEA96E00E9437
:10286000000661E070E087E790E00E949F0C909185
:10287000A3058091A4059817F1F38DEA96E00E94D4
:102880009105883509F065C088E80E94A90C9093ED
:102890008405809383058AE80E94A90C909386059D
:1028A000809385058CE80E94A90C909388058093FD
:1028B00087058EE80E94A90C90938A05809389056C
:1028C00080E90E94A90C90938C0580938B0582E986
:1028D0000E94A90C90938E0580938D0584E90E9437
:1028E000A90C9093900580938F0586E90E94A90C0E
:1028F000909392058093910588E90E94A90C90938A
:102900009405809393058AE90E94A90C90939605FB
:10291000809395058CE90E94A90C9093980580936B
:1029200097058EE90E94A90C90939A0580939905CA
:1029300087E70E94B00264EF8DEA96E00E94D1051D
:102940006FE38DEA96E00E94D1058DEA96E00E9441
:1029500000068DEA96E09093C1068093C0060E941F
:102960008A041092BF061092BE0689E18093B906D0
:1029700060E88FE10E94030664E670E080E090E08A
:102980000E941D0567E080E20E94A30964E670E0F2
:1029900080E090E00E941D0560E883E20E94A309A8
:1029A00064E670E080E090E00E941D0583E20E94F2
:1029B000AA0D682F606383E20E94A30964E670E0B9
:1029C00080E090E00E941D0580E095E09093BB06BA
:1029D0008093BA0680E790E00E94140E64E670E0EF
:1029E00080E090E00E941D0580E490E00E94140EBB
:1029F0006BE973E080E196E00E945F0FFE01319683
:102A0000FA87E98780E196E00E945B0318161906B1
:102A10000CF0D2C480E196E00E94390397FDCCC44B
:102A2000E0917E0421E02E0F20937E04F0E0ED572C
:102A3000FB4F80832230C9F12330D9F1213041F49A
:102A4000F4E0F09301018F3F9105E1F210927E04D2
:102A50002091010180917E048217A0F210918604DA
:102A60001B3058F530E1139FF0011124E95BFD4F55
:102A7000AEE6B4E030E11D923A95E9F7309709F0FF
:102A800023C1113809F406C408F07CC0153009F4DC
:102A900096C108F042C0123009F470C170F51130CF
:102AA00009F45FC110927E04ADCF8535910571F6B2
:102AB000CFCF8D5F80930101CBCF8FE7810F89301E
:102AC00060F4412F4158550BFA0194E0EE0FFF1FBF
:102AD0009A95E1F7E954FE4FCBCFF0E0E0E01B3FE1
:102AE00038F2812F8B5F990BFC0184E0EE0FFF1F02
:102AF0008A95E1F7E959FE4FBBCF133009F451C174
:102B0000143081F660916E046C5F70E06D577B4FFE
:102B100080ED96E00E945F0F41C1183009F4CDC1ED
:102B2000C8F4163009F45AC1173009F0BBCF0E941F
:102B3000260E882351F08091C9068B3009F48FC18D
:102B400020F08551823008F497C160E070E080EC9D
:102B50009FE78CC1193009F4B3C11A3009F0A2CF34
:102B6000E0916E04F0E0ED57FB4F8481813009F471
:102B700085C308F461C3823009F486C360E070E065
:102B8000CB0144C1163809F4D0C328F5133809F431
:102B90009FC308F482C3143809F4C4C3153809F07C
:102BA00081CF10E0F12CE12C812F0E94B0028DEA40
:102BB00096E00E940006811107C0F701ED57FB4F18
:102BC0001083C70101967C011F5F1F3769F78E2DA7
:102BD0000E94F80E67CF193809F4D9C308F063C012
:102BE000173809F4C2C3183809F05CCF81E00E949D
:102BF000F8099C01E0916E04F0E0ED57FB4F8481F1
:102C00002115310511F421E030E092EF980F8E305C
:102C100008F4982F9770592F506460E070E0CB0152
:102C2000F0E0E0E050937C0040917A0040644093F3
:102C30007A0040917A0046FDFCCFA0917800409147
:102C40007900D42ECA2E0D2C000CEE08FF086C0D56
:102C50007D1D8E1D9F1D31962E173F0719F750E0E1
:102C600040E00E94021CA1E7B2E00E944A1CDC0185
:102C7000CB0127E0B695A795979587952A95D1F72B
:102C80002FEF2093830435E53093840423E02093D1
:102C9000850422E02093860480938704909388041F
:102CA00046E050E0BEC21E3F09F481C31F3F09F059
:102CB000F9CE88E198E00FB6F894A895809360006B
:102CC0000FBE90936000FFCF0EE6C02E04E0D02E22
:102CD000BF01605F7F4F90E080E030E0419144238E
:102CE00009F4CFCED6018D936D01AF01415051094A
:102CF000DA014C914C34D9F094F44434D1F0463498
:102D0000B1F0423409F40196AC014C5F5F4F2417D7
:102D1000350708F4C7CEE617F70701F7B2CE4236FB
:102D2000B1F0433741F0433579F70296EDCF049681
:102D3000EBCF0896E9CFAC0149575B4FDA010D9014
:102D40000020E9F7841B950B8A0F9B1FDDCFAC0198
:102D50004D575B4FDA0114964C910196840F911DEB
:102D6000D3CF81E00E94F8098C0180E00E94F8092D
:102D7000A801BC0185E00E94040A10C0E0916F0424
:102D8000F0E0ED57FB4F8481E0916E04F0E0ED57E9
:102D9000FB4F948190930807809309070E94EA09EA
:102DA00081CE60916E046C5F70E06D577B4F611552
:102DB0007105A1F380ED96E00E94500FEFCF88E0FF
:102DC000E985FA8511928A95E9F7CE0101960E946C
:102DD000BA021092080710920907E0CF0E94260E4F
:102DE000882341F08091C9068B3049F018F0855155
:102DF000823078F060E070E080EC9FE707C060917F
:102E0000C40670E090E080E00E94F71A0E94C309B7
:102E100049CE1091C406612F6F7770E090E080E09A
:102E20000E94F91A20E030E040E853E40E94851B3C
:102E30006B017C016091C50670E090E080E00E942B
:102E4000F91AA70196010E94EA1920E030E040E259
:102E500051E40E94561A17FFD9CF9058D7CF6091EE
:102E6000C20670E090E080E00E94F71A0E94C81A43
:102E7000862F0E94D80916CE6091C20670E090E0BD
:102E800080E00E94F71A20E030E040E853E40E941E
:102E9000851B6B017C016091C30670E090E080E0CF
:102EA0000E94F91AA70196010E94EA1920E030E079
:102EB00040E251E40E94561AD9CF0E94300DA6CFAD
:102EC0000E94300D87EF0E94D90C9B01AC01B4E049
:102ED0005595479537952795BA95D1F72B8F3C8F08
:102EE0004D8F5E8F80919B0590919C05A0919D05D3
:102EF000B0919E056C017D01FF0CCC08DC2C7601A5
:102F00009C01AD016C2D7C2D8C2D9C2D345F41409E
:102F10005109610971098109910919012A013B01CE
:102F20004C0159016A017B018C010E945D1C2B87B9
:102F30003C874D875E876F87788B898B9A8B309122
:102F4000940520919305932F990F990BAB84BC8422
:102F50006A017B01082F1A89492F592F692F792F70
:102F6000892F0E945D1C2B8B3C8B4D8B5E8B6F8B56
:102F7000788F898F9A8F3091920520919105932FA8
:102F8000990F990B5101620173018401492F592F47
:102F9000692F792F892F0E945D1C01E10E948C1DF1
:102FA000AB88BC88CD88DE88EF88F88C098D1A8DB7
:102FB0000E94C21D59016A017B01E82F192F30912F
:102FC000900520918F05932F990F990B492F592F19
:102FD000692F792F892F03E20E948C1D0E2F0E94EA
:102FE000C21D2B8B3C8B4D8B5E8B6F8B788F898FAB
:102FF0009A8F30918C0520918B05932F990F990B07
:103000005101620173018401492F592F692F792FD2
:10301000892F0E945D1C0CE00E948C1D19012A0161
:103020003B014C0130918E0520918D05932F990F16
:10303000990BAB84BC84CD84DE84EF84F888098945
:103040001A89492F592F692F792F892F0E945D1CCA
:1030500008E00E94A51D51016201730184010E94D4
:10306000C21D70588F4F9F4F2090890530908A0560
:103070005101C12CD12CE12CF12C00E010E00E9478
:103080005D1C01E20E94A51D19012A013B014C01B2
:10309000A0E00E94D41D09F4CBC080E090E0A0E144
:1030A000B0E02B8D3C8D4D8D5E8D821B930BA40B60
:1030B000B50B6C017D01FF0CCC08DC2C76019C016A
:1030C000AD016C2D7C2D8C2D9C2D0FE10E948C1D53
:1030D000AB88BC88CD88DE88EF88F88C098D1A8D86
:1030E0000E94CB1DE5E3AE2EFCE0BF2EC12CD12CFF
:1030F000E12CF12C00E010E00E945D1C5101620106
:10310000730184010E94B71C2B873C874D875E8723
:103110006F87788B898B9A8B0DE00E94A51D322ECC
:10312000432E542E652E762E872E982E292E3091E2
:103130009A0520919905932F990F990BA32CB42CE4
:10314000C52CD62CE72CF82C092D122D492F592FE0
:10315000692F792F892F0E945D1C0E945D1C09E157
:103160000E94A51DAB84BC84CD84DE84EF84F888E6
:1031700009891A890E94C21D19012A013B014C01CB
:103180003091980520919705932F990F990B492F0E
:10319000592F692F792F892F0E945D1C03E10E940E
:1031A000A51D59016A017B018C019101A201B301A6
:1031B000C4010E94C21D08E00E94A51D59016A01B8
:1031C0007B01E82F192F3091960520919505932FBB
:1031D000990F990B492F592F692F792F892F04E0C7
:1031E0000E948C1D0E2F0E94C21D49015A01892C7C
:1031F0009A2CAB2CBB243FEF3093830445E54093DE
:10320000840485E08093850483E080938604809223
:10321000870490928804A092890410928A0448E05E
:1032200050E063E874E080E196E00E94FD023ACC51
:10323000812C912C5401DFCF88E20E94AA0D182F17
:1032400089E20E94AA0D782F612F072E000C880BAF
:10325000990B0E94F91A6B017C016091BA0670917A
:10326000BB06072E000C880B990B0E94F91A9B01D4
:10327000AC01C701B6010E94561AC8CD8AE20E946D
:10328000AA0D182F8BE2DDCF8CE20E94AA0D182F19
:103290008DE2D7CF0E948A0481CDE0916E04F0E0E8
:1032A000ED57FB4F84810E94B00260916F0470E083
:1032B000FB01E957FB4F408150E068577B4F8DEA97
:1032C00096E00E94A4058DEA96E00E940006D1CD0A
:1032D000E0916E04F0E0ED57FB4F84810E94B00254
:1032E00060916F0470E0FB01E957FB4F408150E0B3
:1032F00068577B4F8DEA96E00E94A40580E00E940B
:103300005302E0917004F0E0ED57FB4F648170E0F0
:10331000E0916E04F0E0ED57FB4F848190E00E9455
:103320001C0FC0CBE0916F04EECF00916E0410E053
:10333000F801E957FB4FC080D12C08571B4F78018B
:10334000C701801B910B8C159D050CF027CD61E00A
:10335000D7018C910E94BC04F701618180810E9499
:103360005C04F2E0EF0EF11CEBCFE0916E04F0E0B4
:10337000ED57FB4F60E084810E94BC04E0916E0435
:10338000F0E0ED57FB4F84810E94330472CD82E060
:103390000E94F8098C0181E00E94F809E0916E0416
:1033A000F0E0ED57FB4FA801BC018481E4CC4BE178
:1033B00050E065EB73E037CF80E090E0892B09F4B3
:1033C00021CB0E946703882309F41CCB0E940000D4
:1033D00019CB5058BB27AA270E94011A0C944B1BEB
:1033E0000E943D1B38F00E94441B20F039F49F3F9F
:1033F00019F426F40C943A1B0EF4E095E7FB0C94B8
:10340000341BE92F0E945C1B58F3BA17620773073D
:103410008407950720F079F4A6F50C947E1B0EF432
:10342000E0950B2EBA2FA02D0B01B90190010C01D4
:10343000CA01A0011124FF27591B99F0593F50F4EC
:10344000503E68F11A16F040A22F232F342F442744
:10345000585FF3CF469537952795A795F04053953C
:10346000C9F77EF41F16BA0B620B730B840BBAF00C
:103470009150A1F0FF0FBB1F661F771F881FC2F777
:103480000EC0BA0F621F731F841F48F4879577958B
:103490006795B795F7959E3F08F0B0CF9395880F45
:1034A00008F09927EE0F9795879508950E946A1A5C
:1034B0000C944B1B0E94441B58F00E943D1B40F093
:1034C00029F45F3F29F00C94341B51110C947F1B9D
:1034D0000C943A1B0E945C1B68F39923B1F35523AB
:1034E00091F3951B550BBB27AA2762177307840717
:1034F00038F09F5F5F4F220F331F441FAA1FA9F3AD
:1035000035D00E2E3AF0E0E832D091505040E6959A
:10351000001CCAF72BD0FE2F29D0660F771F881FFB
:10352000BB1F261737074807AB07B0E809F0BB0BEE
:10353000802DBF01FF2793585F4F3AF09E3F510502
:1035400078F00C94341B0C947F1B5F3FE4F3983E9F
:10355000D4F3869577956795B795F7959F5FC9F7EB
:10356000880F911D9695879597F90895E1E0660F6C
:10357000771F881FBB1F621773078407BA0720F0E5
:10358000621B730B840BBA0BEE1F88F7E09508954E
:103590000E94641B88F09F5798F0B92F9927B75164
:1035A000B0F0E1F0660F771F881F991F1AF0BA95E7
:1035B000C9F714C0B13091F00E947E1BB1E00895AC
:1035C0000C947E1B672F782F8827B85F39F0B93F9E
:1035D000CCF3869577956795B395D9F73EF490959A
:1035E0008095709561957F4F8F4F9F4F0895E89418
:1035F00009C097FB3EF490958095709561957F4F3B
:103600008F4F9F4F9923A9F0F92F96E9BB279395E8
:10361000F695879577956795B795F111F8CFFAF4F8
:10362000BB0F11F460FF1BC06F5F7F4F8F4F9F4F29
:1036300016C0882311F096E911C0772321F09EE887
:10364000872F762F05C0662371F096E8862F70E0ED
:1036500060E02AF09A95660F771F881FDAF7880FC7
:103660009695879597F9089597F99F6780E870E098
:1036700060E008959FEF80EC089500240A941616E8
:10368000170618060906089500240A941216130650
:10369000140605060895092E0394000C11F48823DE
:1036A00052F0BB0F40F4BF2B11F460FF04C06F5FFA
:1036B0007F4F8F4F9F4F089557FD9058440F551FD0
:1036C00059F05F3F71F04795880F97FB991F61F0A4
:1036D0009F3F79F087950895121613061406551F1B
:1036E000F2CF4695F1DF08C0161617061806991F87
:1036F000F1CF86957105610508940895E894BB277C
:1037000066277727CB0197F908950E94981B0C94A0
:103710004B1B0E943D1B38F00E94441B20F0952358
:1037200011F00C94341B0C943A1B11240C947F1B45
:103730000E945C1B70F3959FC1F3950F50E0551FDD
:10374000629FF001729FBB27F00DB11D639FAA27F6
:10375000F00DB11DAA1F649F6627B00DA11D661F45
:10376000829F2227B00DA11D621F739FB00DA11D66
:10377000621F839FA00D611D221F749F3327A00D20
:10378000611D231F849F600D211D822F762F6A2FBC
:1037900011249F5750409AF0F1F088234AF0EE0F21
:1037A000FF1FBB1F661F771F881F91505040A9F74E
:1037B0009E3F510580F00C94341B0C947F1B5F3F9F
:1037C000E4F3983ED4F3869577956795B795F7958A
:1037D000E7959F5FC1F7FE2B880F911D9695879502
:1037E00097F90895DB018F939F930E944A1CBF9124
:1037F000AF91A29F800D911DA39F900DB29F900D40
:1038000011240895A1E21A2EAA1BBB1BFD010DC0B5
:10381000AA1FBB1FEE1FFF1FA217B307E407F50780
:1038200020F0A21BB30BE40BF50B661F771F881F5C
:10383000991F1A9469F760957095809590959B01F2
:10384000AC01BD01CF010895052E97FB1EF4009435
:103850000E943B1C57FD07D00E94021C07FC03D0AE
:103860004EF40C943B1C50954095309521953F4F5C
:103870004F4F5F4F089590958095709561957F4F5C
:103880008F4F9F4F08950E94E61DB7FF0895821B3A
:10389000930B08950E94E61DA59F900DB49F900D77
:1038A000A49F800D911D11240895B7FF0C944A1C0C
:1038B0000E944A1C821B930B0895DF93CF931F93A2
:1038C0000F939A9DF02D219FF00D8B9DF00D8A9DF9
:1038D000E02DF10D039FF00D029FE00DF11D4E9DB7
:1038E000E00DF11D5E9DF00D4F9DF00D7F936F93E8
:1038F000BF92AF925F934F93D5010E94E61D8B015B
:10390000AC01D7010E94E61DEB01E80FF91FD601BB
:103910000E94AC1C2F913F91D6010E94E61DC60F5C
:10392000D71FE81FF91FAF91BF910E94AC1C2F91C8
:103930003F910E94E61DC60FD71FE81FF91FD60151
:103940000E94E61DE60FF71F9801BE01CF010F91FF
:103950001F91CF91DF9108950E94E61D460F571FDA
:10396000C81FD91F08F431960895689401C0E894DF
:10397000F92FF12B12F00C94E91CA0E0B0E0E3EC7D
:10398000FCE10C945B1D092E059422F40E94451D58
:10399000112392F4F0E80F26FFEFE094F0940095E5
:1039A0001095B094C094D094A194BF0ACF0ADF0AB6
:1039B000EF0AFF0A0F0B1F0B0E94F41C07FC0E946A
:1039C000451DCDB7DEB7ECE00C94771D689401C0BF
:1039D000E8948F929F92CF93DF930E94F41CDF9123
:1039E000CF919F908F90089588249924F401E40149
:1039F000B0E49F93AA279A158B049C04ED05FE055D
:103A0000CF05D007A10798F4AD2FDC2FCF2FFE2FC5
:103A1000E92D982C892E982F872F762F652F542FDC
:103A2000432F322F2227B85031F7BF9127C01B2ECA
:103A3000BF91BB27220F331F441F551F661F771FDF
:103A4000881F991F881C991CEE1FFF1FCC1FDD1FAC
:103A5000AA1FBB1F8A149B04EC05FD05CE05DF05DC
:103A6000A007B10748F08A189B08EC09FD09CE09A8
:103A7000DF09A00BB10B21601A94E1F62EF494013A
:103A8000AF01BE01CD01000C089560957095809541
:103A9000909530954095509521953F4F4F4F5F4FF2
:103AA0006F4F7F4F8F4F9F4F08952F923F924F92AE
:103AB0005F926F927F928F929F92AF92BF92CF92BE
:103AC000DF92EF92FF920F931F93CF93DF93CDB7C7
:103AD000DEB7CA1BDB0B0FB6F894DEBF0FBECDBF3F
:103AE00009942A88398848885F846E847D848C8410
:103AF0009B84AA84B984C884DF80EE80FD800C8119
:103B00001B81AA81B981CE0FD11D0FB6F894DEBFFB
:103B10000FBECDBFED010895002E083090F0982F14
:103B2000872F762F652F542F432F322F22270850AF
:103B3000F4CF220F331F441F551F661F771F881FA6
:103B4000991F0A95B2F7002D089597FD1094002E45
:103B5000083098F00850232F342F452F562F672F09
:103B6000782F892F912DF4CF159497958795779578
:103B7000679557954795379527950A95AAF7112484
:103B8000002D08952A0D3B1D4C1D5D1D6E1D7F1DD2
:103B9000801F911F08952A193B094C095D096E0980
:103BA0007F09800B910B08950024A7FD00942A172C
:103BB00030054005500560057005800590050895A5
:103BC000EE0FFF1F0590F491E02D0994A29FB00124
:103BD000B39FC001A39F700D811D1124911DB29F41
:103BE000700D811D1124911D08956817790768F4DF
:103BF000FB01DC01E40FF51FA40FB51F02C002900A
:103C00000E9241505040D8F708950C94071EFB01C6
:103C1000DC0102C001900D9241505040D8F7089548
:043C2000F894FFCF46
:103C2400FF041815A015C019FF1815A115C819FF10
:103C34001815AE19FF1815AF19FF1815AE15D516BE
:103C44008015A8163F15D316001540158D161415AA
:103C540020160015A115C815DA1612158116CF15F0
:103C6400D916F115DB1640152E15A415A619FF005B
:103C740001140A6464323200127A00000428961097
:103C84000800008000400000000000000000000068
:103C94000000000000000000000000000000000020
:103CA400000000000000007373000000000000002A
:103CB4000000000000000000000000000000000000
:103CC40000000000000000000000000000000000F0
:103CD400000000000000004242000000000000005C
:103CE400000000000000004262000000000000002C
:103CF40000000000000000426242000000000000DA
:103D0400000000000000004242000000000000002B
:103D1400000000000000000000000000000000009F
:103D2400000000000000006200000000000000002D
:103D3400000000000000004200000000000000003D
:103D440000000000000000425300000000000000DA
:103D54000000000000000042535300000000000077
:103D6400000000000000000000000000000000004F
:103D74000000000000000053530000000000000099
:103D840000000000000000424200000000000000AB
:103D940000000000000000730000000000000000AC
:103DA400000000000000007300000000000000009C
:103DB40000000000000000000000000000000000FF
:103DC40000000000000000000000000000000000EF
:103DD40000000000000000000000000000000000DF
:103DE40000000000000000000000000000000000CF
:103DF40000000000000000000000000000000000BF
:103E0400000000000000004200000000000000006C
:103E140000000000000000000000009D03FD022AD5
:103E240003EA035B0339034D0300000000D105A43A
:103E3400059C0C8105EE029105820500000000122C
:103E440009730C9C0C9B0C546869732066756E6333
:103E540074696F6E206F6E6C7920737570706F72F9
:103E64007420666F722044485431300048656C6C8D
:103E74006F2021004661696C656420746F2073654E
:103E8400742073797374656D20636F6E6620726538
:103E940067200A004661696C656420746F2072654E
:103EA400616420627974650A0067657420737461C3
:103EB400747573206572726F7221005043206D6FA8
:103EC40064653A2047726F7665426567696E6E6510
:103ED400724B6974005043206D6F64653A204772D9
:103EE4006F7665426567696E6E65724B69740D0A1B
:103EF400004572726F72203A204661696C656420D5
:103F0400746F20696E6974204448542031310A006A
:00000001FF
