:100000000C94D3020C94FB020C94FB020C94FB02A4
:100010000C94FB020C94FB020C94FB020C94CB1589
:100020000C94FB020C94FB020C94FB020C94FB025C
:100030000C94FB020C94FB020C94FB020C94FB024C
:100040000C94A5160C94FB020C9473160C944D168C
:100050000C94FB020C94FB020C94FB020C94FB022C
:100060000C94EF160C94FB02000000002400270003
:100070002A000000000023002600290000000008DC
:10008000000201000003040700000000000000005F
:10009000025043206D6F64653A2047726F76654267
:1000A0006567696E6E65724B697400010204081021
:1000B00020408001020408102001020408102000E2
:1000C000000000250028002B00040404040404049C
:1000D00004020202020202030303030303000000FE
:1000E0000000000000000000000000000000000010
:1000F000000000000000000000000000007373001A
:1001000000000000000000000000000000000000EF
:1001100000000000000000000000000000000000DF
:10012000000000000000000000000000004242004B
:10013000000000000000000000000000004262001B
:1001400000000000000000000000000000426242C9
:10015000000000000000000000000000004242001B
:10016000000000000000000000000000000000008F
:10017000000000000000000000000000006200001D
:10018000000000000000000000000000004200002D
:1001900000000000000000000000000000425300CA
:1001A0000000000000000000000000000042535367
:1001B00000000000000000000000000000620000DD
:1001C000000000000000000000000000004262008B
:1001D0000000000000000000000000000053426228
:1001E000000000000000000000000000000000000F
:1001F0000000000000000000000000000053530059
:10020000000000000000000000000000004242006A
:10021000000000000000000000000000007300006B
:10022000000000000000000000000000007300005B
:1002300000000000000000000000000000000000BE
:1002400000000000000000000000000000000000AE
:10025000000000000000000000000000000000009E
:10026000000000000000000000000000000000008E
:10027000000000000000000000000000000000007E
:10028000000000000000000000000000004200002C
:1002900000000000000000000000000000207F01BE
:1002A0000100000000000000000000005E000000EF
:1002B00000000006000006000000247E24247E24A6
:1002C0000000246B2A2A6B12000046261008646284
:1002D0000000344A4A54205000000000000600008C
:1002E000000000003C42000000000000423C000012
:1002F00000002A1C3E1C2A00000008083E080800D6
:10030000000000403000000000000808080808084D
:10031000000000004000000000004020100804021F
:1003200000003C62524A463C000040447E4040008F
:10033000000064525252524C000024424A4A4A344D
:100340000000382422227E2000002E4A4A4A4A32E7
:1003500000003C4A4A4A4A300000020262120A0681
:100360000000344A4A4A4A3400000C525252523C6D
:1003700000000000240000000000004024000000F5
:1003800000000008142200000000141414141414B7
:10039000000000002214080000000402520A0400B9
:1003A000000018245A5A241800007C121212127CE1
:1003B00000007E4A4A4A4A3400003C4242424224FB
:1003C00000007E424242423C00007E4A4A4A42428B
:1003D00000007E0A0A0A020200003C4242525234E5
:1003E00000007E080808087E000000427E420000EF
:1003F000000020404040403E00007E080808146293
:1004000000007E404040404000007E040808047E1A
:1004100000007E040810207E00003C424242423C24
:1004200000007E121212120C00003C425262423C4A
:1004300000007E121212324C0000244A4A4A4A300E
:10044000000002027E02020000003E404040403EAA
:1004500000001E204040201E00007E201010207E44
:10046000000042241818244200000204780402000C
:1004700000004262524A46420000007E42420000B2
:1004800000000204081020400000000042427E00EC
:1004900000000000040204000080808080808080D2
:1004A0008000000002040000000020545454780032
:1004B00000007E484848300000003844444428008A
:1004C0000000304848487E0000003854545448002A
:1004D000000000087C0A0200000018A4A4A47C000C
:1004E00000007E0808087000000000487A40000004
:1004F0000000408080887A0000007E1010284400B0
:10050000000000427E40000000007C047804780077
:1005100000007C040404780000003844444438009F
:100520000000FC4444443800000038444444FC00CB
:1005300000007C08040404000000485454542400C3
:10054000000000043E44000000003C4040207C00CD
:1005500000001C2040201C0000001C601C601C00CF
:10056000000044281028440000001CA0A0A07C002B
:1005700000004464544C4400000000083641000070
:1005800000000000FF0000000000004136080000ED
:10059000000804040810100800000000000000001B
:1005A00000000E18002211241FBECFEFD8E0DEBFDE
:1005B000CDBF12E0A0E0B1E0E2E8FFE402C00590A8
:1005C0000D92AA35B107D9F725E0AAE5B2E001C03E
:1005D0001D92AF38B207E1F712E0C2EDD2E004C0DD
:1005E0002197FE010E945826C13DD107C9F70E94FC
:1005F000E6180C94B4270C94000080E0089591E074
:1006000090931704809339041092180410923A04BE
:1006100008951F93CF93DF9300D000D01F92CDB7E2
:10062000DEB71C8221E02B839A838983E0915505F4
:10063000F091560511891D82A0915505B09156057E
:10064000E0915905F0915A059E012F5F3F4F50965A
:100650004C916FE085E595E009958D818F5F8D83E5
:10066000811750F30F900F900F900F900F90DF9124
:10067000CF911F9108950895089580911504909148
:100680001604891B990B08959B01DC011896ED91C6
:10069000FC9141E067E10994AF92BF92CF92DF9263
:1006A000EF92FF920F931F93CF93DF936C017B0127
:1006B0008B01040F151FEB015E01AE18BF08C017B8
:1006C000D10759F06991D601ED91FC910190F0812B
:1006D000E02DC6010995892B79F7C501DF91CF91EE
:1006E0001F910F91FF90EF90DF90CF90BF90AF9050
:1006F0000895FC01538D448D252F30E0842F90E028
:10070000821B930B541710F0CF960895019708950C
:10071000FC01918D828D981761F0A28DAE0FBF2FD5
:10072000B11D5D968C91928D9F5F9F73928F90E02B
:1007300008958FEF9FEF0895FC01918D828D98179A
:1007400031F0828DE80FF11D858D90E008958FEFD7
:100750009FEF0895FC01918D228D892F90E0805CA0
:100760009F4F821B91098F739927089587E894E022
:100770000E94AA0321E0892B09F420E0822F08952A
:1007800080E090E0892B29F00E94B60381110C943F
:1007900000000895FC01A48DA80FB92FB11DA35A24
:1007A000BF4F2C91848D90E001968F739927848F91
:1007B000A689B7892C93A089B1898C9183708064B4
:1007C0008C93938D848D981306C00288F389E02D55
:1007D00080818F7D80830895EF92FF920F931F9306
:1007E000CF93DF93EC0181E0888F9B8D8C8D9813E4
:1007F0001AC0E889F989808185FF15C09FB7F894F0
:10080000EE89FF896083E889F9898081837080643B
:1008100080839FBF81E090E0DF91CF911F910F9186
:10082000FF90EF900895F62E0B8D10E00F5F1F4F95
:100830000F731127E02E8C8D8E110CC00FB607FCA4
:10084000FACFE889F989808185FFF5CFCE010E9432
:10085000CA03F1CFEB8DEC0FFD2FF11DE35AFF4FD3
:10086000F0829FB7F8940B8FEA89FB8980818062C0
:10087000CFCFCF93DF93EC01888D8823B9F0AA897D
:10088000BB89E889F9898C9185FD03C0808186FD4B
:100890000DC00FB607FCF7CF8C9185FFF2CF80819A
:1008A00085FFEDCFCE010E94CA03E9CFDF91CF9142
:1008B0000895833081F028F4813099F08230A9F0D6
:1008C00008958730A9F08830C9F08430B1F4809160
:1008D00080008F7D03C0809180008F77809380009F
:1008E000089584B58F7784BD089584B58F7DFBCF3F
:1008F0008091B0008F778093B00008958091B00010
:100900008F7DF9CFCF93DF93282F30E0F901E458A2
:10091000FF4F8491F901E555FF4FD491F901E75359
:10092000FF4FC491CC23A1F081110E945904EC2FF8
:10093000F0E0EE0FFF1FEE58FF4FA591B491EC9140
:10094000ED2381E090E009F480E0DF91CF910895FC
:1009500080E090E0FACF1F93CF93DF93282F30E011
:10096000F901E458FF4F8491F901E555FF4FD49107
:10097000F901E753FF4FC491CC23A9F0162F811141
:100980000E945904EC2FF0E0EE0FFF1FE154FF4FDF
:10099000A591B4918FB7F894EC91111108C0D0953E
:1009A000DE23DC938FBFDF91CF911F910895DE2B63
:1009B000F8CFCF93DF9390E0FC01E555FF4F2491F2
:1009C00087539F4FFC0184918823C9F090E0880FE2
:1009D000991FFC01E859FF4FA591B491FC01E15426
:1009E000FF4FC591D49161110DC09FB7F8948C91C0
:1009F000209582238C938881282328839FBFDF91B1
:100A0000CF910895623051F49FB7F8943C91822FB2
:100A1000809583238C93E8812E2BEFCF8FB7F894AA
:100A2000EC912E2B2C938FBFEACF1F93CF93DF93A4
:100A3000182FEB0161E00E94D904209739F460E09F
:100A4000812FDF91CF911F910C94AB04CF3FD10543
:100A500011F461E0F5CFE12FF0E0E458FF4FE491AD
:100A6000E33031F140F4E130B1F0E230E1F0C03890
:100A7000D1057CF7E4CFE73029F1E83059F1E430D3
:100A8000B1F780918000806280938000D0938B00CA
:100A9000C0938A0004C084B5806884BDC7BDDF915F
:100AA000CF911F91089584B5806284BDC8BDF7CFF2
:100AB00080918000806880938000D0938900C093EB
:100AC0008800EDCF8091B00080688093B000C09323
:100AD000B300E5CF8091B00080628093B000C093F6
:100AE000B400DDCF3FB7F8948091D3029091D40247
:100AF000A091D502B091D60226B5A89B05C02F3F84
:100B000019F00196A11DB11D3FBFBA2FA92F982F33
:100B10008827BC01CD01620F711D811D911D42E02E
:100B2000660F771F881F991F4A95D1F708958F92F6
:100B30009F92AF92BF92CF92DF92EF92FF926B01A2
:100B40007C010E9472054B015C01C114D104E104D7
:100B5000F104B9F00E947205681979098A099B09A4
:100B6000683E73408105910580F321E0C21AD108E7
:100B7000E108F10888EE880E83E0981EA11CB11CE4
:100B8000E4CFFF90EF90DF90CF90BF90AF909F9019
:100B90008F9008952091AB02260F3327331F213207
:100BA0003105ECF420918104FC0190E080E02430D8
:100BB00069F082E00895A091AB022191AC01455704
:100BC0005D4FA40FB52FB11D2C930196861798F396
:100BD0008091AB02680F6093AB0280E0089581E0E2
:100BE00008951092810481E08093600410925B0468
:100BF00061E082E10E94AB0461E083E10E94AB040A
:100C0000E9EBF0E080818E7F808380818D7F80831F
:100C100088E48093B80085E48093BC000895109226
:100C20001604109215041092180410923A040E94AF
:100C3000F1058BE393E090931404809313048CE309
:100C400093E090931204809311040895CF93DF935F
:100C500091E090938A028823B9F0C091B800D091B6
:100C6000BA008091BC008A7B8093BC0060E082E186
:100C70000E94AB0460E083E10E94AB040E94F10596
:100C8000D093BA00C093B800DF91CF910895CF926E
:100C9000DF92EF92FF920F931F93CF93DF93D82FA2
:100CA000C62F613208F098C00E9472056B017C016A
:100CB0008091810481116BC081E0809381048093D5
:100CC00060049FEF90935F0410925E049C0F9093DA
:100CD0005D0480935C0480915C04DD0FD82BD0937D
:100CE0005C0480915B04813009F078C010925B0451
:100CF0000E9472056B017C0180915C048093BB00B3
:100D00008091830490918404A0918504B09186041D
:100D1000892B8A2B8B2BA1F00E94720500918304F2
:100D20001091840420918504309186046C197D090A
:100D30008E099F09061717072807390708F448C0C6
:100D40008091BC0083FDD8CF85EC8093BC000E94CD
:100D500072056B017C0180918104813009F440C0EF
:100D600080915E048C1710F4C0915E04EBE3F4E014
:100D7000A1E6B4E080E08C1355C08C2FDF91CF91B9
:100D80001F910F91FF90EF90DF90CF900895809189
:100D9000830490918404A0918504B0918604892BEA
:100DA0008A2B8B2B09F484CF0E9472050091830457
:100DB0001091840420918504309186046C197D097A
:100DC0008E099F09061717072807390708F070CF03
:100DD000809182040E942606C0E0CFCF85EEB5CF79
:100DE0008091830490918404A0918504B09186043D
:100DF000892B8A2B8B2B09F4AECF0E9472050091B0
:100E000083041091840420918504309186046C1928
:100E10007D098E099F09061717072807390708F06B
:100E20009ACFD6CF91919D938F5FA5CF8F929F92AE
:100E3000AF92BF92CF92DF92EF92FF920F931F93E8
:100E4000CF93DF93D0913A04D13208F0D7C0182F56
:100E5000C09139040E9472056B017C01809181046C
:100E600081116BC082E080938104109360048FEF46
:100E700080935F0410925E04D0935D04A9E1B4E016
:100E8000EBE3F4E080E0D81391C010925C04809111
:100E90005C04CC0FC82BC0935C0480915B04813050
:100EA00009F088C010925B040E9472056B017C01FE
:100EB00080915C048093BB008091830490918404B2
:100EC000A0918504B0918604892B8A2B8B2BA1F0ED
:100ED0000E9472050091830410918404209185047E
:100EE000309186046C197D098E099F090617170732
:100EF0002807390708F442C08091BC0083FDD8CF91
:100F000085EC8093BC000E9472056B017C0180918E
:100F10008104823009F450C080915F048F3F09F44E
:100F20006FC080915F04803209F46CC080915F04CF
:100F3000803309F469C084E026C0809183049091D5
:100F40008404A0918504B0918604892B8A2B8B2B75
:100F500009F484CF0E9472058090830490908404E9
:100F6000A0908504B09086046C197D098E099F09B4
:100F700086169706A806B90608F070CF80918204FD
:100F80000E94260685E01092180410923A041092EE
:100F90001704DF91CF911F910F91FF90EF90DF9099
:100FA000CF90BF90AF909F908F9008959D91919317
:100FB0008F5F69CF85EEA5CF8091830490918404E3
:100FC000A0918504B0918604892B8A2B8B2B09F480
:100FD0009ECF0E9472050091830410918404209199
:100FE0008504309186046C197D098E099F090617C6
:100FF00017072807390708F08ACFC0CF81E0C3CF91
:1010000080E0C1CF82E0BFCF83E0BDCF0895E09103
:10101000160480911504E81730F4F0E0EF59FB4F07
:10102000808190E008958FEF9FEF089590911604CE
:10103000809115042FEF3FEF981748F4E92FF0E067
:10104000EF59FB4F208130E09F5F90931604C90158
:101050000895CF92DF92EF92FF920F931F93CF9359
:10106000DF937C01CB018A0120911704222389F0B0
:10107000EB016B01C40ED51ECC15DD0569F069913D
:10108000D701ED91FC910190F081E02DC701099508
:10109000F3CF642F0E94CA05C801DF91CF911F9141
:1010A0000F91FF90EF90DF90CF900895CF93DF9353
:1010B0001F92CDB7DEB76983209117042223F9F080
:1010C00020913A04203258F021E030E0FC013383D3
:1010D000228390E080E00F90DF91CF91089580917E
:1010E0001804E82FF0E0E75EFB4F998190838F5F53
:1010F0008093180480933A0481E090E0ECCF61E0A3
:10110000CE0101960E94CA05F7CF81E00C94160724
:101110000F931F93CF93DF93082F162FC6E4D5E0CC
:1011200088810E94FF0289859A85DC01ED91FC91FE
:101130000190F081E02D602F099589859A85DC0169
:10114000ED91FC910190F081E02D612F0995898549
:101150009A85DF91CF911F910F910C9485080F9381
:101160001F93CF93DF938C01C62F642FCC32E8F40A
:10117000CA3208F041C0C83271F1C93209F442C024
:1011800080E0C034D0F1CF73F801EC0FF11D868DF3
:101190008F3F91F1C031E0F00E94820421E0892B61
:1011A00009F420E0F801218F27C0CD3289F140F306
:1011B00084EB8C0F823020F7CF73C00FD12FD11D5D
:1011C0008E8D411133C061E00E94D90460E08E8DA4
:1011D0000E94AB0411C0025E1F4FD0E0F801819164
:1011E0008F018F3F31F061E0D03108F062E00E9462
:1011F000D904DF5FD63191F781E0DF91CF911F9164
:101200000F91089570E090E080E00E949705F4CF80
:1012100085E090E0433010F082E090E0880F991F65
:10122000880F991F05970197F1F7E6CF62E00E94BA
:10123000D904E2CFDC011A96ED91FC9130E020E078
:101240000994DC011696ED91FC9130E020E040E03D
:1012500069E10994DC011696ED91FC9130E020E003
:1012600040E068E109949A01DC011696ED91FC9149
:10127000462F67E10994EF92FF920F931F93CF934C
:10128000DF931F92CDB7DEB77C018B01D8016C9143
:10129000673129F150F46531A0F40F90DF91CF91BF
:1012A0001F910F91FF90EF9008956A3118F16E3FF2
:1012B000A1F7F8014181498369E2C7010E941A0937
:1012C0000BC0F80141814983D7011696ED91FC913D
:1012D00030E020E0C70109950E5F1F4FD7CFF8011E
:1012E00081818983AE014F5F5F4F61E0C7010E943A
:1012F0003309F2CF0F5F1F4FD7011696ED91FC9186
:1013000030E020E040E0C7010995C0CF462FDC0166
:101310001696ED91FC9130E020E066E10994462FAD
:10132000DC011696ED91FC9130E020E065E1099436
:10133000EF92FF920F931F93CF93DF93EC01042F53
:1013400079016D3009F446C050F46B30C9F1693051
:1013500009F49FC06A3009F465C080E046C06E3071
:1013600009F452C06F3099F70E942A09F7011381DE
:10137000110F110F110F6C89160F60E4CE010E943E
:101380008F09612F62956F706061CE010E948F0995
:10139000612F6F70CE010E948609F7016481606B36
:1013A000CE010E948609F701408151816281660F5A
:1013B000660F660FCE010E9433090150A1F72EC0BF
:1013C0006CE171E0442311F067E171E0CE010E940D
:1013D0003B090AC0411110C060E171E00E943B0965
:1013E000E881F98182898C8B81E0DF91CF911F9117
:1013F0000F91FF90EF90089569E071E00E943B0922
:10140000E881F9818389EFCF0E942A0961E8CE0142
:101410000E948F09602FCE010E948609CE010E9492
:101420002109E2CFEA85FB8530E020E040E068E278
:10143000CE010995EE81FF8130E020E040E064E1DB
:10144000CE01099541E06BE4CE010E941A09E881C2
:10145000F981448169E2CE010E941A0940E06BE4FF
:10146000CE010E941A09E881F981448169E2CE0126
:101470000E941A0941E06BE4CE010E941A09E8813A
:10148000F981458169E2CE010E941A0961E271E0A9
:101490009DCF86E591E0998388831C8AA5CFDC01E6
:1014A0001896ED91FC9130E020E040E069E109946C
:1014B000DC011896ED91FC9130E020E040E068E11D
:1014C0000994CF93DF931F92CDB7DEB76983BE0136
:1014D0006F5F7F4F0E9444030F90DF91CF9108957B
:1014E000EF92FF921F93CF93DF93EC01162F7A01B7
:1014F0000E94580A60E4CE010E94610AE885F985DD
:101500009701412F67E1CE010995CE01DF91CF917F
:101510001F91FF90EF900C944F0AEF92FF921F9350
:10152000CF93DF93EC01142F7901663181F138F408
:10153000643109F44BC0653179F080E022C0683134
:10154000C9F150F16931C9F780918902882391F17D
:10155000CE010E944F0A2EC080918902882319F083
:10156000CE010E944F0ACE010E94580A60E0CE01CF
:101570000E94610A612FCE010E94610A81E080937E
:101580008902DF91CF911F91FF90EF900895642F12
:101590000E94610A81E0F5CF80918902882319F0C9
:1015A000CE010E944F0AA701193138F4612FCE01F4
:1015B0000E94700A10928902EDCF68E1CE010E946C
:1015C000700A185188E1E80EF11CEDCF8E898F3F2B
:1015D00011F488E78E8BE885F9859701412F64E146
:1015E000CE01DF91CF911F91FF90EF900994CF939F
:1015F000DF93EC01A889B989FD013491319694916A
:10160000319684911396FD01A4916317A8F1961762
:1016100098F1631B770B8A9FE02D1124E69FC00190
:10162000E79F900D1124280F392F311D83E0220FE1
:10163000331F8A95E1F7C9010496DA01245F3F4F11
:10164000E889F989E80FF91FE491ED930196821773
:101650009307B1F78D89882361F0FA019A01285F19
:101660003F4F8191DF01119780958C932E173F0793
:10167000C1F7DF91CF910895FA01CA01089611923E
:10168000E817F907E1F7E6CF8FB7F8948091880261
:101690008FBF0895CF93DF93EC01683181F130F46F
:1016A0006431A1F0673159F080E006C0693109F476
:1016B0003FC06032C9F781E0DF91CF91089550E0DB
:1016C000B90184E295E00E942908F5CF8C859D85BB
:1016D000AE85BF85892B8A2B8B2B71F4E881F9812C
:1016E000A585B0E020EA36E841E050E00E94AE2453
:1016F0006C877D878E879F870E940F06DCCF2C85A5
:101700003D854E855F8560E074E284EF90E00E9445
:10171000662420513109410951095695479537955D
:1017200027952093B8008E8986950E94FF02C3CF2B
:1017300084E295E00E948508BECF2F923F924F929F
:101740005F926F927F928F929F92AF92BF92CF9251
:10175000DF92EF92FF920F931F93CF93DF93CDB75A
:10176000DEB72D970FB6F894DEBF0FBECDBFDC01FC
:101770005496ED91FC915597D996DC90D997CF016D
:1017800003966A3019F5FC018491D80ED996DC9243
:10179000D997D8961C9281E090E02D960FB6F894D8
:1017A000DEBF0FBECDBFDF91CF911F910F91FF9094
:1017B000EF90DF90CF90BF90AF909F908F907F90F1
:1017C0006F905F904F903F902F90089532962490A5
:1017D000D8965C90D8975D0124E0A20EB11CF490DD
:1017E000FC01E490352C3F0CED0C81E0850D3816A2
:1017F00010F4FF24F394C62E8D01612CCE010196C6
:101800004C01462C752C242DA4016C2DC5010E9481
:10181000F70A7C86DD8691E09B879A868986D801C7
:101820001896ED91FC919E01275F3F4F41E06FE0DC
:10183000C501099543947394731428F3D3946F0CE2
:10184000DE14F8F2F80180AD820D80AFA4CF8EBD1A
:1018500000000DB407FEFDCF8EB508958CBD9DBD73
:101860000895CF93DF9320914B0530914C05232BA6
:10187000D1F0D62FC82F80914D0590914E050E9432
:101880002E0C60E080914A050E94AB048C2F0E94D0
:10189000270C8D2F0E94270C61E080914A05DF9173
:1018A000CF910C94AB04DF91CF910C948808E82F72
:1018B000F0E0ED51FD4FE081EC5FF0E0EB50FD4FCB
:1018C0009181808108952F923F924F925F926F9203
:1018D0007F928F929F92AF92BF92CF92DF92EF92C0
:1018E000FF920F931F93CF93DF9300D000D01F92EE
:1018F000CDB7DEB78B011A012A01550F66087708AC
:10190000909100018917F1F09F3F09F483C0C30152
:10191000B2010F900F900F900F900F90DF91CF9129
:101920001F910F91FF90EF90DF90CF90BF90AF90FD
:101930009F908F907F906F905F904F903F902F90EF
:101940000C949705E0E9F0E094919D8397FDDFCF3B
:1019500061E00E94D9048D81882321F09D8192301D
:1019600009F04AC14801B12CA12C60E072E18AE77C
:1019700090E0A50198010E94882429833A834B8333
:101980005C8369017A0181E0C81AD108E108F10895
:101990009FEFC916D104E104F10409F00CF401C170
:1019A00060E472E48FE090E0A50198010E94882431
:1019B00069017A0181E0C81AD108E108F1089D8126
:1019C000923009F0A2C08FEFC816D104E104F104EF
:1019D00009F00CF4E5C160E970ED83E090E0A50149
:1019E00098010E94882469017A0191E0C91AD108FE
:1019F000E108F1088FEFC816D104E104F10411F0F9
:101A00000CF07EC183E09091B100987F892B809388
:101A1000B100CFC080930001E0E9F0E094919D8394
:101A20009F3F09F474CF913041F150F0923009F4A6
:101A300046C09D8197FD6BCF61E00E94D9048ECF97
:101A400014BC15BC94B5926094BD95B5916095BDDC
:101A5000282F30E0F901E753FF4FE491F0E0EE0F5B
:101A6000FF1FE154FF4F45915491F901E555FF4F98
:101A7000E491E0937F021D826BCF10928000109260
:101A800081009091810098609093810090918100F5
:101A9000916090938100282F30E0F901E753FF4FC8
:101AA000E491F0E0EE0FFF1FE154FF4F4591549198
:101AB000F901E555FF4FE491E0937E0249CF109282
:101AC000B0001092B1009091B00092609093B0007D
:101AD0009091B10091609093B100282F30E0F9010E
:101AE000E753FF4FE491F0E0EE0FFF1FE154FF4F8B
:101AF000459154915093D8024093D702F901E5558E
:101B0000FF4FE491E093D90223CF9FEFC916D10490
:101B1000E104F10409F00CF46DC068E478EE81E0B2
:101B200090E0A50198010E94882469017A0181E072
:101B3000C81AD108E108F1089D81992309F4F9C078
:101B40008FEFC816D104E104F10411F00CF0FAC0D3
:101B5000EEC064E274EF80E090E0A50194010E9481
:101B6000882469017A0181E0C81AD108E108F108E6
:101B700085E09FEFC916D104E104F10409F008F4EF
:101B800042CF62E17AE780E090E0A50194010E94F3
:101B9000882469017A0181E0C81AD108E108F108B6
:101BA000E4C081E09D8191112ECF95B5987F892B5E
:101BB00085BD2FEF3FEFA901411451046104710469
:101BC00009F043C09D81913009F45DC0923009F461
:101BD0006CC091119CCEC7BC2093840230938502C7
:101BE000409386025093870280916E0082608093BA
:101BF0006E008DCE82E0D6CFB12CA12C60E072E1D8
:101C00008AE790E0A50198010E94882469017A0181
:101C100081E0C81AD108E108F108C114D10491E0AB
:101C2000E906F104FCF491E08D81813011F6809198
:101C30008100887F892B809381002FEF3FEFA901DE
:101C40004114510461047104F1F09801220F331F13
:101C5000D1010E94A72428EE33E040E050E00E942A
:101C60006624B0CF68E478EE81E090E0A5019801A9
:101C70000E94882469017A0181E0C81AD108E1082C
:101C8000F10893E0D1CFD0928900C09288002093D0
:101C900080023093810240938202509383028091AC
:101CA0006F00826080936F0032CEC092B3002093A9
:101CB000DA023093DB024093DC025093DD02809124
:101CC000700082608093700022CE84E09FEFC9167E
:101CD000D104E104F10409F008F467CFC980DA8087
:101CE000EB80FC808AE0F594E794D794C7948A95BA
:101CF000D1F781E0C81AD108E108F10885E055CF95
:101D000068E478EE81E090E0A50198010E948824C3
:101D100069017A0181E0C81AD108E108F1089FEF52
:101D2000C916D104E104F10411F00CF012CF84E0E3
:101D30006ACE83E09FEFC916D104E104F10409F0F3
:101D40000CF433CF62E17AE780E090E0A5019401E2
:101D50000E94882469017A0181E0C81AD108E1084B
:101D6000F1089D81992309F4B0CF86E09FEFC91651
:101D7000D104E104F10409F008F445CEC980DA8009
:101D8000EB80FC809AE0F594E794D794C7949A95F9
:101D9000D1F781E0C81AD108E108F10887E033CE15
:101DA00082E031CEAB012091DE02213029F4BC016A
:101DB00087E894E00C944C030895E5EFF2E02FEFF0
:101DC000208325E5218325E0228324E02383648387
:101DD00075838683978368E070E0CF010C94D20E00
:101DE000E5EFF2E09FEF908395E5918392E0928397
:101DF00091E09383848365E070E0CF010C94D20E70
:101E0000E5EFF2E08FEF808385E58183128263E066
:101E100070E0CF010C94D20ECF92DF92EF92FF923E
:101E20000F931F93CF93DF936C01EB017B01E40EC3
:101E3000F51E10E000E0CE15DF0561F06991D601D6
:101E4000ED91FC910190F081E02DC6010995080FFC
:101E5000191FF1CFC801DF91CF911F910F91FF9012
:101E6000EF90DF90CF900895089590E080E008957E
:101E7000613208F060E20E944706109216048093D7
:101E800015040895CF93C82F87E70E94FF026C2F97
:101E900084E295E00E94560884E295E00E9485085D
:101EA00062E070E087E790E00E94380F80911504AF
:101EB00090911604891B990B82309105ECF384E212
:101EC00095E00E941608C82F84E295E00E9416084B
:101ED00020E03C2FA901482BCA0198278927982781
:101EE000CF9108950F931F93CF93DF938C0161E0FF
:101EF00070E088E390E00E94380FCAE0D0E0809163
:101F0000150490911604891B990B019749F02197AC
:101F1000A1F061E070E080E090E00E949705EFCFD3
:101F200084E295E00E941608F801808390E080E04A
:101F3000DF91CF911F910F9108958FEF9FEFF8CF11
:101F40008F929F92AF92BF92CF92DF92EF92FF92C9
:101F5000F82E87E70E94FF026F2D84E295E00E9431
:101F6000560884E295E00E94850863E070E087E708
:101F700090E00E94380F8091150490911604891BFF
:101F8000990B83309105ECF384E295E00E941608EA
:101F9000092E000CAA0BBB0B8824982EA92EBA2E52
:101FA00084E295E00E941608092E000CAA0BBB0BD8
:101FB0006C017D01C828D928EA28FB28FE2CED2CCD
:101FC000DC2CCC2484E295E00E941608BC01990F19
:101FD000880B990B6C297D298E299F29FF90EF9002
:101FE000DF90CF90BF90AF909F908F9008958F9289
:101FF0009F92AF92BF92CF92DF92EF92FF928AEFC1
:102000000E94A00FE5EFF3E020813181C72ED82E8A
:10201000E92EFF24E7FCFA94C21AD30AE108F1087A
:1020200057E095958795779567955A95D1F7220F43
:10203000331F4B015C01821A930AA108B108A50164
:102040009401A281B3810E94B9244B015C01BBE0E1
:10205000B594A79497948794BA95D1F7A701960160
:10206000C701B6010E9442249B01AC018CE055954A
:102070004795379527958A95D1F7A481B5810E9418
:10208000B9249B01AC019EE055954795379527955E
:102090009A95D1F7280D391D4A1D5B1D208F318F70
:1020A000428F538FA5E0B0E00E94AE2460587F4F6E
:1020B0008F4F9F4F672F782F892F992787FD9A95EC
:1020C0000E94202320E030E048EC52E40E947D2270
:1020D000FF90EF90DF90CF90BF90AF909F908F9048
:1020E00008951F93CF93DF931F92CDB7DEB7182FBC
:1020F00080914B0590914C05892BF1F080914D0515
:1021000090914E050E942E0C60E080914A050E943D
:10211000AB04812F806C0E94270C80E00E94270C6A
:10212000898361E080914A050E94AB0489810F9008
:10213000DF91CF911F910895809146050E94FF0283
:1021400080914F0590915005612F6068DC01ED9101
:10215000FC910190F081E02D099580914F059091BF
:1021600050050E94850861E0809146050E9447065F
:10217000109216048093150480914F05909150059C
:10218000DC01ED91FC910084F185E02D0995892B0E
:1021900069F280914F0590915005DC01ED91FC9121
:1021A0000284F385E02D0995898380914F059091F4
:1021B0005005DC01ED91FC910084F185E02D09953D
:1021C000B5CFCF93C82F80E20E9471108F70682F17
:1021D0006C2B80E20E94310C64E670E080E090E0BD
:1021E000CF910C949705CF92DF92FF920F931F939C
:1021F000CF93DF93EC0161E08E810E94AB046AEF24
:1022000070E080E090E00E9497052FB7F8948091ED
:10221000CF029091D002A091D102B091D2022FBFF3
:1022200049855A856B857C8584179507A607B7076E
:1022300020F419861A861B861C862D85211116C04E
:1022400049855A856B857C85841B950BA60BB70B3E
:10225000803D9740A105B10548F481E0DF91CF9121
:102260001F910F91FF90DF90CF9008951D862FB79B
:10227000F8948091CF029091D002A091D102B091B8
:10228000D2022FBF89879A87AB87BC871C821B82AB
:102290001A821982188261E08E810E94D90460E05E
:1022A0008E810E94AB0464E170E080E090E00E94C7
:1022B000970561E08E810E94AB048BE490E001976A
:1022C000F1F760E08E810E94D904F12C81E010E0EA
:1022D00000E0C82ED12C8E810E9482048C159D05B1
:1022E00019F40F5F0F3FB9F78E810E9482040F3FF0
:1022F000B9F0143090F010FD10C0EF2DE695E69582
:10230000E695EC0FFD2FF11D9081990F90832885A4
:10231000201710F491609083F3941F5F1535C1F678
:1023200087E28F1590F44C8128818981280F33270B
:10233000331F8A81280F311D8B81820F932F911DAE
:1023400099274817190609F488CF80E087CF1F9393
:10235000CF93DF93182FC82FD0E0AE0165EF72E066
:102360008AEF92E00E949227E5EFF2E08FEF808300
:1023700085E5818382E0810F828387E083831483F4
:10238000BE016B5F7F4FCF01DF91CF911F910C9406
:10239000D20EEF92FF920F931F93CF93DF93EB0137
:1023A0000E94380F8091150490911604891B990B97
:1023B0008C179D078CF005EF12E0CE018B509D4FDE
:1023C0007C010E151F0581F084E295E00E9416083D
:1023D000F80181938F01F5CFDF91CF911F910F917C
:1023E000FF90EF900C94000F8C2FDF91CF911F91F5
:1023F0000F91FF90EF900C94A711FB01019000202A
:10240000E9F73197AF01461B570BDC01ED91FC91C9
:102410000280F381E02D09940F931F93CF93DF93F4
:102420008C01D0E0C0E06115710519F00E94FD112A
:10243000EC0167E572E0C8010E94FD118C0F9D1F41
:10244000DF91CF911F910F910895FC0187818A3010
:10245000C1F488E30E94FF0261EE84E295E00E94ED
:10246000560868E084E295E00E94560860E084E245
:1024700095E00E94560884E295E00E94850890E06D
:1024800008956EE971E087E894E00E940C1290E0F4
:1024900080E00895CF93DF931F92CDB7DEB7198206
:1024A000FC0187818A30A9F4CE0101960E94720F47
:1024B000892B31F063EC71E087E894E00E940C1204
:1024C000898183FB882780F990E00F90DF91CF917D
:1024D00008956EE971E087E894E00E940C1280E0B4
:1024E000F3CF0F931F93CF93DF93EC018F818A304B
:1024F00009F065C064EF71E080E090E00E9497050C
:102500008F818A3061F488E30E94FF026AEB84E2E3
:1025100095E00E94560884E295E00E9485086CE2EE
:1025200071E080E090E00E949705CE010E942512A4
:10253000892B31F068ED71E087E894E00E940C127D
:1025400064EF71E080E090E00E94970506E010E003
:10255000CE010E944A12892BC1F568EF71E087E82D
:1025600094E00E940C128F818A3061F488E30E940B
:10257000FF026AEB84E295E00E94560884E295E04F
:102580000E94850864EF71E080E090E00E9497056A
:10259000CE010E942512892B31F068ED71E087E8A9
:1025A00094E00E940C1264EF71E080E090E00E94E1
:1025B00097050150110961F68FEF9FEF08C06EE992
:1025C00071E087E894E00E940C1290E080E0DF91D7
:1025D000CF911F910F9108954F925F926F927F92CA
:1025E0009F92AF92BF92CF92DF92EF92FF920F93A2
:1025F0001F93CF93DF9300D000D000D01F92CDB7B0
:10260000DEB77C018B01FC0187818A3009F002C1B1
:10261000412C512C3201C7010E944A12892BD9F159
:1026200066E0962ECE0101966C011F82F601292DDF
:1026300011922A95E9F7F70187818A3009F0A1C044
:1026400088E30E94FF026CEA84E295E00E9456084B
:1026500063E384E295E00E94560860E084E295E03E
:102660000E94560884E295E00E948508882309F4B8
:102670003FC0FFEF4F1A5F0A6F0A7F0A62E370E004
:1026800080E090E00E94970526E042165104610424
:10269000710459F615C0C7010E9471126EE170E015
:1026A00080E090E00E9497059FEF491A590A690A55
:1026B000790AE4E04E1651046104710409F0ABCFCD
:1026C0008FEF9FEF27960FB6F894DEBF0FBECDBFFA
:1026D000DF91CF911F910F91FF90EF90DF90CF90FE
:1026E000BF90AF909F907F906F905F904F900895B4
:1026F0006BE470E080E090E00E9497058F8187FF97
:1027000013C06AE072E087E894E00E940C1268EC63
:1027100070E080E090E00E949705CE0107960E944D
:10272000720F892B59F3A5CF66E070E088E390E043
:102730000E94380F5AE0A52EB12C8091150490917B
:102740001604891B990B069781F47E0187E0E80E39
:10275000F11CCE14DF0409F48AC084E295E00E94E3
:102760001608F60181936F01F4CFF1E0AF1AB108BA
:1027700009F47FCF61E070E080E090E00E9497056F
:10278000DCCF6EE971E087E894E00E940C12C12C66
:10279000D12C760160E070E0CB010E941E2320E086
:1027A00030E048EC52E40E94AC2320E030E040E806
:1027B0005AE30E94AC2320E030E040E85AE30E9454
:1027C000AC23F8016083718382839383C701B601D0
:1027D0000E941E2320E030E048E453E40E94AC2332
:1027E00020E030E040E85AE30E94AC2320E030E0F3
:1027F00040E85AE30E94AC2320E030E048E452E491
:102800000E941022F801648375838683978390E089
:1028100080E058CFC7010E94F414F80160837183EF
:1028200082839383C7010E945C146B017C01F801D1
:10283000C482D582E682F782608171818281938130
:102840009B01AC010E94192481113ACF01E010E0F4
:10285000A7019601C701B6010E941924811102C087
:1028600010E000E088279927801B910B2BCF6A810D
:102870007B8176276727762790E080E0982F872F47
:10288000762F66272C81622B34E096958795779575
:1028900067953A95D1F7CC80DD80DC24CD24DC240B
:1028A000F12CE12CFE2CED2CDC2CCC242E81C22A28
:1028B000FFE0EF22FF2471CF8F929F92AF92BF92E1
:1028C000CF92DF92EF92FF920F931F93CF93DF93FC
:1028D000CDB7DEB728970FB6F894DEBF0FBECDBFD9
:1028E0008C01FC0187818A30E9F4BE016F5F7F4F64
:1028F000C8010E94EC126D817E818F819885289697
:102900000FB6F894DEBF0FBECDBFDF91CF911F9100
:102910000F91FF90EF90DF90CF90BF90AF909F907E
:102920008F900895C8010E94F310882341F0F801A8
:1029300087818B3049F018F08551823088F160E052
:1029400070E080EC9FE7DBCF628170E090E080E098
:102950000E941E236B017C01F8010381102F1F7759
:10296000612F70E090E080E00E94202320E030E0C2
:1029700040E251E41A3050F020E030E048EC52E4FC
:10298000143620F020E030E04AE754E40E947D2233
:10299000A70196010E94112207FFB1CF9058AFCF37
:1029A000F2806F2D6F7770E090E080E00E9420232E
:1029B00020E030E040E853E40E94AC234B015C018E
:1029C000F801638170E090E080E00E942023A5017F
:1029D00094010E94112220E030E040E251E40E9484
:1029E0007D22F7FE8CCFDACFCF92DF92EF92FF926B
:1029F0000F931F93CF93DF93CDB7DEB728970FB612
:102A0000F894DEBF0FBECDBF8C01FC0187818A30F8
:102A1000C9F4BE016F5F7F4FC8010E94EC1269814B
:102A20007A818B819C8128960FB6F894DEBF0FBE09
:102A3000CDBFDF91CF911F910F91FF90EF90DF906D
:102A4000CF900895C8010E94F310882341F0F80147
:102A500087818B3049F018F08551823060F060E05A
:102A600070E080EC9FE7DFCF608170E090E080E075
:102A70000E941E23D8CF608170E090E080E00E9429
:102A80001E2320E030E040E853E40E94AC236B01B9
:102A90007C01F801618170E090E080E00E942023D9
:102AA000A70196010E94112220E030E040E251E4AB
:102AB0000E947D22B8CFEF92FF920F931F93CF9386
:102AC000DF93EC017B0189859A850E9409279E8509
:102AD0008B85981701F184E090E08E9D80018F9D99
:102AE000100D9E9D100D11241D830C83C8010E94A2
:102AF0006D269A878987009789F0A80170E060E0C9
:102B00000E94A427FB82EA82DF91CF911F910F914F
:102B1000FF90EF90089583E090E0DFCF1D821C824C
:102B20001B821A82F1CF85ED8093BC0080918304D3
:102B300090918404A0918504B09186040796A11D0C
:102B4000B11D23E0B695A795979587952A95D1F75E
:102B50002091BC0024FD03C010928104089540918F
:102B60008304509184046091850470918604452B00
:102B7000462B472B69F30097A105B10541F02AE2E6
:102B80002A95F1F700C00197A109B109E1CF809121
:102B900082040C9426061F920F920FB60F921124F6
:102BA0002F933F934F935F936F937F938F939F9355
:102BB000AF93BF93EF93FF938091DA029091DB0282
:102BC000A091DC02B091DD02892B8A2B8B2BD1F1F5
:102BD0009091D902E091D702F091D80280818927A3
:102BE00080838091DA029091DB02A091DC02B091A7
:102BF000DD02181619061A061B069CF48091DA02EB
:102C00009091DB02A091DC02B091DD020197A10955
:102C1000B1098093DA029093DB02A093DC02B093B7
:102C2000DD02FF91EF91BF91AF919F918F917F91C5
:102C30006F915F914F913F912F910F900FBE0F9029
:102C40001F90189580910001E0E9F0E0E4919FEF7A
:102C500090930001E13051F030F0E23069F060E033
:102C60000E94AB04DECF10926E00F9CF90916F00FE
:102C70009D7F90936F00F3CF909170009D7F909314
:102C8000700091E09093B0009091B100987F9460B3
:102C90009093B1001092B300E2CF1F920F920FB643
:102CA0000F9211242F933F934F935F936F937F93D2
:102CB0008F939F93AF93BF93EF93FF9387E894E035
:102CC0000E94CA03FF91EF91BF91AF919F918F91A5
:102CD0007F916F915F914F913F912F910F900FBE18
:102CE0000F901F9018951F920F920FB60F921124FC
:102CF0002F938F939F93EF93FF93E0919704F0911D
:102D000098048081E0919D04F0919E0482FD1BC097
:102D100090818091A0048F5F8F732091A10482170E
:102D200041F0E091A004F0E0E957FB4F958F8093CC
:102D3000A004FF91EF919F918F912F910F900FBE63
:102D40000F901F9018958081F4CF1F920F920FB6AD
:102D50000F9211242F933F938F939F93AF93BF9321
:102D60008091CF029091D002A091D102B091D20275
:102D70003091CE0223E0230F2D3758F50196A11D87
:102D8000B11D2093CE028093CF029093D002A093E6
:102D9000D102B093D2028091D3029091D402A0913B
:102DA000D502B091D6020196A11DB11D8093D30228
:102DB0009093D402A093D502B093D602BF91AF9165
:102DC0009F918F913F912F910F900FBE0F901F9069
:102DD000189526E8230F0296A11DB11DD2CF1F9290
:102DE0000F920FB60F9211242F933F934F935F933F
:102DF0006F937F938F939F93AF93BF93EF93FF93C3
:102E00008091B900887F803609F44AC0F0F5883295
:102E100009F4A7C018F5803109F49BC0B8F48823E1
:102E200009F4F9C0883009F494C0FF91EF91BF9183
:102E3000AF919F918F917F916F915F914F913F9152
:102E40002F910F900FBE0F901F901895883109F4A5
:102E500088C0803251F780935F0414C0803409F435
:102E60009DC040F48033B9F38833F9F680935F0452
:102E700085ECB0C0803509F485C0883509F496C06A
:102E8000883499F60E949315D0CF883909F48CC004
:102E900038F5883729F050F4883611F0803729F654
:102EA00083E0809381041092CD0257C0883809F4E2
:102EB0007BC0803919F0803809F0B7CF8091CD02FE
:102EC000803208F071C0E091CD0281E08E0F8093D6
:102ED000CD028091BB00F0E0E355FD4F80833DC003
:102EE000803B39F0E0F4803A09F479C0883A09F07F
:102EF0009CCF84E0809381041092AC021092AB02CC
:102F0000E0911304F091140409958091AB028111B2
:102F10000FC081E08093AB0210928B0209C0803C0D
:102F200009F4A6CF883C09F4A3CF883B09F07DCFF4
:102F3000E091AC0281E08E0F8093AC02F0E0E557A7
:102F4000FD4F80818093BB009091AC028091AB02D9
:102F500029C080915C048093BB0085EC8093BC0009
:102F600064CF90915E0480915D04981758F5E091CC
:102F70005E0481E08E0F80935E04F0E0E55CFB4F21
:102F80008081E9CFE0915E0481E08E0F80935E0442
:102F90008091BB00F0E0E55CFB4F808390915E0484
:102FA00080915D049817C8F285E8D8CFE0915E045F
:102FB00081E08E0F80935E048091BB00F0E0E55CC1
:102FC000FB4F80838091600481115CCF81E080930E
:102FD0005B0484EA8093BC001092810426CF85ECC8
:102FE0008093BC00109281048091CD02803230F435
:102FF000E091CD02F0E0E355FD4F10826091CD02EB
:1030000070E0E0911104F09112048DEA92E00995CC
:103010001092CD020ACF10925F0434CFCF9310925A
:103020008A041092890488EE93E0A0E0B0E08093D7
:103030008B0490938C04A0938D04B0938E0422E7AC
:1030400031E0309388042093870425EC30E03093FE
:1030500094042093930424EC30E03093960420935E
:10306000950420EC30E0309398042093970421ECF1
:1030700030E030939A042093990422EC30E03093AE
:103080009C0420939B0426EC30E030939E04209314
:103090009D041092A0041092A1041092A204109218
:1030A000A30410922705109226058093280590937B
:1030B0002905A0932A05B0932B0584E891E090930D
:1030C00025058093240581E0809330051092310519
:1030D0001092330510923205109235051092340586
:1030E0002FEF3FEF309337052093360510923805C8
:1030F00010923A051092390580933B0510923C05D9
:1031000092E090933D0580933E0510923F0510920A
:1031100040051092410510924205109254051092FC
:1031200053051092890510928A0586E991E09093E3
:103130005205809351051092560510925505109234
:103140006A0510926D051092610510926205109249
:103150006305109264058FEF80936B0580936F0574
:10316000E3E7F5E089E895E0CFEFC1938E179F077D
:10317000E1F788E999E090935A05809359058DE825
:103180009AE090935C0580935B058AE49BE09093C2
:103190005E0580935D058FEA98E0909360058093CB
:1031A0005F0530E020E040E069E085E595E00E94C1
:1031B0009809C0937E05C0937F05C093800580E584
:1031C00080934D0510924E05CF910895CF93DF93D4
:1031D000CDB7DEB7A8970FB6F894DEBF0FBECDBF50
:1031E000789484B5826084BD84B5816084BD85B5E2
:1031F000826085BD85B5816085BD80916E008160EE
:1032000080936E0010928100809181008260809393
:103210008100809181008160809381008091800095
:103220008160809380008091B10084608093B100C0
:103230008091B00081608093B00080917A008460BA
:1032400080937A0080917A00826080937A008091E6
:103250007A00816080937A0080917A008068809300
:103260007A001092C10014BE0FB6F894A895809110
:103270006000886180936000109260000FBE61E082
:1032800085E00E94D90444E650E06BE072E085E0FE
:103290000E94630CE0919704F091980482E080838F
:1032A000E0919304F09194041082E0919504F091E0
:1032B000960480E1808310929F04E0919B04F0913A
:1032C0009C0416E01083E0919904F0919A048081A7
:1032D00080618083E0919904F0919A0480818860F4
:1032E0008083E0919904F0919A04808180688083C2
:1032F000E0919904F0919A0480818F7D808380EA27
:1033000096E8A1E0B0E08093610590936205A093F8
:103310006305B0936405E0915905F0915A0530E0DA
:1033200020E040E06AE085E595E00995CE01019650
:1033300028E0DC011D922A95E9F70E940903E0913B
:103340005905F0915A0530E020E040E06BE085E55A
:1033500095E00995E0915905F0915A0530E020E09B
:1033600041E06DE085E595E009958DE992E0909367
:1033700066058093650567E172E081E595E00E944E
:103380000C1288E30E94FF0284E295E00E94850807
:10339000811123C08EE090E00E946D26FC01168210
:1033A0008AE08783108781E08587F093E202E093CB
:1033B000E1020091E1021091E202F80187818A3076
:1033C000A9F4C8010E947112892B01F16FE172E02A
:1033D00087E894E00E940C12FFCF8EE090E00E94FC
:1033E0006D26FC0183E086838BE0DBCF60E0868185
:1033F0000E94D90461E0F80186810E94AB04D801E3
:1034000019961D921D921D921C921C970E940F06E8
:1034100087E70E94FF0260ED84E295E00E94560873
:1034200084E295E00E94850861E070E087E790E023
:103430000E94380F90911504809116049817F1F3AB
:1034400084E295E00E941608883509F065C088E896
:103450000E94420F9093F6038093F5038AE80E943E
:10346000420F9093F8038093F7038CE80E94420F79
:103470009093FA038093F9038EE80E94420F909391
:10348000FC038093FB0380E90E94420F9093FE03AC
:103490008093FD0382E90E94420F90930004809381
:1034A000FF0384E90E94420F909302048093010479
:1034B00086E90E94420F909304048093030488E9F4
:1034C0000E94420F90930604809305048AE90E94AB
:1034D000420F90930804809307048CE90E94420FE6
:1034E00090930A04809309048EE90E94420F9093FE
:1034F0000C0480930B0487E70E94FF0264EF84E2D0
:1035000095E00E9456086FE384E295E00E94560819
:1035100084E295E00E94850884E295E0909350054E
:1035200080934F050E940F0610924C0510924B0598
:1035300089E18093460560E88FE10E94880864E68F
:1035400070E080E090E00E94970567E080E20E94D2
:10355000310C64E670E080E090E00E94970560E83E
:1035600083E20E94310C64E670E080E090E00E940B
:10357000970583E20E947110682F606383E20E94C6
:10358000310C64E670E080E090E00E94970580E0F6
:1035900095E0909348058093470580E790E00E946E
:1035A000E11064E670E080E090E00E94970580E41E
:1035B00090E00E94E11001E910E0F80164916111CE
:1035C00061C067E572E087E894E00E94FD119E010A
:1035D0002F5F3F4F3B8B2A8B87E894E00E94AA0322
:1035E000181619060CF0FFC631E03093DE0287E8AA
:1035F00094E00E94880397FDF6C64091F302509133
:10360000F4029A012F5F3F4F3093F4022093F302AC
:103610004B505D4FDA018C932230310509F460C0C4
:10362000D8F52130310509F44CC060910101709149
:1036300002018091F3029091F4028617970708F433
:10364000F7C18091F602843509F05AC0F091F90271
:10365000FC8BFC89F23809F408C408F0FDC0F63090
:1036600009F4D7C108F0E0C0F33009F4B8C108F09C
:10367000C5C0F13009F495C1F23009F49FC10E9430
:10368000000FD2C187E894E00E94EC030F5F1F4F48
:10369000892B09F092CF95CF2330310531F12430B9
:1036A000310519F62091F602243509F0BECF20919C
:1036B000F70230E02C5F3F4F982F8827820F931F2F
:1036C0001AC0E4E0F0E0F0930201E09301018F3FC3
:1036D000910509F4ADC11092F4021092F302A5CF46
:1036E000845591090297B8F7A0CF2091F60203966E
:1036F000253509F09ACF909302018093010195CF6F
:10370000853509F0A6CF2091F8022C8B2B30A0F53F
:1037100040E1249F9001112423513E4F80E1E3EECC
:10372000F2E011928A95E9F72115310509F491CF5C
:10373000A3EEB2E050E040E090E080E0F901E40F59
:10374000F51FE491EE2309F484CF8D93EC34F1F16D
:10375000A8F5E434E9F1E634C9F1E23409F401965C
:10376000FC0134966E177F0708F45EC14F5F5F4F10
:103770004031510519F76DCF8C8981588C3060F438
:103780008C898158990B9C0184E0220F331F8A9504
:10379000E1F7235D3E4FC2CF9C8930E020E09B3FA4
:1037A00008F4BCCFA92FAB5FBB0B9D0104E0220F37
:1037B000331F0A95E1F723523F4FB0CFE236B1F005
:1037C000E33741F0E33561F60296CACF0496C8CFDD
:1037D0000896C6CFFC01E750FD4F7F010190002005
:1037E000E9F78E199F098E0F9F1FBACFFC01EB508E
:1037F000FD4FE48101968E0F911DB2CF2C892430AC
:1038000009F4FCC0253009F03ACF88E0EA89FB8949
:1038100011928A95E9F7CE0101960E940903109250
:10382000890510928A052BCF3C89393009F41EC1D5
:1038300048F4373009F40AC1383009F020CF0E942B
:10384000F70FF0C04C894A3009F4D2C2413809F070
:1038500016CF0E940F0613CF5C89583809F47AC33B
:10386000A0F5553809F438C3B8F4533809F418C32F
:10387000E091E402543809F002CFF0E0EB50FD4F44
:10388000648170E0E091E302F0E0EB50FD4F848151
:1038900090E00E94C911C8C08C89863809F436C3EB
:1038A000873809F0ECCEE091E302F0E0EB50FD4FF9
:1038B00060E084810E94D904E091E302F0E0EB50E3
:1038C000FD4F84810E948204CCC09C899B3809F4FE
:1038D000B2C368F5993809F49EC39A3809F0CFCE7F
:1038E0000091E30210E0F801E750FD4FE080F12C79
:1038F00006501D4F6801C601801B910B8E159F0558
:103900000CF0BDCED60112966C91129711968C9147
:103910001197762F682F54E0759567955A95E1F7C2
:103920008C910E941505B3E0CB0ED11CE4CFAC897D
:10393000AE3F09F448C508F04BC5AD3809F09FCE3D
:103940000091E50210E0F801E750FD4FC080D12C56
:10395000E091E402F0E0EB50FD4F948080E00E94A3
:10396000570C5C0106501D4F7801C701801B910B5D
:103970008C159D050CF0FFC4D70112966C9112971F
:1039800011968C911197762F682F94E07595679515
:103990009A95E1F78C910E941505B3E0EB0EF11CAE
:1039A000E4CF81E00E94570C8C0180E00E94570C0C
:1039B000A801BC0185E00E94630C61CEE091E402A5
:1039C000F0E0EB50FD4F8481E091E302F0E0EB503A
:1039D000FD4F94819093890580938A0550CE609124
:1039E000E3026C5F70E06B507D4F6115710509F467
:1039F00046CE81E595E00E94FD1141CE6091E30243
:103A00006C5F70E06B507D4F81E595E00E940C1279
:103A100036CE8091E1029091E202009709F4F3C161
:103A20000E945C140E94DD0E1092F4021092F302C8
:103A30008091F3029091F4028F3F910509F008F410
:103A4000CBCD1092F4021092F302C6CD8091E10228
:103A50009091E202009741F00E94F4140E94EF223C
:103A6000862F0E94F00EE0CF80E0FBCF0E94F70F80
:103A700087EF0E94A00F9B01AC01B4E055954795DC
:103A800037952795BA95D1F72DA33EA34FA358A7F5
:103A900080910D0490910E04A0910F04B091100438
:103AA0006C017D01FF0CCC08DC2C76019C01AD0182
:103AB0006C2D7C2D8C2D9C2D345F4140510961096A
:103AC00071098109910919012A013B014C01590130
:103AD0006A017B018C010E94C1242D8B3E8B4F8B90
:103AE000588F698F7A8F8B8F9C8F3091060420912D
:103AF0000504932F990F990BAD88BE886A017B014D
:103B0000082F1C8D492F592F692F792F892F0E943B
:103B1000C1242D8F3E8F4F8F58A369A37AA38BA307
:103B20009CA33091040420910304932F990F990BC7
:103B30005101620173018401492F592F692F792F97
:103B4000892F0E94C12401E10E94F025AD8CBE8C1A
:103B5000CF8CD8A0E9A0FAA00BA11CA10E94262618
:103B600059016A017B01E82F192F3091020420913D
:103B70000104932F990F990B492F592F692F792FF2
:103B8000892F03E20E94F0250E2F0E9426262D8FFA
:103B90003E8F4F8F58A369A37AA38BA39CA3309128
:103BA000FE032091FD03932F990F990B51016201A0
:103BB00073018401492F592F692F792F892F0E9472
:103BC000C1240CE00E94F02519012A013B014C019F
:103BD000309100042091FF03932F990F990BAD882A
:103BE000BE88CF88D88CE98CFA8C0B8D1C8D492F20
:103BF000592F692F792F892F0E94C12408E00E9434
:103C0000092651016201730184010E942626705821
:103C10008F4F9F4F2090FB033090FC035101C12C2C
:103C2000D12CE12CF12C00E010E00E94C12401E233
:103C30000E940926322E432E542E652E762E872E74
:103C4000982E292EA0E00E94382609F4CDC080E0ED
:103C500090E0A0E1B0E02DA13EA14FA158A5821BAC
:103C6000930BA40BB50B6C017D01FF0CCC08DC2C75
:103C700076019C01AD016C2D7C2D8C2D9C2D0FE1CE
:103C80000E94F025AD8CBE8CCF8CD8A0E9A0FAA004
:103C90000BA11CA10E942F26E5E3AE2EFCE0BF2E57
:103CA000C12CD12CE12CF12C00E010E00E94C124A9
:103CB000A32CB42CC52CD62CE72CF82C092D122DB6
:103CC0000E941B252D8B3E8B4F8B588F698F7A8FCF
:103CD0008B8F9C8F0DE00E940926322E432E542E8E
:103CE000652E762E872E982E292E30910C04209149
:103CF0000B04932F990F990BA32CB42CC52CD62C05
:103D0000E72CF82C092D122D492F592F692F792FC7
:103D1000892F0E94C1240E94C12409E10E94092622
:103D2000AD88BE88CF88D88CE98CFA8C0B8D1C8D21
:103D30000E94262619012A013B014C0130910A04F8
:103D400020910904932F990F990B492F592F692F0F
:103D5000792F892F0E94C12403E10E94092659016D
:103D60006A017B018C019101A201B301C4010E948F
:103D7000262608E00E94092659016A017B01E82FE6
:103D8000192F3091080420910704932F990F990B54
:103D9000492F592F692F792F892F04E00E94F02590
:103DA0000E2F0E94262649015A01892C9A2CAB2CF1
:103DB000BB243FEF3093F50245E54093F60285E0E2
:103DC0008093F70283E08093F8028092F902909248
:103DD000FA02A092FB021092FC0268E070E085EF0C
:103DE00092E00E94D20E20CE812C912C5401E1CF82
:103DF000E091E302F0E0EB50FD4F8481813049F126
:103E000030F0823061F160E070E0CB010BCE88E2EF
:103E10000E947110182F89E20E947110782F612F73
:103E2000072E000C880B990B0E9420236B017C014C
:103E30006091470570914805072E000C880B990B7F
:103E40000E9420239B01AC01C701B6010E947D2284
:103E5000E9CD8AE20E947110182F8BE2DDCF8CE24F
:103E60000E947110182F8DE2D7CFE091E302F0E0AD
:103E7000EB50FD4F84810E94FF026091E40270E0EC
:103E8000FB01E750FD4F408150E066507D4F84E2DA
:103E900095E00E94290884E295E00E948508E1CD22
:103EA000E091E302F0E0EB50FD4F84810E94FF02BD
:103EB0006091E40270E0FB01E750FD4F408150E06B
:103EC00066507D4F84E295E00E94290880E00E94C0
:103ED0001607E091E502D1CC10E0F12CE12C812F06
:103EE0000E94FF0284E295E00E948508811107C0CC
:103EF000F701EB50FD4F1083C70101967C011F5F56
:103F00001F3769F78E2D0E94A7118ECDC090E30256
:103F10008C2D90E0FC01E750FD4FE080F12CDC019E
:103F2000A650BD4F6D018D01C8018C199D098E15DC
:103F30009F050CF0A4CB61E0F80180810E94D904B8
:103F4000D80111966C9111978C910E94AB040E5F71
:103F50001F4FEACF81E00E94570C8C01E091E302F1
:103F6000F0E0EB50FD4FF48060E08F2D0E94D9040B
:103F70000115110511F401E010E082EF8F0DBDE095
:103F8000BF1508F08F2D8770482F406460E070E007
:103F9000CB0130E020E040937C0050917A005064E7
:103FA00050937A0050917A0056FDFCCFC090780073
:103FB000D09079000D2C000CEE08FF086C0D7D1DD3
:103FC0008E1D9F1D2F5F3F4F2017310721F750E0B7
:103FD00040E00E946624A1E7B2E00E94AE24DC012A
:103FE000CB0167E0B695A795979587956A95D1F728
:103FF000EFEFE093F502F5E5F093F60223E020936E
:10400000F70222E02093F8028093F9029093FA02DB
:1040100066E070E0E4CE82E00E94570C8C0181E003
:104020000E94570CE091E302F0E0EB50FD4FA80135
:10403000BC018481C0CC8091E40290E08C010650E8
:104040001D4F87509D4FFC01808190E063E070E040
:104050000E9452246B018091DF029091E002892B33
:1040600009F076C0E091E302F0E0EB50FD4FB48040
:1040700020E335E03093E0022093DF0290913E058B
:1040800080913B0531E030933E0530933B05109223
:104090003C0522E020933D05309330052091390501
:1040A00030913A05232B51F0981741F06091320579
:1040B0007091330580E395E00E945B15B60180E3C3
:1040C00095E00E945B15EB2CF12C80913105882343
:1040D00049F0809136059091370597FD03C060E067
:1040E0000E94D904F0923705E0923605809131059F
:1040F000882341F061E08B2D0E94D90460E08B2D74
:104100000E94AB04F701E753FF4FE491F0E0EE0F9C
:10411000FF1FE154FF4F8591949190934405809344
:104120004305F701E555FF4FE491E0934505809184
:1041300036059091370597FD08C061E00E94D904CB
:1041400060E0809136050E94AB0441E04093310568
:10415000E090DF02F090E002F80150E040E0C41689
:10416000D50609F451C0D70112968D919C911397F1
:1041700048175907C8F55F01A01AB10A2281618169
:10418000708118963C91332361F0739FC001112414
:10419000792F369FC0011124692F329F900111247D
:1041A000232FD7011E969C901E9719968D919C9156
:1041B0001A971B963C9193121BC08A0D9B1DD70129
:1041C0001B963C91DC01A30FB11D7C93D7011C967B
:1041D0003C91DC01A30FB11D6C93D7011D963C915E
:1041E000830F911DDC012C934F5F5F4F3396B7CF48
:1041F0005A01AA0CBB1CAA0CBB1C8A0D9B1DDC011E
:10420000A90DB11D1C92DBCFF70181859285892B09
:1042100009F435CA0E947205D7011F960D911D91B0
:104220002D913C915297601771078207930728F4EC
:10423000F7016787708B818B928BD7011F960D9149
:104240001D912D913C915297601B710B820B930B2A
:104250006C32714081059105E8F2F894F701848190
:1042600095819A8789870184F285E02D8F010F5F00
:104270001F4F8081898BD7019C915396ED91FC91C2
:10428000549755968C91992309F43AC09081982BB4
:10429000988B9081809589238F878F858C8788E084
:1042A0008B8758896F8549893B852C8589859A85B7
:1042B000D801508347FD252F3A952083262F39F0CA
:1042C000441F00C000006083000000C0F2CF38E04F
:1042D0004D9160830000019761F7D7015496FC93DC
:1042E000EE935397498B3B872C879A8789877894DD
:1042F0000E947205F7016787708B818B928BBFC913
:104300009081982B988B9081809589238F878F85BA
:104310008E8788E08D8758896F8549893D852E85F0
:1043200089859A85D801508347FD252F00C000C09C
:10433000208300C000C000C000C000C06083000037
:10434000262F3A9541F0441F000000C000C000C075
:1043500000C000C0E8CF38E04D9100C0608300C0CD
:10436000019709F7D7015496FC93EE935397498B25
:104370003D872E87BACFA114B10409F480C9B501D5
:10438000BB0C880B990B0E949705E1E090E080E060
:104390009E1202C083E391E05C0184E0B694A7948E
:1043A0008A95E1F77801C701801B910B8C159D055B
:1043B0000CF065C9B501D7018C910E941505B3E0D9
:1043C000EB0EF11CF0CF6BE170E08EE392E009CDD3
:1043D00088E198E00FB6F894A895809360000FBE2E
:1043E00090936000FFCF80E090E0892B09F4F4C83F
:1043F0000E94B603882309F4EFC80E940000ECC8AD
:104400008091390590913A050E94092780913605DF
:104410009091370597FD03C060E00C94D90408958E
:104420005058BB27AA270E9428220C9472230E946E
:10443000642338F00E946B2320F039F49F3F19F475
:1044400026F40C9461230EF4E095E7FB0C945B23B7
:10445000E92F0E94832358F3BA1762077307840772
:10446000950720F079F4A6F50C94A5230EF4E095B9
:104470000B2EBA2FA02D0B01B90190010C01CA011E
:10448000A0011124FF27591B99F0593F50F4503EC9
:1044900068F11A16F040A22F232F342F4427585FBB
:1044A000F3CF469537952795A795F0405395C9F7D3
:1044B0007EF41F16BA0B620B730B840BBAF091508B
:1044C000A1F0FF0FBB1F661F771F881FC2F70EC02A
:1044D000BA0F621F731F841F48F4879577956795FD
:1044E000B795F7959E3F08F0B0CF9395880F08F0E9
:1044F0009927EE0F9795879508950E9491220C9425
:1045000072230E946B2358F00E94642340F029F428
:104510005F3F29F00C945B2351110C94A6230C945B
:1045200061230E94832368F39923B1F3552391F308
:10453000951B550BBB27AA2762177307840738F012
:104540009F5F5F4F220F331F441FAA1FA9F335D06F
:104550000E2E3AF0E0E832D091505040E695001C23
:10456000CAF72BD0FE2F29D0660F771F881FBB1FDD
:10457000261737074807AB07B0E809F0BB0B802DBB
:10458000BF01FF2793585F4F3AF09E3F510578F0E7
:104590000C945B230C94A6235F3FE4F3983ED4F382
:1045A000869577956795B795F7959F5FC9F7880FBB
:1045B000911D9695879597F90895E1E0660F771F0D
:1045C000881FBB1F621773078407BA0720F0621B9E
:1045D000730B840BBA0BEE1F88F7E09508950E94C9
:1045E0008B2388F09F5798F0B92F9927B751B0F0D7
:1045F000E1F0660F771F881F991F1AF0BA95C9F767
:1046000014C0B13091F00E94A523B1E008950C943C
:10461000A523672F782F8827B85F39F0B93FCCF3EF
:10462000869577956795B395D9F73EF490958095E3
:10463000709561957F4F8F4F9F4F0895E89409C003
:1046400097FB3EF490958095709561957F4F8F4FC5
:104650009F4F9923A9F0F92F96E9BB279395F695DB
:10466000879577956795B795F111F8CFFAF4BB0F59
:1046700011F460FF1BC06F5F7F4F8F4F9F4F16C0BD
:10468000882311F096E911C0772321F09EE8872F47
:10469000762F05C0662371F096E8862F70E060E003
:1046A0002AF09A95660F771F881FDAF7880F96957C
:1046B000879597F9089597F99F6780E870E060E023
:1046C00008959FEF80EC089500240A9416161706AB
:1046D00018060906089500240A94121613061406F3
:1046E00005060895092E0394000C11F4882352F056
:1046F000BB0F40F4BF2B11F460FF04C06F5F7F4F0E
:104700008F4F9F4F089557FD9058440F551F59F0F4
:104710005F3F71F04795880F97FB991F61F09F3FAE
:1047200079F087950895121613061406551FF2CFD7
:104730004695F1DF08C0161617061806991FF1CF27
:1047400086957105610508940895E894BB2766274E
:104750007727CB0197F908950E94BF230C94722309
:104760000E94642338F00E946B2320F0952311F0FF
:104770000C945B230C94612311240C94A6230E94B7
:10478000832370F3959FC1F3950F50E0551F629FEF
:10479000F001729FBB27F00DB11D639FAA27F00D9A
:1047A000B11DAA1F649F6627B00DA11D661F829FC1
:1047B0002227B00DA11D621F739FB00DA11D621FA6
:1047C000839FA00D611D221F749F3327A00D611DC3
:1047D000231F849F600D211D822F762F6A2F1124A5
:1047E0009F5750409AF0F1F088234AF0EE0FFF1FD8
:1047F000BB1F661F771F881F91505040A9F79E3F2F
:10480000510580F00C945B230C94A6235F3FE4F3E6
:10481000983ED4F3869577956795B795F795E79584
:104820009F5FC1F7FE2B880F911D9695879597F98D
:1048300008950E941E24880B990B0895990F000873
:10484000550FAA0BE0E8FEEF16161706E807F90762
:10485000C0F012161306E407F50798F0621B730BFD
:10486000840B950B39F40A2661F0232B242B252B7E
:1048700021F408950A2609F4A140A6958FEF811D21
:10488000811D0895DB018F939F930E94AE24BF91F9
:10489000AF91A29F800D911DA39F900DB29F900D8F
:1048A0001124089597FB072E16F4009407D077FD86
:1048B00009D00E94442607FC05D03EF490958195CE
:1048C0009F4F0895709561957F4F0895A1E21A2E2C
:1048D000AA1BBB1BFD010DC0AA1FBB1FEE1FFF1FA4
:1048E000A217B307E407F50720F0A21BB30BE40BF4
:1048F000F50B661F771F881F991F1A9469F760953B
:104900007095809590959B01AC01BD01CF010895F4
:10491000052E97FB1EF400940E949F2457FD07D09C
:104920000E94662407FC03D04EF40C949F245095FB
:104930004095309521953F4F4F4F5F4F089590958B
:104940008095709561957F4F8F4F9F4F08950E947E
:104950005E26B7FF0895821B930B08950E945E2682
:10496000A59F900DB49F900DA49F800D911D1124C3
:104970000895B7FF0C94AE240E94AE24821B930BC3
:104980000895DF93CF931F930F939A9DF02D219F4E
:10499000F00D8B9DF00D8A9DE02DF10D039FF00D24
:1049A000029FE00DF11D4E9DE00DF11D5E9DF00D8D
:1049B0004F9DF00D7F936F93BF92AF925F934F9394
:1049C000D5010E945E268B01AC01D7010E945E26B4
:1049D000EB01E80FF91FD6010E9410252F913F919E
:1049E000D6010E945E26C60FD71FE81FF91FAF91A0
:1049F000BF910E9410252F913F910E945E26C60F05
:104A0000D71FE81FF91FD6010E945E26E60FF71F89
:104A10009801BE01CF010F911F91CF91DF910895B1
:104A20000E945E26460F571FC81FD91F08F43196F3
:104A30000895689401C0E894F92FF12B12F00C94BA
:104A40004D25A0E0B0E0E7E2F5E20C94BF25092E89
:104A5000059422F40E94A925112392F4F0E80F2670
:104A6000FFEFE094F09400951095B094C094D0942A
:104A7000A194BF0ACF0ADF0AEF0AFF0A0F0B1F0B30
:104A80000E94582507FC0E94A925CDB7DEB7ECE0AF
:104A90000C94DB25689401C0E8948F929F92CF9389
:104AA000DF930E945825DF91CF919F908F900895BA
:104AB00088249924F401E401B0E49F93AA279A156D
:104AC0008B049C04ED05FE05CF05D007A10798F4E3
:104AD000AD2FDC2FCF2FFE2FE92D982C892E982F6C
:104AE000872F762F652F542F432F322F2227B85030
:104AF00031F7BF9127C01B2EBF91BB27220F331F59
:104B0000441F551F661F771F881F991F881C991CFB
:104B1000EE1FFF1FCC1FDD1FAA1FBB1F8A149B04A3
:104B2000EC05FD05CE05DF05A007B10748F08A18A2
:104B30009B08EC09FD09CE09DF09A00BB10B216030
:104B40001A94E1F62EF49401AF01BE01CD01000CE0
:104B50000895609570958095909530954095509505
:104B600021953F4F4F4F5F4F6F4F7F4F8F4F9F4F5D
:104B700008952F923F924F925F926F927F928F9201
:104B80009F92AF92BF92CF92DF92EF92FF920F93DC
:104B90001F93CF93DF93CDB7DEB7CA1BDB0B0FB6E6
:104BA000F894DEBF0FBECDBF09942A8839884888A3
:104BB0005F846E847D848C849B84AA84B984C88439
:104BC000DF80EE80FD800C811B81AA81B981CE0F30
:104BD000D11D0FB6F894DEBF0FBECDBFED01089515
:104BE000002E083090F0982F872F762F652F542FA6
:104BF000432F322F22270850F4CF220F331F441F98
:104C0000551F661F771F881F991F0A95B2F7002D41
:104C1000089597FD1094002E083098F00850232F27
:104C2000342F452F562F672F782F892F912DF4CFB2
:104C300015949795879577956795579547953795E7
:104C400027950A95AAF71124002D08952A0D3B1DDA
:104C50004C1D5D1D6E1D7F1D801F911F08952A191B
:104C60003B094C095D096E097F09800B910B089582
:104C70000024A7FD00942A17300540055005600563
:104C80007005800590050895AA1BBB1B51E107C064
:104C9000AA1FBB1FA617B70710F0A61BB70B881FCC
:104CA000991F5A95A9F780959095BC01CD0108955B
:104CB000EE0FFF1F0590F491E02D0994A29FB00123
:104CC000B39FC001A39F700D811D1124911DB29F40
:104CD000700D811D1124911D08950F931F93CF9383
:104CE000DF938230910510F482E090E0E0918D0531
:104CF000F0918E0530E020E0B0E0A0E0309799F42C
:104D00002115310509F44AC0281B390B243031051F
:104D1000D8F58A819B816115710589F1FB01938327
:104D20008283FE0111C040815181028113814817A5
:104D30005907E0F04817590799F4109761F0129657
:104D40000C93129713961C933296CF01DF91CF915B
:104D50001F910F91089500938D0510938E05F4CF48
:104D60002115310551F04217530738F0A901DB0135
:104D70009A01BD01DF01F801C1CFEF01F9CF909396
:104D80008E0580938D05CDCFFE01E20FF31F819339
:104D900091932250310939832883D7CF20918B05F5
:104DA00030918C05232B41F42091050130910601AF
:104DB00030938C0520938B052091030130910401E1
:104DC0002115310541F42DB73EB7409107015091AF
:104DD0000801241B350BE0918B05F0918C05E2173F
:104DE000F307A0F42E1B3F0B2817390778F0AC010E
:104DF0004E5F5F4F2417350748F04E0F5F1F5093EB
:104E00008C0540938B05819391939FCFF0E0E0E078
:104E10009CCFCF93DF930097E9F0FC013297138288
:104E20001282A0918D05B0918E05ED0130E020E059
:104E30001097A1F420813181820F931F20918B055F
:104E400030918C052817390709F061C0F0938C0563
:104E5000E0938B05DF91CF910895EA01CE17DF072C
:104E6000E8F54A815B819E0141155105B1F7E901E1
:104E7000FB83EA8349915991C40FD51FEC17FD07B5
:104E800061F4808191810296840F951FE9019983D5
:104E90008883828193819B838A83F0E0E0E012968D
:104EA0008D919C9113970097B9F52D913C91119795
:104EB000CD010296820F931F20918B0530918C05B6
:104EC0002817390739F6309751F510928E05109250
:104ED0008D05B0938C05A0938B05BCCFD383C28383
:104EE00040815181840F951FC817D90761F44E5F27
:104EF0005F4F88819981480F591F518340838A8170
:104F00009B81938382832115310509F0B0CFF09303
:104F10008E05E0938D059ECFFD01DC01C0CF13828D
:104F20001282D7CF6817790768F4FB01DC01E40F20
:104F3000F51FA40FB51F02C002900E9241505040C1
:104F4000D8F708950C94AB27DC0101C06D93415054
:104F50005040E0F70895FB01DC0102C001900D9282
:104F600041505040D8F7089512E0C2EDD2E004C09D
:104F7000FE010E9458262196C33DD107C9F7F89437
:024F8000FFCF61
:104F8200FF040000008F0580001815A015C019FF4E
:104F92001815A115C819FF1815AE19FF1815AF1964
:104FA200FF1815AE15D5168015A8163F15D3160095
:104FB2001540158D16141520160015A115C815DA01
:104FC2001612158116CF15D916F115DB1640152EBE
:104FD20015A415A619FF0001140A646432320012E6
:104FE2007A000004289610080000800040000000AB
:104FF2000000EC034C0379033904AA0388039C03E1
:105002000000000056082908350F06083D0316085F
:105012000708000000009D0B0C0F350F340F546879
:1050220069732066756E6374696F6E206F6E6C793A
:1050320020737570706F727420666F7220444854CA
:105042003130004661696C656420746F207265615D
:105052006420627974650A004661696C6564207433
:105062006F207365742073797374656D20636F6E3E
:105072006620726567200A00676574207374617424
:105082007573206572726F7221004465766963657B
:105092002062757379210048656C6C6F2021004590
:1050A20072726F72203A204661696C656420746F77
:1050B20020696E6974204448542031310A005043FB
:1050C200206D6F64653A2047726F76654265676945
:0A50D2006E6E65724B69740D0A00E2
:00000001FF
