:100000000C94DA020C9402030C9402030C94020385
:100010000C9402030C9402030C9402030C947612C9
:100020000C9402030C9402030C9402030C9402033C
:100030000C9402030C9402030C9402030C9402032C
:100040000C9450130C9402030C941E130C94F8128D
:100050000C9402030C9402030C9402030C9402030C
:100060000C949A130C940203000000002400270053
:100070002A0000000000250028002B0000000000DE
:1000800023002600290004040404040404040202DA
:100090000202020203030303030301020408102007
:1000A0004080010204081020010204081020000012
:1000B0000008000201000003040700000000000027
:1000C0000000025043206D6F64653A2047726F76DE
:1000D00065426567696E6E65724B69740000000069
:1000E0000000000000000000000000000000000010
:1000F000000000000000000000000000007373001A
:1001000000000000000000000000000000000000EF
:1001100000000000000000000000000000000000DF
:10012000000000000000000000000000004242004B
:10013000000000000000000000000000004262001B
:1001400000000000000000000000000000426242C9
:10015000000000000000000000000000004242001B
:10016000000000000000000000000000000000008F
:10017000000000000000000000000000006200001D
:10018000000000000000000000000000004200002D
:1001900000000000000000000000000000425300CA
:1001A0000000000000000000000000000042535367
:1001B00000000000000000000000000000620000DD
:1001C000000000000000000000000000000000002F
:1001D000000000000000000000000000004242009B
:1001E0000000000000000000000000000053426218
:1001F00000000000000000000000000000000000FF
:100200000000000000000000000000000053530048
:10021000000000000000000000000000004242005A
:10022000000000000000000000000000007300005B
:10023000000000000000000000000000007300004B
:1002400000000000000000000000000000000000AE
:10025000000000000000000000000000000000009E
:10026000000000000000000000000000000000008E
:10027000000000000000000000000000000000007E
:10028000000000000000000000000000000000006E
:10029000000000000000000000000000004200001C
:1002A00000000000000000000000000000207F01AE
:1002B0000100000000000000000000005E000000DF
:1002C00000000006000006000000247E24247E2496
:1002D0000000246B2A2A6B12000046261008646274
:1002E0000000344A4A54205000000000000600007C
:1002F000000000003C42000000000000423C000002
:1003000000002A1C3E1C2A00000008083E080800C5
:10031000000000403000000000000808080808083D
:10032000000000004000000000004020100804020F
:1003300000003C62524A463C000040447E4040007F
:10034000000064525252524C000024424A4A4A343D
:100350000000382422227E2000002E4A4A4A4A32D7
:1003600000003C4A4A4A4A300000020262120A0671
:100370000000344A4A4A4A3400000C525252523C5D
:1003800000000000240000000000004024000000E5
:1003900000000008142200000000141414141414A7
:1003A000000000002214080000000402520A0400A9
:1003B000000018245A5A241800007C121212127CD1
:1003C00000007E4A4A4A4A3400003C4242424224EB
:1003D00000007E424242423C00007E4A4A4A42427B
:1003E00000007E0A0A0A020200003C4242525234D5
:1003F00000007E080808087E000000427E420000DF
:10040000000020404040403E00007E080808146282
:1004100000007E404040404000007E040808047E0A
:1004200000007E040810207E00003C424242423C14
:1004300000007E121212120C00003C425262423C3A
:1004400000007E121212324C0000244A4A4A4A30FE
:10045000000002027E02020000003E404040403E9A
:1004600000001E204040201E00007E201010207E34
:1004700000004224181824420000020478040200FC
:1004800000004262524A46420000007E42420000A2
:1004900000000204081020400000000042427E00DC
:1004A00000000000040204000080808080808080C2
:1004B0008000000002040000000020545454780022
:1004C00000007E484848300000003844444428007A
:1004D0000000304848487E0000003854545448001A
:1004E000000000087C0A0200000018A4A4A47C00FC
:1004F00000007E0808087000000000487A400000F4
:100500000000408080887A0000007E10102844009F
:10051000000000427E40000000007C047804780067
:1005200000007C040404780000003844444438008F
:100530000000FC4444443800000038444444FC00BB
:1005400000007C08040404000000485454542400B3
:10055000000000043E44000000003C4040207C00BD
:1005600000001C2040201C0000001C601C601C00BF
:10057000000044281028440000001CA0A0A07C001B
:1005800000004464544C4400000000083641000060
:1005900000000000FF0000000000004136080000DD
:1005A000000804040810100800000000000000000B
:1005B0000000B91411241FBECFEFD8E0DEBFCDBFBD
:1005C00012E0A0E0B1E0E4E1F3E402C005900D9296
:1005D000A834B107D9F725E0A8E4B2E001C01D9224
:1005E000AB36B207E1F712E0CAEDD2E004C02197C2
:1005F000FE010E945821C93DD107C9F70E94731519
:100600000C9488210C94000080E0089591E0909370
:10061000FF03809321041092000410922204089595
:100620001F93CF93DF9300D000D01F92CDB7DEB7DA
:100630001C8221E02B839A838983E0913505F09118
:10064000360511891D82A0913505B0913605E091DE
:100650003905F0913A059E012F5F3F4F50964C911E
:100660006FE085E395E009958D818F5F8D8381171C
:1006700050F30F900F900F900F900F90DF91CF914C
:100680001F910895089508958091FD039091FE03B0
:10069000891B990B08959B01DC011896ED91FC9143
:1006A00041E067E10994AF92BF92CF92DF92EF925F
:1006B000FF920F931F93CF93DF936C017B018B010C
:1006C000040F151FEB015E01AE18BF08C017D1075C
:1006D00059F06991D601ED91FC910190F081E02DE6
:1006E000C6010995892B79F7C501DF91CF911F913B
:1006F0000F91FF90EF90DF90CF90BF90AF90089553
:10070000FC01538D448D252F30E0842F90E0821B17
:10071000930B541710F0CF96089501970895FC019C
:10072000918D828D981761F0A28DAE0FBF2FB11DF4
:100730005D968C91928D9F5F9F73928F90E008954C
:100740008FEF9FEF0895FC01918D828D981731F006
:10075000828DE80FF11D858D90E008958FEF9FEF5A
:100760000895FC01918D228D892F90E0805C9F4F30
:10077000821B91098F73992708958FE694E00E9458
:10078000B10321E0892B09F420E0822F089580E055
:1007900090E0892B29F00E94BD0381110C94000088
:1007A0000895FC01A48DA80FB92FB11DA35ABF4F06
:1007B0002C91848D90E001968F739927848FA68960
:1007C000B7892C93A089B1898C91837080648C93B4
:1007D000938D848D981306C00288F389E02D808163
:1007E0008F7D80830895EF92FF920F931F93CF9395
:1007F000DF93EC0181E0888F9B8D8C8D98131AC05C
:10080000E889F989808185FF15C09FB7F894EE8942
:10081000FF896083E889F98980818370806480839F
:100820009FBF81E090E0DF91CF911F910F91FF90EA
:10083000EF900895F62E0B8D10E00F5F1F4F0F7392
:100840001127E02E8C8D8E110CC00FB607FCFACF4D
:10085000E889F989808185FFF5CFCE010E94D10317
:10086000F1CFEB8DEC0FFD2FF11DE35AFF4FF0821E
:100870009FB7F8940B8FEA89FB8980818062CFCF84
:10088000CF93DF93EC01888D8823B9F0AA89BB89C7
:10089000E889F9898C9185FD03C0808186FD0DC0B2
:1008A0000FB607FCF7CF8C9185FFF2CF808185FFD3
:1008B000EDCFCE010E94D103E9CFDF91CF91089512
:1008C000833081F028F4813099F08230A9F00895C6
:1008D0008730A9F08830C9F08430B1F4809180006D
:1008E0008F7D03C0809180008F7780938000089572
:1008F00084B58F7784BD089584B58F7DFBCF8091BB
:10090000B0008F778093B00008958091B0008F7D04
:10091000F9CFCF93DF93282F30E0F901E255FF4F55
:100920008491F901E656FF4FD491F901EA57FF4F40
:10093000C491CC23A1F081110E946004EC2FF0E05F
:10094000EE0FFF1FE458FF4FA591B491EC91ED23FA
:1009500081E090E009F480E0DF91CF91089580E09C
:1009600090E0FACF1F93CF93DF93282F30E0F90167
:10097000E255FF4F8491F901E656FF4FD491F901FA
:10098000EA57FF4FC491CC23A9F0162F81110E9482
:100990006004EC2FF0E0EE0FFF1FEE58FF4FA59123
:1009A000B4918FB7F894EC91111108C0D095DE2363
:1009B000DC938FBFDF91CF911F910895DE2BF8CF8D
:1009C000CF93DF9390E0FC01E656FF4F24918A57C6
:1009D0009F4FFC0184918823C9F090E0880F991FF4
:1009E000FC01E859FF4FA591B491FC01EE58FF4F6F
:1009F000C591D49161110DC09FB7F8948C91209549
:100A000082238C938881282328839FBFDF91CF91F5
:100A10000895623051F49FB7F8943C91822F8095ED
:100A200083238C93E8812E2BEFCF8FB7F894EC9132
:100A30002E2B2C938FBFEACF1F93CF93DF93182FCA
:100A4000EB0161E00E94E004209739F460E0812F1F
:100A5000DF91CF911F910C94B204CF3FD10511F4D7
:100A600061E0F5CFE12FF0E0E255FF4FE491E33094
:100A700031F140F4E130B1F0E230E1F0C038D105BD
:100A80007CF7E4CFE73029F1E83059F1E430B1F7F1
:100A900080918000806280938000D0938B00C0930F
:100AA0008A0004C084B5806884BDC7BDDF91CF9142
:100AB0001F91089584B5806284BDC8BDF7CF809131
:100AC0008000806880938000D0938900C093880064
:100AD000EDCF8091B00080688093B000C093B300E8
:100AE000E5CF8091B00080628093B000C093B400E5
:100AF000DDCF3FB7F8948091BD029091BE02A091E6
:100B0000BF02B091C00226B5A89B05C02F3F19F0C7
:100B10000196A11DB11D3FBFBA2FA92F982F88277D
:100B2000BC01CD01620F711D811D911D42E0660F58
:100B3000771F881F991F4A95D1F708958F929F922A
:100B4000AF92BF92CF92DF92EF92FF926B017C0146
:100B50000E9479054B015C01C114D104E104F10448
:100B6000B9F00E947905681979098A099B09683EDC
:100B700073408105910580F321E0C21AD108E10894
:100B8000F10888EE880E83E0981EA11CB11CE4CF0A
:100B9000FF90EF90DF90CF90BF90AF909F908F909D
:100BA000089520919902260F3327331F21323105F2
:100BB000ECF420916904FC0190E080E0243069F0BD
:100BC00082E00895A09199022191AC0147585D4FB0
:100BD000A40FB52FB11D2C930196861798F3809121
:100BE0009902680F6093990280E0089581E008956A
:100BF0001092690481E0809348041092430461E0FC
:100C000082E10E94B20461E083E10E94B204E9EB58
:100C1000F0E080818E7F808380818D7F808388E477
:100C20008093B80085E48093BC0008951092FE0381
:100C30001092FD0310920004109222040E94F80505
:100C400082E493E09093FC038093FB0383E493E0BE
:100C50009093FA038093F9030895CF93DF9391E083
:100C6000909378028823B9F0C091B800D091BA006F
:100C70008091BC008A7B8093BC0060E082E10E948E
:100C8000B20460E083E10E94B2040E94F805D093B0
:100C9000BA00C093B800DF91CF910895CF92DF9250
:100CA000EF92FF920F931F93CF93DF93D82FC62F0E
:100CB000613208F098C00E9479056B017C01809137
:100CC000690481116BC081E08093690480934804BA
:100CD0009FEF90934704109246049C0F9093450415
:100CE0008093440480914404DD0FD82BD0934404B6
:100CF00080914304813009F078C0109243040E942F
:100D000079056B017C01809144048093BB00809144
:100D10006B0490916C04A0916D04B0916E04892BCA
:100D20008A2B8B2BA1F00E94790500916B04109106
:100D30006C0420916D0430916E046C197D098E094C
:100D40009F09061717072807390708F448C080913C
:100D5000BC0083FDD8CF85EC8093BC000E94790550
:100D60006B017C0180916904813009F440C080915D
:100D700046048C1710F4C0914604E3E2F4E0A9E4C1
:100D8000B4E080E08C1355C08C2FDF91CF911F9180
:100D90000F91FF90EF90DF90CF90089580916B04BA
:100DA00090916C04A0916D04B0916E04892B8A2BF4
:100DB0008B2B09F484CF0E94790500916B0410916C
:100DC0006C0420916D0430916E046C197D098E09BC
:100DD0009F09061717072807390708F070CF809179
:100DE0006A040E942D06C0E0CFCF85EEB5CF80917A
:100DF0006B0490916C04A0916D04B0916E04892BEA
:100E00008A2B8B2B09F4AECF0E94790500916B04DD
:100E100010916C0420916D0430916E046C197D0961
:100E20008E099F09061717072807390708F09ACF78
:100E3000D6CF91919D938F5FA5CF8F929F92AF92C6
:100E4000BF92CF92DF92EF92FF920F931F93CF93B7
:100E5000DF93D0912204D13208F0D7C0182FC0916F
:100E600021040E9479056B017C0180916904811144
:100E70006BC082E080936904109348048FEF8093E5
:100E8000470410924604D0934504A1E0B4E0E3E2A5
:100E9000F4E080E0D81391C010924404809144049F
:100EA000CC0FC82BC093440480914304813009F0D7
:100EB00088C0109243040E9479056B017C018091E7
:100EC00044048093BB0080916B0490916C04A091CA
:100ED0006D04B0916E04892B8A2B8B2BA1F00E949C
:100EE000790500916B0410916C0420916D04309190
:100EF0006E046C197D098E099F09061717072807CC
:100F0000390708F442C08091BC0083FDD8CF85EC3E
:100F10008093BC000E9479056B017C01809169047B
:100F2000823009F450C0809147048F3F09F46FC0AC
:100F300080914704803209F46CC08091470480336B
:100F400009F469C084E026C080916B0490916C0420
:100F5000A0916D04B0916E04892B8A2B8B2B09F420
:100F600084CF0E94790580906B0490906C04A090CF
:100F70006D04B0906E046C197D098E099F09861668
:100F80009706A806B90608F070CF80916A040E94FF
:100F90002D0685E010920004109222041092FF03A7
:100FA000DF91CF911F910F91FF90EF90DF90CF9045
:100FB000BF90AF909F908F9008959D9191938F5F78
:100FC00069CF85EEA5CF80916B0490916C04A091C0
:100FD0006D04B0916E04892B8A2B8B2B09F49ECF64
:100FE0000E94790500916B0410916C0420916D04AE
:100FF00030916E046C197D098E099F090617170739
:101000002807390708F08ACFC0CF81E0C3CF80E03E
:10101000C1CF82E0BFCF83E0BDCF0895E091FE0352
:101020008091FD03E81730F4F0E0E75BFB4F80812F
:1010300090E008958FEF9FEF08959091FE038091C7
:10104000FD032FEF3FEF981748F4E92FF0E0E75B3F
:10105000FB4F208130E09F5F9093FE03C90108950C
:10106000CF92DF92EF92FF920F931F93CF93DF9374
:101070007C01CB018A012091FF03222389F0EB013F
:101080006B01C40ED51ECC15DD0569F06991D70141
:10109000ED91FC910190F081E02DC7010995F3CF0E
:1010A000642F0E94D105C801DF91CF911F910F914C
:1010B000FF90EF90DF90CF900895CF93DF931F9232
:1010C000CDB7DEB769832091FF032223F9F0209189
:1010D0002204203258F021E030E0FC0133832283E7
:1010E00090E080E00F90DF91CF910895809100040F
:1010F000E82FF0E0EF5FFB4F998190838F5F809343
:1011000000048093220481E090E0ECCF61E0CE0106
:1011100001960E94D105F7CF81E00C941D070F9333
:101120001F93CF93DF93082F162FC8E1D5E0888156
:101130000E94060389859A85DC01ED91FC9101905E
:10114000F081E02D602F099589859A85DC01ED916C
:10115000FC910190F081E02D612F099589859A8598
:10116000DF91CF911F910F910C948C08DC011A969E
:10117000ED91FC9130E020E00994DC011696ED91B0
:10118000FC9130E020E040E069E10994DC01169632
:10119000ED91FC9130E020E040E068E109949A0193
:1011A000DC011696ED91FC91462F67E10994EF92D0
:1011B000FF920F931F93CF93DF931F92CDB7DEB7AC
:1011C0007C018B01D8016C91673129F150F46531B4
:1011D000A0F40F90DF91CF911F910F91FF90EF90AE
:1011E00008956A3118F16E3FA1F7F80141814983F2
:1011F00069E2C7010E94B6080BC0F801418149832A
:10120000D7011696ED91FC9130E020E0C7010995D9
:101210000E5F1F4FD7CFF80181818983AE014F5FE9
:101220005F4F61E0C7010E94CF08F2CF0F5F1F4FF1
:10123000D7011696ED91FC9130E020E040E0C70127
:101240000995C0CF462FDC011696ED91FC9130E058
:1012500020E066E10994462FDC011696ED91FC91A1
:1012600030E020E065E10994EF92FF920F931F9325
:10127000CF93DF93EC01042F79016D3009F446C060
:1012800050F46B30C9F1693009F49FC06A3009F439
:1012900065C080E046C06E3009F452C06F3099F7E7
:1012A0000E94C608F7011381110F110F110F6C89ED
:1012B000160F60E4CE010E942B09612F62956F70BA
:1012C0006061CE010E942B09612F6F70CE010E94D8
:1012D0002209F7016481606BCE010E942209F701A7
:1012E000408151816281660F660F660FCE010E94B8
:1012F000CF080150A1F72EC066E171E0442311F040
:1013000061E171E0CE010E94D7080AC0411110C00E
:101310006AE071E00E94D708E881F98182898C8BAC
:1013200081E0DF91CF911F910F91FF90EF90089591
:1013300063E071E00E94D708E881F9818389EFCFEB
:101340000E94C60861E8CE010E942B09602FCE01E1
:101350000E942209CE010E94BD08E2CFEA85FB85EA
:1013600030E020E040E068E2CE010995EE81FF81A7
:1013700030E020E040E064E1CE01099541E06BE41B
:10138000CE010E94B608E881F981448169E2CE016C
:101390000E94B60840E06BE4CE010E94B608E881E6
:1013A000F981448169E2CE010E94B60841E06BE414
:1013B000CE010E94B608E881F981458169E2CE013B
:1013C0000E94B6086BE171E09DCF80E591E09983C2
:1013D00088831C8AA5CFDC011896ED91FC9130E042
:1013E00020E040E069E10994DC011896ED91FC9160
:1013F00030E020E040E068E10994CF93DF931F9252
:10140000CDB7DEB76983BE016F5F7F4F0E944B038C
:101410000F90DF91CF910895EF92FF921F93CF939A
:10142000DF93EC01162F7A010E94F40960E4CE01EB
:101430000E94FD09E885F9859701412F67E1CE01FA
:101440000995CE01DF91CF911F91FF90EF900C9401
:10145000EB09EF92FF921F93CF93DF93EC01142FD0
:101460007901663181F138F4643109F44BC065319A
:1014700079F080E022C06831C9F150F16931C9F7D3
:1014800080917702882391F1CE010E94EB092EC052
:1014900080917702882319F0CE010E94EB09CE01DA
:1014A0000E94F40960E0CE010E94FD09612FCE0187
:1014B0000E94FD0981E080937702DF91CF911F9117
:1014C000FF90EF900895642F0E94FD0981E0F5CF11
:1014D00080917702882319F0CE010E94EB09A701C1
:1014E000193138F4612FCE010E940C0A1092770254
:1014F000EDCF68E1CE010E940C0A185188E1E80E98
:10150000F11CEDCF8E898F3F11F488E78E8BE88533
:10151000F9859701412F64E1CE01DF91CF911F91B1
:10152000FF90EF900994CF93DF93EC01A889B989DC
:10153000FD01349131969491319684911396FD0179
:10154000A4916317A8F1961798F1631B770B8A9FF4
:10155000E02D1124E69FC001E79F900D1124280F74
:10156000392F311D83E0220F331F8A95E1F7C9011E
:101570000496DA01245F3F4FE889F989E80FF91FE3
:10158000E491ED93019682179307B1F78D89882333
:1015900061F0FA019A01285F3F4F8191DF011197B5
:1015A00080958C932E173F07C1F7DF91CF91089557
:1015B000FA01CA0108961192E817F907E1F7E6CF98
:1015C0008FB7F894809176028FBF0895CF93DF9301
:1015D000EC01683181F130F46431A1F0673159F0E8
:1015E00080E006C0693109F43FC06032C9F781E08C
:1015F000DF91CF91089550E0B9018CE095E00E9411
:101600003008F5CF8C859D85AE85BF85892B8A2BCB
:101610008B2B71F4E881F981A585B0E020EA36E8EA
:1016200041E050E00E94C21F6C877D878E879F87B4
:101630000E941606DCCF2C853D854E855F8560E0D7
:1016400074E284EF90E00E947A1F20513109410931
:10165000510956954795379527952093B8008E895F
:1016600086950E940603C3CF8CE095E00E948C080B
:10167000BECF0F931F93CF93DF938C01C62F642FA0
:10168000CC32E8F4CA3208F041C0C83271F1C93234
:1016900009F442C080E0C034D0F1CF73F801EC0F00
:1016A000F11D868D8F3F91F1C031E0F00E948904D9
:1016B00021E0892B09F420E0F801218F27C0CD32E9
:1016C00089F140F384EB8C0F823020F7CF73C00F89
:1016D000D12FD11D8E8D411133C061E00E94E004F5
:1016E00060E08E8D0E94B20411C0025E1F4FD0E0F8
:1016F000F80181918F018F3F31F061E0D03108F026
:1017000062E00E94E004DF5FD63191F781E0DF9173
:10171000CF911F910F91089570E090E080E00E94BA
:101720009E05F4CF85E090E0433010F082E090E039
:10173000880F991F880F991F05970197F1F7E6CF3A
:1017400062E00E94E004E2CF2F923F924F925F92BC
:101750006F927F928F929F92AF92BF92CF92DF92C1
:10176000EF92FF920F931F93CF93DF93CDB7DEB726
:101770002D970FB6F894DEBF0FBECDBFDC01549697
:10178000ED91FC915597D996DC90D997CF010396AE
:101790006A3019F5FC018491D80ED996DC92D9975C
:1017A000D8961C9281E090E02D960FB6F894DEBF9B
:1017B0000FBECDBFDF91CF911F910F91FF90EF90A2
:1017C000DF90CF90BF90AF909F908F907F906F9061
:1017D0005F904F903F902F90089532962490D89626
:1017E0005C90D8975D0124E0A20EB11CF490FC013E
:1017F000E490352C3F0CED0C81E0850D381610F48B
:10180000FF24F394C62E8D01612CCE0101964C016C
:10181000462C752C242DA4016C2DC5010E94930A21
:101820007C86DD8691E09B879A868986D80118960A
:10183000ED91FC919E01275F3F4F41E06FE0C501B4
:10184000099543947394731428F3D3946F0CDE14A6
:10185000F8F2F80180AD820D80AFA4CF8EBD0000FC
:101860000DB407FEFDCF8EB508958CBD9DBD0895C6
:10187000CF93DF9320911D0530911E05232BD1F0CE
:10188000D62FC82F80911F05909120050E94350CFE
:1018900060E080911C050E94B2048C2F0E942E0CE7
:1018A0008D2F0E942E0C61E080911C05DF91CF915D
:1018B0000C94B204DF91CF910C948F08EDEDF2E01F
:1018C0002FEF208325E5218325E0228324E0238355
:1018D000648375838683978348E050E0BF018FE679
:1018E00094E00C945303EDEDF2E09FEF908395E5C7
:1018F000918392E0928391E09383848345E050E06A
:10190000BF018FE694E00C945303EDEDF2E08FEF0E
:10191000808385E58183128243E050E0BF018FE63A
:1019200094E00C945303E82FF0E0E853FD4FE0817E
:10193000EC5FF0E0E352FD4F9181808108952F929A
:101940003F924F925F926F927F928F929F92AF924F
:10195000BF92CF92DF92EF92FF920F931F93CF939C
:10196000DF9300D000D01F92CDB7DEB78B011A01F4
:101970002A01550F66087708909100018917F1F048
:101980009F3F09F483C0C301B2010F900F900F90E5
:101990000F900F90DF91CF911F910F91FF90EF90DB
:1019A000DF90CF90BF90AF909F908F907F906F907F
:1019B0005F904F903F902F900C949E05E2ECF0E0EA
:1019C00094919D8397FDDFCF61E00E94E0048D81BB
:1019D000882321F09D81923009F04AC14801B12C41
:1019E000A12C60E072E18AE790E0A50198010E94D5
:1019F0009C1F29833A834B835C8369017A0181E0D0
:101A0000C81AD108E108F1089FEFC916D104E10412
:101A1000F10409F00CF401C160E472E48FE090E09D
:101A2000A50198010E949C1F69017A0181E0C81AF2
:101A3000D108E108F1089D81923009F0A2C08FEF32
:101A4000C816D104E104F10409F00CF4E5C160E921
:101A500070ED83E090E0A50198010E949C1F690150
:101A60007A0191E0C91AD108E108F1088FEFC81690
:101A7000D104E104F10411F00CF07EC183E09091F7
:101A8000B100987F892B8093B100CFC08093000173
:101A9000E2ECF0E094919D839F3F09F474CF913084
:101AA00041F150F0923009F446C09D8197FD6BCF13
:101AB00061E00E94E0048ECF14BC15BC94B5926026
:101AC00094BD95B5916095BD282F30E0F901EA5796
:101AD000FF4FE491F0E0EE0FFF1FEE58FF4F4591EE
:101AE0005491F901E656FF4FE491E0936D021D8297
:101AF0006BCF1092800010928100909181009860CD
:101B00009093810090918100916090938100282FA3
:101B100030E0F901EA57FF4FE491F0E0EE0FFF1FCC
:101B2000EE58FF4F45915491F901E656FF4FE4916D
:101B3000E0936C0249CF1092B0001092B1009091E6
:101B4000B00092609093B0009091B100916090933A
:101B5000B100282F30E0F901EA57FF4FE491F0E09F
:101B6000EE0FFF1FEE58FF4F459154915093C20264
:101B70004093C102F901E656FF4FE491E093C3029E
:101B800023CF9FEFC916D104E104F10409F00CF44E
:101B90006DC068E478EE81E090E0A50198010E94B4
:101BA0009C1F69017A0181E0C81AD108E108F10897
:101BB0009D81992309F4F9C08FEFC816D104E1047F
:101BC000F10411F00CF0FAC0EEC064E274EF80E0B2
:101BD00090E0A50194010E949C1F69017A0181E0B7
:101BE000C81AD108E108F10885E09FEFC916D104B1
:101BF000E104F10409F008F442CF62E17AE780E001
:101C000090E0A50194010E949C1F69017A0181E086
:101C1000C81AD108E108F108E4C081E09D81911162
:101C20002ECF95B5987F892B85BD2FEF3FEFA9016A
:101C3000411451046104710409F043C09D81913045
:101C400009F45DC0923009F46CC091119CCEC7BC00
:101C50002093720230937302409374025093750282
:101C600080916E00826080936E008DCE82E0D6CF30
:101C7000B12CA12C60E072E18AE790E0A501980107
:101C80000E949C1F69017A0181E0C81AD108E1080D
:101C9000F108C114D10491E0E906F104FCF491E0EB
:101CA0008D81813011F680918100887F892B80930E
:101CB00081002FEF3FEFA901411451046104710429
:101CC000F1F09801220F331FD1010E94BB1F28EEB3
:101CD00033E040E050E00E947A1FB0CF68E478EE35
:101CE00081E090E0A50198010E949C1F69017A01A2
:101CF00081E0C81AD108E108F10893E0D1CFD09271
:101D00008900C092880020936E0230936F02409346
:101D100070025093710280916F00826080936F0017
:101D200032CEC092B3002093C4023093C5024093D8
:101D3000C6025093C7028091700082608093700049
:101D400022CE84E09FEFC916D104E104F10409F02A
:101D500008F467CFC980DA80EB80FC808AE0F594D4
:101D6000E794D794C7948A95D1F781E0C81AD1082F
:101D7000E108F10885E055CF68E478EE81E090E075
:101D8000A50198010E949C1F69017A0181E0C81A8F
:101D9000D108E108F1089FEFC916D104E104F1046C
:101DA00011F00CF012CF84E06ACE83E09FEFC916E9
:101DB000D104E104F10409F00CF433CF62E17AE7D5
:101DC00080E090E0A50194010E949C1F69017A01C6
:101DD00081E0C81AD108E108F1089D81992309F42E
:101DE000B0CF86E09FEFC916D104E104F10409F0F9
:101DF00008F445CEC980DA80EB80FC809AE0F59447
:101E0000E794D794C7949A95D1F781E0C81AD1087E
:101E1000E108F10887E033CE82E031CECF92DF9245
:101E2000EF92FF920F931F93CF93DF936C01EB011F
:101E30007B01E40EF51E10E000E0CE15DF0561F039
:101E40006991D601ED91FC910190F081E02DC601E0
:101E50000995080F191FF1CFC801DF91CF911F918C
:101E60000F91FF90EF90DF90CF900895089590E04C
:101E700080E00895613208F060E20E944E06109200
:101E8000FE038093FD030895CF93C82F87E70E9438
:101E900006036C2F8CE095E00E945D088CE095E0D5
:101EA0000E948C0862E070E087E790E00E943A0FA1
:101EB0008091FD039091FE03891B990B823091055F
:101EC000ECF38CE095E00E941D08C82F8CE095E0B3
:101ED0000E941D0820E03C2FA901482BCA01982729
:101EE00089279827CF9108958F929F92AF92BF92A2
:101EF000CF92DF92EF92FF92F82E87E70E940603BF
:101F00006F2D8CE095E00E945D088CE095E00E94CA
:101F10008C0863E070E087E790E00E943A0F8091C0
:101F2000FD039091FE03891B990B83309105ECF31F
:101F30008CE095E00E941D08092E000CAA0BBB0B3B
:101F40008824982EA92EBA2E8CE095E00E941D08B8
:101F5000092E000CAA0BBB0B6C017D01C828D928E7
:101F6000EA28FB28FE2CED2CDC2CCC248CE095E020
:101F70000E941D08BC01990F880B990B6C297D29C3
:101F80008E299F29FF90EF90DF90CF90BF90AF9068
:101F90009F908F9008958F929F92AF92BF92CF9211
:101FA000DF92EF92FF928AEF0E94740FEDEDF3E063
:101FB00020813181C72ED82EE92EFF24E7FCFA9428
:101FC000C21AD30AE108F10857E0959587957795ED
:101FD00067955A95D1F7220F331F4B015C01821A86
:101FE000930AA108B108A5019401A281B3810E94BE
:101FF000CD1F4B015C01BBE0B594A79497948794E7
:10200000BA95D1F7A7019601C701B6010E946A1FD0
:102010009B01AC018CE055954795379527958A959E
:10202000D1F7A481B5810E94CD1F9B01AC019EE038
:1020300055954795379527959A95D1F7280D391DD0
:102040004A1D5B1D208F318F428F538FA5E0B0E07A
:102050000E94C21F60587F4F8F4F9F4F672F782F6E
:10206000892F992787FD9A950E94711E20E030E004
:1020700048EC52E40E94CE1DFF90EF90DF90CF908D
:10208000BF90AF909F908F9008951F93CF93DF9351
:102090001F92CDB7DEB7182F80911D0590911E05B8
:1020A000892BF1F080911F05909120050E94350C3D
:1020B00060E080911C050E94B204812F806C0E9418
:1020C0002E0C80E00E942E0C898361E080911C051B
:1020D0000E94B20489810F90DF91CF911F910895E2
:1020E000809118050E940603809121059091220598
:1020F000612F6068DC01ED91FC910190F081E02D91
:10210000099580912105909122050E948C0861E03B
:10211000809118050E944E061092FE038093FD03E5
:102120008091210590912205DC01ED91FC910084C4
:10213000F185E02D0995892B69F280912105909117
:102140002205DC01ED91FC910284F385E02D0995D7
:1021500089838091210590912205DC01ED91FC910C
:102160000084F185E02D0995B5CFCF93C82F80E28B
:102170000E9445108F70682F6C2B80E20E94380CF3
:1021800064E670E080E090E0CF910C949E05EF92C1
:10219000FF921F93CF93DF9361E0809129050E9406
:1021A000B2046AEF70E080E090E00E949E052FB7D5
:1021B000F8948091D9029091DA02A091DB02B0915B
:1021C000DC022FBF40912C0550912D0560912E050A
:1021D00070912F0584179507A607B70740F4109252
:1021E0002C0510922D0510922E0510922F0520918E
:1021F0003005211118C040912C0550912D0560919A
:102200002E0570912F05841B950BA60BB70B803DF7
:102210009740A105B10538F481E0DF91CF911F917E
:10222000FF90EF900895109230052FB7F8948091A9
:10223000D9029091DA02A091DB02B091DC022FBFAB
:1022400080932C0590932D05A0932E05B0932F0518
:10225000109227051092260510922505109224054C
:102260001092230561E0809129050E94E00460E05E
:10227000809129050E94B20464E170E080E090E062
:102280000E949E0561E0809129050E94B2048BE9BD
:1022900090E00197F1F760E0809129050E94E00449
:1022A00010E081E0C0E0D0E0E82EF12C809129051B
:1022B0000E9489048E159F0519F4DF5FDF3FB1F797
:1022C000809129050E948904DF3FC1F0C43098F055
:1022D000C0FD11C0E12FE695E695E695F0E0ED5DD5
:1022E000FA4F9081990F908320912B052D1710F4B0
:1022F000916090831F5FCF5FC535A9F61832B8F0A3
:10230000409127052091230580912405280F33272C
:10231000331F80912505280F311D80912605820FDE
:10232000932F911D99274817190609F475CF80E05E
:1023300074CF1F93CF93DF93182FC82FD0E0AE0137
:102340006DED72E082EE92E00E946D21EDEDF2E023
:102350008FEF808385E5818382E0810F828387E030
:1023600083831483AE014B5F5F4FBF018FE694E020
:10237000DF91CF911F910C945303EF92FF920F9333
:102380001F93CF93DF93EB010E943A0F8091FD03DF
:102390009091FE03891B990B8C179D078CF00DED16
:1023A00012E0CE0183529D4F7C010E151F0581F076
:1023B0008CE095E00E941D08F80181938F01F5CF14
:1023C000DF91CF911F910F91FF90EF900C94850CAE
:1023D0008C2FDF91CF911F910F91FF90EF900C9474
:1023E0009911FB0101900020E9F73197AF01461BDD
:1023F000570BDC01ED91FC910280F381E02D0994F3
:102400000F931F93CF93DF938C01D0E0C0E0611551
:10241000710519F00E94F111EC0165E272E0C8014A
:102420000E94F1118C0F9D1FDF91CF911F910F9191
:10243000089580912A058A30C1F488E30E9406033A
:1024400061EE8CE095E00E945D0868E08CE095E02C
:102450000E945D0860E08CE095E00E945D088CE0E1
:1024600095E00E948C0890E0089568E971E08FE69D
:1024700094E00E94001290E080E0089585ED809342
:10248000BC0080916B0490916C04A0916D04B0919C
:102490006E040796A11DB11D23E0B695A7959795EB
:1024A00087952A95D1F72091BC0024FD03C0109296
:1024B0006904089540916B0450916C0460916D041F
:1024C00070916E04452B462B472B69F30097A105AD
:1024D000B10541F025E32A95F1F700000197A10924
:1024E000B109E1CF80916A040C942D061F920F92DE
:1024F0000FB60F9211242F933F934F935F936F93D7
:102500007F938F939F93AF93BF93EF93FF938091AC
:10251000C4029091C502A091C602B091C702892B56
:102520008A2B8B2BD1F19091C302E091C102F091E3
:10253000C2028081892780838091C4029091C50264
:10254000A091C602B091C702181619061A061B06FA
:102550009CF48091C4029091C502A091C602B091F2
:10256000C7020197A109B1098093C4029093C502E3
:10257000A093C602B093C702FF91EF91BF91AF91B4
:102580009F918F917F916F915F914F913F912F918B
:102590000F900FBE0F901F90189580910001E2ECF4
:1025A000F0E0E4919FEF90930001E13051F030F0C2
:1025B000E23069F060E00E94B204DECF10926E005B
:1025C000F9CF90916F009D7F90936F00F3CF909122
:1025D00070009D7F9093700091E09093B000909177
:1025E000B100987F94609093B1001092B300E2CF55
:1025F0001F920F920FB60F9211242F933F934F9378
:102600005F936F937F938F939F93AF93BF93EF935A
:10261000FF938FE694E00E94D103FF91EF91BF9169
:10262000AF919F918F917F916F915F914F913F916A
:102630002F910F900FBE0F901F9018951F920F9221
:102640000FB60F9211242F938F939F93EF93FF93C5
:10265000E0917F04F09180048081E0918504F09105
:10266000860482FD1BC09081809188048F5F8F73E8
:1026700020918904821741F0E0918804F0E0E1594B
:10268000FB4F958F80938804FF91EF919F918F91DD
:102690002F910F900FBE0F901F9018958081F4CF4F
:1026A0001F920F920FB60F9211242F933F938F9387
:1026B0009F93AF93BF938091D9029091DA02A0913A
:1026C000DB02B091DC023091BC0223E0230F2D37F6
:1026D00058F50196A11DB11D2093BC028093D9022B
:1026E0009093DA02A093DB02B093DC028091BD02EA
:1026F0009091BE02A091BF02B091C0020196A11DAF
:10270000B11D8093BD029093BE02A093BF02B0930F
:10271000C002BF91AF919F918F913F912F910F90E8
:102720000FBE0F901F90189526E8230F0296A11D4B
:10273000B11DD2CF1F920F920FB60F9211242F937B
:102740003F934F935F936F937F938F939F93AF9339
:10275000BF93EF93FF938091B900887F803609F48F
:102760004AC0F0F5883209F4A7C018F5803109F4A1
:102770009BC0B8F4882309F4F9C0883009F494C0E8
:10278000FF91EF91BF91AF919F918F917F916F9149
:102790005F914F913F912F910F900FBE0F901F901F
:1027A0001895883109F488C0803251F78093470426
:1027B00014C0803409F49DC040F48033B9F38833E9
:1027C000F9F68093470485ECB0C0803509F485C0E4
:1027D000883509F496C0883499F60E943E12D0CF0D
:1027E000883909F48CC038F5883729F050F48836D8
:1027F00011F0803729F683E0809369041092BB02C0
:1028000057C0883809F47BC0803919F0803809F046
:10281000B7CF8091BB02803208F071C0E091BB025B
:1028200081E08E0F8093BB028091BB00F0E0E55603
:10283000FD4F80833DC0803B39F0E0F4803A09F4DD
:1028400079C0883A09F09CCF84E0809369041092A3
:102850009A0210929902E091FB03F091FC03099512
:102860008091990281110FC081E0809399021092AA
:10287000790209C0803C09F4A6CF883C09F4A3CFB3
:10288000883B09F07DCFE0919A0281E08E0F809322
:102890009A02F0E0E758FD4F80818093BB00909151
:1028A0009A028091990229C0809144048093BB00D0
:1028B00085EC8093BC0064CF9091460480914504E0
:1028C000981758F5E091460481E08E0F80934604F6
:1028D000F0E0ED5DFB4F8081E9CFE091460481E0BF
:1028E0008E0F809346048091BB00F0E0ED5DFB4FBE
:1028F000808390914604809145049817C8F285E83A
:10290000D8CFE091460481E08E0F809346048091F9
:10291000BB00F0E0ED5DFB4F8083809148048111A6
:102920005CCF81E08093430484EA8093BC001092E2
:10293000690426CF85EC8093BC00109269048091D5
:10294000BB02803230F4E091BB02F0E0E556FD4F6F
:1029500010826091BB0270E0E091F903F091FA03FC
:102960008BE992E009951092BB020ACF10924704BE
:1029700034CFCF93109272041092710488EE93E0DA
:10298000A0E0B0E08093730490937404A093750466
:10299000B09376042CE631E03093700420936F04FA
:1029A00025EC30E030937C0420937B0424EC30E071
:1029B00030937E0420937D0420EC30E0309380043B
:1029C00020937F0421EC30E0309382042093810433
:1029D00022EC30E0309384042093830426EC30E032
:1029E0003093860420938504109288041092890401
:1029F00010928A0410928B0410920F0510920E050B
:102A00008093100590931105A0931205B0931305C0
:102A10008EE791E090930D0580930C05109234059C
:102A2000109233051092690510926A0580E991E0D1
:102A3000909332058093310510923605109235053A
:102A400010924A0510924D051092410510924205D0
:102A500010924305109244058FEF80934B058093AD
:102A60004F05E3E5F5E089E695E0CFEFC1938E17DA
:102A70009F07E1F784E399E090933A058093390545
:102A800089E29AE090933C0580933B0586EE9AE0BC
:102A900090933E0580933D0589E39BE0909340052C
:102AA00080933F0530E020E040E069E085E395E079
:102AB0000E943409C0935E05C0935F05C093600512
:102AC00083E0809329058BE080932A0586E080933C
:102AD0002B0581E08093300580E580931F051092DF
:102AE0002005CF910895CF93DF93CDB7DEB76E97D2
:102AF0000FB6F894DEBF0FBECDBF789484B5826068
:102B000084BD84B5816084BD85B5826085BD85B591
:102B1000816085BD80916E00816080936E0010920F
:102B2000810080918100826080938100809181008A
:102B3000816080938100809180008160809380001B
:102B40008091B10084608093B1008091B000816079
:102B50008093B00080917A00846080937A008091A5
:102B60007A00826080937A0080917A0081608093FD
:102B70007A0080917A00806880937A001092C10078
:102B800014BE0FB6F894A895809160008861809378
:102B90006000109260000FBE61E085E00E94E004DA
:102BA00044E650E06BE072E085E00E949F0CE0910B
:102BB0007F04F091800482E08083E0917B04F091B7
:102BC0007C041082E0917D04F0917E0480E180839A
:102BD00010928704E0918304F091840486E080835E
:102BE000E0918104F0918204808180618083E09192
:102BF0008104F0918204808188608083E091810467
:102C0000F0918204808180688083E0918104F0915A
:102C1000820480818F7D808380EA96E8A1E0B0E025
:102C20008093410590934205A0934305B0934405DA
:102C3000E0913905F0913A0530E020E040E06AE0AB
:102C400085E395E00995CE01019628E0FC011192FB
:102C50002A95E9F70E941003E0913905F0913A05B1
:102C600030E020E040E06BE085E395E00995E091FD
:102C70003905F0913A0530E020E041E06DE085E370
:102C800095E009958DEA92E090934605809345057D
:102C90006DEB71E081E395E00E94001280912A05BE
:102CA0008A3009F09CC064EF71E080E090E00E94FF
:102CB0009E0580912A058A3061F488E30E9406030C
:102CC0006AEB8CE095E00E945D088CE095E00E9444
:102CD0008C086CE271E080E090E00E949E050E940A
:102CE0001912892B31F065EC71E08FE694E00E94B7
:102CF000001264EF71E080E090E00E949E0506E023
:102D000010E080912A058A3009F062C061E070E02D
:102D100088E390E00E943A0F9AE0E92EF12C80912E
:102D2000FD039091FE03891B990B019761F0F1E07F
:102D3000EF1AF10809F444C061E070E080E090E02F
:102D40000E949E05ECCF8CE095E00E941D0883FD5B
:102D500058C06AEF71E08FE694E00E940012809103
:102D60002A058A3061F488E30E9406036AEB8CE04E
:102D700095E00E945D088CE095E00E948C0864EF6D
:102D800071E080E090E00E949E050E941912892B5C
:102D900031F065EC71E08FE694E00E94001264EF80
:102DA00071E080E090E00E949E050150110909F059
:102DB000A8CF68E272E08FE694E00E940012FFCF95
:102DC00065EE71E08FE694E00E94001280E0BFCFD4
:102DD00068E971E08FE694E00E940012BACF60E0EB
:102DE000809129050E94E00461E0809129050E94FC
:102DF000B20410922C0510922D0510922E051092FF
:102E00002F050E94160687E70E94060360ED8CE0FE
:102E100095E00E945D088CE095E00E948C0861E0DE
:102E200070E087E790E00E943A0F9091FD03809157
:102E3000FE039817F1F38CE095E00E941D08883599
:102E400009F065C088E80E94440F9093DE038093E8
:102E5000DD038AE80E94440F9093E0038093DF0330
:102E60008CE80E94440F9093E2038093E1038EE884
:102E70000E94440F9093E4038093E30380E90E944F
:102E8000440F9093E6038093E50382E90E94440F88
:102E90009093E8038093E70384E90E94440F9093A2
:102EA000EA038093E90386E90E94440F9093EC03C0
:102EB0008093EB0388E90E94440F9093EE03809384
:102EC000ED038AE90E94440F9093F0038093EF038F
:102ED0008CE90E94440F9093F2038093F1038EE9F2
:102EE0000E94440F9093F4038093F30387E70E94BA
:102EF000060364EF8CE095E00E945D086FE38CE0D0
:102F000095E00E945D088CE095E00E948C088CE0C2
:102F100095E090932205809321050E941606109259
:102F20001E0510921D0589E18093180560E88FE168
:102F30000E948F0864E670E080E090E00E949E05A9
:102F400067E080E20E94380C64E670E080E090E088
:102F50000E949E0560E883E20E94380C64E670E0FF
:102F600080E090E00E949E0583E20E944510682F59
:102F7000606383E20E94380C64E670E080E090E0D9
:102F80000E949E0580E095E090931A0580931905B4
:102F900080E790E00E94B51064E670E080E090E089
:102FA0000E949E0580E490E00E94B51003EC10E0C2
:102FB000F801649161116BC065E272E08FE694E004
:102FC0000E94F1119E012F5F3F4F3A8729878FE6BC
:102FD00094E00E94B103181619060CF065C58FE63F
:102FE00094E00E948F0397FD5FC5E091D80221E035
:102FF0002E0F2093D802F0E0E352FD4F8083223061
:1030000009F44FC0233009F451C0213059F444E091
:1030100050E050930201409301018F3F9105B9F2B6
:103020001092D80260910101709102018091D80242
:103030008617170660F21091E0021B30E8F550E1A8
:10304000159F9001112423503E4FE8ECF2E040E13F
:1030500011924A95E9F72115310509F0EDC01238B2
:1030600009F4E1C308F073C0163009F461C108F037
:1030700058C0133009F442C108F03FC0113009F4C0
:103080001FC1123009F429C10E94850C6BC18FE663
:1030900094E00E94F3030F5F1F4F892B09F088CF44
:1030A0008BCF8535910509F0BBCFBCCF03969093AC
:1030B000020180930101B6CF8FE7810F8D3060F45C
:1030C000812F8158990B9C0184E0220F331F8A9530
:1030D000E1F7235D3E4FB9CF30E020E01B3F08F41D
:1030E000B4CFE12FEB5FFF0B9F0104E0220F331FF2
:1030F0000A95E1F723523F4FA8CF143009F40DC1D0
:10310000153011F688E0E985FA8511928A95E9F77C
:10311000CE0101960E9410031092690510926A0573
:10312000B3CF193009F486C148F4173009F443C10C
:10313000183009F0A9CF0E94CB0F12C11A3009F440
:1031400035C3113809F0A0CF0E9416069DCF18385C
:1031500009F4DDC398F5153809F49CC3B8F41338A5
:1031600009F47CC3E091C902143809F08DCFF0E076
:10317000E352FD4F648170E0E091C802F0E0E35259
:10318000FD4F848190E00E94BD11ECC0163809F417
:103190009CC3173809F078CFE091C802F0E0E35201
:1031A000FD4F60E084810E94E004E091C802F0E0FD
:1031B000E352FD4F84810E94890418C11D3809F42F
:1031C0001AC448F5193809F406C41A3809F05CCF56
:1031D0000091C80210E0F801EF51FD4FE080F12CA2
:1031E0000E511D4F6801C601801B910B8E159F0566
:1031F0000CF04ACFF60162818181762F682F24E09E
:10320000759567952A95E1F780810E941C05F3E08A
:10321000CF0ED11CE8CF1E3F09F441C41F3F09F077
:1032200033CF88E198E00FB6F894A89580936000BA
:103230000FBE90936000FFCFA8ECB2E050E040E0FA
:1032400090E080E0F901E40FF51FE491EE2309F42A
:1032500006CF8D93EC34E1F098F4E434D9F0E63401
:10326000B9F0E23409F40196FC0134966E177F0739
:1032700008F478C04F5F5F4F4031510519F7EFCE2A
:10328000E236B1F0E33741F0E33571F70296ECCF67
:103290000496EACF0896E8CFFC01EF51FD4F6F018D
:1032A00001900020E9F78C199D098E0F9F1FDCCF3C
:1032B000FC01E352FD4FE48101968E0F911DD4CFA6
:1032C00081E00E94930C8C0180E00E94930CA80185
:1032D000BC0185E00E949F0CD7CEE091C902F0E0CE
:1032E000E352FD4F8481E091C802F0E0E352FD4FCC
:1032F00094819093690580936A05C6CE6091C80257
:103300006C5F70E063527D4F6115710509F4BCCEAE
:1033100081E395E00E94F111B7CE6091C8026C5F25
:1033200070E063527D4F81E395E00E940012ACCEC5
:103330000E94C710882341F080912A058B3049F004
:1033400018F08551823088F060E070E080EC9FE7F3
:1033500007C06091250570E090E080E00E946F1E3C
:103360000E945E0C1092D80232CE10912505612F7A
:103370006F7770E090E080E00E94711E20E030E006
:1033800040E853E40E94FD1E6B017C01609126051C
:1033900070E090E080E00E94711EA70196010E94FB
:1033A000621D20E030E040E251E40E94CE1D17FF94
:1033B000D7CF9058D5CF0E94C710882341F0809175
:1033C0002A058B3049F018F08551823090F060E08A
:1033D00070E080EC9FE707C06091230570E090E00B
:1033E00080E00E946F1E0E94401E862F0E94730C78
:1033F000B9CF6091230570E090E080E00E946F1EDD
:1034000020E030E040E853E40E94FD1E6B017C01A7
:103410006091240570E090E080E00E94711EA70199
:1034200096010E94621D20E030E040E251E40E94DB
:10343000CE1DD9CF0E94CB0F87EF0E94740F9B0146
:10344000AC01B4E05595479537952795BA95D1F7D6
:103450002B8F3C8F4D8F5E8F8091F5039091F603FB
:10346000A091F703B091F8036C017D01FF0CCC082B
:10347000DC2C76019C01AD016C2D7C2D8C2D9C2DBE
:10348000345F4140510961097109810991091901AC
:103490002A013B014C0159016A017B018C010E9408
:1034A000D51F2B873C874D875E876F87788B898BED
:1034B0009A8B3091EE032091ED03932F990F990B86
:1034C000AB84BC846A017B01082F1A89492F592FCC
:1034D000692F792F892F0E94D51F2B8B3C8B4D8B09
:1034E0005E8B6F8B788F898F9A8F3091EC03209150
:1034F000EB03932F990F990B510162017301840122
:10350000492F592F692F792F892F0E94D51F01E14B
:103510000E940421AB88BC88CD88DE88EF88F88CB7
:10352000098D1A8D0E943A2159016A017B01E82F09
:10353000192F3091EA032091E903932F990F990BEA
:10354000492F592F692F792F892F03E20E940421D7
:103550000E2F0E943A212B8B3C8B4D8B5E8B6F8BF9
:10356000788F898F9A8F3091E6032091E503932F0E
:10357000990F990B5101620173018401492F592F51
:10358000692F792F892F0E94D51F0CE00E940421FA
:1035900019012A013B014C013091E8032091E70316
:1035A000932F990F990BAB84BC84CD84DE84EF8478
:1035B000F88809891A89492F592F692F792F892F5E
:1035C0000E94D51F08E00E941D2151016201730174
:1035D00084010E943A2170588F4F9F4F2090E3033F
:1035E0003090E4035101C12CD12CE12CF12C00E0EE
:1035F00010E00E94D51F01E20E941D2119012A013D
:103600003B014C01A0E00E944C2109F4CBC080E0BA
:1036100090E0A0E1B0E02B8D3C8D4D8D5E8D821B46
:10362000930BA40BB50B6C017D01FF0CCC08DC2CBB
:1036300076019C01AD016C2D7C2D8C2D9C2D0FE114
:103640000E940421AB88BC88CD88DE88EF88F88C86
:10365000098D1A8D0E944321E5E3AE2EFCE0BF2EBA
:10366000C12CD12CE12CF12C00E010E00E94D51FE0
:1036700051016201730184010E942F202B873C8736
:103680004D875E876F87788B898B9A8B0DE00E94C0
:103690001D21322E432E542E652E762E872E982EE7
:1036A000292E3091F4032091F303932F990F990B56
:1036B000A32CB42CC52CD62CE72CF82C092D122DBC
:1036C000492F592F692F792F892F0E94D51F0E94CA
:1036D000D51F09E10E941D21AB84BC84CD84DE840A
:1036E000EF84F88809891A890E943A2119012A0170
:1036F0003B014C013091F2032091F103932F990F7C
:10370000990B492F592F692F792F892F0E94D51F87
:1037100003E10E941D2159016A017B018C01910185
:10372000A201B301C4010E943A2108E00E941D21B8
:1037300059016A017B01E82F192F3091F003209184
:10374000EF03932F990F990B492F592F692F792F39
:10375000892F04E00E9404210E2F0E943A21490182
:103760005A01892C9A2CAB2CBB243FEF3093DD02FD
:1037700085E58093DE0285E08093DF0283E080931D
:10378000E0028092E1029092E202A092E3021092A3
:10379000E40248E050E06DED72E08FE694E00E94B4
:1037A0005303E0CD812C912C5401DFCFE091C8026E
:1037B000F0E0E352FD4F8481813049F130F08230F6
:1037C00061F160E070E0CB01CBCD88E20E94451052
:1037D000182F89E20E944510782F612F072E000CC8
:1037E000880B990B0E94711E6B017C016091190579
:1037F00070911A05072E000C880B990B0E94711E00
:103800009B01AC01C701B6010E94CE1DA9CD8AE281
:103810000E944510182F8BE2DDCF8CE20E944510EC
:10382000182F8DE2D7CFE091C802F0E0E352FD4FB0
:1038300084810E9406036091C90270E0FB01EF5190
:10384000FD4F408150E06E517D4F8CE095E00E942D
:1038500030088CE095E00E948C08C8CDE091C80249
:10386000F0E0E352FD4F84810E9406036091C9029B
:1038700070E0FB01EF51FD4F408150E06E517D4FF4
:103880008CE095E00E94300880E00E941D07E091E6
:10389000CA026DCC10E0F12CE12C812F0E940603AE
:1038A0008CE095E00E948C08811108C0F701E3527A
:1038B000FD4F1083A7014F5F5F4F7A011F5F1F37D6
:1038C00061F78E2D0E9499114DCDC090C8028C2DAC
:1038D00090E0FC01EF51FD4FE080F12CFC01EE5136
:1038E000FD4F6F018F01C8018C199D098E159F0531
:1038F0000CF0CACB61E0F80180810E94E004F8017D
:10390000618180810E94B2040E5F1F4FECCF81E085
:103910000E94930C8C01E091C802F0E0E352FD4F4D
:10392000F48060E08F2D0E94E0040115110511F470
:1039300001E010E082EF8F0DFDE0FF1508F08F2D04
:103940008770582F506460E070E0CB0130E020E0D9
:1039500050937C0040917A00406440937A004091FB
:103960007A0046FDFCCFE091780040917900D42E9A
:10397000CE2E0D2C000CEE08FF086C0D7D1D8E1D4B
:103980009F1D2F5F3F4F0217130711F7980150E05B
:1039900040E00E947A1FA1E7B2E00E94C21FDC0152
:1039A000CB0137E0B695A795979587953A95D1F7CE
:1039B0002FEF2093DD0225E52093DE0223E0209304
:1039C000DF0222E02093E0028093E1029093E20282
:1039D00046E050E0E0CE82E00E94930C8C0181E052
:1039E0000E94930CE091C802F0E0E352FD4FA80161
:1039F000BC0184816FCC0091CA0210E0F801EF5144
:103A0000FD4FA080B12CE091C902F0E0E352FD4FE0
:103A1000948080E00E94930C6C010E511D4F780140
:103A2000C701801B910B8A159B058CF4F7016281FD
:103A30008181762F682F94E0759567959A95E1F7C7
:103A400080810E941C05F3E0EF0EF11CE9CFC11448
:103A5000D10409F419CBB601DD0C880B990B0E9437
:103A60009E0521E083E391E0921611F090E080E062
:103A70006C0184E0D694C7948A95E1F77801C70178
:103A8000801B910B8A159B050CF0FECAB601F7014D
:103A900080810E941C05F3E0EF0EF11CF0CF4BE19A
:103AA00050E06CE072E079CE80E090E0892B09F480
:103AB0008ECA0E94BD03882309F489CA0E940000AF
:103AC00086CA5058BB27AA270E94791D0C94C31E92
:103AD0000E94B51E38F00E94BC1E20F039F49F3FB2
:103AE00019F426F40C94B21E0EF4E095E7FB0C9446
:103AF000AC1EE92F0E94D41E58F3BA176207730751
:103B00008407950720F079F4A6F50C94F61E0EF4C0
:103B1000E0950B2EBA2FA02D0B01B90190010C01DD
:103B2000CA01A0011124FF27591B99F0593F50F4F5
:103B3000503E68F11A16F040A22F232F342F44274D
:103B4000585FF3CF469537952795A795F040539545
:103B5000C9F77EF41F16BA0B620B730B840BBAF015
:103B60009150A1F0FF0FBB1F661F771F881FC2F780
:103B70000EC0BA0F621F731F841F48F48795779594
:103B80006795B795F7959E3F08F0B0CF9395880F4E
:103B900008F09927EE0F9795879508950E94E21DEA
:103BA0000C94C31E0E94BC1E58F00E94B51E40F02B
:103BB00029F45F3F29F00C94AC1E51110C94F71EB0
:103BC0000C94B21E0E94D41E68F39923B1F35523BE
:103BD00091F3951B550BBB27AA2762177307840720
:103BE00038F09F5F5F4F220F331F441FAA1FA9F3B6
:103BF00035D00E2E3AF0E0E832D091505040E695A4
:103C0000001CCAF72BD0FE2F29D0660F771F881F04
:103C1000BB1F261737074807AB07B0E809F0BB0BF7
:103C2000802DBF01FF2793585F4F3AF09E3F51050B
:103C300078F00C94AC1E0C94F71E5F3FE4F3983EB2
:103C4000D4F3869577956795B795F7959F5FC9F7F4
:103C5000880F911D9695879597F90895E1E0660F75
:103C6000771F881FBB1F621773078407BA0720F0EE
:103C7000621B730B840BBA0BEE1F88F7E095089557
:103C80000E94DC1E88F09F5798F0B92F9927B751F2
:103C9000B0F0E1F0660F771F881F991F1AF0BA95F0
:103CA000C9F714C0B13091F00E94F61EB1E008953A
:103CB0000C94F61E672F782F8827B85F39F0B93F2C
:103CC000CCF3869577956795B395D9F73EF49095A3
:103CD0008095709561957F4F8F4F9F4F0895E89421
:103CE00009C097FB3EF490958095709561957F4F44
:103CF0008F4F9F4F9923A9F0F92F96E9BB279395F2
:103D0000F695879577956795B795F111F8CFFAF401
:103D1000BB0F11F460FF1BC06F5F7F4F8F4F9F4F32
:103D200016C0882311F096E911C0772321F09EE890
:103D3000872F762F05C0662371F096E8862F70E0F6
:103D400060E02AF09A95660F771F881FDAF7880FD0
:103D50009695879597F9089597F99F6780E870E0A1
:103D600060E008959FEF80EC089500240A941616F1
:103D7000170618060906089500240A941216130659
:103D8000140605060895092E0394000C11F48823E7
:103D900052F0BB0F40F4BF2B11F460FF04C06F5F03
:103DA0007F4F8F4F9F4F089557FD9058440F551FD9
:103DB00059F05F3F71F04795880F97FB991F61F0AD
:103DC0009F3F79F087950895121613061406551F24
:103DD000F2CF4695F1DF08C0161617061806991F90
:103DE000F1CF86957105610508940895E894BB2785
:103DF00066277727CB0197F908950E94101F0C942E
:103E0000C31E0E94B51E38F00E94BC1E20F09523F0
:103E100011F00C94AC1E0C94B21E11240C94F71EDD
:103E20000E94D41E70F3959FC1F3950F50E0551F6B
:103E3000629FF001729FBB27F00DB11D639FAA27FF
:103E4000F00DB11DAA1F649F6627B00DA11D661F4E
:103E5000829F2227B00DA11D621F739FB00DA11D6F
:103E6000621F839FA00D611D221F749F3327A00D29
:103E7000611D231F849F600D211D822F762F6A2FC5
:103E800011249F5750409AF0F1F088234AF0EE0F2A
:103E9000FF1FBB1F661F771F881F91505040A9F757
:103EA0009E3F510580F00C94AC1E0C94F71E5F3FB2
:103EB000E4F3983ED4F3869577956795B795F79593
:103EC000E7959F5FC1F7FE2B880F911D969587950B
:103ED00097F90895DB018F939F930E94C21FBF91B2
:103EE000AF91A29F800D911DA39F900DB29F900D49
:103EF00011240895A1E21A2EAA1BBB1BFD010DC0BF
:103F0000AA1FBB1FEE1FFF1FA217B307E407F50789
:103F100020F0A21BB30BE40BF50B661F771F881F65
:103F2000991F1A9469F760957095809590959B01FB
:103F3000AC01BD01CF010895052E97FB1EF400943E
:103F40000E94B31F57FD07D00E947A1F07FC03D0C1
:103F50004EF40C94B31F50954095309521953F4FEA
:103F60004F4F5F4F089590958095709561957F4F65
:103F70008F4F9F4F08950E945E21B7FF0895821BC7
:103F8000930B08950E945E21A59F900DB49F900D04
:103F9000A49F800D911D11240895B7FF0C94C21F9A
:103FA0000E94C21F821B930B0895DF93CF931F9330
:103FB0000F939A9DF02D219FF00D8B9DF00D8A9D02
:103FC000E02DF10D039FF00D029FE00DF11D4E9DC0
:103FD000E00DF11D5E9DF00D4F9DF00D7F936F93F1
:103FE000BF92AF925F934F93D5010E945E218B01E8
:103FF000AC01D7010E945E21EB01E80FF91FD60149
:104000000E9424202F913F91D6010E945E21C60F6D
:10401000D71FE81FF91FAF91BF910E9424202F9155
:104020003F910E945E21C60FD71FE81FF91FD601DE
:104030000E945E21E60FF71F9801BE01CF010F918C
:104040001F91CF91DF9108950E945E21460F571F67
:10405000C81FD91F08F431960895689401C0E894E8
:10406000F92FF12B12F00C946120A0E0B0E0EBE30B
:10407000F0E20C94D320092E059422F40E94BD2076
:10408000112392F4F0E80F26FFEFE094F0940095EE
:104090001095B094C094D094A194BF0ACF0ADF0ABF
:1040A000EF0AFF0A0F0B1F0B0E946C2007FC0E94F7
:1040B000BD20CDB7DEB7ECE00C94EF20689401C0D2
:1040C000E8948F929F92CF93DF930E946C20DF91B0
:1040D000CF919F908F90089588249924F401E40152
:1040E000B0E49F93AA279A158B049C04ED05FE0566
:1040F000CF05D007A10798F4AD2FDC2FCF2FFE2FCF
:10410000E92D982C892E982F872F762F652F542FE5
:10411000432F322F2227B85031F7BF9127C01B2ED3
:10412000BF91BB27220F331F441F551F661F771FE8
:10413000881F991F881C991CEE1FFF1FCC1FDD1FB5
:10414000AA1FBB1F8A149B04EC05FD05CE05DF05E5
:10415000A007B10748F08A189B08EC09FD09CE09B1
:10416000DF09A00BB10B21601A94E1F62EF4940143
:10417000AF01BE01CD01000C08956095709580954A
:10418000909530954095509521953F4F4F4F5F4FFB
:104190006F4F7F4F8F4F9F4F08952F923F924F92B7
:1041A0005F926F927F928F929F92AF92BF92CF92C7
:1041B000DF92EF92FF920F931F93CF93DF93CDB7D0
:1041C000DEB7CA1BDB0B0FB6F894DEBF0FBECDBF48
:1041D00009942A88398848885F846E847D848C8419
:1041E0009B84AA84B984C884DF80EE80FD800C8122
:1041F0001B81AA81B981CE0FD11D0FB6F894DEBF05
:104200000FBECDBFED010895002E083090F0982F1D
:10421000872F762F652F542F432F322F22270850B8
:10422000F4CF220F331F441F551F661F771F881FAF
:10423000991F0A95B2F7002D089597FD1094002E4E
:10424000083098F00850232F342F452F562F672F12
:10425000782F892F912DF4CF159497958795779581
:10426000679557954795379527950A95AAF711248D
:10427000002D08952A0D3B1D4C1D5D1D6E1D7F1DDB
:10428000801F911F08952A193B094C095D096E0989
:104290007F09800B910B08950024A7FD00942A1735
:1042A00030054005500560057005800590050895AE
:1042B000EE0FFF1F0590F491E02D0994A29FB0012D
:1042C000B39FC001A39F700D811D1124911DB29F4A
:1042D000700D811D1124911D08956817790768F4E8
:1042E000FB01DC01E40FF51FA40FB51F02C0029013
:1042F0000E9241505040D8F708950C947F21FB0155
:10430000DC0102C001900D9241505040D8F7089551
:04431000F894FFCF4F
:10431400FF04001815A015C019FF1815A115C81918
:10432400FF1815AE19FF1815AF19FF1815AE15D5DE
:10433400168015A8163F15D316001540158D1614B2
:104344001520160015A115C815DA1612158116CFF9
:1043540015D916F115DB1640152E15A415A619FF4F
:104364000001140A6464323200127A0000042896B0
:10437400100800008000400000000000F303530315
:1043840080034004B1038F03A303000000005D0811
:104394003008370F0D0844031D080E080000000004
:1043A400A40B0E0F370F360F546869732066756EB1
:1043B4006374696F6E206F6E6C7920737570706FA3
:1043C400727420666F722044485431300048656C22
:1043D4006C6F2021004661696C656420746F2073E2
:1043E40065742073797374656D20636F6E662072D3
:1043F4006567200A004661696C656420746F2072E9
:1044040065616420627974650A0067657420737459
:1044140061747573206572726F7221005043206D50
:104424006F64653A2047726F7665426567696E6EA0
:1044340065724B69740D0A004572726F72203A20DE
:104444004661696C656420746F20696E69742044E8
:0844540048542031310A000038
:00000001FF
