:100000000C94CD010C94B8130C9491130C94F5013D
:100010000C94F5010C94F5010C94F5010C946D12FF
:100020000C94F5010C94F5010C94F5010C94F50178
:100030000C94F5010C94F5010C94F5010C94F50168
:100040000C9447130C94F5010C9415130C94EF12B7
:100050000C94F5010C94F5010C94F5010C94F50148
:100060000C94DF130C94F50100000000240027001D
:100070002A000000000023002600290000000008DC
:10008000000201000003040700000000000000005F
:10009000696E69742063616C6962005043206D6F02
:1000A00064653A2051756164437261776C657231A1
:1000B0002E360001020408102040800102040810BE
:1000C0002001020408102000000000250028002B59
:1000D00000040404040404040402020202020203F1
:1000E00003030303030200000000000000000000FF
:1000F0000000000000000000000000000000000000
:100100000000000000007373000000000000000009
:1001100000000000000000000000000000000000DF
:1001200000000000000000000000000000000000CF
:10013000000000000000424200000000000000003B
:10014000000000000000426200000000000000000B
:1001500000000000000042624200000000000000B9
:10016000000000000000424200000000000000000B
:10017000000000000000000000000000000000007F
:10018000000000000000620000000000000000000D
:10019000000000000000420000000000000000001D
:1001A00000000000000042530000000000000000BA
:1001B0000000000000004253530000000000000057
:1001C00000000000000062000000000000000000CD
:1001D000000000000000426200000000000000007B
:1001E0000000000000005342620000000000000018
:1001F00000000000000000000000000000000000FF
:100200000000000000004253000000000000000059
:100210000000000000005353000000000000000038
:100220000000000000005353000000000000000028
:100230000000000000005353000000000000000018
:100240000000000000005353000000000000000008
:10025000000000000000000000000000000000009E
:10026000000000000000424200000000000000000A
:1002700000000000000042420000000000000000FA
:10028000000000000000420000000000000000002C
:10029000000000000000420000000000000000001C
:1002A00000000000000053000000000000000000FB
:1002B000000000000000000000000000000000003E
:1002C00000000000000042000000000000000000EC
:1002D000000000000000000000000000000000001E
:1002E000000000000000000000000000000000000E
:1002F00000000000000000000000000000000000FE
:1003000000000000000000000000000000000000ED
:1003100000000000000000000000000000000000DD
:1003200000000000000000000000000000000000CD
:1003300000000000000000000000000000000000BD
:10034000000000000000420000000000000000006B
:10035000000000000000000000000000000000009D
:10036000000000000000000000000000000000008D
:10037000000000000000000000000000000000007D
:10038000000000000000000000000000000000006D
:100390000000000000004315782311241FBECFEF9A
:1003A000D8E0DEBFCDBF12E0A0E0B1E0E0E9FFE4BD
:1003B00002C005900D92A836B107D9F725E0A8E64E
:1003C000B2E001C01D92A03AB207E1F711E0CCEC17
:1003D000D1E004C02197FE010E943126CB3CD10719
:1003E000C9F70E94B0150C94BB270C940000823012
:1003F000F8F4E82FF0E0EE0FFF1FE25FFE4F2DEC68
:1004000034E031832083813041F0809169008C7F1A
:10041000682B60936900E89A089580916900837F52
:10042000660F771F660F771F682B60936900E99A44
:10043000089508950895AF92BF92CF92DF92EF9200
:10044000FF920F931F93CF93DF936C017B018B017E
:10045000040F151FEB015E01AE18BF08C017D107CE
:1004600059F06991D601ED91FC910190F081E02D58
:10047000C6010995892B79F7C501DF91CF911F91AD
:100480000F91FF90EF90DF90CF90BF90AF900895C5
:10049000FC01538D448D252F30E0842F90E0821B8A
:1004A000930B541710F0CF96089501970895FC010F
:1004B000918D828D981761F0A28DAE0FBF2FB11D67
:1004C0005D968C91928D9F5F9F73928F90E00895BF
:1004D0008FEF9FEF0895FC01918D828D981731F079
:1004E000828DE80FF11D858D90E008958FEF9FEFCD
:1004F0000895FC01918D228D892F90E0805C9F4FA3
:10050000821B91098F73992708958BEC94E00E94C8
:10051000790221E0892B09F420E0822F089580E000
:1005200090E0892B29F00E94850281110C94000033
:100530000895FC01A48DA80FB92FB11DA35ABF4F78
:100540002C91848D90E001968F739927848FA689D2
:10055000B7892C93A089B1898C91837080648C9326
:10056000938D848D981306C00288F389E02D8081D5
:100570008F7D80830895EF92FF920F931F93CF9307
:10058000DF93EC0181E0888F9B8D8C8D98131AC0CE
:10059000E889F989808185FF15C09FB7F894EE89B5
:1005A000FF896083E889F989808183708064808312
:1005B0009FBF81E090E0DF91CF911F910F91FF905D
:1005C000EF900895F62E0B8D10E00F5F1F4F0F7305
:1005D0001127E02E8C8D8E110CC00FB607FCFACFC0
:1005E000E889F989808185FFF5CFCE010E949902C3
:1005F000F1CFEB8DEC0FFD2FF11DE35AFF4FF08291
:100600009FB7F8940B8FEA89FB8980818062CFCFF6
:100610000F931F93CF93DF938C01D0E0C0E0F801DC
:10062000EC0FFD1F6491662341F08BEC94E00E9477
:10063000BB02892B11F02196F2CF42E050E065E633
:1006400072E08BEC94E00E941B028C0F9D1FDF91E7
:10065000CF911F910F910895CF93DF93EC01888D77
:100660008823B9F0AA89BB89E889F9898C9185FD2D
:1006700003C0808186FD0DC00FB607FCF7CF8C91BB
:1006800085FFF2CF808185FFEDCFCE010E949902D8
:10069000E9CFDF91CF910895833081F028F4813044
:1006A00099F08230A9F008958730A9F08830C9F018
:1006B0008430B1F4809180008F7D03C080918000F0
:1006C0008F7780938000089584B58F7784BD0895D7
:1006D00084B58F7DFBCF8091B0008F778093B00081
:1006E00008958091B0008F7DF9CFCF93DF93282FAD
:1006F00030E0F901E458FF4F8491F901ED54FF4FC8
:10070000D491F901EF52FF4FC491CC23A1F0811194
:100710000E944C03EC2FF0E0EE0FFF1FEE58FF4F4E
:10072000A591B491EC91ED2381E090E009F480E093
:10073000DF91CF91089580E090E0FACF1F93CF939F
:10074000DF93282F30E0F901E458FF4F8491F9013D
:10075000ED54FF4FD491F901EF52FF4FC491CC23D8
:10076000A9F0162F81110E944C03EC2FF0E0EE0F40
:10077000FF1FE953FF4FA591B4918FB7F894EC9107
:10078000111108C0D095DE23DC938FBFDF91CF918C
:100790001F910895DE2BF8CF682F8DE00C949E03F7
:1007A000CF93DF9390E0FC01ED54FF4F24918F52E3
:1007B0009F4FFC0184918823C9F090E0880F991F16
:1007C000FC01E859FF4FA591B491FC01E953FF4F9B
:1007D000C591D49161110DC09FB7F8948C9120956B
:1007E00082238C938881282328839FBFDF91CF9118
:1007F0000895623051F49FB7F8943C91822F809510
:1008000083238C93E8812E2BEFCF8FB7F894EC9154
:100810002E2B2C938FBFEACF1F93CF93DF93182FEC
:10082000EB0161E00E94D003209739F460E0812F52
:10083000DF91CF911F910C949E03CF3FD10511F40E
:1008400061E0F5CFE12FF0E0E458FF4FE491E330B1
:1008500031F140F4E130B1F0E230E1F0C038D105DF
:100860007CF7E4CFE73029F1E83059F1E430B1F713
:1008700080918000806280938000D0938B00C09331
:100880008A0004C084B5806884BDC7BDDF91CF9164
:100890001F91089584B5806284BDC8BDF7CF809153
:1008A0008000806880938000D0938900C093880086
:1008B000EDCF8091B00080688093B000C093B3000A
:1008C000E5CF8091B00080628093B000C093B40007
:1008D000DDCF3FB7F8948091BF029091C002A09104
:1008E000C102B091C20226B5A89B05C02F3F19F0E6
:1008F0000196A11DB11D3FBFBA2FA92F982F8827A0
:10090000BC01CD01620F711D811D911D42E0660F7A
:10091000771F881F991F4A95D1F708958F929F924C
:10092000AF92BF92CF92DF92EF92FF926B017C0168
:100930000E9469044B015C01C114D104E104F1047B
:10094000B9F00E946904681979098A099B09683E0F
:1009500073408105910580F321E0C21AD108E108B6
:10096000F10888EE880E83E0981EA11CB11CE4CF2C
:10097000FF90EF90DF90CF90BF90AF909F908F90BF
:1009800008952FB7F89460914403709145038091C6
:100990004603909147032FBF08950F931F930E9422
:1009A0006904AB01BC018091760290917702A0911D
:1009B0007802B09179028A019B01081B190B2A0B5E
:1009C0003B0BD901C8010097A140B10520F58091EA
:1009D000760290917702A0917802B09179029A0103
:1009E000281B390BC901409376025093770260931C
:1009F000780270937902E091CB02E73090F4F0E056
:100A0000EC5FFA4F0C9431260E054005B705F4054E
:100A100026056505F4058FEF9FEFE5CF84E0809311
:100A2000CB028091CB0262E070E0843010F063E092
:100A300070E080916A05823009F45BC1833009F46B
:100A40005AC18FEF1F910F910C94F7019C0127550C
:100A50003A412339314110F481E0E1CF8B56934084
:100A60008F35914008F0BDC010927202109273024F
:100A700010927402109275021092710283E0CFCF2F
:100A80001092CB029C012B523D402B3C384060F42D
:100A900010927202109273021092740210927502F8
:100AA0001092710285E0BBCF8559964087369440FD
:100AB00008F0B7CF0E94C1046093520470935304AE
:100AC0008093540490935504ACCF1092CB02855A76
:100AD00091408B31914008F0A4CF80917102803217
:100AE00010F482E09CCF8091720290917302A091E9
:100AF0007402B0917502409172025091730260913C
:100B0000740270917502892F9A2FAB2FBB2784270F
:100B10009527A627B7279927BB278F3F9105AF4F6A
:100B2000B10509F07ECF8091720290917302A0917D
:100B30007402B09175028A2F90E0909357048093CD
:100B400056040E94C104609352047093530480932E
:100B500054049093550481E080935804E091680513
:100B6000F0916905309709F45CCF09955ACF25E0DB
:100B70002093CB02409172025091730260917402F3
:100B800070917502769567955795479540937202D7
:100B900050937302609374027093750220917102F6
:100BA0002F5F209371029C01205F34402D3433402D
:100BB00090F48091720290917302A0917402B091AE
:100BC0007502B0688093720290937302A0937402CE
:100BD000B093750226CF855A91408B31914008F42D
:100BE00020CF1092CB021DCF9C012F5A31092F35F7
:100BF000314048F58091710280FD15C080917202EC
:100C000090917302A0917402B0917502880F991FA0
:100C1000AA1FBB1F81608093720290937302A093FE
:100C20007402B0937502809171028F5F809371029C
:100C3000809171028E3120F58091CB02863009F4CB
:100C40001DCF86E0ECCE8D5092408F35914048F616
:100C50008091720290917302A0917402B09175021A
:100C6000880F991FAA1FBB1F809372029093730273
:100C7000A0937402B0937502809171028E5FD6CFFB
:100C80008091720290917302A0917402B0917502EA
:100C90009C01306890917002832F829586958770B1
:100CA000911104C08370809370029BCF40917002B9
:100CB000837050E08417150609F093CF30935704E2
:100CC000209356040E94C10460935204709353040D
:100CD000809354049093550482E080935804E091EB
:100CE0006805F0916905309709F47BCF81E009959B
:100CF00078CF80E0A7CE81E0A5CE8F929F92AF9271
:100D0000BF92CF92DF92EF92FF920F931F93CF93F8
:100D1000DF93F8941091580410925804C09156042F
:100D2000D09157048090520490905304A0905404A2
:100D3000B0905504789481149104A104B10409F48D
:100D400013C13CE2C32EDD24D394E12CF12CD7FD5A
:100D500006C0C0901201D0901301F12CE12C0E942A
:100D6000C104681979098A099B09209185056C15C8
:100D70007D058E059F0508F0CBC0211136C0209758
:100D800009F43FC112E0D7FF11E0E0916805F0914E
:100D90006905309711F081E009951092870510924E
:100DA0008605D7FF35C18C2F8770805A80938505C3
:100DB0008C2F8695869586958051990B04E0880F37
:100DC000991F0A95E1F790938205809381058D2FF5
:100DD0008F718051990B24E0880F991F2A95E1F7B4
:100DE000909384058093830502C01111D6CF0091A2
:100DF0008805002309F471C0D7FF6FC08091810579
:100E0000909182054091830550918405BC0197FF24
:100E100004C066277727681B790B9A0157FF04C027
:100E200022273327241B350B260F371F2832310585
:100E30000CF469C0DC0197FD1196B595A795E1E02A
:100E4000A417B5070CF0E0E0BA0157FF02C06F5FCE
:100E50007F4F75956795861797070CF4EE5FBA017B
:100E600057FF02C06F5F7F4F7595679571956195CC
:100E70007109861797070CF4EC5FCC27DD27C41B9C
:100E8000D50BAC17BD070CF4E85FF0E0E65EFD4F54
:100E9000608160938605633761F028F4613789F1DA
:100EA0003695279507C0643739F16637C9F79E0133
:100EB00001C09C012F3F310519F010F02FEF30E0F9
:100EC00020938705023049F480918505803629F406
:100ED00080918605811180938505812F90E0DF91B7
:100EE000CF911F910F91FF90EF90DF90CF90BF9027
:100EF000AF909F908F90089522273327281B390B9E
:100F0000D9CF9A01D7CF1092860510928705DACFF4
:100F1000222319F3109287051092860510928405FA
:100F2000109283051092820510928105109285051A
:100F300010925204109253041092540410925504CB
:100F4000E0916805F0916905309711F080E009950E
:100F50000E94C10460934E0470934F048093500428
:100F60009093510411E0B9CF0E94C104C0904E0487
:100F7000D0904F04E0905004F0905104DC01CB017C
:100F80008C199D09AE09BF09CD2B79F04091120152
:100F90005091130170E060E0481759076A077B071A
:100FA00020F4109257041092560427E0B695A795A6
:100FB000979587952A95D1F70097A105B10509F472
:100FC0008CCF8F709927AA27BB270097A105B10561
:100FD00051F4E0916805F091690581E0309709F4DA
:100FE0007CCF09957ACF0197A105B10509F075CF9E
:100FF000E0916805F0916905309709F46ECF80E0C3
:10100000F0CF112309F4F3CE1092870510928605D4
:10101000C093850510928405109283051092820575
:1010200010928105E4CE0895DC01ED91FC910190D0
:10103000F081E02D09948F929F92AF92BF92CF9250
:10104000DF92EF92FF921F93CF93DF93FC01828197
:10105000938168177907A8F54A01AA24BB24C82DF3
:10106000C32ED42EE52EFF241C2DD22F808588235D
:1010700061F0889E40011124C92D8C9D60011124CE
:101080001D2D829FD0011124DB2FA685E184F284DF
:101090009385A91322C0CB01880F991F680F791F70
:1010A0006E0D7F1DA385A60FB72FB11DCC93A48510
:1010B000A60FB72FB11D1C938585680F711DFB010D
:1010C000D083DF91CF911F91FF90EF90DF90CF9071
:1010D000BF90AF909F908F900895660F771F660F17
:1010E000771F6E0D7F1D252F332744275527882313
:1010F00049F090E0829F7001839FF00C929FF00C6A
:1011000011242F2DA60FB72FB11D2C93CBCFCF922B
:10111000DF92EF92FF920F931F93CF93DF93CDB7A0
:10112000DEB729970FB6F894DEBF0FBECDBF8C0196
:10113000DC0119968D919C91892B09F473C00E9452
:101140006904F801C784D088E188F2886C157D05B0
:101150008E059F0520F46787708B818B928BF80139
:10116000C784D088E188F2886C197D098E099F09AF
:101170006C3271408105910510F3F894D8011496F2
:101180008D919C9115979A8389831996ED91FC9185
:101190007F01BFEFEB1AFB0A80818987F8019081FC
:1011A0000388F489E02DD80155968C91992309F490
:1011B00048C09081982B98879081809589238F8350
:1011C0008F818C8388E08B8358856F8149853B8133
:1011D0002C8189819A81D701508347FD252F3A952B
:1011E0002083262F39F0441F00C0000060830000D8
:1011F00000C0F2CF38E04D9160830000019761F7A5
:10120000D8015496FC93EE93539749873B832C83E4
:101210009A83898378940E946904F8016787708BA8
:10122000818B928B29960FB6F894DEBF0FBECDBF8F
:10123000DF91CF911F910F91FF90EF90DF90CF90B2
:1012400008959081982B98879081809589238F832A
:101250008F818E8388E08D8358856F8149853D819C
:101260002E8189819A81D701508347FD252F00C0A7
:1012700000C0208300C000C000C000C000C0608368
:101280000000262F3A9541F0441F000000C000C026
:1012900000C000C000C0E8CF38E04D9100C06083BE
:1012A00000C0019709F7D8015496FC93EE93539729
:1012B00049873D832E83ACCF20919B02260F332795
:1012C000331F21323105ECF42091A104FC0190E0A0
:1012D00080E0243069F082E00895A0919B02219182
:1012E000AC0145585D4FA40FB52FB11D2C9301964D
:1012F000861798F380919B02680F60939B0280E0B1
:10130000089581E008951092A10481E08093A004E3
:1013100010927B0461E082E10E949E0361E083E120
:101320000E949E03E9EBF0E080818E7F80838081C4
:101330008D7F808388E48093B80085E48093BC002F
:101340000895CF93DF9391E090937A028823B9F0C8
:10135000C091B800D091BA008091BC008A7B809384
:10136000BC0060E082E10E949E0360E083E10E9495
:101370009E030E948309D093BA00C093B800DF9106
:10138000CF9108958F929F92AF92BF92CF92DF92AA
:10139000EF92FF920F931F93CF93DF93D091CA04E4
:1013A000D13208F0D7C0182FC091C9040E94690437
:1013B0006B017C018091A10481116BC082E080935C
:1013C000A1041093A0048FEF80939F0410929E04B9
:1013D000D0939D04A9EAB4E0EDE7F4E080E0D813EF
:1013E00091C010927C0480917C04CC0FC82BC093D8
:1013F0007C0480917B04813009F088C010927B04CA
:101400000E9469046B017C0180917C048093BB0085
:101410008091A3049091A404A091A504B091A60486
:10142000892B8A2B8B2BA1F00E9469040091A304C5
:101430001091A4042091A5043091A6046C197D0993
:101440008E099F09061717072807390708F442C0B5
:101450008091BC0083FDD8CF85EC8093BC000E94B6
:1014600069046B017C018091A104823009F450C0B1
:1014700080919F048F3F09F46FC080919F04803258
:1014800009F46CC080919F04803309F469C084E042
:1014900026C08091A3049091A404A091A504B091CA
:1014A000A604892B8A2B8B2B09F484CF0E94690414
:1014B0008090A3049090A404A090A504B090A604EA
:1014C0006C197D098E099F0986169706A806B9062C
:1014D00008F070CF8091A2040E94A10985E01092CB
:1014E000A8041092CA041092A704DF91CF911F9113
:1014F0000F91FF90EF90DF90CF90BF90AF909F90B3
:101500008F9008959D9191938F5F69CF85EEA5CFC0
:101510008091A3049091A404A091A504B091A60485
:10152000892B8A2B8B2B09F49ECF0E946904009192
:10153000A3041091A4042091A5043091A6046C1971
:101540007D098E099F09061717072807390708F034
:101550008ACFC0CF81E0C3CF80E0C1CF82E0BFCFD0
:1015600083E0BDCFEF92FF920F931F93CF93DF9352
:10157000E62E072FF42E152FC5E9D5E0A981BA81F3
:10158000988121E02093A7049093C9041092A804A5
:101590001092CA0494E0899FB00111246A5F7F4FC2
:1015A000ED91FC9111970190F081E02DCD0109950D
:1015B0006E2D702F89819A810E941408602F70E02F
:1015C00089819A810E9414086F2D712F89819A81D7
:1015D0000E941408612F70E089819A810E9414088A
:1015E00081E0DF91CF911F910F91FF90EF900C94CC
:1015F000C2091F93CF93DF93162FC5E9D5E0A981C8
:10160000BA81988121E02093A7049093C904109295
:10161000A8041092CA04ED91FC9111970190F081F9
:10162000E02D682FCD01099589819A81DC01ED912A
:10163000FC910190F081E02D612F099581E0DF910F
:10164000CF911F910C94C209CF92DF92EF92FF923B
:101650000F931F93CF93DF93D82FC62F613208F0DB
:1016600098C00E9469046B017C018091A1048111E2
:101670006BC081E08093A1048093A0049FEF9093BE
:101680009F0410929E049C0F90939D0480937C0471
:1016900080917C04DD0FD82BD0937C0480917B0457
:1016A000813009F078C010927B040E9469046B01BC
:1016B0007C0180917C048093BB008091A304909175
:1016C000A404A091A504B091A604892B8A2B8B2B8E
:1016D000A1F00E9469040091A3041091A404209138
:1016E000A5043091A6046C197D098E099F0906177F
:1016F00017072807390708F448C08091BC0083FD0C
:10170000D8CF85EC8093BC000E9469046B017C01FA
:101710008091A104813009F440C080919E048C170F
:1017200010F4C0919E04EDE7F4E0ABE5B4E080E096
:101730008C1355C08C2FDF91CF911F910F91FF908B
:10174000EF90DF90CF9008958091A3049091A4042E
:10175000A091A504B091A604892B8A2B8B2B09F4A8
:1017600084CF0E9469040091A3041091A4042091E5
:10177000A5043091A6046C197D098E099F090617EE
:1017800017072807390708F070CF8091A2040E943C
:10179000A109C0E0CFCF85EEB5CF8091A304909191
:1017A000A404A091A504B091A604892B8A2B8B2BAD
:1017B00009F4AECF0E9469040091A3041091A4041F
:1017C0002091A5043091A6046C197D098E099F090A
:1017D000061717072807390708F09ACFD6CF919137
:1017E0009D938F5FA5CF0895E0915A04809159048D
:1017F000E81730F4F0E0E55AFB4F808190E008955F
:101800008FEF9FEF089590915A04809159042FEF24
:101810003FEF981748F4E92FF0E0E55AFB4F20819D
:1018200030E09F5F90935A04C90108958091590454
:1018300090915A04891B990B0895CF92DF92EF92F1
:10184000FF920F931F93CF93DF937C01CB018A010B
:101850002091A704222389F0EB016B01C40ED51E51
:10186000CC15DD0569F06991D701ED91FC910190EE
:10187000F081E02DC7010995F3CF642F0E945C0928
:10188000C801DF91CF911F910F91FF90EF90DF90F2
:10189000CF900895CF93DF931F92CDB7DEB76983C2
:1018A0002091A7042223F9F02091CA04203258F095
:1018B00021E030E0FC013383228390E080E00F9050
:1018C000DF91CF9108958091A804E82FF0E0E755CB
:1018D000FB4F998190838F5F8093A8048093CA0403
:1018E00081E090E0ECCF61E0CE0101960E945C09BE
:1018F000F7CF90E080E00895E82FF0E0ED51FD4F44
:10190000E081EC5FF0E0E25BFC4F91818081089523
:10191000AB0120914B03213029F4BC018BEC94E006
:101920000C941B020895EEE4F3E02FEF208325E5ED
:10193000218323E0228322E023838483958366E04E
:1019400070E0CF010C94880CEEE4F3E09FEF9083FD
:1019500095E5918392E0928391E09383848365E09F
:1019600070E0CF010C94880CEEE4F3E08FEF8083FD
:1019700085E58183128263E070E0CF010C94880CCE
:1019800086E00E947503382F80910001831739F09B
:1019900081E090E0311180E030930001089580E013
:1019A00090E0FACFEF92FF920F931F93CF93DF93C4
:1019B0007C01D0E0C0E00BE316E0CE15DF0584F437
:1019C00061E088E00E949E03C8010197F1F760E0A2
:1019D00088E00E949E03C8010197F1F72196EDCFA0
:1019E000DF91CF911F910F91FF90EF9008952F926B
:1019F0003F924F925F926F927F928F929F92AF929F
:101A0000BF92CF92DF92EF92FF920F931F93CF93EB
:101A1000DF93D0E010E0F12CE12C882E912CB12C3A
:101A2000A12C00E0C0E0D12CC12C2E2C209433241A
:101A30003A94310EFEEF4F2E410E552453945D0E15
:101A4000A2E07A2E7D0EBDEF6B2E610E8091E10239
:101A50009091E202FC0122813381C216D30698F5EF
:101A6000222D200F2535A0F4272D2C0F30E050E03B
:101A700040E0A90133272227662D6C1B262BB601D7
:101A80000E941B08FFEFCF1ADF0ACD5F0150DECFA7
:101A90002A3A60F4242D2C1B30E050E040E0542F13
:101AA000432F322F2227652D6C0FE8CF2C2F2D0FBF
:101AB00030E050E040E0542F432F322F2227632D97
:101AC0006C1B462BDCCF0E948708C501B4010E9425
:101AD0008E048FEFE81AF80A1350DD5FE114E1E09D
:101AE000FE0609F09ECFDF91CF911F910F91FF90DD
:101AF000EF90DF90CF90BF90AF909F908F907F90AE
:101B00006F905F904F903F902F900895CF92DF920B
:101B1000EF92FF92CF936B017C01C0E06C2F70E0DD
:101B20008091E1029091E202FC01228133816217EF
:101B3000730730F4A70196010E941B08CF5FEECF18
:101B4000CF91FF90EF90DF90CF900C9487080F9388
:101B50001F93CF93DF93C82F60E070E0CB010E940A
:101B6000860D0091E1021091E202D0E0CC0FDD1F62
:101B700020E030E04FEF50E0BE01C8010E941B089A
:101B8000BE016F5F7F4F20E030E04FEF50E0C801B3
:101B90000E941B08C801DF91CF911F910F910C94F7
:101BA0008708877094E0899FF0011124EA51FE4F65
:101BB00060817181828193810C94860D9093FE02E5
:101BC0008093FD0286E080933F030E94C1046093EE
:101BD0003B0370933C0380933D0390933E0381E06D
:101BE000809300030895CF93C0E050E040E070E0A0
:101BF00060E08C2F0E94B20ACF5FC830B1F710921C
:101C00003F031092F302CF910895FF920F931F9319
:101C1000CF93DF93F62E8A01C82FD0E00E94C10433
:101C2000FE01EE0FFF1FEE0FFF1FE75FFC4F60830B
:101C3000718382839383FE01EE0FFF1FE75DFC4FEC
:101C400011830083FE01EF5FFC4FDE01A859BD4FF9
:101C50008C918083CE5FDE4FF882DF91CF911F9110
:101C60000F91FF900895EF92FF920F931F93CF93E0
:101C7000DF937B01D42F8C01C0E0F80161918F01CB
:101C80006F3739F0062E000C770BA7018C2F0E94BE
:101C9000050ECF5FC83089F7D0933F030E94C1047F
:101CA00060933B0370933C0380933D0390933E030A
:101CB000DF91CF911F910F91FF90EF900895909336
:101CC0000B0180930A0128E0EAE0F2E0A5EFB2E020
:101CD00001900D922A95E1F72091F302261709F45D
:101CE00073C06093F302613108F06EC0E62FF0E03C
:101CF000E458F14F0C9431268D0E9E0EAE0EAB0EB5
:101D0000A20EA80EA50EB60EBB0EC00EC50ECA0EB4
:101D1000CF0ED40EDE0EE10EB10E80913F039CEF8C
:101D2000980F923008F450C0882309F44DC044E065
:101D300068EC70E086E491E00C94330E8EED91E057
:101D40000C94DE0D86ED91E0FBCF8EEC91E0F8CFA8
:101D500086EC91E0F5CF8EEB91E0F2CF86EB91E04F
:101D6000EFCF41E0BC018EEA91E0E6CF41E0BC015B
:101D700086EA91E0E1CF41E0BC018EE991E0DCCF61
:101D800041E0BC0186E991E0D7CF41E0BC018EE89B
:101D900091E0D2CF41E0BC0186E891E0CDCF41E0B7
:101DA000BC018EE791E0C8CF2EE631E030933A03D4
:101DB0002093390342E0BC01C901BECF2EE531E0DA
:101DC000F5CF2EE431E0F2CF08950F931F93CF9318
:101DD000DF93C82FD0E0FE01E859FD4F60838C30BF
:101DE00008F063C0FE01E25CFE4F8081082E000C0B
:101DF000990B861797075CF0FE01EA5CFE4F808125
:101E0000082E000C990B861797070CF4CB01FE01E6
:101E1000ED53FD4F2081820F911D27FD9A95FE0104
:101E2000E25DFE4F4081BC0146039001479F300DAB
:101E30001124FE01EA5DFE4F8081280F311D87FDD0
:101E40003A952B3F7FEF370714F42BEF3FEF8E01CE
:101E5000102F0027110F2A3B310514F029EB30E039
:101E6000032E000C440B550B2B5F3F4F4F4F5F4F22
:101E7000A7ECB1E00E943E262EEB30E040E050E0BF
:101E80000E941226C801865A9F4FAC01420F531F71
:101E90005F70B80166277E70C65EDE4F8881DF9175
:101EA000CF911F910F910C94B20ADF91CF911F91A6
:101EB0000F910895CF93DF93C82FD62F0E94E50E80
:101EC000EC2FF0E0EE5FFE4FD08381E080933F0384
:101ED0000E94C10460933B0370933C0380933D03D5
:101EE00090933E03DF91CF910895CF93DF93C42F5A
:101EF000D82FDD0F062E000C770B8D2F0E945A0F66
:101F00006C2FCC0F770B81E08D0F0E945A0F81E16F
:101F10008093F302DF91CF9108958F929F92AF92B9
:101F2000BF92CF92DF92EF92FF92CF936B017C0131
:101F300020E030E040E85FE30E940B2487FDA5C06D
:101F400020E030EC4AE555E4C701B6010E946A255D
:101F500018163CF4C12C30ECD32E3AE5E32E35E4D0
:101F6000F32E609198057091990580919A05909152
:101F70009B050E94B8244B015C0120E030E040E862
:101F800055E4C701B6010E946F259B01AC01C50154
:101F9000B4010E94102420E030E040E05FE30E94A2
:101FA0009F2320E030E040E85FE30E949E236B0126
:101FB0007C0120E030E040E450E40E940B2487FDE7
:101FC0006BC020E030E04FE753E4C701B6010E9448
:101FD0006A25181634F4C12CD12C9FE7E92E93E41E
:101FE000F92E80919605909197052091950531E005
:101FF0003093A7042093C9041092A8041092CA0435
:10200000DC01ED91FC910190F081E02D60E00995FB
:1020100081E00E94C20961E0809195050E94240B35
:1020200010925A04809359048091960590919705D7
:10203000DC01ED91FC910284F385E02D0995C82F18
:10204000682F6F76606180E00E94F90AC701B601CF
:102050000E9489248EEF0E94F90A6C2F80E00E9472
:10206000F90A65E070E080E090E00E948E046C2F39
:10207000606A80E0CF91FF90EF90DF90CF90BF90AB
:10208000AF909F908F900C94F90AC12CD12C20E82E
:10209000E22E2FE3F22E65CFC12CD12C80E4E82E66
:1020A000FE2C9FCF1F93CF93DF93182FC82FD0E024
:1020B000AE016EE473E083E593E00E949927EEE4BD
:1020C000F3E08FEF808385E5818382E0810F828357
:1020D00087E083831483BE016B5F7F4FCF01DF9165
:1020E000CF911F910C94880CEF92FF920F931F9346
:1020F000CF93DF93EB01613208F060E20E94240B82
:1021000010925A04809359048C171D068CF00EE42B
:1021100013E0CE01825B9C4F7C01E016F10681F05A
:1021200089E895E00E94030CF80181938F01F5CFB7
:10213000DF91CF911F910F91FF90EF900C94B40C11
:102140008C2FDF91CF911F910F91FF90EF900C9406
:102150005210EF92FF920F931F93CF93DF9389302A
:1021600048F090E080E0DF91CF911F910F91FF90B8
:10217000EF900895623009F445C0C82F633018F518
:10218000E82FF0E0662309F446C0613009F44CC042
:102190000C2F10E0C8018D539D4F7C01DC01DC91B8
:1021A000C8010E948823D81721F06D2FC8010E9412
:1021B000902370E060E08C2F0E945A0F81E18093A1
:1021C000F302F70123C06330B9F1643009F7E3EC9F
:1021D000F2E088E0DF011D928A95E9F78F01D0E0F7
:1021E000C0E0F801F1908F01CE010E948823F8161B
:1021F00021F06F2DCE010E9490232196C830D10589
:1022000081F7AFCFE82FF0E0ED53FD4F8081082E2E
:10221000000C990BA8CFED53FD4F80818F3709F447
:10222000B7CF8F5F8083B4CFED53FD4F808180386F
:1022300009F4AECF8150F6CFE82FF0E0ED53FD4F1B
:102240001082A6CFEF92FF920F931F93CF93DF934D
:10225000EC017B0189859A850E9410279E858B85DC
:10226000981701F184E090E08E9D80018F9D100D04
:102270009E9D100D11241D830C83C8010E9474269D
:102280009A878987009789F0A80170E060E00E9432
:10229000AB27FB82EA82DF91CF911F910F91FF90D4
:1022A000EF90089583E090E0DFCF1D821C821B82B7
:1022B0001A82F1CF1F93CF93DF93182FC62F8BE68F
:1022C00095E09093E2028093E1022091790590914C
:1022D000760581E0809379058093760510927705E5
:1022E00032E03093780580936B05409174055091EE
:1022F0007505452B51F0291741F060916D057091DE
:102300006E058BE695E00E9422116C2F70E08BE643
:1023100095E00E942211C12FD0E080916C058823A6
:1023200049F0809171059091720597FD03C060E0BE
:102330000E94D003D0937205C093710580916C0503
:10234000882341F061E0812F0E94D00360E0812F5B
:102350000E949E03FE01EF52FF4FE491F0E0EE0F6A
:10236000FF1FE953FF4F8591949190937F058093D0
:102370007E05FE01ED54FF4FE491E09380058091CE
:1023800071059091720597FD08C061E00E94D0032D
:1023900060E0809171050E949E0381E080936C054E
:1023A000DF91CF911F91089585ED8093BC008091BE
:1023B000A3049091A404A091A504B091A60407964B
:1023C000A11DB11D23E0B695A795979587952A95F0
:1023D000D1F72091BC0024FD03C01092A104089500
:1023E0004091A3045091A4046091A5047091A604A7
:1023F000452B462B472B69F30097A105B10541F00A
:102400002AE22A95F1F700C00197A109B109E1CFAD
:102410008091A2040C94A109CF92DF92EF92FF92D7
:102420000F931F938EE00E947503019709F44CC02F
:1024300060E08FE00E949E0383E090E00197F1F757
:1024400061E08FE00E949E0383E290E00197F1F744
:1024500060E08FE00E949E03E1ECF0E06491EFED1C
:10246000F0E0E491F0E0EE0FFF1FEE58FF4F859192
:10247000949100E412E42FE030E0462F0E94FE1415
:10248000611571058105910529F06F5F7F4F8F4FB1
:102490009F4F9F700E94B8246B017C0120E030E0C8
:1024A000A9010E946A251816A4F426E933E44BE832
:1024B0005CE3C701B6010E946F251F910F91FF9049
:1024C000EF90DF90CF90089560E070E088EC92E4A8
:1024D000F4CF60E070E0CB01F0CF1F920F920FB607
:1024E0000F9211242F933F934F935F936F937F939A
:1024F0008F939F93AF93BF93EF93FF938091D502F8
:102500009091D602A091D702B091D802892B8A2B44
:102510008B2BD1F19091D002E091D102F091D202B7
:102520008081892780838091D5029091D602A091E5
:10253000D702B091D802181619061A061B069CF489
:102540008091D5029091D602A091D702B091D80285
:102550000197A109B1098093D5029093D602A09367
:10256000D702B093D802FF91EF91BF91AF919F91A5
:102570008F917F916F915F914F913F912F910F902C
:102580000FBE0F901F90189580910101E5EEF0E0CD
:10259000E4919FEF90930101E13051F030F0E2308F
:1025A00069F060E00E949E03DECF10926E00F9CFCA
:1025B00090916F009D7F90936F00F3CF909170008A
:1025C0009D7F9093700091E09093B0009091B10046
:1025D000987F94609093B1001092B300E2CF1F9265
:1025E0000F920FB60F9211242F933F934F935F9347
:1025F0006F937F938F939F93AF93BF93EF93FF93CB
:102600008BEC94E00E949902FF91EF91BF91AF9102
:102610009F918F917F916F915F914F913F912F91FA
:102620000F900FBE0F901F9018951F920F920FB62C
:102630000F9211242F938F939F93EF93FF93E09129
:10264000DB04F091DC048081E091E104F091E2048C
:1026500082FD1BC090818091E4048F5F8F73209175
:10266000E504821741F0E091E404F0E0E553FB4F0C
:10267000958F8093E404FF91EF919F918F912F911B
:102680000F900FBE0F901F9018958081F4CF1F926E
:102690000F920FB60F9211242F933F938F939F9316
:1026A000AF93BF938091440390914503A09146035B
:1026B000B09147033091BE0223E0230F2D3758F528
:1026C0000196A11DB11D2093BE02809344039093F7
:1026D0004503A0934603B09347038091BF029091B6
:1026E000C002A091C102B091C2020196A11DB11D0C
:1026F0008093BF029093C002A093C102B093C20224
:10270000BF91AF919F918F913F912F910F900FBEED
:102710000F901F90189526E8230F0296A11DB11D5A
:10272000D2CF1F920F920FB60F9211242F933F9387
:102730004F935F936F937F938F939F93AF93BF93C9
:10274000EF93FF93E0911001F09111010995FF9132
:10275000EF91BF91AF919F918F917F916F915F9119
:102760004F913F912F910F900FBE0F901F90189592
:102770001F920F920FB60F9211242F933F934F93F6
:102780005F936F937F938F939F93AF93BF93EF93D9
:10279000FF93E0910E01F0910F010995FF91EF91E8
:1027A000BF91AF919F918F917F916F915F914F9169
:1027B0003F912F910F900FBE0F901F9018951F9271
:1027C0000F920FB60F9211242F933F934F935F9365
:1027D0006F937F938F939F93AF93BF93EF93FF93E9
:1027E0008091B900887F803609F44AC0F0F58832BC
:1027F00009F4A7C018F5803109F49BC0B8F4882308
:1028000009F4F9C0883009F494C0FF91EF91BF91A9
:10281000AF919F918F917F916F915F914F913F9178
:102820002F910F900FBE0F901F901895883109F4CB
:1028300088C0803251F780939F0414C0803409F41B
:102840009DC040F48033B9F38833F9F680939F0438
:1028500085ECB0C0803509F485C0883509F496C090
:10286000883499F60E94D411D0CF883909F48CC0ED
:1028700038F5883729F050F4883611F0803729F67A
:1028800083E08093A1041092BD0257C0883809F4F8
:102890007BC0803919F0803809F0B7CF8091BD0234
:1028A000803208F071C0E091BD0281E08E0F80930C
:1028B000BD028091BB00F0E0E356FD4F80833DC038
:1028C000803B39F0E0F4803A09F479C0883A09F0A5
:1028D0009CCF84E08093A10410929C0210929B02F2
:1028E000E091CE02F091CF02099580919B02811177
:1028F0000FC081E080939B0210927B0209C0803C54
:1029000009F4A6CF883C09F4A3CF883B09F07DCF1A
:10291000E0919C0281E08E0F80939C02F0E0E558EC
:10292000FD4F80818093BB0090919C0280919B021F
:1029300029C080917C048093BB0085EC8093BC000F
:1029400064CF90919E0480919D04981758F5E09172
:102950009E0481E08E0F80939E04F0E0E358FB4FCD
:102960008081E9CFE0919E0481E08E0F80939E04E8
:102970008091BB00F0E0E358FB4F808390919E0470
:1029800080919D049817C8F285E8D8CFE0919E0405
:1029900081E08E0F80939E048091BB00F0E0E358AD
:1029A000FB4F80838091A00481115CCF81E08093F4
:1029B0007B0484EA8093BC001092A10426CF85ECAE
:1029C0008093BC001092A1048091BD02803230F44B
:1029D000E091BD02F0E0E356FD4F10826091BD0230
:1029E00070E0E091CC02F091CD028DE992E0099582
:1029F0001092BD020ACF10929F0434CFCF92DF9283
:102A0000EF92FF920F931F93E82FF92F05C001500B
:102A100011092109310961F1908196239417B9F3C5
:102A200005C0015011092109310911F19081962346
:102A30009413F7CFC12CD12CE12CF12C0AC08FEFCD
:102A4000C81AD80AE80AF80A0C151D052E053F0514
:102A500079F080818623841791F36C2D7D2D8E2D46
:102A60009F2D1F910F91FF90EF90DF90CF900895D1
:102A700060E070E080E090E01F910F91FF90EF9098
:102A8000DF90CF900895EBECF4E01382128248EED1
:102A900053E060E070E044835583668377838EE281
:102AA00092E09183808385EC90E09587848784EC25
:102AB00090E09787868780EC90E0918B808B81EC0B
:102AC00090E0938B828B82EC90E0958B848B86ECEC
:102AD00090E0978B868B118E128E138E148EA9E840
:102AE000B5E013961C921E92129714964D935D9327
:102AF0006D937C93179780E492E011969C938E934C
:102B000092E09093880590936A052CEC33E0309323
:102B10006905209368052CE231E03093130120937E
:102B20001201EBE6F5E081E08083118213821282CC
:102B3000158214822FEF3FEF37832683108612868B
:102B4000118683871486958786871786108A118A4F
:102B5000128AE5E9F5E080E48083B283A1830895D9
:102B6000CF93DF9300D000D000D0CDB7DEB77894FC
:102B700084B5826084BD84B5816084BD85B5826082
:102B800085BD85B5816085BD80916E008160809333
:102B90006E0010928100809181008260809381009C
:102BA00080918100816080938100809180008160AC
:102BB000809380008091B10084608093B100809107
:102BC000B00081608093B00080917A00846080932F
:102BD0007A0080917A00826080937A0080917A00F6
:102BE000816080937A0080917A00806880937A0077
:102BF0001092C10014BE0FB6F894A89580916000A1
:102C0000886180936000109260000FBEE091DB0449
:102C1000F091DC0482E08083E091D704F091D80445
:102C20001082E091D904F091DA0480E1808310925F
:102C3000E304E091DF04F091E00486E08083E0911A
:102C4000DD04F091DE04808180618083E091DD0409
:102C5000F091DE04808188608083E091DD04F09152
:102C6000DE04808180688083E091DD04F091DE04E1
:102C700080818F7D808361E08DE00E94D00360E0E1
:102C80008DE00E949E0364E670E080E090E00E9488
:102C90008E0461E081E10E94D00361E081E10E9445
:102CA0009E0362E08EE00E94D00361E08FE00E940C
:102CB000D00361E088E00E94D00362E083E00E94DC
:102CC000D00362E084E00E94D00362E085E00E94CD
:102CD000D00362E086E00E94D0038091E1029091EF
:102CE000E202892B21F468E080E10E945A1110E091
:102CF00000E0E090E102F090E20220E030E0A90183
:102D0000B801C7010E941B080F5F1F4F0830110553
:102D100081F7C7010E94870853ECE52E52E0F52E9B
:102D2000670110E000E021E02983C8010E948823A8
:102D3000D6018D936D018F3F09F019820F5F1F4FF0
:102D40000830110591F7B981B111D0C010925A0421
:102D5000109259041092A8041092CA040E94830988
:102D600089E192E09093CF028093CE028AE192E0D3
:102D70009093CD028093CC0260E880E00E94F90A33
:102D80006AE070E080E090E00E948E0460E070E015
:102D90008AE794E40E948D0F80E498E7ADE7B1E004
:102DA0008093980590939905A0939A05B0939B05FD
:102DB00060E070E088E492E40E948D0F60E081E1C1
:102DC0000E949E03198270E060E089810E94E50EF6
:102DD00068E270E080E090E00E948E0489818F5F5D
:102DE0008983883081F764E670E080E090E00E949B
:102DF0008E040E94F30D90916A05998360E0892FFB
:102E00000E94D003A98180E0A23021F081E0A330AC
:102E100009F08FEF62E070E00E94F7011092CB02A0
:102E2000109257041092560485E00E94D10D84E65A
:102E300090E00E94D20C8BE990E00E9408038BEC9A
:102E400094E00E947902181619060CF0B9C681E0C8
:102E500080934B038BEC94E00E94570297FDB0C621
:102E600040914C0350914D039A012F5F3F4F309397
:102E70004D0320934C03425B5C4FFA018083223068
:102E8000310509F479C008F052C02130310509F448
:102E900064C060910C0170910D0180914C03909180
:102EA0004D038617970708F4DDC280914F038435E0
:102EB00009F072C0F0915203FD83BD81B03809F46E
:102EC0005AC608F01DC1B73009F41FC208F0EEC0A1
:102ED000B33009F4F9C108F0DFC0B13009F4DBC147
:102EE000B23009F4E4C10E94B40CB8C280E990E0A9
:102EF0000E940803E3ECF2E088E0DF011D928A956E
:102F0000E9F710E000E0F70121917F012983C80172
:102F10000E9488233981381721F0632FC8010E944D
:102F200090230F5F1F4F0830110569F70FCF233033
:102F3000310539F12430310509F0ABCF20914F0331
:102F4000243509F0A6CF2091500330E02C5F3F4F8D
:102F5000982F8827820F931F1AC024E030E0309307
:102F60000D0120930C018F3F910509F47BC2109253
:102F70004D0310924C038DCF845591090297B8F7F9
:102F800088CF20914F030396253509F082CF909387
:102F90000D0180930C017DCF853509F08ECF2091F6
:102FA00051032D832A31B0F580E1289F900111242F
:102FB0002A503E4FE3EEF2E080E1DF011D928A9558
:102FC000E9F72115310509F478CF7F0150E040E0A1
:102FD00090E080E0F901E40FF51FE491EE2309F49D
:102FE0006CCFD7018D937D01EC34F1F1A8F5E43479
:102FF000E9F1E634C9F1E23409F40196FC013496B2
:103000006E177F0708F42AC24F5F5F4F40315105AA
:1030100009F753CF8D8181588C3060F4AD81A15870
:10302000BB0B9D0184E0220F331F8A95E1F72A5CD8
:103030003E4FC0CFBD8130E020E0BB3F08F4BACFA7
:10304000EB2FEB5FFF0B9F0104E0220F331F0A956C
:10305000E1F72A513F4FAECFE236B1F0E33741F00E
:10306000E33561F60296CACF0496C8CF0896C6CF5C
:10307000FC01EE5AFC4FDF010D900020E9F78E1B9A
:103080009F0B8A0F9B1FBACFFC01E25BFC4FE481D0
:1030900001968E0F911DB2CFED81E53009F42AC162
:1030A00008F41DC160E088EC90E0FEC0FD81FB30BB
:1030B00009F453C170F4E091E302F93009F446C118
:1030C00008F436C1F0E0E25BFC4F84810E94F70C0B
:1030D0000ACF2D812D3009F461C108F444C1253196
:1030E00009F001CF61E08DE00E94D003E091E3029E
:1030F000F0E0E25BFC4F64818DE00E949E03F3CE22
:103100003D81373809F4E8C108F056C0333809F476
:1031100075C138F5313809F45AC1323809F0E3CEB7
:10312000E091E302F0E0E25BFC4F848191E0909358
:10313000A7048093C9041092A8041092CA04609155
:10314000E40270E0FB01EE5AFC4F408150E06D5A02
:103150007C4F89E895E00E941D0C81E00E94C20925
:1031600033C18D81853809F494C1E091E30286383A
:1031700008F486C18E2F90E0FC01EE5AFC4FE080EF
:10318000F12CDC01AD5ABC4F6D018D01C8018C19C9
:103190009D098E159F050CF0A6CE61E0F801808197
:1031A0000E94D003D80111966C9111978C910E94C6
:1031B0009E030E5F1F4FEACF9D819B3809F429C4FF
:1031C00078F5A091E302A983993809F4E8C108F4DD
:1031D00095C1E9810E2F10E0F801EE5AFC4FE08016
:1031E000F12C0D5A1C4F6801C601801B910B8E15E6
:1031F0009F050CF078CED60112966C91129711961D
:103200008C911197762F682F44E0759567954A95B4
:10321000E1F78C910E940C04B3E0CB0ED11CE4CFFB
:10322000BD81BE3F09F495C408F09AC4BD3809F0C9
:103230005ACE0091E50210E0F801EE5AFC4FA08052
:10324000B12CE091E402F0E0E25BFC4F24812983A1
:1032500080E00E947C0C6C010D5A1C4F7801C70164
:10326000801B910B8A159B050CF04BC4D70112965D
:103270006C91129711968C911197762F682F84E09C
:10328000759567958A95E1F78C910E940C04B3E0DF
:10329000EB0EF11CE4CF81E00E947C0CE091E30294
:1032A000F0E0E25BFC4F64810E945F0E1CCE81E087
:1032B0000E947C0C898380E00E947C0C4981682FED
:1032C00080E00E94750F0FCE81E00E947C0C898304
:1032D00080E00E947C0C4981682F82E0F2CF81E07F
:1032E0000E947C0C898380E00E947C0C4981682FBD
:1032F00081E0E7CF81E00E947C0C898380E00E941E
:103300007C0C4981682F83E0DCCFE091E402F0E09F
:10331000E25BFC4FA091E302B0E0A25BBC4F1496CD
:103320008C916481880F0E94A9100E94930C96C012
:10333000A091E402B0E0A25BBC4FF0E0E25BFC4F86
:103340008481880F14966C918F5FEDCFF0E0E25B83
:10335000FC4F84810E94D10DC6CD80E00E947C0C80
:103360000E94D20CC0CD0E940C122FEF20934E036E
:1033700025E520934F0325E02093500324E020937C
:1033800051036093520370935303809354039093BB
:10339000550368E070E08EE493E0DFC3E091E30260
:1033A000F0E0E25BFC4FE4818FEF8E0F21E0843090
:1033B00050F4F0E0EB5FFD4F80810E94750321E047
:1033C000892B09F020E0822F0E94A40C47C01092A4
:1033D0005A04109259041092A8041092CA040E9430
:1033E0008309E9E1F2E0F093CF02E093CE028AE1B3
:1033F00092E09093CD028093CC0275CDE091E302F0
:10340000F0E0E25BFC4F848191E09093A70480930D
:10341000C9041092A8041092CA046091E40270E0FA
:10342000FB01EE5AFC4F408150E06D5A7C4F89E819
:1034300095E00E941D0C80E00E94C209E091E50227
:10344000F0E0E25BFC4F648170E0E091E302F0E0C9
:10345000E25BFC4F848190E00E94741010924D0357
:1034600010924C0380914C0390914D038F3F910536
:1034700009F008F4E4CC10924D0310924C03DFCC19
:10348000A091E402B0E0A25BBC4F14966C9170E096
:10349000DECF198210E000E0FF24F394F092A7043D
:1034A000F981F093C9041092A8041092CA0481E033
:1034B0000E94C209811107C0F801E25BFC4F29811B
:1034C00020830F5F1F4F39813F5F39833F3731F7CB
:1034D000802F0E945210C2CFE091E302F0E0E25B45
:1034E000FC4F60E084810E94D003E091E302F0E0B1
:1034F000E25BFC4F84810E94750366CF81E00E94ED
:103500007C0C8C01B981EB2FF0E0E25BFC4F248155
:10351000298360E0822F0E94D0030115110511F468
:1035200001E010E089818E5039813E3008F08983B6
:1035300089818770582F506460E070E0CB0130E0E3
:1035400020E050937C0040917A00406440937A00E0
:1035500040917A0046FDFCCFC0907800D090790071
:103560000D2C000CEE08FF086C0D7D1D8E1D9F1D9F
:103570002F5F3F4F2017310721F750E040E00E94B6
:10358000F025A1E7B2E00E943E26DC01CB0117E066
:10359000B695A795979587951A95D1F7C6CE82E0EF
:1035A0000E947C0C1C0181E00E947C0C8C019981A2
:1035B000E92FF0E0E25BFC4F84812101032C000C39
:1035C000660877089091010198130BC0E5EEF0E0D2
:1035D000F491FE83F7FF38C0C301B2010E948E044C
:1035E00082CC9F3FC9F780930101E5EEF0E0949112
:1035F0009E839F3F89F3913009F4F1C048F09230E7
:1036000009F411C197FDE8CF61E00E94D00322C008
:1036100014BC15BC94B5926094BD95B5916095BDF0
:10362000282F30E0F901EF52FF4FE491F0E0EE0F68
:10363000FF1FE953FF4F45915491F901ED54FF4F9E
:10364000E491E093D4021E8261E00E94D0033E81A7
:103650003323A9F0B12CA12C60E072E18AE790E05D
:10366000A50198010E94122669017A0181E0C81A19
:10367000D108E108F1089E81923009F073C1480138
:10368000B12CA12C60E072E18AE790E0A5019801DD
:103690000E94122629833A834B835C8369017A0155
:1036A000A1E0CA1AD108E108F108BFEFCB16D10496
:1036B000E104F10409F00CF42AC160E472E48FE043
:1036C00090E0A50198010E94122669017A01E1E0CB
:1036D000CE1AD108E108F108FE81F23009F0CBC022
:1036E00082E02FEFC216D104E104F10409F00CF4DA
:1036F0006FC060E970ED83E090E0A50198010E9441
:10370000122669017A0181E0C81AD108E108F1089E
:1037100083E09FEFC916D104E104F10409F00CF431
:1037200057C068E478EE81E090E0A50198010E941E
:10373000122669017A0181E0C81AD108E108F1086E
:1037400084E09FEFC916D104E104F10409F00CF400
:103750003FC064E274EF80E090E0A50194010E9414
:10376000122669017A01F1E0CF1AD108E108F108C7
:1037700085E03FEFC316D104E104F10449F140F1C3
:1037800062E17AE780E090E0A50194010E941226B0
:1037900069017A01A1E0CA1AD108E108F10886E0BE
:1037A000BFEFCB16D104E104F10491F088F0C98099
:1037B000DA80EB80FC809AE0F594E794D794C79484
:1037C0009A95D1F721E0C21AD108E108F10887E003
:1037D0009091B100987F892B8093B100A0C0109286
:1037E00080001092810090918100986090938100F8
:1037F00090918100916090938100282F30E0F90131
:10380000EF52FF4FE491F0E0EE0FFF1FE953FF4F3F
:1038100045915491F901ED54FF4FE491E093D302A7
:10382000F1E0FE8311CF1092B0001092B1009091A0
:10383000B00092609093B0009091B100916090932D
:10384000B100282F30E0F901EF52FF4FE491F0E092
:10385000EE0FFF1FE953FF4F459154915093D20251
:103860004093D102F901ED54FF4FE491E093D0026F
:1038700022E02E83E9CEAFEFCA16D104E104F104B1
:1038800009F00CF46DC068E478EE81E090E0A501E9
:1038900098010E94122669017A01B1E0CB1AD10881
:1038A000E108F108EE8184E0E11163CF83E02FEFBE
:1038B000C216D104E104F10471F16CF162E17AE71E
:1038C00080E090E0A50194010E94122669017A012E
:1038D000E1E0CE1AD108E108F10884E0FFEFCF164D
:1038E000D104E104F104B9F0B0F0C980DA80EB80D2
:1038F000FC808AE0F594E794D794C7948A95D1F731
:1039000031E0C31AD108E108F10885E004C081E084
:103910002E8121115DCF95B5987F892B85BD2FEF25
:103920003FEFA901411451046104710409F042C040
:10393000BE81B13009F44BC0B23009F45AC0B111A4
:103940004BCEC7BC2093DD023093DE024093DF02F2
:103950005093E00280916E00826080936E003CCEB6
:1039600082E0D6CF91E0C114D10431E0E306F10446
:1039700084F068E478EE81E090E0A50198010E946F
:10398000122669017A0181E0C81AD108E108F1081C
:1039900093E0AE81A13019F680918100887F892B58
:1039A000809381002FEF3FEFA9014114510461047E
:1039B000710469F09801220F331FD1010E9437264C
:1039C00028EE33E040E050E00E94F025B1CFD092E5
:1039D0008900C09288002093D9023093DA02409384
:1039E000DB025093DC0280916F00826080936F0055
:1039F000F3CDC092B3002093D5023093D60240930A
:103A0000D7025093D802809170008260809370003A
:103A1000E3CD8091E40290E08C010D5A1C4F8E5A48
:103A20009C4FFC01808190E063E070E00E94DC2507
:103A30007B018091E1029091E202892B41F4E091B7
:103A4000E302F0E0E25BFC4F84810E945A11E091B6
:103A5000E102F091E202380150E040E0E416F506A0
:103A600009F44BC0828193814817590798F54301A7
:103A7000801A910AD30112962C91129711966C918B
:103A80001197CC908085882361F0C89E6001112435
:103A9000CD2C869FB0011124672F829F90011124A5
:103AA000232FA684818592853385A31219C0880DA2
:103AB000991DA384A80EB92EB11CD501CC92C48443
:103AC000C80ED92ED11CD6016C933585830F911D5C
:103AD000DC012C934F5F5F4FB3E06B0E711CBECFC8
:103AE0004A01880C991C880C991C880D991DA80EF8
:103AF000B92EB11CD5011C92DCCFCF010E948708E2
:103B0000F2C9C114D10409F4EEC9B601DD0C880B69
:103B1000990B0E948E04E98190E080E0E13011F47D
:103B200083E391E06C01F4E0D694C794FA95E1F751
:103B30007801C701801B910B8A159B050CF0D3C936
:103B4000B601D7018C910E940C04B3E0EB0EF11C7E
:103B5000F0CF69E170E08EE492E00E94880C7ECCA8
:103B600088E198E00FB6F894A895809360000FBEA6
:103B700090936000FFCF8FEF80934E0385E5809395
:103B80004F0386E080935003ED81E09351030E9440
:103B90007D068091850580935203909181058091E7
:103BA00082059093530380935403909183058091F1
:103BB0008405909355038093560369E070E0EBCB46
:103BC00080914B03811106C280914A03882309F436
:103BD00096C00E94C00C892BB9F085E00E94D10DDF
:103BE00060E088EC90E00E945F0E10924A0380E053
:103BF00090E0892B09F423C90E948502882309F4E7
:103C00001EC90E9400001BC980913F03811108C09A
:103C100085E00E94D10D84EF91E00E94D20CE5CFA7
:103C20000E947D06F0918505F98380914903F8177C
:103C3000F1F2F0934903FC3011F1B8F4F83059F186
:103C400080914803882399F23981353109F44AC0BB
:103C500038F53730D1F1880F60E08150393039F6CE
:103C60000E94A9104E97CCF129C02981283171F00A
:103C70002E3531F781E00E94A70D82E004C080E07C
:103C80000E94A70D81E080934803DACF83E00E9471
:103C9000A70D83E0F8CF82E00E94A70D84E0F3CF68
:103CA0009981993171F0903409F0A1CF815861E088
:103CB000880F0E94A910833E9F4F7CF488EE93E00A
:103CC0000EC0815860E0880FCBCF880F61E0815033
:103CD0000E94A910833E9F4F8CF382E390E00E94E4
:103CE000D20C85CF815863E0880F0E94A910809183
:103CF0004803880F63E081500E94A910DFCF0E9423
:103D0000C00C892BA1F081E00E94D10D198240E006
:103D100060E089810E94750FE981EF5FE983E430FB
:103D2000B1F781E080934A031092480360CF0E946C
:103D30007D06F0918505F983F03621F1F53631F1F4
:103D4000809149039981891709F4CEC09093490362
:103D5000923509F48CC008F063C0993109F4DAC1D6
:103D6000C0F59C3009F4DBC1E0F4983009F4A7C039
:103D7000993009F4CAC19730E1F486E00E94D10D70
:103D800066E0BEC1209186052983DACF3091860591
:103D9000305F398364E170E080E090E00E948E043F
:103DA000CFCFA981A53109F49FC040F4AD3009F40B
:103DB0009BC085E00E94D10D60E0A2C1B981B631FF
:103DC00009F486C1B831A9F786E00E94D10D68E0F8
:103DD00097C1E981E43409F456C0A8F4E03409F449
:103DE0008BC138F4EC3129F786E00E94D10D6BE0ED
:103DF00087C1F981F23479F1F334D9F682E00E9477
:103E0000D10D62E07DC12981273409F469C008F42D
:103E10006BC02A3471F686E00E94D10D6FE070C14C
:103E20003981333709F471C198F53336A1F3C0F401
:103E30003E3509F450C040F43A3509F0BACF86E077
:103E40000E94D10D6CE05CC18981813609F4BCCF40
:103E5000823609F0AECF86E00E94D10D6DE050C1F0
:103E60009981903759F240F4943609F0A2CF86E058
:103E70000E94D10D6EE044C1A981A13709F43CC173
:103E8000A23709F096CF82E00E94D10D63E038C1DD
:103E9000B981B03809F443C158F4B537A1F308F437
:103EA0006CCFB63709F436C1B73709F4A7CF81CF45
:103EB000E981E33821F240F4E13809F07ACF86E075
:103EC0000E94D10D6AE01CC1F981F43809F48CCF4D
:103ED000F63809F06ECF86E00E94D10D69E010C17E
:103EE00088EB9BE00E94D20C609187056A3050F10C
:103EF0002091830530918405009181051091820500
:103F000070E088EA91E60E94DC2570930B016093D3
:103F10000A0188E0EAE0F2E0A5EFB2E001900D923C
:103F20008A95E1F70115110569F02115310551F068
:103F30008091F302843009F420C108F0F5C081308B
:103F400009F41EC18091440390914503A09146035A
:103F5000B09147032091400330914103821B930BA2
:103F600084369105B8F18091440390914503A09166
:103F70004603B09147038093400390934103A0937D
:103F80004203B09343030E940C126B017C0120E0BA
:103F900030E040E051E40E940B2487FF1BC020E08A
:103FA00030E040E251E4C701B6010E946F250E9453
:103FB0008224CB010E94D20C80914903813711F0F9
:103FC000803441F485E00E94D10D60E088EC90E0FF
:103FD0000E945F0E80913F03882309F408CE409130
:103FE000440350914503609146037091470300914B
:103FF0003B0310913C0320913D0330913E03401B55
:10400000510B620B730B6A017B01E894F7F8833064
:1040100009F43BC308F001C1813009F408C38230C0
:1040200009F41DC34090440350904503609046033B
:104030007090470369E2862E63E0962E79E0A72E02
:1040400073E0B72E10E000E0D4012D913D914D01B9
:104050002115310599F1F50180819181B201681B2B
:10406000790B2617370750F1F801EF5FFC4FE0801E
:10407000F801EE5FFE4FC0800C2C000CDD080E2C0A
:10408000000CFF08CE18DF08072E000C880B990BD8
:10409000982F872F762F662750E040E00E94122647
:1040A000D6010E944926672F782F892F992787FDEF
:1040B0009A956E0D7F1D802F0E94E50E0F5F1F4F9A
:1040C000F4E0AF0EB11C0830110509F0BDCF8FCD63
:1040D00082E390E00E94D20C85E00E94F70C85E01C
:1040E0000E94F70C85E00E94F70C85E00E94F70C17
:1040F00085E00E94F70CF8CE83E00E94D10D61E0CC
:1041000088EC90E00E945F0EEFCE86E00E94D10D19
:1041100065E0F6CF81E00E94D10D64E0F1CF86E04A
:104120000E94D10D67E0ECCF853009F460C0863085
:1041300009F008CFB901330F880B990B59E0660FCE
:10414000771F881F991F5A95D1F79801110F440BBB
:10415000550B0E9412262130A1E03A070CF04BC00B
:104160002115BFEF3B070CF455C037FF46C0339510
:104170003093F6022093F50223C0119501951109A1
:10418000B801110F880B990BE9E0660F771F881FA4
:10419000991FEA95D1F7032E000C440B550B0E9492
:1041A0001226213081E0380784F421159FEF39076A
:1041B000DCF037FF0CC033953093FC022093FB02F8
:1041C0003093F8022093F702BDCE20E031E080E08A
:1041D00091E0821B930B9093FA028093F9029093E3
:1041E000F6028093F502AECE20E03FEFE4CF3195AA
:1041F000219531099FCF20E031E080E091E0821BE2
:10420000930B9093FA028093F9029093FC028093AF
:10421000FB0298CE20E03FEFAACF853009F459C2C7
:1042200008F446C2863009F0FDCE8601E0900A010E
:10423000F0900B01E2E3EE0EF11CEE0CFF1CEE0C15
:10424000FF1C80910003882309F417C181E0003529
:10425000110528F082E0083C110508F083E09091F8
:10426000FF029817C1F08093FF02823009F48AC0E0
:10427000833009F4B2C0813071F440E550E067EE5C
:104280007FEF84E00E94050E40E550E067EE7FEF8F
:1042900082E00E94050E0831114008F4C3CE10924E
:1042A00000030E94C10460933B0370933C0380931E
:1042B0003D0390933E031092F40210E000E081E091
:1042C0009091F4029817C1F08093F402823009F4BF
:1042D000DFC0833009F4F3C0813071F440E550E071
:1042E00067EE7FEF80E00E94050E40E550E067EE4C
:1042F0007FEF86E00E94050E970136952795200FE7
:10430000311FC901B0E0A0E0A70170E060E02E1508
:104310003F0520F0841B950BA60BB70B803591054C
:1043200008F41BC1883C910508F019C182E0909106
:10433000FF029817C1F08093FF02823009F411C187
:10434000833009F426C1813071F440E550E067EE16
:104350007FEF84E00E94050E40E550E067EE7FEFBE
:1043600082E00E94050E0E151F0508F45BCE0E9428
:10437000C10460933B0370933C0380933D0390938F
:104380003E0350CEC090FD02D090FE02D60115969D
:104390008C9187FD8F5F8595F6016181062E000C5B
:1043A000770B680F711D87FD7A9548E750E085E02F
:1043B0000E94050ED60116968C9187FD8F5F85951C
:1043C000F6016281062E000C770B680F711D87FDC8
:1043D0007A9548E750E083E05CCF40E550E06BEF32
:1043E0007FEF84E00E94050E40E550E06BEF7FEF29
:1043F00082E00E94050E6701D694C794F0E5CF0EC7
:10440000D11CA090FD02B090FE02D50115964C91F2
:104410002091F7023091F8024203B001439F700DE2
:10442000112477FF02C061507F4F672F770F770B02
:10443000F5018181680F711D87FD7A95A60185E0E0
:104440000E94050ED50116964C912091F9023091EB
:10445000FA024203B001439F700D112477FF02C09E
:1044600061507F4F672F770F770BF5018281680FBF
:10447000711D87FD7A95A601AECF0035110508F4B0
:104480001ECF82E0083C110508F41ACF83E018CF54
:10449000C090FD02D090FE02D6016C91062E000C59
:1044A000770B48E750E081E00E94050EF60163813A
:1044B000062E000C770B48E750E087E01BCF40E565
:1044C00050E06BEF7FEF80E00E94050E40E550E08A
:1044D0006BEF7FEF86E00E94050E5701F8ECAF1AF4
:1044E000B108C090FD02D090FE02D60114964C9106
:1044F0002091F5023091F6024203B001439F700D06
:10450000112477FF02C061507F4F672F770F770B21
:10451000F6018081680F711D87FD7A95A50181E004
:104520000E94050ED60117964C912091FB02309106
:10453000FC024203B001439F700D112477FF02C0BB
:1045400061507F4F672F770F770BF6018381680FDC
:10455000711D87FD7A95A501B0CF81E0E8CE83E09B
:10456000E6CEC090FD02D090FE02D60111966C916D
:10457000062E000C770B48E750E085E00E94050E00
:10458000F6016281062E000C770B48E750E083E0CD
:10459000E8CE40E550E06BEF7FEF84E00E94050E2F
:1045A00040E550E06BEF7FEF82E00E94050E57017F
:1045B000F8ECAF1AB108C090FD02D090FE02D6010F
:1045C00015964C912091F7023091F8024203B00108
:1045D000439F700D112477FF02C061507F4F672FFA
:1045E000770F770BF6018181680F711D87FD7A9532
:1045F000A50185E00E94050ED60116964C912091EA
:10460000F9023091FA024203B001439F700D112468
:1046100077FF02C061507F4F672F770F770BF6014E
:104620008281680F711D87FD7A95A501B0CF50FF7B
:1046300014C061E08DE00E949E03F0E2CF16FFEB14
:10464000DF06F2E0EF06F1040CF4ECCC0E94F30D6F
:1046500060E08DE00E949E03CACA60E0EBCF6091EB
:104660000A0170910B01CB01B0E0A0E0C816D90699
:10467000EA06FB060CF4D6CC8091390390913A03FC
:1046800043E008960E94330ECDCC60910A017091F0
:104690000B01CB01B0E0A0E0C816D906EA06FB0684
:1046A0000CF4C0CC42E08091390390913A03EACFF8
:1046B00060910A0170910B01CB01B0E0A0E0C81637
:1046C000D906EA06FB060CF4ADCC45E082E192E0A7
:1046D000D9CF80910A0190910B01B0E0A0E0C816FB
:1046E000D906EA06FB060CF49DCC0E94F30D7FCAA6
:1046F00080917405909175050E9410278091710535
:104700009091720597FD03C060E00C94D00308956A
:10471000F999FECF92BD81BDF89A992780B5089589
:10472000262FF999FECF1FBA92BD81BD20BD0FB6CD
:10473000F894FA9AF99A0FBE019608955058BB273B
:10474000AA270E94B6230C9430250E94222538F017
:104750000E94292520F039F49F3F19F426F40C9487
:104760001F250EF4E095E7FB0C941925E92F0E9414
:10477000412558F3BA17620773078407950720F09D
:1047800079F4A6F50C9463250EF4E0950B2EBA2F60
:10479000A02D0B01B90190010C01CA01A001112447
:1047A000FF27591B99F0593F50F4503E68F11A16F3
:1047B000F040A22F232F342F4427585FF3CF469584
:1047C00037952795A795F0405395C9F77EF41F16A6
:1047D000BA0B620B730B840BBAF09150A1F0FF0F70
:1047E000BB1F661F771F881FC2F70EC0BA0F621F5C
:1047F000731F841F48F4879577956795B795F7954C
:104800009E3F08F0B0CF9395880F08F09927EE0FE0
:104810009795879508950E94F52408F481E00895FE
:104820000E9424240C9430250E94292558F00E94CF
:10483000222540F029F45F3F29F00C9419255111ED
:104840000C9464250C941F250E94412568F399233C
:10485000B1F3552391F3951B550BBB27AA2762177C
:104860007307840738F09F5F5F4F220F331F441F89
:10487000AA1FA9F335D00E2E3AF0E0E832D09150BD
:104880005040E695001CCAF72BD0FE2F29D0660FAA
:10489000771F881FBB1F261737074807AB07B0E8ED
:1048A00009F0BB0B802DBF01FF2793585F4F3AF0F3
:1048B0009E3F510578F00C9419250C9464255F3FB8
:1048C000E4F3983ED4F3869577956795B795F79579
:1048D0009F5FC9F7880F911D9695879597F9089561
:1048E000E1E0660F771F881FBB1F621773078407FD
:1048F000BA0720F0621B730B840BBA0BEE1F88F70C
:10490000E09508950E9489246894B1110C9464255F
:1049100008950E94492588F09F5798F0B92F99274C
:10492000B751B0F0E1F0660F771F881F991F1AF09A
:10493000BA95C9F714C0B13091F00E946325B1E077
:1049400008950C946325672F782F8827B85F39F076
:10495000B93FCCF3869577956795B395D9F73EF433
:1049600090958095709561957F4F8F4F9F4F0895DB
:10497000E89409C097FB3EF49095809570956195F9
:104980007F4F8F4F9F4F9923A9F0F92F96E9BB27AF
:104990009395F695879577956795B795F111F8CF2B
:1049A000FAF4BB0F11F460FF1BC06F5F7F4F8F4F96
:1049B0009F4F16C0882311F096E911C0772321F08C
:1049C0009EE8872F762F05C0662371F096E8862F24
:1049D00070E060E02AF09A95660F771F881FDAF77B
:1049E000880F9695879597F90895990F0008550FA8
:1049F000AA0BE0E8FEEF16161706E807F907C0F065
:104A000012161306E407F50798F0621B730B840B6C
:104A1000950B39F40A2661F0232B242B252B21F446
:104A200008950A2609F4A140A6958FEF811D811DE6
:104A3000089597F99F6780E870E060E008959FEF20
:104A400080EC089500240A94161617061806090625
:104A5000089500240A9412161306140605060895F4
:104A6000092E0394000C11F4882352F0BB0F40F47C
:104A7000BF2B11F460FF04C06F5F7F4F8F4F9F4FBC
:104A8000089557FD9058440F551F59F05F3F71F03E
:104A90004795880F97FB991F61F09F3F79F08795A5
:104AA0000895121613061406551FF2CF4695F1DF2E
:104AB00008C0161617061806991FF1CF86957105BE
:104AC000610508940895E894BB2766277727CB01F2
:104AD00097F908950E94F52408F48FEF08950E9435
:104AE00082250C9430250E94222538F00E94292529
:104AF00020F0952311F00C9419250C941F251124F6
:104B00000C9464250E94412570F3959FC1F3950F85
:104B100050E0551F629FF001729FBB27F00DB11D41
:104B2000639FAA27F00DB11DAA1F649F6627B00DD1
:104B3000A11D661F829F2227B00DA11D621F739FBA
:104B4000B00DA11D621F839FA00D611D221F749FC8
:104B50003327A00D611D231F849F600D211D822F0F
:104B6000762F6A2F11249F5750409AF0F1F0882336
:104B70004AF0EE0FFF1FBB1F661F771F881F915063
:104B80005040A9F79E3F510580F00C9419250C94D4
:104B900064255F3FE4F3983ED4F386957795679557
:104BA000B795F795E7959F5FC1F7FE2B880F911D8D
:104BB0009695879597F9089597FB072E16F400941C
:104BC00007D077FD09D00E94512607FC05D03EF49E
:104BD000909581959F4F0895709561957F4F0895A9
:104BE000A1E21A2EAA1BBB1BFD010DC0AA1FBB1FF1
:104BF000EE1FFF1FA217B307E407F50720F0A21B63
:104C0000B30BE40BF50B661F771F881F991F1A94CF
:104C100069F760957095809590959B01AC01BD01F9
:104C2000CF010895052E97FB1EF400940E942926BB
:104C300057FD07D00E94F02507FC03D04EF40C94DA
:104C4000292650954095309521953F4F4F4F5F4F06
:104C5000089590958095709561957F4F8F4F9F4FE8
:104C60000895EE0FFF1F0590F491E02D09940E9426
:104C70006526B7FF0895821B930B08950E94652651
:104C8000A59F900DB49F900DA49F800D911D1124A0
:104C90000895B7FF0C943E260E943E26821B930B7C
:104CA0000895AA1BBB1B51E107C0AA1FBB1FA61773
:104CB000B70710F0A61BB70B881F991F5A95A9F7C5
:104CC00080959095BC01CD010895A29FB001B39F3E
:104CD000C001A39F700D811D1124911DB29F700D05
:104CE000811D1124911D08950F931F93CF93DF937E
:104CF0008230910510F482E090E0E0919E05F09101
:104D00009F0530E020E0B0E0A0E0309799F4211555
:104D1000310509F44AC0281B390B24303105D8F578
:104D20008A819B816115710589F1FB0193838283DF
:104D3000FE0111C04081518102811381481759073A
:104D4000E0F04817590799F4109761F012960C9308
:104D5000129713961C933296CF01DF91CF911F913A
:104D60000F91089500939E0510939F05F4CF211590
:104D7000310551F04217530738F0A901DB019A01C0
:104D8000BD01DF01F801C1CFEF01F9CF90939F057D
:104D900080939E05CDCFFE01E20FF31F8193919387
:104DA0002250310939832883D7CF20919C05309137
:104DB0009D05232B41F4209116013091170130936A
:104DC0009D0520939C05209114013091150121151A
:104DD000310541F42DB73EB74091180150911901AA
:104DE000241B350BE0919C05F0919D05E217F3071C
:104DF000A0F42E1B3F0B2817390778F0AC014E5F4B
:104E00005F4F2417350748F04E0F5F1F50939D05E5
:104E100040939C05819391939FCFF0E0E0E09CCF7D
:104E2000CF93DF930097E9F0FC013297138212824F
:104E3000A0919E05B0919F05ED0130E020E0109714
:104E4000A1F420813181820F931F20919C05309124
:104E50009D052817390709F061C0F0939D05E0937F
:104E60009C05DF91CF910895EA01CE17DF07E8F5A1
:104E70004A815B819E0141155105B1F7E901FB8330
:104E8000EA8349915991C40FD51FEC17FD0761F4CE
:104E9000808191810296840F951FE901998388830F
:104EA000828193819B838A83F0E0E0E012968D916A
:104EB0009C9113970097B9F52D913C911197CD01D5
:104EC0000296820F931F20919C0530919D05281713
:104ED000390739F6309751F510929F0510929E05CB
:104EE000B0939D05A0939C05BCCFD383C283408122
:104EF0005181840F951FC817D90761F44E5F5F4F2A
:104F000088819981480F591F518340838A819B81F1
:104F1000938382832115310509F0B0CFF0939F056B
:104F2000E0939E059ECFFD01DC01C0CF138212826B
:104F3000D7CF6817790768F4FB01DC01E40FF51F90
:104F4000A40FB51F02C002900E9241505040D8F7F6
:104F500008950C94B227DC0101C06D93415050407C
:104F6000E0F70895FB01DC0102C001900D92415071
:104F70005040D8F7089511E0CCECD1E004C0FE0118
:104F80000E9431262196CD3CD107C9F7F894FFCF76
:104F900001FFFFFFFFFFFFFFFFFFC8000400130832
:104FA00013086E000000A005800001000504030244
:104FB000070608090A0B4F5A4D5E5E5E5E5E01FFF2
:104FC00001FFFF01FF01DDC9DDA6DDC9DDA6643CEF
:104FD000642D643C642D7F7F000000007F7FFB7F99
:104FE000FB7FFB7FFB7F3C7F3C7F3C7F3C7F3C7FAC
:104FF0003C7FFB7FFB7FFB7FFB7F3C7F3C7FFB7F1E
:10500000FB7FFB7FFB7FFB7F3C7FFB7F3C7F3C7F0D
:105010003C7FFB7FFB7FFB7FFB7F3C7F3C7F3C7FBC
:10502000FB7F3C7FFB7FFB7F3C7FFB7F3C7F3C7FAC
:105030003C7F3C7F3C7FE77FE77FE77FE77F0000A7
:1050400000000000000019E719E7CE32CE32E71960
:10505000E71932CE32CE00D3002DD32D2DD3D3007D
:105060002D002DD3D32D37370000C9C9C9C9000081
:10507000C9C937373737000000000000FF0000FFC4
:105080000000FF0000000080800080008000808021
:105090000000FFFFFF0003040506000100010001FE
:1050A000000100007F7F7F7F0000737000710000AF
:1050B0000072750000007600777400000000BB02EB
:1050C0001B0248022C03790257026B020000000009
:1050D0004A0C1D0C790CF30B160C030CF40B50430B
:1050E000206D6F64653A2051756164437261776C1D
:0850F0006572312E360D0A0035
:00000001FF
