:100000000C9464000C9467130C9440130C948C00B3
:100010000C948C000C948C000C948C000C941C128E
:100020000C948C000C948C000C948C000C948C0020
:100030000C948C000C948C000C948C000C948C0010
:100040000C94F6120C948C000C94C4120C949E1216
:100050000C948C000C948C000C948C000C948C00F0
:100060000C948E130C948C000000000024002700D8
:100070002A000000000023002600290000000008DC
:10008000000201000003040700000000000000005F
:10009000020102040810204080010204081020011F
:1000A000020408102000000000250028002B000496
:1000B000040404040404040202020202020303030F
:1000C00003030300F214D41F11241FBECFEFD8E0A6
:1000D000DEBFCDBF15E0A0E0B1E0EAE3F8E402C086
:1000E00005900D92AC32B107D9F728E0ACE2B5E04B
:1000F00001C01D92AB35B207E1F710E0C3E6D0E0D6
:1001000004C02197FE010E948D22C236D107C9F793
:100110000E94D7150C9410240C9400008230F8F43F
:10012000E82FF0E0EE0FFF1FE25FFE4F20E435E026
:1001300031832083813041F0809169008C7F682B6E
:1001400060936900E89A089580916900837F660F43
:10015000771F660F771F682B60936900E99A0895EF
:100160008F929F92AF92BF92CF92DF92EF92FF92C7
:10017000CF9320912E0830912F0882179307E8F52E
:100180004B01AA24BB24C82DC52ED62EE72EFF2452
:10019000BC2DA42F20913408222361F0829E4001BF
:1001A0001124C92D2C9D60011124BD2D249FF00127
:1001B0001124AF2FE0913A08E0903508F09036080E
:1001C00030913708E31323C09C01220F331F820FA5
:1001D000931F8E0D9F1DE0913708E80FF92FF11D39
:1001E000C083E0913808E80FF92FF11DB08320910A
:1001F0003908820F911DFC01A083CF91FF90EF90F1
:10020000DF90CF90BF90AF909F908F900895880F10
:10021000991F880F991F8E0D9F1D472F5527662701
:100220007727222349F030E0249F7001259FF00CAE
:10023000349FF00C11244F2DE80FF92FF11D40834E
:10024000CACF982F2091820781E0213208F043C065
:1002500080915E078111FCCF8091810732E030935D
:100260005E0790935D079FEF90935C0710925B078A
:1002700020935A07A1E6B7E0EAE3F7E090E02913FC
:1002800031C01092390790913907880F892B8093DC
:10029000390780913807813049F5109238078091ED
:1002A00039078093BB008091BC0083FDF8CF85ECBB
:1002B0008093BC0080915E078230E1F380915C07FF
:1002C0008F3FB1F080915C078032A1F080915C0794
:1002D000803391F084E010926007109282071092B0
:1002E0005F0708953D9131939F5FC9CF85EEE0CFC1
:1002F00080E0F1CF82E0EFCF83E0EDCF90915E0719
:100300009111FCCF91E090935E0790935D072FEFE2
:1003100020935C0710925B07260F20935A07909357
:10032000390790913907880F892B8093390780917D
:1003300038078130F9F4109238078091390780939B
:10034000BB008091BC0083FDF8CF85EC8093BC009E
:1003500080915E078130E1F380915B07861710F48E
:1003600060915B07AAE3B7E0E8E1F7E080E086137D
:1003700003C0089585EEEACF9D9191938F5FF7CFEB
:1003800008950895AF92BF92CF92DF92EF92FF92BD
:100390000F931F93CF93DF936C017B018B01040FAD
:1003A000151FEB015E01AE18BF08C017D10759F049
:1003B0006991D601ED91FC910190F081E02DC6018B
:1003C0000995892B79F7C501DF91CF911F910F9185
:1003D000FF90EF90DF90CF90BF90AF900895FC0119
:1003E000538D448D252F30E0842F90E0821B930B9A
:1003F000541710F0CF96089501970895FC01918D40
:10040000828D981761F0A28DAE0FBF2FB11D5D9642
:100410008C91928D9F5F9F73928F90E008958FEFE4
:100420009FEF0895FC01918D828D981731F0828D98
:10043000E80FF11D858D90E008958FEF9FEF0895EF
:10044000FC01918D228D892F90E0805C9F4F821B53
:1004500091098F739927089583E897E00E942002FD
:1004600021E0892B09F420E0822F089580E090E0BC
:10047000892B29F00E942C0281110C940000089510
:10048000FC01A48DA80FB92FB11DA35ABF4F2C9109
:10049000848D90E001968F739927848FA689B78900
:1004A0002C93A089B1898C91837080648C93938DF7
:1004B000848D981306C00288F389E02D80818F7D9A
:1004C00080830895EF92FF920F931F93CF93DF9352
:1004D000EC0181E0888F9B8D8C8D98131AC0E88980
:1004E000F989808185FF15C09FB7F894EE89FF894F
:1004F0006083E889F98980818370806480839FBFED
:1005000081E090E0DF91CF911F910F91FF90EF90EC
:100510000895F62E0B8D10E00F5F1F4F0F731127FC
:10052000E02E8C8D8E110CC00FB607FCFACFE88937
:10053000F989808185FFF5CFCE010E944002F1CF7D
:10054000EB8DEC0FFD2FF11DE35AFF4FF0829FB7AB
:10055000F8940B8FEA89FB8980818062CFCFCF939B
:10056000DF93EC01888D8823B9F0AA89BB89E889DB
:10057000F9898C9185FD03C0808186FD0DC00FB681
:1005800007FCF7CF8C9185FFF2CF808185FFEDCFFF
:10059000CE010E944002E9CFDF91CF9108958330D0
:1005A00081F028F4813099F08230A9F008958730E5
:1005B000A9F08830C9F08430B1F4809180008F7D3B
:1005C00003C0809180008F7780938000089584B568
:1005D0008F7784BD089584B58F7DFBCF8091B00067
:1005E0008F778093B00008958091B0008F7DF9CF10
:1005F000CF93DF93282F30E0F901E458FF4F849127
:10060000F901EF56FF4FD491F901E155FF4FC49125
:10061000CC23A1F081110E94CF02EC2FF0E0EE0F6D
:10062000FF1FEE58FF4FA591B491EC91ED2381E0AF
:1006300090E009F480E0DF91CF91089580E090E0B0
:10064000FACF1F93CF93DF93282F30E0F901E458BE
:10065000FF4F8491F901EF56FF4FD491F901E15515
:10066000FF4FC491CC23A9F0162F81110E94CF0215
:10067000EC2FF0E0EE0FFF1FEB55FF4FA591B4916B
:100680008FB7F894EC91111108C0D095DE23DC935C
:100690008FBFDF91CF911F910895DE2BF8CF682F88
:1006A0008DE00C94210310921707109216071092F8
:1006B00060071092820710925E0781E080935D07C9
:1006C0001092380761E082E10E94210361E083E13A
:1006D0000E942103E9EBF0E080818E7F808380819E
:1006E0008D7F808388E48093B80085E48093BC008C
:1006F00080EC91E0909315078093140781EC91E0D2
:1007000090931307809312070895CF93DF9390E09F
:10071000FC01EF56FF4F249181559F4FFC018491BE
:100720008823C9F090E0880F991FFC01E859FF4F1A
:10073000A591B491FC01EB55FF4FC591D491611186
:100740000DC09FB7F8948C91209582238C9388815B
:10075000282328839FBFDF91CF910895623051F401
:100760009FB7F8943C91822F809583238C93E881E6
:100770002E2BEFCF8FB7F894EC912E2B2C938FBFAD
:10078000EACF1F93CF93DF93182FEB0161E00E9414
:100790008503209739F460E0812FDF91CF911F917D
:1007A0000C942103CF3FD10511F461E0F5CFE12F87
:1007B000F0E0E458FF4FE491E33031F140F4E130F0
:1007C000B1F0E230E1F0C038D1057CF7E4CFE7309A
:1007D00029F1E83059F1E430B1F78091800080626E
:1007E00080938000D0938B00C0938A0004C084B5AE
:1007F000806884BDC7BDDF91CF911F91089584B5F6
:10080000806284BDC8BDF7CF8091800080688093EE
:100810008000D0938900C0938800EDCF8091B00014
:1008200080688093B000C093B300E5CF8091B000A2
:1008300080628093B000C093B400DDCF3FB7F894DE
:100840008091C5059091C605A091C705B091C805D6
:1008500026B5A89B05C02F3F19F00196A11DB11D1B
:100860003FBFBA2FA92F982F8827BC01CD01620F57
:10087000711D811D911D42E0660F771F881F991F12
:100880004A95D1F708950F931F93CF93DF93CDB778
:10089000DEB729970FB6F894DEBF0FBECDBF8091AB
:1008A000350890913608892B09F467C00E941E0410
:1008B00000913B0810913C0820913D0830913E0882
:1008C000601B710B820B930B6C327140810591059B
:1008D00068F3F89480913008909131089A83898365
:1008E000E0913508F0913608DF0111968081898703
:1008F00090912C08E0913F08F091400880914108C8
:10090000992309F445C09081982B98879081809510
:1009100089238F838F818C8388E08B8358856F81B7
:1009200049853B812C8189819A81508347FD252F00
:100930003A952083262F39F0441F00C000006083C1
:10094000000000C0F2CF38E04D91608300000197B5
:1009500061F7F0934008E0933F0849873B832C837D
:100960009A83898378940E941E0460933B08709355
:100970003C0880933D0890933E0829960FB6F89462
:10098000DEBF0FBECDBFDF91CF911F910F910895B4
:100990009081982B98879081809589238F838F8170
:1009A0008E8388E08D8358856F8149853D812E81B6
:1009B00089819A81508347FD252F00C000C0208384
:1009C00000C000C000C000C000C060830000262F2F
:1009D0003A9541F0441F000000C000C000C000C0B4
:1009E00000C0E8CF38E04D9100C0608300C001979F
:1009F00009F7F0934008E0933F0849873D832E8331
:100A0000AFCF8F929F92AF92BF92CF92DF92EF9231
:100A1000FF926B017C010E941E044B015C01C1141A
:100A2000D104E104F104B9F00E941E0468197909A7
:100A30008A099B09683E73408105910580F321E096
:100A4000C21AD108E108F10888EE880E83E0981EEA
:100A5000A11CB11CE4CFFF90EF90DF90CF90BF902E
:100A6000AF909F908F9008952FB7F89460910006F3
:100A70007091010680910206909103062FBF0895A0
:100A80000F931F930E941E04AB01BC0180917D0552
:100A900090917E05A0917F05B09180058A019B0110
:100AA000081B190B2A0B3B0BD901C8010097A14069
:100AB000B10520F580917D0590917E05A0917F057F
:100AC000B09180059A01281B390BC90140937D051F
:100AD00050937E0560937F0570938005E0914B08ED
:100AE000E73090F4F0E0E958FA4F0C948D2281053C
:100AF000B3052A0667069905D80567068FEF9FEFAD
:100B0000E5CF84E080934B0880914B0862E070E071
:100B1000843010F063E070E080914E08823009F478
:100B20005BC1833009F45AC18FEF1F910F910C9470
:100B30008E009C0127553A412339314110F481E060
:100B4000E1CF8B5693408F35914008F0BDC0109295
:100B5000790510927A0510927B0510927C0510920F
:100B6000780583E0CFCF10924B089C012B523D407B
:100B70002B3C384060F41092790510927A0510925F
:100B80007B0510927C051092780585E0BBCF8559D6
:100B900096408736944008F0B7CF0E9434056093A2
:100BA0000D0770930E0780930F0790931007ACCF3B
:100BB00010924B08855A91408B31914008F0A4CF98
:100BC00080917805803210F482E09CCF8091790585
:100BD00090917A05A0917B05B0917C0540917905B3
:100BE00050917A0560917B0570917C05892F9A2F31
:100BF000AB2FBB2784279527A627B7279927BB2785
:100C00008F3F9105AF4FB10509F07ECF80917905F7
:100C100090917A05A0917B05B0917C058A2F90E098
:100C200090934A08809349080E94340560930D0709
:100C300070930E0780930F079093100781E08093C5
:100C40001107E0914C08F0914D08309709F45CCF02
:100C500009955ACF25E020934B0840917905509192
:100C60007A0560917B0570917C057695679557951F
:100C700047954093790550937A0560937B0570936F
:100C80007C05209178052F5F209378059C01205FDB
:100C900034402D34334090F48091790590917A0559
:100CA000A0917B05B0917C05B06880937905909305
:100CB0007A05A0937B05B0937C0526CF855A914099
:100CC0008B31914008F420CF10924B081DCF9C012E
:100CD0002F5A31092F35314048F58091780580FD34
:100CE00015C08091790590917A05A0917B05B0910E
:100CF0007C05880F991FAA1FBB1F8160809379050F
:100D000090937A05A0937B05B0937C05809178053C
:100D10008F5F80937805809178058E3120F58091E2
:100D20004B08863009F41DCF86E0ECCE8D50924002
:100D30008F35914048F68091790590917A05A09180
:100D40007B05B0917C05880F991FAA1FBB1F80935C
:100D5000790590937A05A0937B05B0937C058091EB
:100D600078058E5FD6CF8091790590917A05A09114
:100D70007B05B0917C059C01306890917705832FAD
:100D8000829586958770911104C083708093770552
:100D90009BCF40917705837050E08417150609F0CA
:100DA00093CF30934A08209349080E9434056093FA
:100DB0000D0770930E0780930F079093100782E042
:100DC00080931107E0914C08F0914D08309709F499
:100DD0007BCF81E0099578CF80E0A7CE81E0A5CEDA
:100DE0008F929F92AF92BF92CF92DF92EF92FF923B
:100DF0000F931F93CF93DF93F894109111071092E4
:100E00001107C0914908D0914A0880900D07909031
:100E10000E07A0900F07B0901007789481149104EA
:100E2000A104B10409F413C13CE2C32EDD24D39420
:100E3000E12CF12CD7FD06C0C0901201D090130117
:100E4000F12CE12C0E943405681979098A099B0963
:100E5000209153086C157D058E059F0508F0CBC0C9
:100E6000211136C0209709F43FC112E0D7FF11E0ED
:100E7000E0914C08F0914D08309711F081E0099510
:100E80001092550810925408D7FF35C18C2F8770E7
:100E9000805A809353088C2F86958695869580512D
:100EA000990B04E0880F991F0A95E1F79093500879
:100EB00080934F088D2F8F718051990B24E0880FFC
:100EC000991F2A95E1F7909352088093510802C028
:100ED0001111D6CF00915608002309F471C0D7FF35
:100EE0006FC080914F0890915008409151085091E7
:100EF0005208BC0197FF04C066277727681B790B4F
:100F00009A0157FF04C022273327241B350B260FD5
:100F1000371F283231050CF469C0DC0197FD1196AA
:100F2000B595A795E1E0A417B5070CF0E0E0BA018C
:100F300057FF02C06F5F7F4F7595679586179707BC
:100F40000CF4EE5FBA0157FF02C06F5F7F4F7595DB
:100F50006795719561957109861797070CF4EC5F99
:100F6000CC27DD27C41BD50BAC17BD070CF4E85FFD
:100F7000F0E0E654FB4F608160935408633761F002
:100F800028F4613789F13695279507C0643739F120
:100F90006637C9F79E0101C09C012F3F310519F04A
:100FA00010F02FEF30E020935508023049F4809183
:100FB0005308803629F48091540881118093530896
:100FC000812F90E0DF91CF911F910F91FF90EF90D3
:100FD000DF90CF90BF90AF909F908F900895222781
:100FE0003327281B390BD9CF9A01D7CF1092540839
:100FF00010925508DACF222319F310925508109257
:1010000054081092520810925108109250081092F1
:101010004F081092530810920D0710920E0710926D
:101020000F0710921007E0914C08F0914D0830978F
:1010300011F080E009950E943405609309077093D0
:101040000A0780930B0790930C0711E0B9CF0E9419
:101050003405C0900907D0900A07E0900B07F09084
:101060000C07DC01CB018C199D09AE09BF09CD2B02
:1010700079F0409112015091130170E060E048173F
:1010800059076A077B0720F410924A081092490812
:1010900027E0B695A795979587952A95D1F700975C
:1010A000A105B10509F48CCF8F709927AA27BB271A
:1010B0000097A105B10551F4E0914C08F0914D085D
:1010C00081E0309709F47CCF09957ACF0197A1058B
:1010D000B10509F075CFE0914C08F0914D083097BB
:1010E00009F46ECF80E0F0CF112309F4F3CE109213
:1010F000550810925408C093530810925208109249
:1011000051081092500810924F08E4CE0895DC0167
:10111000ED91FC910190F081E02D099485ED809393
:10112000BC008091BC0084FDFCCF10925E07089546
:101130002091A105260F3327331F21323105ECF40E
:1011400020915E07FC0190E080E0243069F082E0AD
:101150000895A091A1052191AC014F575A4FA40FBA
:10116000B52FB11D2C930196861798F38091A10598
:10117000680F6093A10580E0089581E008950895C7
:10118000E091170780911607E81730F4F0E0E85E69
:10119000F84F808190E008958FEF9FEF0895909130
:1011A0001707809116072FEF3FEF981748F4E92FA4
:1011B000F0E0E85EF84F208130E09F5F90931707E2
:1011C000C90108958091160790911707891B990B03
:1011D0000895CF92DF92EF92FF920F931F93CF93D8
:1011E000DF937C01CB018A0120915F07222389F0E4
:1011F000EB016B01C40ED51ECC15DD0569F06991BC
:10120000D701ED91FC910190F081E02DC701099586
:10121000F3CF642F0E949808C801DF91CF911F91EE
:101220000F91FF90EF90DF90CF900895CF93DF93D1
:101230001F92CDB7DEB7698320915F072223F9F0B3
:1012400020918207203258F021E030E0FC01338306
:10125000228390E080E00F90DF91CF9108958091FC
:101260006007E82FF0E0EF59F84F998190838F5F86
:10127000809360078093820781E090E0ECCF61E08B
:10128000CE0101960E949808F7CF81E00C942101CD
:10129000EF92FF920F931F93CF93DF93E62E072FCA
:1012A000F42E152FC2E4D8E0A981BA81988121E0FB
:1012B00020935F0790938107109260071092820736
:1012C00094E0899FB00111246A5F7F4FED91FC91FA
:1012D00011970190F081E02DCD0109956E2D702FB1
:1012E00089819A810E948708602F70E089819A81A4
:1012F0000E9487086F2D712F89819A810E9487082B
:10130000612F70E089819A810E94870889819A8182
:10131000DF91CF911F910F91FF90EF900C944509B1
:101320001F93CF93DF93162FC2E4D8E0A981BA812F
:10133000988121E020935F079093810710926007C6
:1013400010928207ED91FC9111970190F081E02DB0
:10135000682FCD01099589819A81DC01ED91FC917D
:101360000190F081E02D612F099589819A81DF91AB
:10137000CF911F910C94450990E080E00895EF9281
:10138000FF920F931F93CF93DF937C01D0E0C0E0D7
:101390000BE316E0CE15DF0584F461E088E00E94DF
:1013A0002103C8010197F1F760E088E00E94210362
:1013B000C8010197F1F72196EDCFDF91CF911F91F1
:1013C0000F91FF90EF9008952F923F924F925F926E
:1013D0006F927F928F929F92AF92BF92CF92DF9245
:1013E000EF92FF920F931F93CF93DF93D0E010E023
:1013F000F12CE12C882E912CB12CA12C00E0C0E026
:10140000D12CC12C2E2C209433243A94310E3EEF53
:10141000732E710E662463946D0E42E0542E5D0EA1
:101420005DEF452E410E80912E0890912F08C81631
:10143000D90698F5822D800F8535A0F4452D4C0FE7
:1014400050E070E060E0BA0155274427842D8C1BE2
:10145000482BC6010E94B0008FEFC81AD80ACD5F92
:101460000150E1CF8A3A60F4472D4C1B50E070E008
:1014700060E0762F652F542F4427862D8C0FE8CF00
:101480004C2F4D0F50E070E060E0762F652F542F09
:101490004427832D8C1B682BDCCF0E944304C5019D
:1014A000B4010E9401058FEFE81AF80A1350DD5FBE
:1014B000E11481E0F80609F0A1CFDF91CF911F91EF
:1014C0000F91FF90EF90DF90CF90BF90AF909F90E3
:1014D0008F907F906F905F904F903F902F900895E6
:1014E000CF92DF92EF92FF92CF936B017C01C0E02D
:1014F0008C2F90E020912E0830912F0882179307AF
:1015000070F4B701A6010E94B0000E9443046AE093
:1015100070E080E090E00E940105CF5FE9CFCF91BD
:10152000FF90EF90DF90CF900895CF93DF93C82F77
:1015300060E070E0CB010E94700AD0E0CC0FDD1FAC
:1015400040E050E06FEF70E0CE010E94B0000E94DA
:1015500043046AE070E080E090E00E94010540E012
:1015600050E06FEF70E0CE0101960E94B0000E9443
:1015700043046AE070E080E090E0DF91CF910C944A
:101580000105873078F5E82FF0E0E753F54F0C942C
:101590008D22D00AD50ADA0ADF0AE40AE90AED0A3E
:1015A00060E070E0CB010C94700A60E070E08FEFB7
:1015B00090E0F9CF60E07FEF80E090E0F4CF6FEF54
:1015C00070E080E090E0EFCF60E070E880E890E0CD
:1015D000EACF60E870E0CB01E6CF60E870E880E039
:1015E00090E0E1CF0895909336058093350586E02D
:1015F0008093F2050E943405609371057093720523
:10160000809373059093740581E080933805089565
:10161000CF93C0E050E040E070E060E08C2F0E948B
:101620004809CF5FC830B1F71092F2051092F30568
:10163000CF910895FF920F931F93CF93DF93F62ED0
:101640008A01C82FD0E00E943405FE01EE0FFF1F73
:10165000EE0FFF1FEF5BFA4F6083718382839383EA
:10166000FE01EE0FFF1FEF59FA4F11830083FE01B9
:10167000E75CFA4FDE01A45DBA4F8C918083CF5FA7
:10168000DE4FF882DF91CF911F910F91FF90089567
:10169000EF92FF920F931F93CF93DF937B01D42F91
:1016A0008C01C0E0F80161918F016F3739F0062E8F
:1016B000000C770BA7018C2F0E941A0BCF5FC8304C
:1016C00089F7D093F2050E943405609371057093F9
:1016D00072058093730590937405DF91CF911F91EC
:1016E0000F91FF90EF90089590930B0180930A0162
:1016F00028E0E2EBF4E0A4EFB5E001900D922A952A
:10170000E1F72091F305261709F473C06093F30500
:10171000613108F06EC0E62FF0E0EF56F44F0C9404
:101720008D22A20BB30BC30BC00BB70BBD0BBA0BB7
:10173000CB0BD00BD50BDA0BDF0BE40BE90BF30B68
:10174000F60BC60B8091F2059CEF980F923008F4CF
:1017500050C0882309F44DC044E068EC70E08EE48A
:1017600091E00C94480B86EE91E00C94F30A8EED18
:1017700091E0FBCF86ED91E0F8CF8EEC91E0F5CFD4
:1017800086EC91E0F2CF8EEB91E0EFCF41E0BC012F
:1017900086EB91E0E6CF41E0BC018EEA91E0E1CF3B
:1017A00041E0BC0186EA91E0DCCF41E0BC018EE97A
:1017B00091E0D7CF41E0BC0186E991E0D2CF41E092
:1017C000BC018EE891E0CDCF41E0BC0186E891E01C
:1017D000C8CF26E731E0309376052093750542E0C7
:1017E000BC01C901BECF26E631E0F5CF26E531E0E8
:1017F000F2CF08950F931F93CF93DF93C82FD0E0BC
:10180000FE01E45DFA4F60838C3008F063C0FE0196
:10181000E25CFE4F8081082E000C990B861797071B
:101820005CF0FE01EA5CFE4F8081082E000C990BF3
:10183000861797070CF4CB01FE01E753FA4F20817E
:10184000820F911D27FD9A95FE01E25DFE4F4081BA
:10185000BC0146039001479F300D1124FE01EA5D53
:10186000FE4F8081280F311D87FD3A952B3F7FEF7A
:10187000370714F42BEF3FEF8E01102F0027110FC5
:101880002A3B310514F029EB30E0032E000C440B09
:10189000550B2B5F3F4F4F4F5F4FA7ECB1E00E94BE
:1018A0009A222EEB30E040E050E00E946E22C80108
:1018B000865A9F4FAC01420F531F5F70B8016627D5
:1018C0007E70C65EDE4F8881DF91CF911F910F91B0
:1018D0000C944809DF91CF911F910F9108954F9279
:1018E0005F926F927F92AF92BF92CF92DF92EF9210
:1018F000FF920F931F93CF93DF938091F20588237C
:1019000009F477C0409100065091010660910206EB
:101910007091030600917105109172052091730575
:1019200030917405401B510B620B730B6A017B01F4
:10193000E894F7F8833009F4A3C208F069C0813055
:1019400009F463C2823009F485C2409000065090C9
:101950000106609002067090030661E6A62E65E01F
:10196000B62E71E4C72E75E0D72ED0E0C0E0F501A9
:10197000219131915F012115310599F1F6018081A5
:101980009181B201681B790B2617370750F1FE01D0
:10199000E75CFA4F0081FE01EF5FFE4FE0800E2C06
:1019A000000CFF08002E000C110BE01AF10A072EA4
:1019B000000C880B990B982F872F762F662750E005
:1019C00040E00E946E22D7010E94A522672F782F47
:1019D000892F992787FD9A95600F711F8C2F0E9480
:1019E000FA0B2196F4E0CF0ED11CC830D10509F0D6
:1019F000BECFDF91CF911F910F91FF90EF90DF90BD
:101A0000CF90BF90AF907F906F905F904F90089570
:101A1000853009F459C208F446C2863009F095CFE2
:101A2000E60100910A0110910B010E5C1F4F000F9F
:101A3000111F000F111F80913805882309F410C170
:101A400081E0C035D10528F083E0C83CD10508F419
:101A500082E0909137059817C1F080933705823066
:101A600009F487C0833009F4ADC0813071F440E5DA
:101A700050E067EE7FEF84E00E941A0B40E550E0F3
:101A800067EE7FEF82E00E941A0BC831D14008F464
:101A90005CCF109238050E943405609371057093F5
:101AA0007205809373059093740510923405D0E00D
:101AB000C0E081E0909134059817C1F0809334051F
:101AC000823009F4D8C0833009F4ECC0813071F45D
:101AD00040E550E067EE7FEF80E00E941A0B40E5A2
:101AE00050E067EE7FEF86E00E941A0B9801369572
:101AF00027952C0F3D1FC901B0E0A0E0201731074A
:101B000020F0801B910BA109B1098035910508F4E3
:101B100015C1883C910508F413C183E09091370505
:101B20009817C1F080933705823009F40BC18330D8
:101B300009F41FC1813071F440E550E067EE7FEF9A
:101B400084E00E941A0B40E550E067EE7FEF82E0F0
:101B50000E941A0BC017D10708F4F7CE0E94340573
:101B6000609371057093720580937305909374056B
:101B7000ECCEE0903505F0903605F701858187FDC4
:101B80008F5F8595F7016181062E000C770B680F3A
:101B9000711D87FD7A9548E750E085E00E941A0B99
:101BA000F701868187FD8F5F8595F7016281062E9B
:101BB000000C770B680F711D87FD7A9548E750E0A0
:101BC00083E061CF40E550E06BEF7FEF84E00E945F
:101BD0001A0B40E550E06BEF7FEF82E00E941A0B9A
:101BE0007801F694E794F0E5EF0EF11CC09035050E
:101BF000D0903605F60145812091F6053091F70524
:101C00004203B001439F700D112477FF02C0615061
:101C10007F4F672F770F770BF6018181680F711D5A
:101C200087FD7A95A70185E00E941A0BF60146818F
:101C30002091F8053091F9054203B001439F700DE2
:101C4000112477FF02C061507F4F672F770F770B0A
:101C5000F6018281680F711D87FD7A95A701B0CFCB
:101C6000C035D10508F425CF83E0C83CD10508F084
:101C700021CF82E01FCFE0903505F0903605F701C7
:101C80006081062E000C770B48E750E081E00E944F
:101C90001A0BF7016381062E000C770B48E750E022
:101CA00087E022CF40E550E06BEF7FEF80E00E94BD
:101CB0001A0B40E550E06BEF7FEF86E00E941A0BB5
:101CC0007801F8ECEF1AF108C0903505D090360590
:101CD000F60144812091F4053091F5054203B001ED
:101CE000439F700D112477FF02C061507F4F672F13
:101CF000770F770BF6018081680F711D87FD7A954C
:101D0000A70181E00E941A0BF60147812091FA0594
:101D10003091FB054203B001439F700D112477FF02
:101D200002C061507F4F672F770F770BF6018381D9
:101D3000680F711D87FD7A95A701B2CF81E0EECEC5
:101D400082E0ECCEE0903505F0903605F701618138
:101D5000062E000C770B48E750E085E00E941A0B36
:101D6000F7016281062E000C770B48E750E083E014
:101D7000EFCE40E550E06BEF7FEF84E00E941A0B5E
:101D800040E550E06BEF7FEF82E00E941A0B780194
:101D9000F8ECEF1AF108C0903505D0903605F60141
:101DA00045812091F6053091F7054203B001439F2C
:101DB000700D112477FF02C061507F4F672F770F9E
:101DC000770BF6018181680F711D87FD7A95A70158
:101DD00085E00E941A0BF60146812091F8053091AA
:101DE000F9054203B001439F700D112477FF02C033
:101DF00061507F4F672F770F770BF6018281680F55
:101E0000711D87FD7A95A701B2CF50FF21C061E017
:101E10008DE00E942103F0E2CF16FFEBDF06F2E037
:101E2000EF06F1040CF491CD0E94080B60E08DE008
:101E3000DF91CF911F910F91FF90EF90DF90CF90A6
:101E4000BF90AF907F906F905F904F900C94210364
:101E500060E0DECF60910A0170910B01CB01B0E030
:101E6000A0E0C816D906EA06FB060CF46ECD8091F8
:101E700075059091760543E008960E94480B65CD64
:101E800060910A0170910B01CB01B0E0A0E0C8168F
:101E9000D906EA06FB060CF458CD42E080917505A0
:101EA00090917605EACF60910A0170910B01CB0108
:101EB000B0E0A0E0C816D906EA06FB060CF445CD52
:101EC00045E086E491E0D9CF80910A0190910B0121
:101ED000B0E0A0E0C816D906EA06FB060CF435CD42
:101EE000DF91CF911F910F91FF90EF90DF90CF90F6
:101EF000BF90AF907F906F905F904F900C94080BC5
:101F0000CF93DF93C82FD62F0E94FA0BEC2FF0E06F
:101F1000EF5FFE4FD08381E08093F2050E9434058D
:101F200060937105709372058093730590937405A7
:101F3000DF91CF910895CF93DF93C42FD82FDD0F7A
:101F4000062E000C770B8D2F0E94800F6C2FCC0F6C
:101F5000770B81E08D0F0E94800F81E18093F30564
:101F6000DF91CF910895E9E0F6E02FEF208325E59A
:101F7000218323E0228322E023838483958346E028
:101F800050E0BF0183E897E00C94C201E9E0F6E07D
:101F90009FEF908395E5918392E0928391E0938304
:101FA000848345E050E0BF0183E897E00C94C201D0
:101FB000E9E0F6E08FEF808385E58183128243E0DC
:101FC00050E0BF0183E897E00C94C201E82FF0E0F5
:101FD000EE51FA4FE081EC5FF0E0E75FF94F91815D
:101FE0008081089586E00E94F802382F80910001D8
:101FF000831739F081E090E0311180E030930001E7
:10200000089580E090E0FACF8F929F92AF92BF92B6
:10201000CF92DF92EF92FF92CF936B017C0120E091
:1020200030E040E85FE30E94672087FDA8C020E021
:1020300030EC4AE555E4C701B6010E94C6211816E6
:102040003CF4C12C30ECD32E3AE5E32E35E4F32EEC
:102050006091450870914608809147089091480822
:102060000E9414214B015C0120E030E040E855E47F
:10207000C701B6010E94CB219B01AC01C501B4018F
:102080000E946C2020E030E040E05FE30E94FB1FF4
:1020900020E030E040E85FE30E94FA1F6B017C0122
:1020A00020E030E040E450E40E94672087FD6EC0ED
:1020B00020E030E04FE753E4C701B6010E94C6219B
:1020C000181634F4C12CD12C9FE7E92E93E4F92E95
:1020D00080914308909144082091420831E0309368
:1020E0005F07209381071092600710928207DC013E
:1020F000ED91FC910190F081E02D60E009958091D7
:102100004308909144080E94450961E0809142088B
:102110000E947E0110921707809316078091430852
:1021200090914408DC01ED91FC910284F385E02D4F
:102130000995C82F682F6F76606180E00E94900932
:10214000C701B6010E94E5208EEF0E9490096C2F16
:1021500080E00E94900965E070E080E090E00E94DD
:1021600001056C2F606A80E0CF91FF90EF90DF90C7
:10217000CF90BF90AF909F908F900C949009C12CFE
:10218000D12C20E8E22E2FE3F22E62CFC12CD12CED
:1021900080E4E82EFE2C9CCFCF93DF93FC010190CE
:1021A0000020E9F73197AF01481B590BBC0183E8C8
:1021B00097E00E94C201EC0142E050E068E275E065
:1021C00083E897E00E94C2018C0F9D1FDF91CF91A1
:1021D00008951F93CF93DF93182FC82FD0E0AE013F
:1021E00069E076E08EE096E00E94F523E9E0F6E013
:1021F0008FEF808385E5818382E0810F828387E092
:1022000083831483AE014B5F5F4FBF0183E897E088
:10221000DF91CF911F910C94C201EF92FF920F9327
:102220001F93CF93DF93EB01613208F060E20E94CD
:102230007E0110921707809316078C171D068CF0ED
:1022400009E016E0CE01875F994F7C010E151F054E
:1022500081F080E298E00E94CF08F80181938F011D
:10226000F5CFDF91CF911F910F91FF90EF900C94DC
:10227000D80F8C2FDF91CF911F910F91FF90EF908E
:102280000C94E910EF92FF920F931F93CF93DF937B
:10229000893048F090E080E0DF91CF911F910F915D
:1022A000FF90EF900895623009F445C0C82F633065
:1022B00018F5E82FF0E0662309F446C0613009F410
:1022C0004CC00C2F10E0C80187539A4F7C01DC01F1
:1022D000DC91C8010E94E41FD81721F06D2FC801BE
:1022E0000E94EC1F70E060E08C2F0E94800F81E163
:1022F0008093F305F70123C06330B9F1643009F727
:10230000E9ECF5E088E0DF011D928A95E9F78F019D
:10231000D0E0C0E0F801F1908F01CE010E94E41FEF
:10232000F81621F06F2DCE010E94EC1F2196C830C7
:10233000D10581F7AFCFE82FF0E0E753FA4F808166
:10234000082E000C990BA8CFE753FA4F80818F37E6
:1023500009F4B7CF8F5F8083B4CFE753FA4F808102
:10236000803809F4AECF8150F6CFE82FF0E0E75384
:10237000FA4F1082A6CFCF92DF92EF92FF920F9387
:102380001F938EE00E94F802019709F44CC060E0B0
:102390008FE00E94210383E090E00197F1F761E074
:1023A0008FE00E94210383E290E00197F1F760E063
:1023B0008FE00E942103EFE9F0E06491EDEBF0E0A3
:1023C000E491F0E0EE0FFF1FEE58FF4F85919491DE
:1023D00000E412E42FE030E0462F0E94AD146115B6
:1023E00071058105910529F06F5F7F4F8F4F9F4FDA
:1023F0009F700E9414216B017C0120E030E0A90154
:102400000E94C6211816A4F426E933E44BE85CE3E5
:10241000C701B6010E94CB211F910F91FF90EF9051
:10242000DF90CF90089560E070E088EC92E4F4CF04
:1024300060E070E0CB01F0CF1F920F920FB60F92C9
:1024400011242F933F934F935F936F937F938F93B9
:102450009F93AF93BF93EF93FF938091D605909195
:10246000D705A091D805B091D905892B8A2B8B2B44
:10247000D1F19091D105E091D205F091D305808101
:10248000892780838091D6059091D705A091D805A2
:10249000B091D905181619061A061B069CF48091EE
:1024A000D6059091D705A091D805B091D90501978F
:1024B000A109B1098093D6059093D705A093D805BB
:1024C000B093D905FF91EF91BF91AF919F918F91FB
:1024D0007F916F915F914F913F912F910F900FBE20
:1024E0000F901F90189580910901E0E9F0E0E491C8
:1024F0009FEF90930901E13051F030F0E23069F044
:1025000060E00E942103DECF10926E00F9CF90911F
:102510006F009D7F90936F00F3CF909170009D7F2F
:102520009093700091E09093B0009091B100987FEB
:1025300094609093B1001092B300E2CF1F920F927B
:102540000FB60F9211242F933F934F935F936F9386
:102550007F938F939F93AF93BF93EF93FF9383E802
:1025600097E00E944002FF91EF91BF91AF919F9140
:102570008F917F916F915F914F913F912F910F902C
:102580000FBE0F901F9018951F920F920FB60F92CB
:1025900011242F938F939F93EF93FF93E0919307D1
:1025A000F09194078081E0919907F0919A0782FD5C
:1025B0001BC0908180919C078F5F8F7320919D0736
:1025C000821741F0E0919C07F0E0ED57F84F958FAE
:1025D00080939C07FF91EF919F918F912F910F9086
:1025E0000FBE0F901F9018958081F4CF1F920F920D
:1025F0000FB60F9211242F933F938F939F93AF9316
:10260000BF938091000690910106A0910206B091BF
:1026100003063091C40523E0230F2D3758F50196AA
:10262000A11DB11D2093C40580930006909301065F
:10263000A0930206B09303068091C5059091C6054C
:10264000A091C705B091C8050196A11DB11D809349
:10265000C5059093C605A093C705B093C805BF9163
:10266000AF919F918F913F912F910F900FBE0F903F
:102670001F90189526E8230F0296A11DB11DD2CFF9
:102680001F920F920FB60F9211242F933F934F93E7
:102690005F936F937F938F939F93AF93BF93EF93CA
:1026A000FF93E0911001F09111010995FF91EF91D5
:1026B000BF91AF919F918F917F916F915F914F915A
:1026C0003F912F910F900FBE0F901F9018951F9262
:1026D0000F920FB60F9211242F933F934F935F9356
:1026E0006F937F938F939F93AF93BF93EF93FF93DA
:1026F000E0910E01F0910F010995FF91EF91BF91CB
:10270000AF919F918F917F916F915F914F913F9189
:102710002F910F900FBE0F901F9018951F920F9240
:102720000FB60F9211242F933F934F935F936F93A4
:102730007F938F939F93AF93BF93EF93FF9380917A
:10274000B900887F803609F44AC0F0F5883209F470
:10275000A7C018F5803109F49BC0B8F4882309F4A8
:10276000F9C0883009F494C0FF91EF91BF91AF9107
:102770009F918F917F916F915F914F913F912F9199
:102780000F900FBE0F901F901895883109F488C0E4
:10279000803251F780935C0714C0803409F49DC0E7
:1027A00040F48033B9F38833F9F680935C0785EC05
:1027B000B0C0803509F485C0883509F496C08834E6
:1027C00099F60E948E08D0CF883909F48CC038F56C
:1027D000883729F050F4883611F0803729F683E0E5
:1027E00080935E071092C30557C0883809F47BC0F8
:1027F000803919F0803809F0B7CF8091C305803255
:1028000008F071C0E091C30581E08E0F8093C3058D
:102810008091BB00F0E0ED55FA4F80833DC0803BD6
:1028200039F0E0F4803A09F479C0883A09F09CCF95
:1028300084E080935E071092A2051092A105E091BA
:102840001407F091150709958091A10581110FC01A
:1028500081E08093A1051092810509C0803C09F4B4
:10286000A6CF883C09F4A3CF883B09F07DCFE09147
:10287000A20581E08E0F8093A205F0E0EF57FA4F9A
:1028800080818093BB009091A2058091A10529C011
:10289000809139078093BB0085EC8093BC0064CFA6
:1028A00090915B0780915A07981758F5E0915B0764
:1028B00081E08E0F80935B07F0E0E65CF84F80814B
:1028C000E9CFE0915B0781E08E0F80935B078091F9
:1028D000BB00F0E0E65CF84F808390915B0780914D
:1028E0005A079817C8F285E8D8CFE0915B0781E0D6
:1028F0008E0F80935B078091BB00F0E0E65CF84FA1
:10290000808380915D0781115CCF81E080933807DF
:1029100084EA8093BC0010925E0726CF85EC8093FA
:10292000BC0010925E078091C305803230F4E091C4
:10293000C305F0E0ED55FA4F10826091C30570E0D9
:10294000E0911207F091130783EA95E00995109240
:10295000C3050ACF10925C0734CFCF92DF92EF927B
:10296000FF920F931F93E82FF92F05C00150110913
:102970002109310961F1908196239417B9F305C0BB
:10298000015011092109310911F190819623941305
:10299000F7CFC12CD12CE12CF12C0AC08FEFC81A33
:1029A000D80AE80AF80A0C151D052E053F0579F02E
:1029B00080818623841791F36C2D7D2D8E2D9F2D84
:1029C0001F910F91FF90EF90DF90CF90089560E0FE
:1029D00070E080E090E01F910F91FF90EF90DF900A
:1029E000CF900895109286071092850788EE93E0A5
:1029F000A0E0B0E08093870790938807A0938907B1
:102A0000B0938A072EEC34E0309384072093830739
:102A100025EC30E03093900720938F0724EC30E0D2
:102A2000309392072093910720EC30E03093940785
:102A30002093930721EC30E030939607209395077D
:102A400022EC30E0309398072093970726EC30E093
:102A500030939A072093990710929C0710929D0734
:102A600010929E0710929F0710922308109222083E
:102A70008093240890932508A0932608B0932708F4
:102A800080EE94E0909321088093200880E4809366
:102A9000420880E298E090934408809343081092A3
:102AA0002D081092340810923B0810923C081092A6
:102AB0003D0810923E0881E080933A0880933708E1
:102AC0001092380892E09093390880932C0888E19E
:102AD00090E090933108809330080E94D022909328
:102AE000360880933508009709F455C028E1FC01A9
:102AF00011922A95E9F788E090E090932F0880934F
:102B00002E0880E190E09093330880933208809102
:102B10002D08882341F061E080E10E94850360E098
:102B200080E10E942103EFEBF0E0E491F0E0EE0F92
:102B3000FF1FEB55FF4F8591949190934008809330
:102B40003F08E1EAF0E0E491E093410882E08093FD
:102B5000560880934E088FE493E090934D0880933D
:102B60004C0860E082E00E94850362E070E080E053
:102B70000E948E0010924B0810924A081092490849
:102B800080915608811110C08EE690E09093130159
:102B9000809312010895109231081092300810921B
:102BA0002F0810922E08ADCF8CE291E0EFCFCF939B
:102BB000DF9300D000D01F92CDB7DEB7789484B5F4
:102BC000826084BD84B5816084BD85B5826085BD29
:102BD00085B5816085BD80916E00816080936E00B7
:102BE00010928100809181008260809381008091A9
:102BF000810081608093810080918000816080935A
:102C000080008091B10084608093B1008091B00019
:102C100081608093B00080917A00846080937A0014
:102C200080917A00826080937A0080917A0081603E
:102C300080937A0080917A00806880937A00109265
:102C4000C10014BE0FB6F894A89580916000886109
:102C500080936000109260000FBEE0919307F091A6
:102C6000940782E08083E0918F07F09190071082B3
:102C7000E0919107F091920780E1808310929B0789
:102C8000E0919707F091980786E08083E09195079F
:102C9000F0919607808180618083E0919507F091A3
:102CA0009607808188608083E0919507F091960770
:102CB000808180688083E0919507F09196078081FC
:102CC0008F7D808361E08DE00E94850360E08DE070
:102CD0000E94210364E670E080E090E00E9401051C
:102CE00061E081E10E94850361E081E10E942103AE
:102CF00062E08EE00E94850361E08FE00E94850320
:102D000061E088E00E94850362E083E00E94850321
:102D100062E084E00E94850362E085E00E94850312
:102D200062E086E00E94850380913208909133082A
:102D300097FD08C061E00E94850360E08091320841
:102D40000E94210381E080932D080E94430409EC36
:102D500015E068011A821982FF24F39489819A810F
:102D60000E94E41FD6018D936D018F3F09F0F12C75
:102D7000E981FA813196FA83E983389779F7F1107E
:102D8000B9C00E94530360E880E00E9490096AE0A5
:102D900070E080E090E00E94010560E070E08AE76A
:102DA00094E40E94041080E498E7ADE7B1E08093DA
:102DB000450890934608A0934708B093480860E000
:102DC00070E088E492E40E94041060E081E10E94D7
:102DD0002103198270E060E089810E94FA0B68E2A9
:102DE00070E080E090E00E94010539813F5F398307
:102DF000383081F764E670E080E090E00E940105E1
:102E00000E94080B85E00E94C10A84E690E00E94BF
:102E1000BF0989EF94E00E94CC1083E897E00E94FC
:102E20002002181619060CF000C641E04093070670
:102E300083E897E00E94FE0197FDF7C5E091080640
:102E400021E02E0F20930806F0E0E75FF94F808322
:102E5000223009F474C0233009F476C0213059F4CB
:102E6000A4E0B0E0B0930D01A0930C018F3F910559
:102E7000A1F21092080620910C0130910D01809171
:102E800008068217130648F2E0900C06B9E1BE1559
:102E900008F460C040E1E49EF0011124EE5EFC4FB6
:102EA00042EE55E080E1DA011D928A95E9F730970C
:102EB00009F061C1B5E1EB1609F431C2BE1508F4A1
:102EC000AFC0E7E0EE1609F4DCC1EE1508F46FC000
:102ED000F3E0EF1609F4B4C1FE1508F45DC021E07B
:102EE000E21609F494C132E0E31609F49CC10E9491
:102EF000D80F75C28EEE94E00E94CC10E9ECF5E09C
:102F000088E0DF011D928A95E9F71A821982F8019B
:102F1000F1908F0189819A810E94E41FF81629F0AF
:102F20006F2D89819A810E94EC1F29813A812F5F40
:102F30003F4F3A8329832830310549F722CF853521
:102F4000910509F096CF97CF039690930D0180934A
:102F50000C0191CF8FE78E0D8D3060F48E2D81584E
:102F6000990BFC01B4E0EE0FFF1FBA95E1F7EE5BA1
:102F7000FD4F96CF9AEFF0E0E0E09E1508F090CF7D
:102F8000AE2DAB5FBB0BFD01A4E0EE0FFF1FAA95BA
:102F9000E1F7EE50FE4F84CF45E0E41609F466C138
:102FA0004E1508F058C160E088EC90E039C15AE055
:102FB000E51609F48AC15E1580F088E0E81609F488
:102FC00074C199E0E91293CFE091E205F0E0E75F88
:102FD000F94F84810E94C10A8ACFACE0EA1609F455
:102FE00083C1EA1608F47AC1BDE0EB1280CFE0910C
:102FF000E205F0E0E75FF94FE4818FEF8E0F21E00B
:10300000843050F4F0E0E351FE4F80810E94F802DA
:1030100021E0892B09F020E0822F0E94C60FDFC13A
:10302000E6E8EE1609F4E1C1EE15D0F1F2E8EF168C
:1030300009F483C1FE1550F020E8E21609F4D1C46A
:1030400031E8E31254CF0E94530351CF44E8E41611
:1030500009F4C8C14E1508F092C1198210E000E0D1
:10306000F1E0F0935F0729812093810710926007B8
:103070001092820780E298E00E944509811107C002
:10308000F801E75FF94F398130830F5F1F4F4981A6
:103090004F5F49834F3721F7802F0E94E9109FC16E
:1030A0005AE8E51609F43FC45E1550F1F090E205C8
:1030B00088E8E81609F4CEC18E1508F0BAC182E09E
:1030C0000E94E60F1C0181E00E94E60F8C01EF2DAB
:1030D000F0E0E75FF94F84812101032C000C6608C2
:1030E000770890910901981307C2E0E9F0E0249174
:1030F0002D8327FF37C2C301B2010E940105F7CE1D
:103100009EEFE91609F459C49E1508F45FC4ADE8B2
:10311000EA12EDCE0091E40510E0F801E35FF94F0B
:10312000A080B12CE091E305F0E0E75FF94F248146
:10313000298380E00E94E60F6C01025F194F78013D
:10314000C701801B910B8A159B050CF00EC4D7019B
:1031500012968C91129711966C911197782FE4E04A
:1031600075956795EA95E1F78C910E94C103B3E0EC
:10317000EB0EF11CE5CF72EEC72E75E0D72EBF0126
:10318000605F7F4F90E080E04191442309F492CE4C
:10319000D6018D936D01AF0141505109DA014C9177
:1031A0004C34D9F094F44434D1F04634B1F0423484
:1031B00009F40196AC014C5F5F4F2417350708F402
:1031C0000EC16E177F0701F775CE4236B1F0433757
:1031D00041F0433579F70296EDCF0496EBCF089690
:1031E000E9CFAC01435F594FDA010D900020E9F7B8
:1031F000841B950B8A0F9B1FDDCFAC01475F594F96
:10320000DA0114964C910196840F911DD3CF81E081
:103210000E94E60FE091E205F0E0E75FF94F64817C
:103220000E94740B64CE81E00E94E60F898380E0E7
:103230000E94E60F4981682F80E00E949B0F57CEC5
:1032400081E00E94E60F898380E00E94E60F4981B9
:10325000682F82E0F2CF81E00E94E60F898380E050
:103260000E94E60F4981682F81E0E7CF81E00E944C
:10327000E60F898380E00E94E60F4981682F83E092
:10328000DCCF8091E305A82FB0E0A75FB94FE091B4
:10329000E205F0E0E75FF94F848114966C91880FA6
:1032A0000E9442110E94B30F9AC0E091E305F0E042
:1032B000E75FF94FA091E205B0E0A75FB94F149620
:1032C0008C91880F64818F5FEBCFE091E205F0E095
:1032D000E75FF94F84810E94E40909CE80E00E94F3
:1032E000E60F0E94BF0903CE0E94BB112FEF20936F
:1032F000090625E520930A0625E020930B0624E025
:1033000020930C0660930D0670930E0680930F06B3
:103310009093100648E050E069E076E052C361E027
:103320008DE00E948503E091E205F0E0E75FF94F50
:1033300064818DE00E942103DACDE091E205F0E0A6
:10334000E75FF94F8481B1E0B0935F078093810715
:1033500010926007109282076091E30570E0FB0114
:10336000E35FF94F408150E0625F794F80E298E07F
:103370000E94E90880E298E00E9445094ECEE09163
:10338000E205F0E0E75FF94F8481E1E0E0935F0759
:103390008093810710926007109282076091E30585
:1033A00070E0FB01E35FF94F408150E0625F794FCD
:1033B00080E298E00E94E90880E00E942101E0910B
:1033C000E405F0E0E75FF94F648170E0E091E20529
:1033D000F0E0E75FF94F848190E00E940D111092B8
:1033E00008061BCDE091E305ECCFC090E2058C2DE3
:1033F00090E0FC01E35FF94FE080F12CDC01A25F7B
:10340000B94F6D018D01C8018C199D098E159F055D
:103410000CF06DCD61E0F80180810E948503D80138
:1034200011966C9111978C910E9421030E5F1F4F92
:10343000EACFEF2DF0E0E75FF94F60E084810E9472
:103440008503E091E205F0E0E75FF94F84810E9497
:10345000F802E3CD81E00E94E60F8C01EF2DF0E051
:10346000E75FF94FB481B98360E08B2F0E94850339
:103470000115110511F401E010E089818E50E981F8
:10348000EE3008F08983F981F770EF2FE06460E097
:1034900070E0CB0130E020E0E0937C0040917A00C6
:1034A000406440937A0040917A0046FDFCCF5091F1
:1034B000780040917900D42EC52E0D2C000CEE081A
:1034C000FF086C0D7D1D8E1D9F1D2F5F3F4F201728
:1034D000310711F750E040E00E944C22A1E7B2E032
:1034E0000E949A22DC01CB0167E0B695A7959795DB
:1034F00087956A95D1F7D6CE9F3F09F0FCCD809392
:103500000901E0E9F0E034913D833F3F09F4F3CD58
:10351000313009F4F2C050F0323009F410C1FD81AD
:10352000F7FDE9CD61E00E94850322C014BC15BC03
:1035300094B5926094BD95B5916095BD282F30E00B
:10354000F901E155FF4FE491F0E0EE0FFF1FEB555D
:10355000FF4F45915491F901EF56FF4FE491E093ED
:10356000D5051D8261E00E9485034D814423A9F0A9
:10357000B12CA12C60E072E18AE790E0A5019801EE
:103580000E946E2269017A0181E0C81AD108E1081F
:10359000F1089D81923009F06FC14801B12CA12C36
:1035A00060E072E18AE790E0A50198010E946E2236
:1035B00029833A834B835C8369017A01A1E0CA1AAB
:1035C000D108E108F108BFEFCB16D104E104F10402
:1035D00009F00CF426C160E472E48FE090E0A501EC
:1035E00098010E946E2269017A01E1E0CE1AD108A9
:1035F000E108F108FD81F23009F0C7C082E02FEF49
:10360000C216D104E104F10409F00CF46FC060E9C2
:1036100070ED83E090E0A50198010E946E2269019F
:103620007A0181E0C81AD108E108F10883E09FEF30
:10363000C916D104E104F10409F00CF457C068E4A0
:1036400078EE81E090E0A50198010E946E22690168
:103650007A0181E0C81AD108E108F10884E09FEFFF
:10366000C916D104E104F10409F00CF43FC064E28E
:1036700074EF80E090E0A50194010E946E22690140
:103680007A01F1E0CF1AD108E108F10885E03FEFB7
:10369000C316D104E104F10449F140F162E17AE793
:1036A00080E090E0A50194010E946E2269017A01F8
:1036B000A1E0CA1AD108E108F10886E0BFEFCB16F5
:1036C000D104E104F10491F088F0C980DA80EB8044
:1036D000FC809AE0F594E794D794C7949A95D1F733
:1036E00021E0C21AD108E108F10887E09091B10009
:1036F000987F892B8093B1009CC01092800010921B
:103700008100909181009860909381009091810058
:10371000916090938100282F30E0F901E155FF4F2F
:10372000E491F0E0EE0FFF1FEB55FF4F45915491F0
:10373000F901EF56FF4FE491E093D40513CF1092B7
:10374000B0001092B1009091B00092609093B000E0
:103750009091B10091609093B100282F30E0F90171
:10376000E155FF4FE491F0E0EE0FFF1FEB55FF4FE7
:10377000459154915093D3054093D205F901EF56EA
:10378000FF4FE491E093D105EDCEAFEFCA16D1041F
:10379000E104F10409F00CF46DC068E478EE81E016
:1037A00090E0A50198010E946E2269017A01B1E0C2
:1037B000CB1AD108E108F108ED8184E0E11167CF6F
:1037C00083E02FEFC216D104E104F10471F16CF132
:1037D00062E17AE780E090E0A50194010E946E2208
:1037E00069017A01E1E0CE1AD108E108F10884E02C
:1037F000FFEFCF16D104E104F104B9F0B0F0C980B5
:10380000DA80EB80FC808AE0F594E794D794C79443
:103810008A95D1F731E0C31AD108E108F10885E0B3
:1038200004C081E02D81211161CF95B5987F892B4E
:1038300085BD2FEF3FEFA9014114510461047104CC
:1038400009F042C0BD81B13009F44BC0B23009F477
:103850005AC0B11150CCC7BC2093DE053093DF05B0
:103860004093E0055093E10580916E008260809363
:103870006E0041CC82E0D6CF91E0C114D10431E09A
:10388000E306F10484F068E478EE81E090E0A501BD
:1038900098010E946E2269017A0181E0C81AD1085C
:1038A000E108F10893E0AD81A13019F68091810023
:1038B000887F892B809381002FEF3FEFA90141146E
:1038C00051046104710469F09801220F331FD10182
:1038D0000E94932228EE33E040E050E00E944C2208
:1038E000B1CFD0928900C09288002093DA0530933E
:1038F000DB054093DC055093DD0580916F0082600D
:1039000080936F00F8CBC092B3002093D60530931C
:10391000D7054093D8055093D905809170008260F7
:1039200080937000E8CB0091E20510E0F801E35FBE
:10393000F94FE080F12C025F194F6801C601801B2E
:10394000910B8E159F050CF0D2CAF6018281618120
:10395000782FA4E075956795AA95E1F780810E947C
:10396000C103F3E0CF0ED11CE9CFC114D10409F497
:10397000BECAB601DD0C880B990B0E940105E981D6
:1039800090E080E0E13011F483E391E06C0154E0D9
:10399000D694C7945A95E1F77801C701801B910B23
:1039A0008A159B050CF0A3CAB601D7018C910E9421
:1039B000C103B3E0EB0EF11CF0CF49E150E061E14F
:1039C00075E083E897E00E94C20109CD88E198E0A4
:1039D0000FB6F894A895809360000FBE9093600096
:1039E000FFCF8FEF8093090685E580930A0686E076
:1039F00080930B06E0920C060E94F006809153081B
:103A000080930D0690914F088091500890930E0678
:103A100080930F0690915108809152089093100660
:103A20008093110649E050E077CC80910706811120
:103A30000BC280910606882309F496C00E94F20FFB
:103A4000892BB9F085E00E94C10A60E088EC90E023
:103A50000E94740B1092060680E090E0892B09F416
:103A6000DCC90E942C02882309F4D7C90E940000F7
:103A7000D4C98091F205811108C085E00E94C10A75
:103A800084EF91E00E94BF09E5CF0E94F006E0912B
:103A90005308E98380910506E817F1F2E0930506E3
:103AA000EC3011F1B8F4E83059F180910406882324
:103AB00099F22981253109F44AC038F52730D1F12E
:103AC000880F60E08150293039F60E9442114E97EC
:103AD000CCF129C0F981F83171F0FE3531F781E080
:103AE0000E94950A82E004C080E00E94950A81E06D
:103AF00080930406DACF83E00E94950A83E0F8CF32
:103B000082E00E94950A84E0F3CF3981393171F067
:103B1000303409F0A1CF815861E0880F0E94421132
:103B2000833E9F4F7CF488EE93E00EC0815860E0A6
:103B3000880FCBCF880F61E081500E944211833EF5
:103B40009F4F8CF382E390E00E94BF0985CF81589C
:103B500063E0880F0E94421180910406880F63E0A1
:103B600081500E944211DFCF0E94F20F892BA1F0F9
:103B700081E00E94C10A198240E060E089810E94D0
:103B80009B0F89818F5F89838430B1F781E08093B7
:103B900006061092040660CF0E94F006909153082A
:103BA0009983903621F1953631F180910506E981AE
:103BB0008E1709F4CEC0E0930506E23509F48CC0F7
:103BC00008F063C0E93109F464C1C0F5EC3009F4D0
:103BD00065C1E0F4E83009F4A7C0E93009F454C144
:103BE000E730E1F486E00E94C10A66E048C1A09196
:103BF0005408A983DACFB0915408B05FB98364E167
:103C000070E080E090E00E940105CFCFF981F531AE
:103C100009F49FC040F4FD3009F49BC085E00E9488
:103C2000C10A60E02CC12981263109F410C1283174
:103C3000A9F786E00E94C10A68E021C139813434C5
:103C400009F456C0A8F4303409F415C138F43C31F5
:103C500029F786E00E94C10A6BE011C14981423414
:103C600079F14334D9F682E00E94C10A62E007C1CB
:103C70005981573409F469C008F46BC05A3471F69D
:103C800086E00E94C10A6FE0FAC08981833709F497
:103C9000FBC098F58336A1F3C0F48E3509F450C00B
:103CA00040F48A3509F0BACF86E00E94C10A6CE080
:103CB000E6C09981913609F4BCCF923609F0AECFB7
:103CC00086E00E94C10A6DE0DAC0A981A03759F2EE
:103CD00040F4A43609F0A2CF86E00E94C10A6EE04B
:103CE000CEC0B981B13709F4C6C0B23709F096CF5A
:103CF00082E00E94C10A63E0C2C0E981E03809F4B1
:103D0000CDC058F4E537A1F308F46CCFE63709F4D9
:103D1000C0C0E73709F4A7CF81CFF981F33821F28A
:103D200040F4F13809F07ACF86E00E94C10A6AE0D7
:103D3000A6C02981243809F48CCF263809F06ECF2B
:103D400086E00E94C10A69E09AC088EB9BE00E946D
:103D5000BF09609155086A3068F12091510830918F
:103D6000520840914F08509150085A83498370E09F
:103D700088EA91E60E94382270930B0160930A0151
:103D800088E0E2EBF4E0A4EFB5E001900D928A95B3
:103D9000E1F749815A81452B69F02115310551F030
:103DA0008091F305843009F4A9C008F07CC081300B
:103DB00009F4ABC00E946F0C80910006909101063F
:103DC000A0910206B09103062091FC053091FD05FB
:103DD000821B930B84369105B8F180910006909177
:103DE0000106A0910206B09103068093FC05909312
:103DF000FD05A093FE05B093FF050E94BB116B016A
:103E00007C0120E030E040E051E40E94672087FF21
:103E10001BC020E030E040E251E4C701B6010E943F
:103E2000CB210E94DE20CB010E94BF0980910506B4
:103E3000813711F0803441F485E00E94C10A60E0CE
:103E400088EC90E00E94740B0E946F0C05CE82E318
:103E500090E00E94BF0985E00E94E40985E00E948D
:103E6000E40985E00E94E40985E00E94E40985E018
:103E70000E94E4096ECF83E00E94C10A61E088ECF1
:103E800090E00E94740B65CF86E00E94C10A65E055
:103E9000F6CF81E00E94C10A64E0F1CF86E00E9483
:103EA000C10A67E0ECCF853009F468C0863009F0BC
:103EB00081CFB901330F880B990B29E0660F771F6B
:103EC000881F991F2A95D1F7A981BA819D01BB0F3F
:103ED000440B550B0E946E222130B1E03B070CF0E1
:103EE00051C02115EFEF3E070CF45BC037FF4CC00B
:103EF00033953093F5052093F40529C049815A8103
:103F00005195419551095A83498349815A81BA0192
:103F1000550F880B990B49E0660F771F881F991F73
:103F20004A95D1F7032E000C440B550B0E946E22CC
:103F3000213051E0350784F421158FEF3807DCF08C
:103F400037FF0CC033953093FB052093FA0530936F
:103F5000F7052093F6052ECF20E031E080E091E0D8
:103F6000821B930B9093F9058093F8059093F505C8
:103F70008093F4051FCF20E03FEFE4CF31952195EA
:103F8000310997CF20E031E080E091E0821B930B74
:103F90009093F9058093F8059093FB058093FA05BB
:103FA00009CF20E03FEFA4CF8091350890913608EB
:103FB0000E946C23809132089091330897FD03C0D2
:103FC00060E00C9485030895F999FECF92BD81BD00
:103FD000F89A992780B50895262FF999FECF1FBA30
:103FE00092BD81BD20BD0FB6F894FA9AF99A0FBE22
:103FF000019608955058BB27AA270E9412200C94BE
:104000008C210E947E2138F00E94852120F039F415
:104010009F3F19F426F40C947B210EF4E095E7FB06
:104020000C947521E92F0E949D2158F3BA1762075D
:1040300073078407950720F079F4A6F50C94BF2147
:104040000EF4E0950B2EBA2FA02D0B01B9019001B3
:104050000C01CA01A0011124FF27591B99F0593FF7
:1040600050F4503E68F11A16F040A22F232F342F3F
:104070004427585FF3CF469537952795A795F0408D
:104080005395C9F77EF41F16BA0B620B730B840BA2
:10409000BAF09150A1F0FF0FBB1F661F771F881F5A
:1040A000C2F70EC0BA0F621F731F841F48F48795B2
:1040B00077956795B795F7959E3F08F0B0CF9395A4
:1040C000880F08F09927EE0F9795879508950E941D
:1040D000512108F481E008950E9480200C948C21E5
:1040E0000E94852158F00E947E2140F029F45F3F14
:1040F00029F00C94752151110C94C0210C947B2152
:104100000E949D2168F39923B1F3552391F3951BE8
:10411000550BBB27AA2762177307840738F09F5FE8
:104120005F4F220F331F441FAA1FA9F335D00E2E55
:104130003AF0E0E832D091505040E695001CCAF7C2
:104140002BD0FE2F29D0660F771F881FBB1F261785
:1041500037074807AB07B0E809F0BB0B802DBF015C
:10416000FF2793585F4F3AF09E3F510578F00C942B
:1041700075210C94C0215F3FE4F3983ED4F38695FB
:1041800077956795B795F7959F5FC9F7880F911D4C
:104190009695879597F90895E1E0660F771F881F38
:1041A000BB1F621773078407BA0720F0621B730BEB
:1041B000840BBA0BEE1F88F7E09508950E94E52066
:1041C0006894B1110C94C02108950E94A52188F033
:1041D0009F5798F0B92F9927B751B0F0E1F0660FCB
:1041E000771F881F991F1AF0BA95C9F714C0B1300C
:1041F00091F00E94BF21B1E008950C94BF21672F78
:10420000782F8827B85F39F0B93FCCF3869577953A
:104210006795B395D9F73EF4909580957095619523
:104220007F4F8F4F9F4F0895E89409C097FB3EF44E
:1042300090958095709561957F4F8F4F9F4F9923F3
:10424000A9F0F92F96E9BB279395F6958795779571
:104250006795B795F111F8CFFAF4BB0F11F460FF31
:104260001BC06F5F7F4F8F4F9F4F16C0882311F089
:1042700096E911C0772321F09EE8872F762F05C09D
:10428000662371F096E8862F70E060E02AF09A9538
:10429000660F771F881FDAF7880F9695879597F92D
:1042A0000895990F0008550FAA0BE0E8FEEF1616C7
:1042B0001706E807F907C0F012161306E407F5071A
:1042C00098F0621B730B840B950B39F40A2661F08E
:1042D000232B242B252B21F408950A2609F4A14031
:1042E000A6958FEF811D811D089597F99F6780E83E
:1042F00070E060E008959FEF80EC089500240A9438
:104300001616170618060906089500240A941216B0
:104310001306140605060895092E0394000C11F4E3
:10432000882352F0BB0F40F4BF2B11F460FF04C090
:104330006F5F7F4F8F4F9F4F089557FD9058440FE9
:10434000551F59F05F3F71F04795880F97FB991FF4
:1043500061F09F3F79F087950895121613061406B1
:10436000551FF2CF4695F1DF08C01616170618063E
:10437000991FF1CF86957105610508940895E89419
:10438000BB2766277727CB0197F908950E94512113
:1043900008F48FEF08950E94DE210C948C210E9476
:1043A0007E2138F00E94852120F0952311F00C9495
:1043B00075210C947B2111240C94C0210E949D2115
:1043C00070F3959FC1F3950F50E0551F629FF00168
:1043D000729FBB27F00DB11D639FAA27F00DB11D81
:1043E000AA1F649F6627B00DA11D661F829F22270A
:1043F000B00DA11D621F739FB00DA11D621F839F91
:10440000A00D611D221F749F3327A00D611D231F66
:10441000849F600D211D822F762F6A2F11249F57B4
:1044200050409AF0F1F088234AF0EE0FFF1FBB1FB7
:10443000661F771F881F91505040A9F79E3F510576
:1044400080F00C9475210C94C0215F3FE4F3983EFA
:10445000D4F3869577956795B795F795E7959F5F20
:10446000C1F7FE2B880F911D9695879597F90895B2
:1044700097FB072E16F4009407D077FD09D00E9411
:10448000AD2207FC05D03EF4909581959F4F08958D
:10449000709561957F4F0895A1E21A2EAA1BBB1B50
:1044A000FD010DC0AA1FBB1FEE1FFF1FA217B30700
:1044B000E407F50720F0A21BB30BE40BF50B661F16
:1044C000771F881F991F1A9469F7609570958095DA
:1044D00090959B01AC01BD01CF010895052E97FB7E
:1044E0001EF400940E94852257FD07D00E944C22A2
:1044F00007FC03D04EF40C948522509540953095DE
:1045000021953F4F4F4F5F4F08959095809570953F
:1045100061957F4F8F4F9F4F0895EE0FFF1F0590BE
:10452000F491E02D09940E94C122B7FF0895821BE7
:10453000930B08950E94C122A59F900DB49F900DEA
:10454000A49F800D911D11240895B7FF0C949A2209
:104550000E949A22821B930B0895AA1BBB1B51E158
:1045600007C0AA1FBB1FA617B70710F0A61BB70BE3
:10457000881F991F5A95A9F780959095BC01CD0188
:104580000895A29FB001B39FC001A39F700D811D2C
:104590001124911DB29F700D811D1124911D08954C
:1045A0000F931F93CF93DF938230910510F482E035
:1045B00090E0E0915908F0915A0830E020E0B0E036
:1045C000A0E0309799F42115310509F44AC0281B61
:1045D000390B24303105D8F58A819B81611571052D
:1045E00089F1FB0193838283FE0111C040815181D7
:1045F0000281138148175907E0F04817590799F4C9
:10460000109761F012960C93129713961C933296A2
:10461000CF01DF91CF911F910F9108950093590819
:1046200010935A08F4CF2115310551F04217530762
:1046300038F0A901DB019A01BD01DF01F801C1CF0A
:10464000EF01F9CF90935A0880935908CDCFFE011E
:10465000E20FF31F8193919322503109398328830C
:10466000D7CF2091570830915808232B41F420913F
:104670001601309117013093580820935708209164
:104680001401309115012115310541F42DB73EB7C4
:104690004091180150911901241B350BE0915708E6
:1046A000F0915808E217F307A0F42E1B3F0B2817D0
:1046B000390778F0AC014E5F5F4F2417350748F09B
:1046C0004E0F5F1F50935808409357088193919362
:1046D0009FCFF0E0E0E09CCFCF93DF930097E9F02D
:1046E000FC01329713821282A0915908B0915A08A6
:1046F000ED0130E020E01097A1F420813181820F9C
:10470000931F20915708309158082817390709F04E
:1047100061C0F0935808E0935708DF91CF91089556
:10472000EA01CE17DF07E8F54A815B819E0141155A
:104730005105B1F7E901FB83EA8349915991C40F0F
:10474000D51FEC17FD0761F4808191810296840FDB
:10475000951FE90199838883828193819B838A8352
:10476000F0E0E0E012968D919C9113970097B9F5D7
:104770002D913C911197CD010296820F931F2091AC
:104780005708309158082817390739F6309751F5EE
:1047900010925A0810925908B0935808A0935708DD
:1047A000BCCFD383C28340815181840F951FC8172A
:1047B000D90761F44E5F5F4F88819981480F591F77
:1047C000518340838A819B819383828321153105A4
:1047D00009F0B0CFF0935A08E09359089ECFFD013D
:1047E000DC01C0CF13821282D7CF6817790768F433
:1047F000FB01DC01E40FF51FA40FB51F02C00290FE
:104800000E9241505040D8F708950C940724FB01B4
:10481000DC0102C001900D9241505040D8F708953C
:1048200010E0C3E6D0E004C0FE010E948D22219674
:0A483000C436D107C9F7F894FFCF92
:10483A0001FFFFFFFFFFFFFFFFFFC800040086081C
:10484A0086086E0000005B08800001000504030270
:10485A00070608090A0B4F5A4D5E5E5E5E5E01FF4F
:10486A0001FFFF01FF01DDC9DDA6DDC9DDA6643C4C
:10487A00642D643C642D00007F7F7F7F00007F7F72
:10488A00000000007F7FFB7FFB7FFB7FFB7F3C7F7D
:10489A003C7F3C7F3C7F3C7F3C7FFB7FFB7FFB7FF9
:1048AA00FB7F3C7F3C7FFB7FFB7FFB7FFB7FFB7FAC
:1048BA003C7FFB7F3C7F3C7F3C7FFB7FFB7FFB7F1A
:1048CA00FB7F3C7F3C7F3C7FFB7F3C7FFB7FFB7F0A
:1048DA003C7FFB7F3C7F3C7F3C7F3C7F3C7FE77F8C
:1048EA00E77FE77FE77F000000000000000019E78C
:1048FA0019E7CE32CE32E719E71932CE32CE00D3DB
:10490A00002DD32D2DD3D3002D002DD3D32D373702
:10491A000000C9C9C9C90000C9C9373737370304F4
:10492A000506000000000000000000000000000072
:10493A00000000000000000000000000000000006D
:10494A000000737300000000000000000000000077
:10495A00000000000000000000000000000000004D
:10496A00000000000000000000000000000000003D
:10497A0000004242000000000000000000000000A9
:10498A000000426200000000000000000000000079
:10499A000000426242000000000000000000000027
:1049AA000000424200000000000000000000000079
:1049BA0000000000000000000000000000000000ED
:1049CA00000062000000000000000000000000007B
:1049DA00000042000000000000000000000000008B
:1049EA000000425300000000000000000000000028
:1049FA0000004253530000000000000000000000C5
:104A0A00000062000000000000000000000000003A
:104A1A00000000000000000000000000000000008C
:104A2A0000004242000000000000000000000000F8
:104A3A000000534262000000000000000000000075
:104A4A00000000000000000000000000000000005C
:104A5A0000004253000000000000000000000000B7
:104A6A000000535300000000000000000000000096
:104A7A000000535300000000000000000000000086
:104A8A000000535300000000000000000000000076
:104A9A000000535300000000000000000000000066
:104AAA0000000000000000000000000000000000FC
:104ABA000000424200000000000000000000000068
:104ACA000000424200000000000000000000000058
:104ADA00000042000000000000000000000000008A
:104AEA00000042000000000000000000000000007A
:104AFA000000530000000000000000000000000059
:104B0A00000000000000000000000000000000009B
:104B1A000000420000000000000000000000000049
:104B2A00000000000000000000000000000000007B
:104B3A00000000000000000000000000000000006B
:104B4A00000000000000000000000000000000005B
:104B5A00000000000000000000000000000000004B
:104B6A00000000000000000000000000000000003B
:104B7A00000000000000000000000000000000002B
:104B8A00000000000000000000000000000000001B
:104B9A0000004200000000000000000000000000C9
:104BAA0000000000000000000000000000000000FB
:104BBA0000000000000000000000000000000000EB
:104BCA0000000000000000000000000000000000DB
:104BDA0000000000000000000000000000000000CB
:104BEA000000000100010001000173700071000063
:104BFA0000727500000076007774000000006202FF
:104C0A00C201EF01AF022002FE0112020000000001
:104C1A001609E908BC09BF08E208CF08C008696E8E
:104C2A0069742063616C6962005043206D6F64652A
:104C3A003A2051756164437261776C6572312E3620
:104C4A00005043206D6F64653A2051756164437268
:0C4C5A0061776C6572312E360D0A000087
:00000001FF
