:100000000C94D5010C9436130C940F130C94FD0131
:100010000C94FD010C94FD010C94FD010C94EB116A
:100020000C94FD010C94FD010C94FD010C94FD0158
:100030000C94FD010C94FD010C94FD010C94FD0148
:100040000C94C5120C94FD010C9493120C946D1237
:100050000C94FD010C94FD010C94FD010C94FD0128
:100060000C945D130C94FD01000000002400270097
:100070002A000000000023002600290000000008DC
:10008000000201000003040700000000000000005F
:10009000696E69742063616C6962005043206D6F02
:1000A00064653A2051756164437261776C657231A1
:1000B0002E360002000000000000000000000000DA
:1000C0000000000000000000000000000000000030
:1000D000000000007373000000000000000000003A
:1000E0000000000000000000000000000000000010
:1000F0000000000000000000000000000000000000
:10010000000000004242000000000000000000006B
:10011000000000004262000000000000000000003B
:1001200000000000426242000000000000000000E9
:10013000000000004242000000000000000000003B
:1001400000000000000000000000000000000000AF
:10015000000000006200000000000000000000003D
:10016000000000004200000000000000000000004D
:1001700000000000425300000000000000000000EA
:100180000000000042535300000000000000000087
:1001900000000000620000000000000000000000FD
:1001A000000000000000000000000000000000004F
:1001B00000000000424200000000000000000000BB
:1001C0000000000053426200000000000000000038
:1001D000000000000000000000000000000000001F
:1001E000000000004253000000000000000000007A
:1001F0000000000053530000000000000000000059
:100200000000000053530000000000000000000048
:100210000000000053530000000000000000000038
:100220000000000053530000000000000000000028
:1002300000000000000000000000000000000000BE
:10024000000000004242000000000000000000002A
:10025000000000004242000000000000000000001A
:10026000000000004200000000000000000000004C
:10027000000000004200000000000000000000003C
:10028000000000005300000000000000000000001B
:10029000000000000000000000000000000000005E
:1002A000000000004200000000000000000000000C
:1002B000000000000000000000000000000000003E
:1002C000000000000000000000000000000000002E
:1002D000000000000000000000000000000000001E
:1002E000000000000000000000000000000000000E
:1002F00000000000000000000000000000000000FE
:1003000000000000000000000000000000000000ED
:1003100000000000000000000000000000000000DD
:10032000000000004200000000000000000000008B
:1003300000000000000000000000000000000000BD
:1003400000000000000000000000000000000000AD
:10035000000000000000000000000000000000009D
:10036000000000000000000000000000000000008D
:10037000000000000102040810204080010204086F
:1003800010200102040810200000000025002800B1
:100390002B00040404040404040402020202020206
:1003A000030303030303C114C02211241FBECFEFB4
:1003B000D8E0DEBFCDBF12E0A0E0B1E0E2E1FEE4B4
:1003C00002C005900D92A834B107D9F725E0A8E442
:1003D000B2E001C01D92AD37B207E1F711E0C4ED04
:1003E000D1E004C02197FE010E947925C33DD107C9
:1003F000C9F70E9490150C94FC260C9400008F9273
:100400009F92AF92BF92CF92DF92EF92FF92CF93E3
:10041000209153053091540582179307E8F54B015D
:10042000AA24BB24C82DC52ED62EE72EFF24BC2D12
:10043000A42F20915905222361F0829E40011124AE
:10044000C92D2C9D60011124BD2D249FF001112484
:10045000AF2FE0915F05E0905A05F0905B05309179
:100460005C05E31323C09C01220F331F820F931FEF
:100470008E0D9F1DE0915C05E80FF92FF11DC083E3
:10048000E0915D05E80FF92FF11DB08320915E0525
:10049000820F911DFC01A083CF91FF90EF90DF9020
:1004A000CF90BF90AF909F908F900895880F991F25
:1004B000880F991F8E0D9F1D472F55276627772779
:1004C000222349F030E0249F7001259FF00C349FD7
:1004D000F00C11244F2DE80FF92FF11D4083CACFE6
:1004E0008230F8F4E82FF0E0EE0FFF1FE25FFE4FDE
:1004F00029E136E031832083813041F08091690029
:100500008C7F682B60936900E89A08958091690058
:10051000837F660F771F660F771F682B60936900D4
:10052000E99A089508950895AF92BF92CF92DF920D
:10053000EF92FF920F931F93CF93DF936C017B0198
:100540008B01040F151FEB015E01AE18BF08C01729
:10055000D10759F06991D601ED91FC910190F0819C
:10056000E02DC6010995892B79F7C501DF91CF915F
:100570001F910F91FF90EF90DF90CF90BF90AF90C1
:100580000895FC01538D448D252F30E0842F90E099
:10059000821B930B541710F0CF960895019708957E
:1005A000FC01918D828D981761F0A28DAE0FBF2F47
:1005B000B11D5D968C91928D9F5F9F73928F90E09D
:1005C00008958FEF9FEF0895FC01918D828D98170C
:1005D00031F0828DE80FF11D858D90E008958FEF49
:1005E0009FEF0895FC01918D228D892F90E0805C12
:1005F0009F4F821B91098F739927089588EA94E091
:100600000E94F20221E0892B09F420E0822F089554
:1006100080E090E0892B29F00E94FE0281110C9469
:1006200000000895FC01A48DA80FB92FB11DA35A95
:10063000BF4F2C91848D90E001968F739927848F02
:10064000A689B7892C93A089B1898C918370806425
:100650008C93938D848D981306C00288F389E02DC6
:1006600080818F7D80830895EF92FF920F931F9377
:10067000CF93DF93EC0181E0888F9B8D8C8D981355
:100680001AC0E889F989808185FF15C09FB7F89461
:10069000EE89FF896083E889F989808183708064AD
:1006A00080839FBF81E090E0DF91CF911F910F91F8
:1006B000FF90EF900895F62E0B8D10E00F5F1F4F07
:1006C0000F731127E02E8C8D8E110CC00FB607FC16
:1006D000FACFE889F989808185FFF5CFCE010E94A4
:1006E0001203F1CFEB8DEC0FFD2FF11DE35AFF4FFD
:1006F000F0829FB7F8940B8FEA89FB898081806232
:10070000CFCF0F931F93CF93DF938C01D0E0C0E046
:10071000F801EC0FFD1F6491662341F088EA94E034
:100720000E943403892B11F02196F2CF42E050E071
:1007300065E472E088EA94E00E9494028C0F9D1FA9
:10074000DF91CF911F910F910895CF93DF93EC012B
:10075000888D8823B9F0AA89BB89E889F9898C91A9
:1007600085FD03C0808186FD0DC00FB607FCF7CF65
:100770008C9185FFF2CF808185FFEDCFCE010E9465
:100780001203E9CFDF91CF910895833081F028F4EF
:10079000813099F08230A9F008958730A9F088302F
:1007A000C9F08430B1F4809180008F7D03C08091C6
:1007B00080008F7780938000089584B58F7784BD03
:1007C000089584B58F7DFBCF8091B0008F778093A3
:1007D000B00008958091B0008F7DF9CFCF93DF9363
:1007E000282F30E0F901E458FF4F8491F901EC58CB
:1007F000FC4FD491F901EE56FC4FC491CC23A1F0EB
:1008000081110E94C503EC2FF0E0EE0FFF1FEE58A0
:10081000FF4FA591B491EC91ED2381E090E009F4B4
:1008200080E0DF91CF91089580E090E0FACF1F93B0
:10083000CF93DF93282F30E0F901E458FF4F8491E4
:10084000F901EC58FC4FD491F901EE56FC4FC491DC
:10085000CC23A9F0162F81110E94C503EC2FF0E0E4
:10086000EE0FFF1FE857FC4FA591B4918FB7F89496
:10087000EC91111108C0D095DE23DC938FBFDF917E
:10088000CF911F910895DE2BF8CF682F8DE00C9447
:100890001704CF93DF9390E0FC01EC58FC4F2491B8
:1008A0008E569C4FFC0184918823C9F090E0880FFC
:1008B000991FFC01E859FF4FA591B491FC01E8573D
:1008C000FC4FC591D49161110DC09FB7F8948C91E4
:1008D000209582238C938881282328839FBFDF91D2
:1008E000CF910895623051F49FB7F8943C91822FD4
:1008F000809583238C93E8812E2BEFCF8FB7F894CC
:10090000EC912E2B2C938FBFEACF1F93CF93DF93C5
:10091000182FEB0161E00E944904209739F460E050
:10092000812FDF91CF911F910C941704CF3FD105F8
:1009300011F461E0F5CFE12FF0E0E458FF4FE491CE
:10094000E33031F140F4E130B1F0E230E1F0C038B1
:10095000D1057CF7E4CFE73029F1E83059F1E430F4
:10096000B1F780918000806280938000D0938B00EB
:10097000C0938A0004C084B5806884BDC7BDDF9180
:10098000CF911F91089584B5806284BDC8BDF7CF13
:1009900080918000806880938000D0938900C0930C
:1009A0008800EDCF8091B00080688093B000C09344
:1009B000B300E5CF8091B00080628093B000C09317
:1009C000B400DDCF3FB7F89480919F029091A002D0
:1009D000A091A102B091A20226B5A89B05C02F3F0D
:1009E00019F00196A11DB11D3FBFBA2FA92F982F55
:1009F0008827BC01CD01620F711D811D911D42E050
:100A0000660F771F881F991F4A95D1F708950F9396
:100A10001F93CF93DF93CDB7DEB729970FB6F89426
:100A2000DEBF0FBECDBF80915A0590915B05892B2B
:100A300009F47CC00E94E2040091600510916105F8
:100A40002091620530916305601771078207930753
:100A500040F4609360057093610580936205909304
:100A60006305009160051091610520916205309148
:100A70006305601B710B820B930B6C327140810517
:100A80009105C0F2F89480915505909156059A838E
:100A90008983E0915A05F0915B05DF011196808111
:100AA000898790915105E0916405F09165058091E9
:100AB0006605992309F445C09081982B9887908109
:100AC000809589238F838F818C8388E08B835885E1
:100AD0006F8149853B812C8189819A81508347FDB3
:100AE000252F3A952083262F39F0441F00C000009F
:100AF0006083000000C0F2CF38E04D9160830000B9
:100B0000019761F7F0936505E093640549873B839E
:100B10002C839A83898378940E94E2046093600511
:100B200070936105809362059093630529960FB6D3
:100B3000F894DEBF0FBECDBFDF91CF911F910F9113
:100B400008959081982B98879081809589238F8331
:100B50008F818E8388E08D8358856F8149853D81A3
:100B60002E8189819A81508347FD252F00C000C0C6
:100B7000208300C000C000C000C000C0608300002F
:100B8000262F3A9541F0441F000000C000C000C06D
:100B900000C000C0E8CF38E04D9100C0608300C0C5
:100BA000019709F7F0936505E093640549873D8354
:100BB0002E83AFCF8F929F92AF92BF92CF92DF9250
:100BC000EF92FF926B017C010E94E2044B015C01F9
:100BD000C114D104E104F104B9F00E94E2046819DF
:100BE00079098A099B09683E73408105910580F364
:100BF00021E0C21AD108E108F10888EE880E83E0EE
:100C0000981EA11CB11CE4CFFF90EF90DF90CF9015
:100C1000BF90AF909F908F9008952FB7F8946091F8
:100C200022037091230380912403909125032FBF09
:100C300008950F931F930E94E204AB01BC018091C1
:100C4000560290915702A0915802B09159028A0120
:100C50009B01081B190B2A0B3B0BD901C8010097FC
:100C6000A140B10520F58091560290915702A091C4
:100C70005802B09159029A01281B390BC9014093BF
:100C80005602509357026093580270935902E091B4
:100C9000AB02E73090F4F0E0E05BF94F0C9479257B
:100CA0005A068C06030740077206B10640078FEF0D
:100CB0009FEFE5CF84E08093AB028091AB0262E0CE
:100CC00070E0843010F063E070E080917005823055
:100CD00009F45BC1833009F45AC18FEF1F910F9162
:100CE0000C9470029C0127553A412339314110F48C
:100CF00081E0E1CF8B5693408F35914008F0BDC025
:100D00001092520210925302109254021092550205
:100D10001092510283E0CFCF1092AB029C012B5274
:100D20003D402B3C384060F4109252021092530226
:100D300010925402109255021092510285E0BBCFDE
:100D4000855996408736944008F0B7CF0E940D062B
:100D500060932F0470933004809331049093320495
:100D6000ACCF1092AB02855A91408B31914008F084
:100D7000A4CF80915102803210F482E09CCF809108
:100D8000520290915302A0915402B09155024091A9
:100D90005202509153026091540270915502892F72
:100DA0009A2FAB2FBB2784279527A627B7279927EC
:100DB000BB278F3F9105AF4FB10509F07ECF8091E2
:100DC000520290915302A0915402B09155028A2F81
:100DD00090E090933404809333040E940D06609356
:100DE0002F0470933004809331049093320481E097
:100DF00080933504E0916E05F0916F05309709F40A
:100E00005CCF09955ACF25E02093AB024091520266
:100E100050915302609154027091550276956795F6
:100E20005795479540935202509353026093540252
:100E300070935502209151022F5F209351029C0123
:100E4000205F34402D34334090F4809152029091D1
:100E50005302A0915402B0915502B068809352029F
:100E600090935302A0935402B093550226CF855A13
:100E700091408B31914008F420CF1092AB021DCFEE
:100E80009C012F5A31092F35314048F5809151028C
:100E900080FD15C08091520290915302A09154029E
:100EA000B0915502880F991FAA1FBB1F81608093C4
:100EB000520290935302A0935402B0935502809132
:100EC00051028F5F80935102809151028E3120F543
:100ED0008091AB02863009F41DCF86E0ECCE8D50B8
:100EE00092408F35914048F6809152029091530282
:100EF000A0915402B0915502880F991FAA1FBB1FE1
:100F00008093520290935302A0935402B0935502DF
:100F1000809151028E5FD6CF809152029091530200
:100F2000A0915402B09155029C01306890915002FA
:100F3000832F829586958770911104C0837080936A
:100F400050029BCF40915002837050E084171506E9
:100F500009F093CF30933404209333040E940D069C
:100F600060932F0470933004809331049093320483
:100F700082E080933504E0916E05F0916F05309723
:100F800009F47BCF81E0099578CF80E0A7CE81E09E
:100F9000A5CE8F929F92AF92BF92CF92DF92EF92A7
:100FA000FF920F931F93CF93DF93F8941091350422
:100FB00010923504C0913304D091340480902F04F2
:100FC00090903004A0903104B09032047894811451
:100FD0009104A104B10409F413C13CE2C32EDD2441
:100FE000D394E12CF12CD7FD06C0C0901201D09013
:100FF0001301F12CE12C0E940D06681979098A0968
:101000009B09209175056C157D058E059F0508F0DF
:10101000CBC0211136C0209709F43FC112E0D7FFA1
:1010200011E0E0916E05F0916F05309711F081E0CD
:1010300009951092770510927605D7FF35C18C2F50
:101040008770805A809375058C2F86958695869536
:101050008051990B04E0880F991F0A95E1F790934E
:101060007205809371058D2F8F718051990B24E04B
:10107000880F991F2A95E1F7909374058093730563
:1010800002C01111D6CF00917805002309F471C078
:10109000D7FF6FC0809171059091720540917305E3
:1010A00050917405BC0197FF04C066277727681B21
:1010B000790B9A0157FF04C022273327241B350BD5
:1010C000260F371F283231050CF469C0DC0197FD6B
:1010D0001196B595A795E1E0A417B5070CF0E0E0EF
:1010E000BA0157FF02C06F5F7F4F759567958617EE
:1010F00097070CF4EE5FBA0157FF02C06F5F7F4F96
:1011000075956795719561957109861797070CF428
:10111000EC5FCC27DD27C41BD50BAC17BD070CF447
:10112000E85FF0E0E650FE4F60816093760563373C
:1011300061F028F4613789F13695279507C0643747
:1011400039F16637C9F79E0101C09C012F3F310577
:1011500019F010F02FEF30E020937705023049F4BA
:1011600080917505803629F48091760581118093F0
:101170007505812F90E0DF91CF911F910F91FF9026
:10118000EF90DF90CF90BF90AF909F908F90089599
:1011900022273327281B390BD9CF9A01D7CF10929A
:1011A000760510927705DACF222319F3109277058E
:1011B00010927605109274051092730510927205C4
:1011C000109271051092750510922F041092300440
:1011D0001092310410923204E0916E05F0916F0587
:1011E000309711F080E009950E940D0660932B0462
:1011F00070932C0480932D0490932E0411E0B9CFAA
:101200000E940D06C0902B04D0902C04E0902D0479
:10121000F0902E04DC01CB018C199D09AE09BF09A9
:10122000CD2B79F0409112015091130170E060E0F4
:10123000481759076A077B0720F41092340410926C
:10124000330427E0B695A795979587952A95D1F70A
:101250000097A105B10509F48CCF8F709927AA27B3
:10126000BB270097A105B10551F4E0916E05F091FF
:101270006F0581E0309709F47CCF09957ACF01970B
:10128000A105B10509F075CFE0916E05F0916F05EC
:10129000309709F46ECF80E0F0CF112309F4F3CE3C
:1012A0001092770510927605C0937505109274051B
:1012B000109273051092720510927105E4CE089594
:1012C000DC01ED91FC910190F081E02D09942091D9
:1012D0007B02260F3327331F21323105ECF4209196
:1012E0007E04FC0190E080E0243069F082E0089503
:1012F000A0917B022191AC01455A5D4FA40FB52FFF
:10130000B11D2C930196861798F380917B02680F8C
:1013100060937B0280E0089581E0089510927E043E
:1013200081E080937D041092580461E082E10E9484
:10133000170461E083E10E941704E9EBF0E080818B
:101340008E7F808380818D7F808388E48093B80046
:1013500085E48093BC000895CF93DF9391E0909350
:101360005A028823B9F0C091B800D091BA00809198
:10137000BC008A7B8093BC0060E082E10E9417047D
:1013800060E083E10E9417040E948E09D093BA00A6
:10139000C093B800DF91CF9108958F929F92AF9242
:1013A000BF92CF92DF92EF92FF920F931F93CF9352
:1013B000DF93D091A704D13208F0D7C0182FC09185
:1013C000A6040E94E2046B017C0180917E048111DD
:1013D0006BC082E080937E0410937D048FEF809336
:1013E0007C0410927B04D0937A04A6E8B4E0EAE58A
:1013F000F4E080E0D81391C0109259048091590410
:10140000CC0FC82BC093590480915804813009F047
:1014100088C0109258040E94E2046B017C01809104
:1014200059048093BB008091800490918104A09125
:101430008204B0918304892B8A2B8B2BA1F00E940C
:10144000E204009180041091810420918204309183
:1014500083046C197D098E099F0906171707280751
:10146000390708F442C08091BC0083FDD8CF85ECD9
:101470008093BC000E94E2046B017C0180917E0499
:10148000823009F450C080917C048F3F09F46FC012
:1014900080917C04803209F46CC080917C0480339C
:1014A00009F469C084E026C0809180049091810491
:1014B000A0918204B0918304892B8A2B8B2B09F491
:1014C00084CF0E94E2048090800490908104A090D8
:1014D0008204B09083046C197D098E099F098616D9
:1014E0009706A806B90608F070CF80917F040E9485
:1014F000AC0985E0109285041092A7041092840430
:10150000DF91CF911F910F91FF90EF90DF90CF90DF
:10151000BF90AF909F908F9008959D9191938F5F12
:1015200069CF85EEA5CF8091800490918104A09130
:101530008204B0918304892B8A2B8B2B09F49ECFD4
:101540000E94E204009180041091810420918204A1
:10155000309183046C197D098E099F0906171707BE
:101560002807390708F08ACFC0CF81E0C3CF80E0D9
:10157000C1CF82E0BFCF83E0BDCFEF92FF920F9348
:101580001F93CF93DF93E62E072FF42E152FC7E678
:10159000D5E0A981BA81988121E0209384049093B9
:1015A000A604109285041092A70494E0899FB001CC
:1015B00011246A5F7F4FED91FC9111970190F081AA
:1015C000E02DCD0109956E2D702F89819A810E94A1
:1015D0006009602F70E089819A810E9460096F2DF7
:1015E000712F89819A810E946009612F70E0898141
:1015F0009A810E94600981E0DF91CF911F910F9144
:10160000FF90EF900C94CD091F93CF93DF93162F8B
:10161000C7E6D5E0A981BA81988121E020938404AE
:101620009093A604109285041092A704ED91FC916A
:1016300011970190F081E02D682FCD0109958981E6
:101640009A81DC01ED91FC910190F081E02D612FF8
:10165000099581E0DF91CF911F910C94CD09CF9234
:10166000DF92EF92FF920F931F93CF93DF93D82FC8
:10167000C62F613208F098C00E94E2046B017C0121
:1016800080917E0481116BC081E080937E04809301
:101690007D049FEF90937C0410927B049C0F9093A9
:1016A0007A048093590480915904DD0FD82BD0938C
:1016B000590480915804813009F078C01092580480
:1016C0000E94E2046B017C01809159048093BB006D
:1016D0008091800490918104A0918204B091830450
:1016E000892B8A2B8B2BA1F00E94E20400918004AD
:1016F0001091810420918204309183046C197D093A
:101700008E099F09061717072807390708F448C0EC
:101710008091BC0083FDD8CF85EC8093BC000E94F3
:10172000E2046B017C0180917E04813009F440C0A9
:1017300080917B048C1710F4C0917B04EAE5F4E0FF
:10174000A8E3B4E080E08C1355C08C2FDF91CF91DB
:101750001F910F91FF90EF90DF90CF9008958091AF
:10176000800490918104A0918204B0918304892B1C
:101770008A2B8B2B09F484CF0E94E2040091800411
:101780001091810420918204309183046C197D09A9
:101790008E099F09061717072807390708F070CF29
:1017A00080917F040E94AC09C0E0CFCF85EEB5CF19
:1017B0008091800490918104A0918204B09183046F
:1017C000892B8A2B8B2B09F4AECF0E94E204009167
:1017D00080041091810420918204309183046C195B
:1017E0007D098E099F09061717072807390708F092
:1017F0009ACFD6CF91919D938F5FA5CF0895E09119
:10180000370480913604E81730F4F0E0E85CFB4FD1
:10181000808190E008958FEF9FEF089590913704B5
:10182000809136042FEF3FEF981748F4E92FF0E04E
:10183000E85CFB4F208130E09F5F90933704C90143
:1018400008958091360490913704891B990B08956F
:10185000CF92DF92EF92FF920F931F93CF93DF937C
:101860007C01CB018A0120918404222389F0EB01C1
:101870006B01C40ED51ECC15DD0569F06991D70149
:10188000ED91FC910190F081E02DC7010995F3CF16
:10189000642F0E946709C801DF91CF911F910F91BA
:1018A000FF90EF90DF90CF900895CF93DF931F923A
:1018B000CDB7DEB76983209184042223F9F020910B
:1018C000A704203258F021E030E0FC01338322836A
:1018D00090E080E00F90DF91CF9108958091850492
:1018E000E82FF0E0EA57FB4F998190838F5F809358
:1018F00085048093A70481E090E0ECCF61E0CE0105
:1019000001960E946709F7CF90E080E00895EF927A
:10191000FF920F931F93CF93DF937C01D0E0C0E041
:101920000BE316E0CE15DF0584F461E088E00E9449
:101930001704C8010197F1F760E088E00E941704DE
:10194000C8010197F1F72196EDCFDF91CF911F915B
:101950000F91FF90EF9008952F923F924F925F92D8
:101960006F927F928F929F92AF92BF92CF92DF92AF
:10197000EF92FF920F931F93CF93DF93D0E010E08D
:10198000F12CE12C882E912CB12CA12C00E0C0E090
:10199000D12CC12C2E2C209433243A94310E3EEFBE
:1019A000732E710E662463946D0E42E0542E5D0E0C
:1019B0005DEF452E410E8091530590915405C81658
:1019C000D90698F5822D800F8535A0F4452D4C0F52
:1019D00050E070E060E0BA0155274427842D8C1B4D
:1019E000482BC6010E94FF018FEFC81AD80ACD5FAD
:1019F0000150E1CF8A3A60F4472D4C1B50E070E073
:101A000060E0762F652F542F4427862D8C0FE8CF6A
:101A10004C2F4D0F50E070E060E0762F652F542F73
:101A20004427832D8C1B682BDCCF0E940705C50142
:101A3000B4010E94DA058FEFE81AF80A1350DD5F4F
:101A4000E11481E0F80609F0A1CFDF91CF911F9159
:101A50000F91FF90EF90DF90CF90BF90AF909F904D
:101A60008F907F906F905F904F903F902F90089550
:101A7000CF92DF92EF92FF92CF936B017C01C0E097
:101A80008C2F90E0209153053091540582179307D5
:101A900070F4B701A6010E94FF010E9407056AE0E9
:101AA00070E080E090E00E94DA05CF5FE9CFCF914F
:101AB000FF90EF90DF90CF900895CF93DF93C82FE2
:101AC00060E070E0CB010E94380DD0E0CC0FDD1F4C
:101AD00040E050E06FEF70E0CE010E94FF010E94F5
:101AE00007056AE070E080E090E00E94DA0540E0DF
:101AF00050E06FEF70E0CE0101960E94FF010E945E
:101B000007056AE070E080E090E0DF91CF910C94EF
:101B1000DA05873078F5E82FF0E0EF56F24F0C94B5
:101B20007925980D9D0DA20DA70DAC0DB10DB50D2C
:101B300060E070E0CB010C94380D60E070E08FEF56
:101B400090E0F9CF60E07FEF80E090E0F4CF6FEFBE
:101B500070E080E090E0EFCF60E070E880E890E037
:101B6000EACF60E870E0CB01E6CF60E870E880E0A3
:101B700090E0E1CF08959093DC028093DB0286E051
:101B800080931D030E940D066093190370931A033E
:101B900080931B0390931C0381E08093DE020895E1
:101BA000CF93C0E050E040E070E060E08C2F0E94F6
:101BB000BD0ACF5FC830B1F710921D031092D10259
:101BC000CF910895FF920F931F93CF93DF93F62E3B
:101BD0008A01C82FD0E00E940D06FE01EE0FFF1F04
:101BE000EE0FFF1FE951FD4F608371838283938362
:101BF000FE01EE0FFF1FE95FFC4F11830083FE0122
:101C0000E152FD4FDE01A85BBD4F8C918083CE5F1A
:101C1000DE4FF882DF91CF911F910F91FF900895D1
:101C2000EF92FF920F931F93CF93DF937B01D42FFB
:101C30008C01C0E0F80161918F016F3739F0062EF9
:101C4000000C770BA7018C2F0E94E20DCF5FC830EC
:101C500089F7D0931D030E940D06609319037093BA
:101C60001A0380931B0390931C03DF91CF911F9164
:101C70000F91FF90EF90089590930B0180930A01CC
:101C800028E0EAEEF1E0A3EDB2E001900D922A9592
:101C9000E1F72091D102261709F473C06093D102B5
:101CA000613108F06EC0E62FF0E0E75AF14F0C9476
:101CB00079256A0E7B0E8B0E880E7F0E850E820EA6
:101CC000930E980E9D0EA20EA70EAC0EB10EBB0E7B
:101CD000BE0E8E0E80911D039CEF980F923008F47B
:101CE00050C0882309F44DC044E068EC70E086E4FD
:101CF00091E00C94100E8EED91E00C94BB0D86EDEE
:101D000091E0FBCF8EEC91E0F8CF86EC91E0F5CF3F
:101D10008EEB91E0F2CF86EB91E0EFCF41E0BC019A
:101D20008EEA91E0E6CF41E0BC0186EA91E0E1CFA6
:101D300041E0BC018EE991E0DCCF41E0BC0186E9E5
:101D400091E0D7CF41E0BC018EE891E0D2CF41E0F5
:101D5000BC0186E891E0CDCF41E0BC018EE791E087
:101D6000C8CF2EE631E0309318032093170342E0EA
:101D7000BC01C901BECF2EE531E0F5CF2EE431E044
:101D8000F2CF08950F931F93CF93DF93C82FD0E026
:101D9000FE01E85BFD4F60838C3008F063C0FE01FC
:101DA000E25CFE4F8081082E000C990B8617970786
:101DB0005CF0FE01EA5CFE4F8081082E000C990B5E
:101DC000861797070CF4CB01FE01ED55FD4F2081DE
:101DD000820F911D27FD9A95FE01E25DFE4F408125
:101DE000BC0146039001479F300D1124FE01EA5DBE
:101DF000FE4F8081280F311D87FD3A952B3F7FEFE5
:101E0000370714F42BEF3FEF8E01102F0027110F2F
:101E10002A3B310514F029EB30E0032E000C440B73
:101E2000550B2B5F3F4F4F4F5F4FA7ECB1E00E9428
:101E300086252EEB30E040E050E00E945A25C80194
:101E4000865A9F4FAC01420F531F5F70B80166273F
:101E50007E70C65EDE4F8881DF91CF911F910F911A
:101E60000C94BD0ADF91CF911F910F910895CF93EC
:101E7000DF93C82FD62F0E94C20EEC2FF0E0EE5F4A
:101E8000FE4FD08381E080931D030E940D06609376
:101E9000190370931A0380931B0390931C03DF9123
:101EA000CF910895CF93DF93C42FD82FDD0F062E47
:101EB000000C770B8D2F0E94370F6C2FCC0F770BF8
:101EC00081E08D0F0E94370F81E18093D102DF9175
:101ED000CF910895EBE2F3E02FEF208325E52183F6
:101EE00023E0228322E023838483958346E050E02D
:101EF000BF0188EA94E00C949402EBE2F3E09FEFD8
:101F0000908395E5918392E0928391E0938384831B
:101F100045E050E0BF0188EA94E00C949402EBE2C3
:101F2000F3E08FEF808385E58183128243E050E008
:101F3000BF0188EA94E00C949402E82FF0E0EF539C
:101F4000FD4FE081EC5FF0E0E55DFC4F9181808129
:101F5000089586E00E94EE03382F809100018317D8
:101F600039F081E090E0311180E030930001089574
:101F700080E090E0FACF8F929F92AF92BF92CF9283
:101F8000DF92EF92FF92CF936B017C0120E030E073
:101F900040E85FE30E94532387FDA5C020E030ECBA
:101FA0004AE555E4C701B6010E94B22418163CF474
:101FB000C12C30ECD32E3AE5E32E35E4F32E6091BC
:101FC0006A0570916B0580916C0590916D050E947A
:101FD00000244B015C0120E030E040E855E4C701FB
:101FE000B6010E94B7249B01AC01C501B4010E9457
:101FF000582320E030E040E05FE30E94E72220E049
:1020000030E040E85FE30E94E6226B017C0120E0C3
:1020100030E040E450E40E94532387FD6BC020E091
:1020200030E04FE753E4C701B6010E94B22418160E
:1020300034F4C12CD12C9FE7E92E93E4F92E809142
:102040006805909169052091670531E0309384041B
:102050002093A604109285041092A704DC01ED9150
:10206000FC910190F081E02D60E0099581E00E94F3
:10207000CD0961E0809167050E942F0B1092370413
:10208000809336048091680590916905DC01ED919B
:10209000FC910284F385E02D0995C82F682F6F7697
:1020A000606180E00E94040BC701B6010E94D12349
:1020B0008EEF0E94040B6C2F80E00E94040B65E001
:1020C00070E080E090E00E94DA056C2F606A80E0AA
:1020D000CF91FF90EF90DF90CF90BF90AF909F9007
:1020E0008F900C94040BC12CD12C20E8E22E2FE30E
:1020F000F22E65CFC12CD12C80E4E82EFE2C9FCF90
:102100001F93CF93DF93182FC82FD0E0AE016BE25F
:1021100073E080E393E00E94E126EBE2F3E08FEFCF
:10212000808385E5818382E0810F828387E08383DA
:102130001483AE014B5F5F4FBF0188EA94E0DF91EB
:10214000CF911F910C949402EF92FF920F931F93E3
:10215000CF93DF93EB01613208F060E20E942F0B16
:1021600010923704809336048C171D068CF00BE216
:1021700013E0CE01855D9C4F7C01E016F10681F0F5
:1021800085E495E00E940E0CF80181938F01F5CF54
:10219000DF91CF911F910F91FF90EF900C948F0FD3
:1021A0008C2FDF91CF911F910F91FF90EF900C94A6
:1021B0008010EF92FF920F931F93CF93DF9389309C
:1021C00048F090E080E0DF91CF911F910F91FF9058
:1021D000EF900895623009F445C0C82F633018F5B8
:1021E000E82FF0E0662309F446C0613009F44CC0E2
:1021F0000C2F10E0C8018D559D4F7C01DC01DC9156
:10220000C8010E94D022D81721F06D2FC8010E946A
:10221000D82270E060E08C2F0E94370F81E180931C
:10222000D102F70123C06330B9F1643009F7E3EA62
:10223000F2E088E0DF011D928A95E9F78F01D0E096
:10224000C0E0F801F1908F01CE010E94D022F81673
:1022500021F06F2DCE010E94D8222196C830D105E1
:1022600081F7AFCFE82FF0E0ED55FD4F8081082ECC
:10227000000C990BA8CFED55FD4F80818F3709F4E5
:10228000B7CF8F5F8083B4CFED55FD4F808180380D
:1022900009F4AECF8150F6CFE82FF0E0ED55FD4FB9
:1022A0001082A6CF85ED8093BC0080918004909130
:1022B0008104A0918204B09183040796A11DB11DF1
:1022C00023E0B695A795979587952A95D1F7209104
:1022D000BC0024FD03C010927E0408954091800448
:1022E000509181046091820470918304452B462BA8
:1022F000472B69F30097A105B10541F025E32A9525
:10230000F1F700000197A109B109E1CF80917F04A5
:102310000C94AC09CF92DF92EF92FF920F931F9330
:102320008EE00E94EE03019709F44CC060E08FE05C
:102330000E94170483E090E00197F1F761E08FE0DD
:102340000E94170483E290E00197F1F760E08FE0CC
:102350000E941704E2E8F3E06491E0EAF3E0E4911C
:10236000F0E0EE0FFF1FEE58FF4F8591949100E4CF
:1023700012E42FE030E0462F0E947C1461157105B5
:102380008105910529F06F5F7F4F8F4F9F4F9F70A1
:102390000E9400246B017C0120E030E0A9010E9432
:1023A000B2241816A4F426E933E44BE85CE3C70131
:1023B000B6010E94B7241F910F91FF90EF90DF901C
:1023C000CF90089560E070E088EC92E4F4CF60E094
:1023D00070E0CB01F0CF1F920F920FB60F92112435
:1023E0002F933F934F935F936F937F938F939F931D
:1023F000AF93BF93EF93FF938091B5029091B60294
:10240000A091B702B091B802892B8A2B8B2BD1F106
:102410009091B002E091B102F091B20280818927DF
:1024200080838091B5029091B602A091B702B091DD
:10243000B802181619061A061B069CF48091B502FC
:102440009091B602A091B702B091B8020197A1098C
:10245000B1098093B5029093B602A093B702B093EE
:10246000B802FF91EF91BF91AF919F918F917F91B2
:102470006F915F914F913F912F910F900FBE0F90F1
:102480001F90189580910101E3EBF0E0E4919FEF3C
:1024900090930101E13051F030F0E23069F060E0FA
:1024A0000E941704DECF10926E00F9CF90916F005A
:1024B0009D7F90936F00F3CF909170009D7F9093DC
:1024C000700091E09093B0009091B100987F94607B
:1024D0009093B1001092B300E2CF1F920F920FB60B
:1024E0000F9211242F933F934F935F936F937F939A
:1024F0008F939F93AF93BF93EF93FF9388EA94E0FA
:102500000E941203FF91EF91BF91AF919F918F9124
:102510007F916F915F914F913F912F910F900FBEDF
:102520000F901F9018951F920F920FB60F921124C3
:102530002F938F939F93EF93FF93E091B804F091C3
:10254000B9048081E091BE04F091BF0482FD1BC0FC
:1025500090818091C1048F5F8F732091C204821794
:1025600041F0E091C104F0E0E855FB4F958F809376
:10257000C104FF91EF919F918F912F910F900FBE0A
:102580000F901F9018958081F4CF1F920F920FB675
:102590000F9211242F933F938F939F93AF93BF93E9
:1025A0008091220390912303A0912403B0912503ED
:1025B00030919E0223E0230F2D3758F50196A11D7F
:1025C000B11D20939E028093220390932303A09336
:1025D0002403B093250380919F029091A002A091C3
:1025E000A102B091A2020196A11DB11D80939F028C
:1025F0009093A002A093A102B093A202BF91AF91C9
:102600009F918F913F912F910F900FBE0F901F9030
:10261000189526E8230F0296A11DB11DD2CF1F9257
:102620000F920FB60F9211242F933F934F935F9306
:102630006F937F938F939F93AF93BF93EF93FF938A
:10264000E0911001F09111010995FF91EF91BF9177
:10265000AF919F918F917F916F915F914F913F913A
:102660002F910F900FBE0F901F9018951F920F92F1
:102670000FB60F9211242F933F934F935F936F9355
:102680007F938F939F93AF93BF93EF93FF93E091CB
:102690000E01F0910F010995FF91EF91BF91AF915C
:1026A0009F918F917F916F915F914F913F912F916A
:1026B0000F900FBE0F901F9018951F920F920FB69C
:1026C0000F9211242F933F934F935F936F937F93B8
:1026D0008F939F93AF93BF93EF93FF938091B90034
:1026E000887F803609F44AC0F0F5883209F4A7C023
:1026F00018F5803109F49BC0B8F4882309F4F9C0B7
:10270000883009F494C0FF91EF91BF91AF919F91F0
:102710008F917F916F915F914F913F912F910F908A
:102720000FBE0F901F901895883109F488C0803231
:1027300051F780937C0414C0803409F49DC040F4A8
:102740008033B9F38833F9F680937C0485ECB0C00C
:10275000803509F485C0883509F496C0883499F627
:102760000E945211D0CF883909F48CC038F58837CF
:1027700029F050F4883611F0803729F683E08093F1
:102780007E0410929D0257C0883809F47BC08039BE
:1027900019F0803809F0B7CF80919D02803208F09F
:1027A00071C0E0919D0281E08E0F80939D02809127
:1027B000BB00F0E0E358FD4F80833DC0803B39F023
:1027C000E0F4803A09F479C0883A09F09CCF84E0BB
:1027D00080937E0410927C0210927B02E091AE0204
:1027E000F091AF02099580917B0281110FC081E0C9
:1027F00080937B0210925B0209C0803C09F4A6CF53
:10280000883C09F4A3CF883B09F07DCFE0917C029E
:1028100081E08E0F80937C02F0E0E55AFD4F8081CD
:102820008093BB0090917C0280917B0229C08091B3
:1028300059048093BB0085EC8093BC0064CF9091D9
:102840007B0480917A04981758F5E0917B0481E02D
:102850008E0F80937B04F0E0E65AFB4F8081E9CF36
:10286000E0917B0481E08E0F80937B048091BB001C
:10287000F0E0E65AFB4F808390917B0480917A04CC
:102880009817C8F285E8D8CFE0917B0481E08E0FDD
:1028900080937B048091BB00F0E0E65AFB4F80837D
:1028A00080917D0481115CCF81E08093580484EA9B
:1028B0008093BC0010927E0426CF85EC8093BC00F0
:1028C00010927E0480919D02803230F4E0919D024E
:1028D000F0E0E358FD4F108260919D0270E0E091BE
:1028E000AC02F091AD028DE792E0099510929D0245
:1028F0000ACF10927C0434CFCF92DF92EF92FF92F6
:102900000F931F93E82FF92F05C0015011092109DA
:10291000310961F1908196239417B9F305C00150F4
:1029200011092109310911F1908196239413F7CFF0
:10293000C12CD12CE12CF12C0AC08FEFC81AD80A77
:10294000E80AF80A0C151D052E053F0579F080816F
:102950008623841791F36C2D7D2D8E2D9F2D1F9135
:102960000F91FF90EF90DF90CF90089560E070E0BE
:1029700080E090E01F910F91FF90EF90DF90CF905B
:1029800008951092AB041092AA0488EE93E0A0E0A0
:10299000B0E08093AC049093AD04A093AE04B093E8
:1029A000AF042EE032E03093A9042093A80425EC74
:1029B00030E03093B5042093B40424EC30E030933D
:1029C000B7042093B60420EC30E03093B904209390
:1029D000B80421EC30E03093BB042093BA0422EC1D
:1029E00030E03093BD042093BC0426EC30E03093FB
:1029F000BF042093BE041092C1041092C20410922E
:102A0000C3041092C40410924805109247058093A5
:102A1000490590934A05A0934B05B0934C0580E27D
:102A200092E0909346058093450580E48093670586
:102A300085E495E0909369058093680510925205AE
:102A4000109259051092600510926105109262056E
:102A50001092630581E080935F0580935C0510927E
:102A60005D0592E090935E058093510588E190E0CA
:102A700090935605809355050E94BC2590935B0565
:102A800080935A05009709F442C028E1FC01119295
:102A90002A95E9F788E090E09093540580935305D8
:102AA00080E190E0909358058093570580915205FE
:102AB000882341F061E080E10E94490460E080E108
:102AC0000E941704E2EAF3E0E491F0E0EE0FFF1F4A
:102AD000E857FC4F85919491909365058093640528
:102AE000E4E8F3E0E491E093660582E08093780502
:102AF0008093700585E494E090936F0580936E0554
:102B00008CE291E09093130180931201089510924A
:102B10005605109255051092540510925305C0CFDA
:102B2000CF93DF9300D000D01F92CDB7DEB778945B
:102B300084B5826084BD84B5816084BD85B58260C2
:102B400085BD85B5816085BD80916E008160809373
:102B50006E001092810080918100826080938100DC
:102B600080918100816080938100809180008160EC
:102B7000809380008091B10084608093B100809147
:102B8000B00081608093B00080917A00846080936F
:102B90007A0080917A00826080937A0080917A0036
:102BA000816080937A0080917A00806880937A00B7
:102BB0001092C10014BE0FB6F894A89580916000E1
:102BC000886180936000109260000FBEE091B804AD
:102BD000F091B90482E08083E091B404F091B504EF
:102BE0001082E091B604F091B70480E180831092E6
:102BF000C004E091BC04F091BD0486E08083E091C4
:102C0000BA04F091BB04808180618083E091BA04B2
:102C1000F091BB04808188608083E091BA04F091D8
:102C2000BB04808180688083E091BA04F091BB048A
:102C300080818F7D808361E08DE00E94490460E0A7
:102C40008DE00E94170464E670E080E090E00E944E
:102C5000DA0561E081E10E94490461E081E10E94BE
:102C6000170462E08EE00E94490461E08FE00E9458
:102C7000490461E088E00E94490462E083E00E9428
:102C8000490462E084E00E94490462E085E00E9419
:102C9000490462E086E00E944904809157059091C2
:102CA000580597FD08C061E00E94490460E08091EA
:102CB00057050E94170481E0809352050E94070582
:102CC00003EA12E068011A821982FF24F3948981D1
:102CD0009A810E94D022D6018D936D018F3F09F019
:102CE000F12CE981FA813196FA83E983389779F7F3
:102CF000F110E7C010923704109236041092850448
:102D00001092A7040E948E0982E992E09093AF028C
:102D10008093AE0283E992E09093AD028093AC027F
:102D200060E880E00E94040B6AE070E080E090E0E0
:102D30000E94DA0560E070E08AE794E40E94BB0F2D
:102D400080E498E7ADE7B1E080936A0590936B0566
:102D5000A0936C05B0936D0560E070E088E492E4A8
:102D60000E94BB0F60E081E10E941704198270E0AD
:102D700060E089810E94C20E68E270E080E090E02D
:102D80000E94DA0539813F5F3983383081F764E684
:102D900070E080E090E00E94DA050E94D00D409142
:102DA0007005498360E0842F0E944904598180E0C6
:102DB000523021F081E0533009F08FEF62E070E093
:102DC0000E9470021092AB021092340410923304ED
:102DD00085E00E94890D84E690E00E94870C8BE9D3
:102DE00090E00E94810388EA94E00E94F2021816A3
:102DF00019060CF011C681E08093290388EA94E05B
:102E00000E94D00297FD08C6E0912A0321E02E0F10
:102E100020932A03F0E0E55DFC4F8083223009F423
:102E200075C0233009F477C0213059F4A4E0B0E034
:102E3000B0930D01A0930C018F3F9105A1F2109268
:102E40002A0360910C0170910D0180912A0386176D
:102E5000170648F2E0902E03B9E1BE1508F461C0F0
:102E6000E0E1EE9E900111242C523E4FE1ECF2E0A5
:102E700080E1DF011D928A95E9F72115310509F0FE
:102E800076C1B5E1EB1609F441C2BE1508F4AFC036
:102E9000E7E0EE1609F4EDC1EE1508F46FC0F3E0BB
:102EA000EF1609F4C5C1FE1508F45DC021E0E21675
:102EB00009F4A5C132E0E31609F4ADC10E948F0FF9
:102EC00084C280E990E00E948103E3EAF2E088E0B6
:102ED000DF011D928A95E9F71A821982F801F190B3
:102EE0008F0189819A810E94D022F81629F06F2DD6
:102EF00089819A810E94D82229813A812F5F3F4F90
:102F00003A8329832830310549F7F4CE8535910578
:102F100009F095CF96CF039690930D0180930C0105
:102F200090CF8FE78E0D8D3060F44E2D4158550BAC
:102F30009A01B4E0220F331FBA95E1F72C5F3E4FA0
:102F400095CF5AEF30E020E05E1508F08FCF8E2D40
:102F50008B5F990B9C01A4E0220F331FAA95E1F728
:102F60002C543F4F83CF45E0E41609F477C14E154A
:102F700008F069C160E088EC90E04AC15AE0E516CB
:102F800009F49AC15E1580F088E0E81609F484C15E
:102F900099E0E91293CFE091C102F0E0E55DFC4FCA
:102FA00084810E94890D8ACFACE0EA1609F493C1AE
:102FB000EA1608F48AC1BDE0EB1280CFE091C102AD
:102FC000F0E0E55DFC4FE4818FEF8E0F21E084306F
:102FD00050F4F0E0EB51FE4F80810E94EE0321E0BF
:102FE000892B09F020E0822F0E947D0FEEC1E6E8D8
:102FF000EE1609F4F0C1EE1508F44DC0F2E8EF1634
:1030000009F492C1FE15F0F020E8E21609F4E0C4DC
:1030100031E8E31253CF1092370410923604109225
:1030200085041092A7040E948E0982E992E0909391
:10303000AF028093AE0283E992E09093AD02809359
:10304000AC023CCF44E8E41609F4C2C14E1508F0C6
:103050008CC1198210E000E0F1E0F0938404298132
:103060002093A604109285041092A70481E00E9488
:10307000CD09811107C0F801E55DFC4F398130832E
:103080000F5F1F4F49814F5F49834F3729F7802FCB
:103090000E9480109AC15AE8E51609F43AC45E15F8
:1030A00050F1F090C10288E8E81609F4C9C18E1504
:1030B00008F0B5C182E00E949D0F1C0181E00E94D2
:1030C0009D0F8C01EF2DF0E0E55DFC4F8481210127
:1030D000032C000C6608770890910101981302C236
:1030E000E3EBF0E024912D8327FF32C2C301B2014C
:1030F0000E94DA05E3CE9EEFE91609F455C49E1549
:1031000008F45BC4ADE8EA12D9CE0091C30210E026
:10311000F801E15DFC4FA080B12CE091C202F0E02B
:10312000E55DFC4F2481298380E00E949D0F6C01A6
:10313000005D1C4F7801C701801B910B8A159B0510
:103140000CF00AC4D70112966C91129711968C91CB
:103150001197762F682F84E0759567958A95E1F72A
:103160008C910E948504B3E0EB0EF11CE4CFF1ECEE
:10317000CF2EF2E0DF2E50E040E090E080E0F90159
:10318000E40FF51FE491EE2309F47BCED6018D9375
:103190006D01EC34E1F098F4E434D9F0E634B9F0A0
:1031A000E23409F40196FC0134966E177F0708F4A7
:1031B0000CC14F5F5F4F4031510509F762CEE236D7
:1031C000B1F0E33741F0E33571F70296ECCF0496A6
:1031D000EACF0896E8CFFC01E15DFC4FDF010D90DE
:1031E0000020E9F78E1B9F0B8A0F9B1FDCCFFC0191
:1031F000E55DFC4FE48101968E0F911DD4CF81E0F7
:103200000E949D0FE091C102F0E0E55DFC4F6481FA
:103210000E943C0E53CE81E00E949D0F898380E086
:103220000E949D0F4981682F80E00E94520F46CE78
:1032300081E00E949D0F898380E00E949D0F49815B
:10324000682F82E0F2CF81E00E949D0F898380E0A9
:103250000E949D0F4981682F81E0E7CF81E00E94A5
:103260009D0F898380E00E949D0F4981682F83E034
:10327000DCCFE091C202F0E0E55DFC4FA091C1021D
:10328000B0E0A55DBC4F14968C916481880F0E94BC
:10329000D9100E946A0F99C0E091C202F0E0E55D8A
:1032A000FC4FA091C102B0E0A55DBC4F14968C917B
:1032B000880F64818F5FEBCFE091C102F0E0E55DA4
:1032C000FC4F84810E94AC0CF9CD80E00E949D0FE0
:1032D0000E94870CF3CD0E948A112FEF20932B03BD
:1032E00025E520932C0325E020932D0324E0209353
:1032F0002E0360932F0370933003809331039093D8
:10330000320348E050E06BE273E052C361E08DE0CD
:103310000E944904E091C102F0E0E55DFC4F648148
:103320008DE00E941704CACDE091C102F0E0E55D96
:10333000FC4F8481B1E0B09384048093A604109282
:1033400085041092A7046091C20270E0FB01E15D68
:10335000FC4F408150E0605D7C4F85E495E00E9429
:10336000280C81E00E94CD093FCEE091C102F0E03F
:10337000E55DFC4F8481E1E0E09384048093A60442
:10338000109285041092A7046091C20270E0FB01C4
:10339000E15DFC4F408150E0605D7C4F85E495E04D
:1033A0000E94280C80E00E94CD09E091C302F0E069
:1033B000E55DFC4F648170E0E091C102F0E0E55D05
:1033C000FC4F848190E00E94A41010922A030BCD40
:1033D000E091C202ECCFC090C1028C2D90E0FC01C4
:1033E000E15DFC4FE080F12CDC01A05DBC4F6D0184
:1033F0008D01C8018C199D098E159F050CF05ECDBD
:1034000061E0F80180810E944904D80111966C9115
:1034100011978C910E9417040E5F1F4FEACFEF2D7A
:10342000F0E0E55DFC4F60E084810E944904E0919A
:10343000C102F0E0E55DFC4F84810E94EE03D4CD33
:1034400081E00E949D0F8C01EF2DF0E0E55DFC4FC7
:10345000B481B98360E08B2F0E94490401151105E6
:1034600011F401E010E089818E50E981EE3008F01E
:103470008983F981F770EF2FE06460E070E0CB01A1
:1034800030E020E0E0937C0040917A00406440937B
:103490007A0040917A0046FDFCCF5091780040912F
:1034A0007900D42EC52E0D2C000CEE08FF086C0DF3
:1034B0007D1D8E1D9F1D2F5F3F4F2017310711F778
:1034C00050E040E00E943825A1E7B2E00E94862546
:1034D000DC01CB01E7E0B695A79597958795EA952E
:1034E000D1F7D7CE9F3F09F001CE80930101E3EBE6
:1034F000F0E034913D833F3F09F4F8CD313009F4D9
:10350000F2C050F0323009F410C15D8157FDEECDAC
:1035100061E00E94490422C014BC15BC94B59260BD
:1035200094BD95B5916095BD282F30E0F901EE5618
:10353000FC4FE491F0E0EE0FFF1FE857FC4F459180
:103540005491F901EC58FC4FE491E093B4021D82D0
:1035500061E00E9449044D814423A9F0B12CA12CC3
:1035600060E072E18AE790E0A50198010E945A2587
:1035700069017A0181E0C81AD108E108F1089D814A
:10358000923009F06FC14801B12CA12C60E072E1CA
:103590008AE790E0A50198010E945A2529833A8381
:1035A0004B835C8369017A01A1E0CA1AD108E10862
:1035B000F108BFEFCB16D104E104F10409F00CF4DB
:1035C00026C160E472E48FE090E0A50198010E94BA
:1035D0005A2569017A01E1E0CE1AD108E108F10823
:1035E000FD81F23009F0C7C082E02FEFC216D1048E
:1035F000E104F10409F00CF46FC060E970ED83E0C0
:1036000090E0A50198010E945A2569017A0181E0A4
:10361000C81AD108E108F10883E09FEFC916D10468
:10362000E104F10409F00CF457C068E478EE81E09D
:1036300090E0A50198010E945A2569017A01A1E054
:10364000CA1AD108E108F10884E0BFEFCB16D10413
:10365000E104F10409F00CF43FC064E274EF80E08F
:1036600090E0A50194010E945A2569017A01F1E0D8
:10367000CF1AD108E108F10885E0BFEFCB16D104DD
:10368000E104F10449F140F162E17AE780E090E081
:10369000A50194010E945A2569017A01E1E0CE1A40
:1036A000D108E108F10886E0FFEFCF16D104E1046C
:1036B000F10491F088F0C980DA80EB80FC809AE018
:1036C000F594E794D794C7949A95D1F781E0C81AF6
:1036D000D108E108F10887E09091B100987F892B2B
:1036E0008093B1009CC01092800010928100909154
:1036F00081009860909381009091810091609093F7
:103700008100282F30E0F901EE56FC4FE491F0E003
:10371000EE0FFF1FE857FC4F45915491F901EC580B
:10372000FC4FE491E093B30213CF1092B0001092DB
:10373000B1009091B00092609093B0009091B10070
:1037400091609093B100282F30E0F901EE56FC4FC4
:10375000E491F0E0EE0FFF1FE857FC4F45915491C4
:103760005093B2024093B102F901EC58FC4FE4913E
:10377000E093B002EDCEAFEFCA16D104E104F1043C
:1037800009F00CF46DC068E478EE81E090E0A501EA
:1037900098010E945A2569017A01B1E0CB1AD1083B
:1037A000E108F108ED8184E0E11167CF83E0AFEF3C
:1037B000CA16D104E104F10471F16CF162E17AE717
:1037C00080E090E0A50194010E945A2569017A01E8
:1037D00081E0C81AD108E108F10884E09FEFC9161A
:1037E000D104E104F104B9F0B0F0C980DA80EB80D3
:1037F000FC808AE0F594E794D794C7948A95D1F732
:1038000091E0C91AD108E108F10885E004C081E01F
:103810002D81211161CF95B5987F892B85BD2FEF23
:103820003FEFA901411451046104710409F042C041
:10383000BD81B13009F44BC0B23009F45AC0B111A6
:1038400055CCC7BC2093BD023093BE024093BF024B
:103850005093C00280916E00826080936E0046CCCF
:1038600082E0D6CF91E0C114D10431E0E306F10447
:1038700084F068E478EE81E090E0A50198010E9470
:103880005A2569017A0181E0C81AD108E108F108D6
:1038900093E0AD81A13019F680918100887F892B5A
:1038A000809381002FEF3FEFA9014114510461047F
:1038B000710469F09801220F331FD1010E947F2506
:1038C00028EE33E040E050E00E943825B1CFD0929E
:1038D0008900C09288002093B9023093BA024093C5
:1038E000BB025093BC0280916F00826080936F0096
:1038F000FDCBC092B3002093B5023093B602409343
:10390000B7025093B802809170008260809370007B
:10391000EDCB0091C10210E0F801E15DFC4FE080C9
:10392000F12C005D1C4F6801C601801B910B8E15A8
:103930009F050CF0C3CAF60162818181762F682F42
:1039400094E0759567959A95E1F780810E948504CA
:10395000F3E0CF0ED11CE8CFC114D10409F4AECAF4
:10396000B601DD0C880B990B0E94DA05E98190E025
:1039700080E0E13011F483E391E06C01F4E0D6944F
:10398000C794FA95E1F77801C701801B910B8A155E
:103990009B050CF093CAB601D7018C910E94850457
:1039A000B3E0EB0EF11CF0CF49E150E06EE272E0C3
:1039B00088EA94E00E94940208CD88E198E00FB66E
:1039C000F894A895809360000FBE90936000FFCF9D
:1039D0008FEF80932B0385E580932C0386E0809303
:1039E0002D03E0922E030E94C907809175058093F4
:1039F0002F0390917105809172059093300380930D
:103A000031039091730580917405909332038093F4
:103A1000330349E050E077CC80912903811109C23A
:103A200080912803882309F496C00E94A90F892B4E
:103A3000B9F085E00E94890D60E088EC90E00E947A
:103A40003C0E1092280380E090E0892B09F4CBC94A
:103A50000E94FE02882309F4C6C90E940000C3C95F
:103A600080911D03811108C085E00E94890D84EFBB
:103A700091E00E94870CE5CF0E94C907E09175058F
:103A8000E98380912703E817F1F2E0932703EC30F4
:103A900011F1B8F4E83059F180912603882399F2A6
:103AA0002981253109F44AC038F52730D1F1880F32
:103AB00060E08150293039F60E94D9104E97CCF140
:103AC00029C0F981F83171F0FE3531F781E00E94AB
:103AD0005D0D82E004C080E00E945D0D81E0809376
:103AE0002603DACF83E00E945D0D83E0F8CF82E009
:103AF0000E945D0D84E0F3CF3981393171F03034AB
:103B000009F0A1CF815861E0880F0E94D910833E4F
:103B10009F4F7CF488EE93E00EC0815860E0880FE0
:103B2000CBCF880F61E081500E94D910833E9F4F18
:103B30008CF382E390E00E94870C85CF815863E08C
:103B4000880F0E94D91080912603880F63E081506E
:103B50000E94D910DFCF0E94A90F892BA1F081E02C
:103B60000E94890D198240E060E089810E94520F15
:103B700089818F5F89838430B1F781E08093280346
:103B80001092260360CF0E94C90790917505998312
:103B9000903621F1953631F180912703E9818E1716
:103BA00009F4CEC0E0932703E23509F48CC008F095
:103BB00063C0E93109F4E5C1C0F5EC3009F4E6C1B0
:103BC000E0F4E83009F4A7C0E93009F4D5C1E730E2
:103BD000E1F486E00E94890D66E0C9C1A0917605F6
:103BE000A983DACFB0917605B05FB98364E170E064
:103BF00080E090E00E94DA05CFCFF981F53109F439
:103C00009FC040F4FD3009F49BC085E00E94890DFF
:103C100060E0ADC12981263109F491C12831A9F7AD
:103C200086E00E94890D68E0A2C13981343409F42C
:103C300056C0A8F4303409F496C138F43C3129F761
:103C400086E00E94890D6BE092C14981423479F18E
:103C50004334D9F682E00E94890D62E088C159811F
:103C6000573409F469C008F46BC05A3471F686E021
:103C70000E94890D6FE07BC18981833709F47CC183
:103C800098F58336A1F3C0F48E3509F450C040F4A2
:103C90008A3509F0BACF86E00E94890D6CE067C1D1
:103CA0009981913609F4BCCF923609F0AECF86E007
:103CB0000E94890D6DE05BC1A981A03759F240F4E3
:103CC000A43609F0A2CF86E00E94890D6EE04FC1B4
:103CD000B981B13709F447C1B23709F096CF82E014
:103CE0000E94890D63E043C1E981E03809F44EC1C7
:103CF00058F4E537A1F308F46CCFE63709F441C175
:103D0000E73709F4A7CF81CFF981F33821F240F4E6
:103D1000F13809F07ACF86E00E94890D6AE027C168
:103D20002981243809F48CCF263809F06ECF86E03B
:103D30000E94890D69E01BC188EB9BE00E94870C03
:103D4000609177056A3068F12091730530917405B0
:103D500040917105509172055A83498370E088EA59
:103D600091E60E94242570930B0160930A0188E07C
:103D7000EAEEF1E0A3EDB2E001900D928A95E1F751
:103D800049815A81452B69F02115310551F0809107
:103D9000D102843009F42AC108F0FDC0813009F451
:103DA0002CC18091220390912303A0912403B09110
:103DB000250320911E0330911F03821B930B843631
:103DC0009105B8F18091220390912303A0912403DF
:103DD000B091250380931E0390931F03A0932003AB
:103DE000B09321030E948A116B017C0120E030E036
:103DF00040E051E40E94532387FF1BC020E030E0E5
:103E000040E251E4C701B6010E94B7240E94CA23D0
:103E1000CB010E94870C80912703813711F08034F9
:103E200041F485E00E94890D60E088EC90E00E94FA
:103E30003C0E80911D03882309F405CE4091220396
:103E4000509123036091240370912503009119037D
:103E500010911A0320911B0330911C03401B510B3E
:103E6000620B730B6A017B01E894F7F8833009F465
:103E700054C308F011C1813009F421C3823009F420
:103E800036C3409022035090230360902403709027
:103E9000250367E0A62E63E0B62E77EEC72E72E00C
:103EA000D72E1A821982D5012D913D915D012115E0
:103EB0003105A9F1F60180819181B201681B790B6E
:103EC0002617370760F1E981FA81E152FD4F008141
:103ED000E981FA81EE5FFE4FE0800E2C000CFF08B6
:103EE000002E000C110BE01AF10A072E000C880BB3
:103EF000990B982F872F762F662750E040E00E947D
:103F00005A25D7010E949125672F782F892F99274D
:103F100087FD9A95600F711F89810E94C20E2981C9
:103F20003A812F5F3F4F3A83298334E0C30ED11C7F
:103F300049815A814830510509F0B5CF84CD82E3DB
:103F400090E00E94870C85E00E94AC0C85E00E9406
:103F5000AC0C85E00E94AC0C85E00E94AC0C85E0C6
:103F60000E94AC0CEDCE83E00E94890D61E088ECEC
:103F700090E00E943C0EE4CE86E00E94890D65E050
:103F8000F6CF81E00E94890D64E0F1CF86E00E94C7
:103F9000890D67E0ECCF853009F468C0863009F000
:103FA00000CFB901330F880B990B59E0660F771FCB
:103FB000881F991F5A95D1F7A981BA819D01BB0F1E
:103FC000440B550B0E945A252130B1E03B070CF001
:103FD00051C02115EFEF3E070CF45BC037FF4CC01A
:103FE00033953093D4022093D30229C049815A815A
:103FF0005195419551095A83498349815A81BA01A2
:10400000550F880B990BE9E0660F771F881F991FE2
:10401000EA95D1F7032E000C440B550B0E945A254C
:10402000213051E0350784F421158FEF3807DCF09B
:1040300037FF0CC033953093DA022093D9023093C6
:10404000D6022093D502ADCE20E031E080E091E0B1
:10405000821B930B9093D8028093D7029093D40243
:104060008093D3029ECE20E03FEFE4CF319521959F
:10407000310997CF20E031E080E091E0821B930B83
:104080009093D8028093D7029093DA028093D9025A
:1040900088CE20E03FEFA4CF853009F462C208F457
:1040A0004FC2863009F0EDCEDA82C98200910A0152
:1040B00010910B010E5C1F4F000F111F000F111FFD
:1040C0008091DE02882309F4B8C0960181E0203592
:1040D000310528F082E0283C310508F083E090911A
:1040E000DD029817B9F08093DD02823059F18330F8
:1040F00009F453C0813071F440E550E067EE7FEF82
:1041000084E00E94E20D40E550E067EE7FEF82E040
:104110000E94E20D29813A812831314008F4B1CE64
:104120001092DE020E940D066093190370931A0329
:1041300080931B0390931C031092D2021A8219825F
:1041400081E086C0E090DB02F090DC02D70115969A
:104150008C9187FD8F5F8595F7016181062E000C9C
:10416000770B680F711D87FD7A9548E750E085E071
:104170000E94E20DD70116968C9187FD8F5F859581
:10418000F7016281062E000C770B680F711D87FD09
:104190007A9548E750E083E0BBCF40E550E06BEF15
:1041A0007FEF84E00E94E20D40E550E06BEF7FEF8F
:1041B00082E00E94E20D7801F694E794F0E5EF0EBC
:1041C000F11CC090DB02D090DC02D60115964C9118
:1041D0002091D5023091D6024203B001439F700D69
:1041E000112477FF02C061507F4F672F770F770B45
:1041F000F6018181680F711D87FD7A95A70185E021
:104200000E94E20DD60116964C912091D702309172
:10421000D8024203B001439F700D112477FF02C002
:1042200061507F4F672F770F770BF6018281680F00
:10423000711D87FD7A95A701AECF89819A8180355E
:10424000910508F47DCF883C910508F067C082E0B5
:104250009091D2029817C1F08093D202823009F473
:104260005FC0833009F473C0813071F440E550E0E1
:1042700067EE7FEF80E00E94E20D40E550E067EEE0
:104280007FEF86E00E94E20D9801369527954981DF
:104290005A81240F351FC901B0E0A0E0A80170E0E9
:1042A00060E02017310720F0841B950BA60BB70B9D
:1042B0008035910508F499C0883C910508F097C0B5
:1042C00082E09091DD029817C1F08093DD02823088
:1042D00009F48FC0833009F4A4C0813071F440E543
:1042E00050E067EE7FEF84E00E94E20D40E550E091
:1042F00067EE7FEF82E00E94E20D29813A8120176C
:10430000310708F4BECD0E940D0660931903709327
:104310001A0380931B0390931C03B3CD83E098CFC3
:10432000E090DB02F090DC02D7016C91062E000CCD
:10433000770B48E750E081E00E94E20DF7016381CE
:10434000062E000C770B48E750E087E09BCF40E556
:1043500050E06BEF7FEF80E00E94E20D40E550E01F
:104360006BEF7FEF86E00E94E20D6801F8ECCF1A58
:10437000D108E090DB02F090DC02D70114964C915A
:104380002091D3023091D4024203B001439F700DBB
:10439000112477FF02C061507F4F672F770F770B93
:1043A000F7018081680F711D87FD7A95A60181E074
:1043B0000E94E20DD70117964C912091D9023091BD
:1043C000DA024203B001439F700D112477FF02C04F
:1043D00061507F4F672F770F770BF7018381680F4D
:1043E000711D87FD7A95A601B0CF81E06ACF83E089
:1043F00068CFE090DB02F090DC02D70111966C915F
:10440000062E000C770B48E750E085E00E94E20D95
:10441000F7016281062E000C770B48E750E083E03D
:104420006ACF40E550E06BEF7FEF84E00E94E20D41
:1044300040E550E06BEF7FEF82E00E94E20D680103
:10444000F8ECCF1AD108E090DB02F090DC02D70143
:1044500015964C912091D5023091D6024203B001BD
:10446000439F700D112477FF02C061507F4F672F6B
:10447000770F770BF7018181680F711D87FD7A95A2
:10448000A60185E00E94E20DD70116964C9120917D
:10449000D7023091D8024203B001439F700D11241E
:1044A00077FF02C061507F4F672F770F770BF701BF
:1044B0008281680F711D87FD7A95A601B0CF50FFEC
:1044C00014C061E08DE00E94170430E2C3163FEB98
:1044D000D30632E0E306F1040CF4D3CC0E94D00DF5
:1044E00060E08DE00E941704AECA60E0EBCF6091FF
:1044F0000A0170910B01CB01B0E0A0E0C816D9060B
:10450000EA06FB060CF4BDCC8091170390911803CA
:1045100043E008960E94100EB4CC60910A0170919D
:104520000B01CB01B0E0A0E0C816D906EA06FB06F5
:104530000CF4A7CC42E08091170390911803EACFC6
:1045400060910A0170910B01CB01B0E0A0E0C816A8
:10455000D906EA06FB060CF494CC45E082EF91E024
:10456000D9CF80910A0190910B01B0E0A0E0C8166C
:10457000D906EA06FB060CF484CC0E94D00D63CA6F
:1045800080915A0590915B050E94582680915705AD
:104590009091580597FD03C060E00C94490408957C
:1045A000F999FECF92BD81BDF89A992780B50895FB
:1045B000262FF999FECF1FBA92BD81BD20BD0FB63F
:1045C000F894FA9AF99A0FBE019608955058BB27AD
:1045D000AA270E94FE220C9478240E946A2438F0B4
:1045E0000E94712420F039F49F3F19F426F40C94B2
:1045F00067240EF4E095E7FB0C946124E92F0E94F8
:10460000892458F3BA17620773078407950720F0C7
:1046100079F4A6F50C94AB240EF4E0950B2EBA2F8A
:10462000A02D0B01B90190010C01CA01A0011124B8
:10463000FF27591B99F0593F50F4503E68F11A1664
:10464000F040A22F232F342F4427585FF3CF4695F5
:1046500037952795A795F0405395C9F77EF41F1617
:10466000BA0B620B730B840BBAF09150A1F0FF0FE1
:10467000BB1F661F771F881FC2F70EC0BA0F621FCD
:10468000731F841F48F4879577956795B795F795BD
:104690009E3F08F0B0CF9395880F08F09927EE0F52
:1046A0009795879508950E943D2408F481E0089528
:1046B0000E946C230C9478240E94712458F00E946C
:1046C0006A2440F029F45F3F29F00C9461245111D1
:1046D0000C94AC240C9467240E94892468F39923D9
:1046E000B1F3552391F3951B550BBB27AA276217EE
:1046F0007307840738F09F5F5F4F220F331F441FFB
:10470000AA1FA9F335D00E2E3AF0E0E832D091502E
:104710005040E695001CCAF72BD0FE2F29D0660F1B
:10472000771F881FBB1F261737074807AB07B0E85E
:1047300009F0BB0B802DBF01FF2793585F4F3AF064
:104740009E3F510578F00C9461240C94AC245F3F9B
:10475000E4F3983ED4F3869577956795B795F795EA
:104760009F5FC9F7880F911D9695879597F90895D2
:10477000E1E0660F771F881FBB1F6217730784076E
:10478000BA0720F0621B730B840BBA0BEE1F88F77D
:10479000E09508950E94D1236894B1110C94AC2443
:1047A00008950E94912488F09F5798F0B92F992777
:1047B000B751B0F0E1F0660F771F881F991F1AF00C
:1047C000BA95C9F714C0B13091F00E94AB24B1E0A2
:1047D00008950C94AB24672F782F8827B85F39F0A1
:1047E000B93FCCF3869577956795B395D9F73EF4A5
:1047F00090958095709561957F4F8F4F9F4F08954D
:10480000E89409C097FB3EF490958095709561956A
:104810007F4F8F4F9F4F9923A9F0F92F96E9BB2720
:104820009395F695879577956795B795F111F8CF9C
:10483000FAF4BB0F11F460FF1BC06F5F7F4F8F4F07
:104840009F4F16C0882311F096E911C0772321F0FD
:104850009EE8872F762F05C0662371F096E8862F95
:1048600070E060E02AF09A95660F771F881FDAF7EC
:10487000880F9695879597F90895990F0008550F19
:10488000AA0BE0E8FEEF16161706E807F907C0F0D6
:1048900012161306E407F50798F0621B730B840BDE
:1048A000950B39F40A2661F0232B242B252B21F4B8
:1048B00008950A2609F4A140A6958FEF811D811D58
:1048C000089597F99F6780E870E060E008959FEF92
:1048D00080EC089500240A94161617061806090697
:1048E000089500240A941216130614060506089566
:1048F000092E0394000C11F4882352F0BB0F40F4EE
:10490000BF2B11F460FF04C06F5F7F4F8F4F9F4F2D
:10491000089557FD9058440F551F59F05F3F71F0AF
:104920004795880F97FB991F61F09F3F79F0879516
:104930000895121613061406551FF2CF4695F1DF9F
:1049400008C0161617061806991FF1CF869571052F
:10495000610508940895E894BB2766277727CB0163
:1049600097F908950E943D2408F48FEF08950E945E
:10497000CA240C9478240E946A2438F00E9471247E
:1049800020F0952311F00C9461240C9467241124D9
:104990000C94AC240E94892470F3959FC1F3950F69
:1049A00050E0551F629FF001729FBB27F00DB11DB3
:1049B000639FAA27F00DB11DAA1F649F6627B00D43
:1049C000A11D661F829F2227B00DA11D621F739F2C
:1049D000B00DA11D621F839FA00D611D221F749F3A
:1049E0003327A00D611D231F849F600D211D822F81
:1049F000762F6A2F11249F5750409AF0F1F08823A8
:104A00004AF0EE0FFF1FBB1F661F771F881F9150D4
:104A10005040A9F79E3F510580F00C9461240C94FE
:104A2000AC245F3FE4F3983ED4F386957795679581
:104A3000B795F795E7959F5FC1F7FE2B880F911DFE
:104A40009695879597F9089597FB072E16F400948D
:104A500007D077FD09D00E94992507FC05D03EF4C8
:104A6000909581959F4F0895709561957F4F08951A
:104A7000A1E21A2EAA1BBB1BFD010DC0AA1FBB1F62
:104A8000EE1FFF1FA217B307E407F50720F0A21BD4
:104A9000B30BE40BF50B661F771F881F991F1A9441
:104AA00069F760957095809590959B01AC01BD016B
:104AB000CF010895052E97FB1EF400940E947125E6
:104AC00057FD07D00E94382507FC03D04EF40C9404
:104AD000712550954095309521953F4F4F4F5F4F31
:104AE000089590958095709561957F4F8F4F9F4F5A
:104AF0000895EE0FFF1F0590F491E02D09940E9498
:104B0000AD25B7FF0895821B930B08950E94AD2534
:104B1000A59F900DB49F900DA49F800D911D112411
:104B20000895B7FF0C9486250E948625821B930B5F
:104B30000895AA1BBB1B51E107C0AA1FBB1FA617E4
:104B4000B70710F0A61BB70B881F991F5A95A9F736
:104B500080959095BC01CD010895A29FB001B39FAF
:104B6000C001A39F700D811D1124911DB29F700D76
:104B7000811D1124911D08950F931F93CF93DF93EF
:104B80008230910510F482E090E0E0917B05F09195
:104B90007C0530E020E0B0E0A0E0309799F42115EA
:104BA000310509F44AC0281B390B24303105D8F5EA
:104BB0008A819B816115710589F1FB019383828351
:104BC000FE0111C0408151810281138148175907AC
:104BD000E0F04817590799F4109761F012960C937A
:104BE000129713961C933296CF01DF91CF911F91AC
:104BF0000F91089500937B0510937C05F4CF211548
:104C0000310551F04217530738F0A901DB019A0131
:104C1000BD01DF01F801C1CFEF01F9CF90937C0511
:104C200080937B05CDCFFE01E20FF31F819391931B
:104C30002250310939832883D7CF209179053091CB
:104C40007A05232B41F420911601309117013093FE
:104C50007A052093790520911401309115012115D1
:104C6000310541F42DB73EB740911801509119011B
:104C7000241B350BE0917905F0917A05E217F307D3
:104C8000A0F42E1B3F0B2817390778F0AC014E5FBC
:104C90005F4F2417350748F04E0F5F1F50937A057A
:104CA00040937905819391939FCFF0E0E0E09CCF12
:104CB000CF93DF930097E9F0FC01329713821282C1
:104CC000A0917B05B0917C05ED0130E020E01097CC
:104CD000A1F420813181820F931F209179053091B9
:104CE0007A052817390709F061C0F0937A05E09337
:104CF0007905DF91CF910895EA01CE17DF07E8F536
:104D00004A815B819E0141155105B1F7E901FB83A1
:104D1000EA8349915991C40FD51FEC17FD0761F43F
:104D2000808191810296840F951FE9019983888380
:104D3000828193819B838A83F0E0E0E012968D91DB
:104D40009C9113970097B9F52D913C911197CD0146
:104D50000296820F931F2091790530917A052817CA
:104D6000390739F6309751F510927C0510927B0582
:104D7000B0937A05A0937905BCCFD383C2834081D9
:104D80005181840F951FC817D90761F44E5F5F4F9B
:104D900088819981480F591F518340838A819B8163
:104DA000938382832115310509F0B0CFF0937C0500
:104DB000E0937B059ECFFD01DC01C0CF1382128200
:104DC000D7CF6817790768F4FB01DC01E40FF51F02
:104DD000A40FB51F02C002900E9241505040D8F768
:104DE00008950C94F326FB01DC0102C001900D92A2
:104DF00041505040D8F7089511E0C4EDD1E004C00F
:104E0000FE010E9479252196C53DD107C9F7F89486
:024E1000FFCFD2
:104E120001FFFFFFFFFFFFFFFFFFC80004005F0964
:104E22005F096E0000007D05800001000504030299
:104E3200070608090A0B4F5A4D5E5E5E5E5E01FF71
:104E420001FFFF01FF01DDC9DDA6DDC9DDA6643C6E
:104E5200642D643C642D7F7F000000007F7FFB7F18
:104E6200FB7FFB7FFB7F3C7F3C7F3C7F3C7F3C7F2B
:104E72003C7FFB7FFB7FFB7FFB7F3C7F3C7FFB7F9D
:104E8200FB7FFB7FFB7FFB7F3C7FFB7F3C7F3C7F8D
:104E92003C7FFB7FFB7FFB7FFB7F3C7F3C7F3C7F3C
:104EA200FB7F3C7FFB7FFB7F3C7FFB7F3C7F3C7F2C
:104EB2003C7F3C7F3C7FE77FE77FE77FE77F000027
:104EC20000000000000019E719E7CE32CE32E719E0
:104ED200E71932CE32CE00D3002DD32D2DD3D300FD
:104EE2002D002DD3D32D37370000C9C9C9C9000001
:104EF200C9C937373737030405060001000100012D
:104F0200000100007F7F7F7F00007370007100004E
:104F12000072750000007600777400000000340310
:104F22009402C102A503F202D002E40200000000D2
:104F3200550C280C840CFE0B210C0E0CFF0B50435D
:104F4200206D6F64653A2051756164437261776CBC
:084F52006572312E360D0A00D4
:00000001FF
