:100000000C94D0010C9493100C946C100C94F80187
:100010000C94F8010C94F8010C94F8010C94480F1E
:100020000C94F8010C94F8010C94F8010C94D9117B
:100030000C94F8010C94F8010C94F8010C94F8015C
:100040000C9422100C94F8010C94F00F0C94CA0F2D
:100050000C94F8010C94F8010C94F8010C94F8013C
:100060000C94BA100C94F801000000002400270042
:100070002A000000000023002600290000000008DC
:10008000000201000003040700000000000000005F
:10009000025043206D6F64653A2052656D6F636F47
:1000A0006E526F626F312E32000102040810204040
:1000B0008001020408102001020408102000000042
:1000C00000250028002B0004040404040404040296
:1000D0000202020202030303030303000000000004
:1000E0000000000000000000000000000000000010
:1000F000000000000000000000000073730000001A
:1001000000000000000000000000000000000000EF
:1001100000000000000000000000000000000000DF
:10012000000000000000000000000042420000004B
:10013000000000000000000000000042620000001B
:1001400000000000000000000000004262420000C9
:10015000000000000000000000000042420000001B
:10016000000000000000000000000000000000008F
:10017000000000000000000000000062000000001D
:10018000000000000000000000000042000000002D
:1001900000000000000000000000004253000000CA
:1001A0000000000000000000000000425353000067
:1001B00000000000000000000000006200000000DD
:1001C000000000000000000000000042620000008B
:1001D0000000000000000000000000534262000028
:1001E000000000000000000000000000000000000F
:1001F00000000000000000000000004200000000BD
:100200000000000000000000000000535300000048
:100210000000000000000000000000425342000007
:10022000000000000000000000000042420000004A
:1002300000000000000000000000000000000000BE
:100240000000000000000000000000425300000019
:10025000000000000000000000000053000000004B
:10026000000000000000000000000053000000003B
:10027000000000000000000000000000000000007E
:10028000000000000000000000000053000000001B
:10029000000000000000000000000000000000005E
:1002A000000000000000000000000000000000004E
:1002B000000000000000000000000000000000003E
:1002C000000000000000000000000000000000002E
:1002D000000000000000000000000000000000001E
:1002E000000000000000000000000000000000000E
:1002F00000000000000000000000000000000000FE
:100300000000000000000000000000424200000069
:100310000000000000000000000000424200000059
:10032000000000000000000000000042000000008B
:10033000000000000000000000000042000000007B
:1003400000000000000000000000000000000000AD
:100350000000000000000000000000424200000019
:10036000000000000000000000000000000000008D
:10037000000000000000000000000000000000007D
:10038000000000000000000000000000000000006D
:100390000000000000000000000000009512121C88
:1003A00011241FBECFEFD8E0DEBFCDBF11E0A0E02B
:1003B000B1E0E2E5FCE302C005900D92A438B1077C
:1003C000D9F724E0A4E8B1E001C01D92A338B20738
:1003D000E1F711E0CFECD1E004C02197FE010E94CB
:1003E000BB1CCE3CD107C9F70E9448130C941C1EBD
:1003F0000C9400008230F8F4E82FF0E0EE0FFF1FBD
:10040000EB5FFE4F2CE137E031832083813041F0F8
:10041000809169008C7F682B60936900E89A089549
:1004200080916900837F660F771F660F771F682BA7
:1004300060936900E99A089508950895AF92BF9274
:10044000CF92DF92EF92FF920F931F93CF93DF93A0
:100450006C017B018B01040F151FEB015E01AE18CF
:10046000BF08C017D10759F06991D601ED91FC91F1
:100470000190F081E02DC6010995892B79F7C5011E
:10048000DF91CF911F910F91FF90EF90DF90CF9070
:10049000BF90AF900895FC01538D448D252F30E01F
:1004A000842F90E0821B930B541710F0CF96089581
:1004B00001970895FC01918D828D981761F0A28DAE
:1004C000AE0FBF2FB11D5D968C91928D9F5F9F7374
:1004D000928F90E008958FEF9FEF0895FC01918D2A
:1004E000828D981731F0828DE80FF11D858D90E097
:1004F00008958FEF9FEF0895FC01918D228D892F34
:1005000090E0805C9F4F821B91098F73992708951B
:1005100087E893E00E947C0221E0892B09F420E027
:10052000822F089580E090E0892B29F00E948802B4
:1005300081110C9400000895FC01A48DA80FB92F1F
:10054000B11DA35ABF4F2C91848D90E001968F73FB
:100550009927848FA689B7892C93A089B1898C911A
:10056000837080648C93938D848D981306C0028869
:10057000F389E02D80818F7D80830895EF92FF9233
:100580000F931F93CF93DF93EC0181E0888F9B8DB6
:100590008C8D98131AC0E889F989808185FF15C070
:1005A0009FB7F894EE89FF896083E889F989808193
:1005B0008370806480839FBF81E090E0DF91CF9162
:1005C0001F910F91FF90EF900895F62E0B8D10E084
:1005D0000F5F1F4F0F731127E02E8C8D8E110CC0F3
:1005E0000FB607FCFACFE889F989808185FFF5CF3E
:1005F000CE010E949C02F1CFEB8DEC0FFD2FF11D7F
:10060000E35AFF4FF0829FB7F8940B8FEA89FB897A
:1006100080818062CFCFCF93DF93EC01888D8823D8
:10062000B9F0AA89BB89E889F9898C9185FD03C055
:10063000808186FD0DC00FB607FCF7CF8C9185FF3A
:10064000F2CF808185FFEDCFCE010E949C02E9CFE1
:10065000DF91CF910895833081F028F4813099F0B3
:100660008230A9F008958730A9F08830C9F084302D
:10067000B1F4809180008F7D03C0809180008F77DE
:1006800080938000089584B58F7784BD089584B5E4
:100690008F7DFBCF8091B0008F778093B00008955D
:1006A0008091B0008F7DF9CFCF93DF93282F30E07A
:1006B000F901E458FF4F8491F901E755FF4FD491B8
:1006C000F901E953FF4FC491CC23A1F081110E949D
:1006D0002B03EC2FF0E0EE0FFF1FEE58FF4FA5911C
:1006E000B491EC91ED2381E090E009F480E0DF919A
:1006F000CF91089580E090E0FACF1F93CF93DF93DE
:10070000282F30E0F901E458FF4F8491F901E755B3
:10071000FF4FD491F901E953FF4FC491CC23A9F0C5
:10072000162F81110E942B03EC2FF0E0EE0FFF1F1C
:10073000E354FF4FA591B4918FB7F894EC91111148
:1007400008C0D095DE23DC938FBFDF91CF911F913E
:100750000895DE2BF8CF682F8DE00C947D03CF93A6
:10076000DF9390E0FC01E755FF4F249189539F4FA1
:10077000FC0184918823D1F090E0880F991FFC013F
:10078000E859FF4FA591B491FC01E354FF4FC59187
:10079000D49161110EC09FB7F8948C91E22FE0952F
:1007A0008E238C932881E223E8839FBFDF91CF9132
:1007B00008958FB7F894EC91E22BEC938FBFF6CFAE
:1007C0004F925F926F927F928F929F92AF92BF9261
:1007D000CF92DF92EF92FF920F931F93CF93DF930D
:1007E00000D000D01F92CDB7DEB78B0129013A01AE
:1007F000909100018917C9F09F3F09F47EC00F90C6
:100800000F900F900F900F90DF91CF911F910F914C
:10081000FF90EF90DF90CF90BF90AF909F908F9020
:100820007F906F905F904F900895E0E9F0E0949191
:100830009D8397FDE4CF61E00E94AF038D81882303
:1008400021F09D81923009F04AC14801B12CA12CC0
:1008500060E072E18AE790E0A50198010E94381CEF
:1008600029833A834B835C8369017A0181E0C81A4A
:10087000D108E108F1089FEFC916D104E104F104A1
:1008800009F00CF401C160E472E48FE090E0A5018E
:1008900098010E94381C69017A0181E0C81AD108C8
:1008A000E108F1089D81923009F0A2C08FEFC816CF
:1008B000D104E104F10409F00CF4E6C160E970ED43
:1008C00083E090E0A50198010E94381C69017A013B
:1008D00091E0C91AD108E108F1088FEFC816D104D8
:1008E000E104F10411F00CF07FC183E09091B100BC
:1008F000987F892B8093B100CFC080930001E0E9FD
:10090000F0E094919D839F3F09F479CF913041F1BC
:1009100050F0923009F446C09D8197FD70CF61E0A0
:100920000E94AF038ECF14BC15BC94B5926094BDE9
:1009300095B5916095BD282F30E0F901E953FF4F3F
:10094000E491F0E0EE0FFF1FE354FF4F4591549107
:10095000F901E755FF4FE491E093FE011D826BCF53
:100960001092800010928100909181009860909385
:10097000810090918100916090938100282F30E058
:10098000F901E953FF4FE491F0E0EE0FFF1FE3544C
:10099000FF4F45915491F901E755FF4FE491E093E2
:1009A000FD0149CF1092B0001092B1009091B000BB
:1009B00092609093B0009091B10091609093B100DB
:1009C000282F30E0F901E953FF4FE491F0E0EE0FFA
:1009D000FF1FE354FF4F45915491509308024093F9
:1009E0000702F901E755FF4FE491E093090223CF95
:1009F0009FEFC916D104E104F10409F00CF46DC0B5
:100A000068E478EE81E090E0A50198010E94381C2E
:100A100069017A0181E0C81AD108E108F1089D81D5
:100A2000992309F4FAC08FEFC816D104E104F10448
:100A300011F00CF0FBC0EFC064E274EF80E090E0D6
:100A4000A50194010E94381C69017A0181E0C81A4D
:100A5000D108E108F10885E09FEFC916D104E1044F
:100A6000F10409F008F442CF62E17AE780E090E017
:100A7000A50194010E94381C69017A0181E0C81A1D
:100A8000D108E108F108E5C081E09D8191112ECFE8
:100A900095B5987F892B85BD2FEF3FEFA9014114B4
:100AA00051046104710409F043C09D81913009F43F
:100AB0005EC0923009F46DC09111A1CEC7BC2093E5
:100AC0000302309304024093050250930602809182
:100AD0006E00826080936E0092CE82E0D6CFB12C01
:100AE000A12C60E072E18AE790E0A50198010E94E4
:100AF000381C69017A0181E0C81AD108E108F108BF
:100B0000C114D10491E0E906F10404F591E08D816E
:100B1000813011F680918100887F892B809381003C
:100B20002FEF3FEFA9014114510461047104F9F062
:100B3000D801AA0FBB1FA30192010E94571C28EEE7
:100B400033E040E050E00E946A1CAFCF68E478EEEA
:100B500081E090E0A50198010E94381C69017A01AA
:100B600081E0C81AD108E108F10893E0D0CFD09213
:100B70008900C09288002093FF01309300024093C7
:100B800001025093020280916F00826080936F0097
:100B900036CEC092B30020930A0230930B024093EA
:100BA0000C0250930D02809170008260809370005F
:100BB00026CE84E09FEFC916D104E104F10409F0C8
:100BC00008F466CFC980DA80EB80FC808AE0F59477
:100BD000E794D794C7948A95D1F781E0C81AD108D1
:100BE000E108F10885E054CF68E478EE81E090E018
:100BF000A50198010E94381C69017A0181E0C81A98
:100C0000D108E108F1089FEFC916D104E104F1040D
:100C100011F00CF011CF84E069CE83E09FEFC9168C
:100C2000D104E104F10409F00CF432CF62E17AE777
:100C300080E090E0A50194010E94381C69017A01CE
:100C400081E0C81AD108E108F1089D81992309F4CF
:100C5000B0CF86E09FEFC916D104E104F10409F09A
:100C600008F444CEC980DA80EB80FC809AE0F594E9
:100C7000E794D794C7949A95D1F781E0C81AD10820
:100C8000E108F10887E032CE82E030CE1F93CF93A7
:100C9000DF93182FEB0161E00E94AF03209739F436
:100CA00060E0812FDF91CF911F910C947D03CF3FA6
:100CB000D10511F461E0F5CFE12FF0E0E458FF4FEA
:100CC000E491E33031F140F4E130B1F0E230E1F0B1
:100CD000C038D1057CF7E4CFE73029F1E83059F18D
:100CE000E430B1F780918000806280938000D093DF
:100CF0008B00C0938A0004C084B5806884BDC7BDE2
:100D0000DF91CF911F91089584B5806284BDC8BDE5
:100D1000F7CF80918000806880938000D093890015
:100D2000C0938800EDCF8091B00080688093B000C0
:100D3000C093B300E5CF8091B00080628093B00093
:100D4000C093B400DDCF8E3008F08E508770806481
:100D500080937C0080917A00806480937A008091F7
:100D60007A0086FDFCCF80917800909179000895FB
:100D70003FB7F8948091F9019091FA01A091FB019D
:100D8000B091FC0126B5A89B05C02F3F19F0019634
:100D9000A11DB11D3FBFBA2FA92F982F8827BC01D5
:100DA000CD01620F711D811D911D42E0660F771FFD
:100DB000881F991F4A95D1F708958F929F92AF92FD
:100DC000BF92CF92DF92EF92FF926B017C010E9463
:100DD000B8064B015C01C114D104E104F104B9F07F
:100DE0000E94B806681979098A099B09683E734010
:100DF0008105910580F321E0C21AD108E108F108CC
:100E000088EE880E83E0981EA11CB11CE4CFFF90F1
:100E1000EF90DF90CF90BF90AF909F908F9008950C
:100E20002FB7F8946091F5017091F6018091F70168
:100E30009091F8012FBF08950F931F930E94B80659
:100E4000AB01BC0180918C0190918D01A0918E012C
:100E5000B0918F018A019B01081B190B2A0B3B0BD8
:100E6000D901C8010097A140B10520F580918C01FE
:100E700090918D01A0918E01B0918F019A01281B54
:100E8000390BC90140938C0150938D0160938E0101
:100E900070938F01E0910E02E73090F4F0E0ED5A8C
:100EA000F84F0C94BB1C5D078F07060843087507B5
:100EB000B40743088FEF9FEFE5CF84E080930E02E5
:100EC00080910E0262E070E0843010F063E070E028
:100ED00080915704823009F45BC1833009F45AC110
:100EE0008FEF1F910F910C94FA019C0127553A4105
:100EF0002339314110F481E0E1CF8B5693408F3597
:100F0000914008F0BDC010928801109289011092A2
:100F10008A0110928B011092870183E0CFCF10924B
:100F20000E029C012B523D402B3C384060F4109245
:100F300088011092890110928A0110928B011092FF
:100F4000870185E0BBCF855996408736944008F0ED
:100F5000B7CF0E9410076093800370938103809342
:100F6000820390938303ACCF10920E02855A914076
:100F70008B31914008F0A4CF80918701803210F42A
:100F800082E09CCF8091880190918901A0918A0193
:100F9000B0918B01409188015091890160918A0143
:100FA00070918B01892F9A2FAB2FBB278427952710
:100FB000A627B7279927BB278F3F9105AF4FB105CC
:100FC00009F07ECF8091880190918901A0918A01DA
:100FD000B0918B018A2F90E09093850380938403D6
:100FE0000E941007609380037093810380938203B3
:100FF0009093830381E080938603E0915504F09100
:101000005604309709F45CCF09955ACF25E0209318
:101010000E02409188015091890160918A0170917E
:101020008B01769567955795479540938801509326
:10103000890160938A0170938B01209187012F5F52
:10104000209387019C01205F34402D34334090F47D
:101050008091880190918901A0918A01B0918B01C2
:10106000B0688093880190938901A0938A01B0931E
:101070008B0126CF855A91408B31914008F420CFC7
:1010800010920E021DCF9C012F5A31092F3531408D
:1010900048F58091870180FD15C08091880190916D
:1010A0008901A0918A01B0918B01880F991FAA1F15
:1010B000BB1F81608093880190938901A0938A016E
:1010C000B0938B01809187018F5F8093870180911E
:1010D00087018E3120F580910E02863009F41DCFF4
:1010E00086E0ECCE8D5092408F35914048F680914D
:1010F000880190918901A0918A01B0918B01880F9C
:10110000991FAA1FBB1F8093880190938901A09308
:101110008A01B0938B01809187018E5FD6CF809139
:10112000880190918901A0918A01B0918B019C0165
:10113000306890918601832F8295869587709111F2
:1011400004C08370809386019BCF40918601837099
:1011500050E08417150609F093CF30938503209350
:1011600084030E941007609380037093810380932F
:1011700082039093830382E080938603E091550479
:10118000F0915604309709F47BCF81E0099578CF30
:1011900080E0A7CE81E0A5CE8F929F92AF92BF92C2
:1011A000CF92DF92EF92FF920F931F93CF93DF9333
:1011B000F8941091860310928603C0918403D09115
:1011C00085038090800390908103A0908203B0906B
:1011D0008303789481149104A104B10409F413C128
:1011E0003CE2C32EDD24D394E12CF12CD7FD06C0C4
:1011F000C0900901D0900A01F12CE12C0E94100747
:10120000681979098A099B0920917B046C157D0571
:101210008E059F0508F0CBC0211136C0209709F438
:101220003FC112E0D7FF11E0E0915504F091560460
:10123000309711F081E0099510927D0410927C04A2
:10124000D7FF35C18C2F8770805A80937B048C2FF9
:101250008695869586958051990B04E0880F991F95
:101260000A95E1F790937804809377048D2F8F711E
:101270008051990B24E0880F991F2A95E1F79093EC
:101280007A048093790402C01111D6CF00917E04B4
:10129000002309F471C0D7FF6FC08091770490914B
:1012A00078044091790450917A04BC0197FF04C0FE
:1012B00066277727681B790B9A0157FF04C02227FE
:1012C0003327241B350B260F371F283231050CF42A
:1012D00069C0DC0197FD1196B595A795E1E0A417CB
:1012E000B5070CF0E0E0BA0157FF02C06F5F7F4F17
:1012F00075956795861797070CF4EE5FBA0157FF4F
:1013000002C06F5F7F4F7595679571956195710903
:10131000861797070CF4EC5FCC27DD27C41BD50B91
:10132000AC17BD070CF4E85FF0E0EA5CFE4F6081AB
:1013300060937C04633761F028F4613789F1369556
:10134000279507C0643739F16637C9F79E0101C098
:101350009C012F3F310519F010F02FEF30E0209362
:101360007D04023049F480917B04803629F4809119
:101370007C04811180937B04812F90E0DF91CF91D9
:101380001F910F91FF90EF90DF90CF90BF90AF90A3
:101390009F908F90089522273327281B390BD9CF90
:1013A0009A01D7CF10927C0410927D04DACF2223C9
:1013B00019F310927D0410927C0410927A0410921A
:1013C0007904109278041092770410927B041092A2
:1013D0008003109281031092820310928303E091A4
:1013E0005504F0915604309711F080E009950E9461
:1013F000100760937C0370937D0380937E0390932A
:101400007F0311E0B9CF0E941007C0907C03D090F9
:101410007D03E0907E03F0907F03DC01CB018C190B
:101420009D09AE09BF09CD2B79F04091090150917A
:101430000A0170E060E0481759076A077B0720F44B
:10144000109285031092840327E0B695A79597958F
:1014500087952A95D1F70097A105B10509F48CCF9E
:101460008F709927AA27BB270097A105B10551F4D2
:10147000E0915504F091560481E0309709F47CCF57
:1014800009957ACF0197A105B10509F075CFE091D3
:101490005504F0915604309709F46ECF80E0F0CFF8
:1014A000112309F4F3CE10927D0410927C04C093B2
:1014B0007B0410927A0410927904109278041092AE
:1014C0007704E4CE08952091D101260F3327331FEE
:1014D00021323105ECF420915202FC0190E080E0D1
:1014E000243069F082E00895A091D1012191AC01EE
:1014F0004F545E4FA40FB52FB11D2C930196861744
:1015000098F38091D101680F6093D10180E0089534
:1015100081E008951092520281E08093510210926E
:101520002C0261E082E10E947D0361E083E10E9480
:101530007D03E9EBF0E080818E7F808380818D7F69
:10154000808388E48093B80085E48093BC0008958C
:10155000CF93DF9391E09093B0018823B9F0C091CD
:10156000B800D091BA008091BC008A7B8093BC0007
:1015700060E082E10E947D0360E083E10E947D03E0
:101580000E948A0AD093BA00C093B800DF91CF912D
:1015900008958F929F92AF92BF92CF92DF92EF9277
:1015A000FF920F931F93CF93DF93D0917B02D132A1
:1015B00008F0D7C0182FC0917A020E94B8066B01BC
:1015C0007C018091520281116BC082E080935202B3
:1015D000109351028FEF8093500210924F02D093DC
:1015E0004E02AAE5B2E0EEE2F2E080E0D81391C04C
:1015F00010922D0280912D02CC0FC82BC0932D028A
:1016000080912C02813009F088C010922C020E9437
:10161000B8066B017C0180912D028093BB00809104
:10162000540290915502A0915602B0915702892B15
:101630008A2B8B2BA1F00E94B806009154021091C6
:10164000550220915602309157026C197D098E097E
:101650009F09061717072807390708F442C0809129
:10166000BC0083FDD8CF85EC8093BC000E94B806F7
:101670006B017C0180915202823009F450C080914C
:1016800050028F3F09F46FC080915002803209F4FC
:101690006CC080915002803309F469C084E026C098
:1016A0008091540290915502A0915602B091570238
:1016B000892B8A2B8B2B09F484CF0E94B80680904B
:1016C000540290905502A0905602B09057026C19A7
:1016D0007D098E099F0986169706A806B90608F0A7
:1016E00070CF809153020E94A80A85E0109259029F
:1016F00010927B0210925802DF91CF911F910F91AF
:10170000FF90EF90DF90CF90BF90AF909F908F9021
:1017100008959D9191938F5F69CF85EEA5CF8091BC
:10172000540290915502A0915602B0915702892B14
:101730008A2B8B2B09F49ECF0E94B806009154028D
:101740001091550220915602309157026C197D0973
:101750008E099F09061717072807390708F08ACF4F
:10176000C0CF81E0C3CF80E0C1CF82E0BFCF83E0B4
:10177000BDCF0895E091140280911302E81730F470
:10178000F0E0E057FE4F808190E008958FEF9FEFEB
:10179000089590911402809113022FEF3FEF981754
:1017A00048F4E92FF0E0E057FE4F208130E09F5FE2
:1017B00090931402C901089580911302909114022C
:1017C000891B990B0895CF92DF92EF92FF920F93AE
:1017D0001F93CF93DF937C01CB018A0120915802A4
:1017E000222389F0EB016B01C40ED51ECC15DD055B
:1017F00069F06991D701ED91FC910190F081E02DA4
:10180000C7010995F3CF642F0E94630AC801DF91D5
:10181000CF911F910F91FF90EF90DF90CF9008959F
:10182000CF93DF931F92CDB7DEB769832091580223
:101830002223F9F020917B02203258F021E030E0A1
:10184000FC013383228390E080E00F90DF91CF9101
:10185000089580915902E82FF0E0E65AFD4F9981F2
:1018600090838F5F8093590280937B0281E090E0A8
:10187000ECCF61E0CE0101960E94630AF7CF90E0C1
:1018800080E00895E82FF0E0E95EFD4FE081EC5F35
:10189000F0E0E458FD4F918180810895AB012091E3
:1018A0002902213029F4BC0187E893E00C941E0240
:1018B0000895ECE7F2E02FEF208325E5218323E074
:1018C000228322E023838483958366E070E0CF0146
:1018D0000C944E0CECE7F2E09FEF908395E591833A
:1018E00092E0928391E09383848365E070E0CF017E
:1018F0000C944E0CECE7F2E08FEF808385E581835A
:10190000128263E070E0CF010C944E0C0F931F9392
:10191000CF93DF938B018330910511F58091840182
:1019200081110BC081E08093840161E089E00E9415
:10193000AF0361E08AE00E94AF0361E01016110678
:101940000CF060E089E00E947D03612F661F66272E
:10195000661F8AE0DF91CF911F910F910C947D0358
:10196000EC01CC0FDD1F6F3F710509F0A4F461306D
:101970008FEF78079CF077FD13C0C35DDE4F61E009
:1019800089810E947D03B8018881DF91CF911F91E9
:101990000F910C9446060FEF10E0EFCF01E01FEF20
:1019A000C35DDE4F60E089810E947D036627772753
:1019B000601B710BE9CFCF93DF93EC01FB018091AA
:1019C00027029091280297FD29C0809127029091CB
:1019D0002802092E000CAA0BBB0B20E031E040E0EE
:1019E00050E0281B390B4A0B5B0BDB010E94621C89
:1019F000672F782F892F992787FD9A95FB01BF01C3
:101A000090E080E00E94860C662777276C1B7D0B98
:101A100081E090E0DF91CF910C94860C2091270219
:101A200030912802032E000C440B550B3F5F4F4FA3
:101A30005F4FDE010E94621C672F782F892F992744
:101A400087FD9A95EB01DBCF9B01880F991F880FCB
:101A5000991FFC01EF5EFE4F82819381289FB001A8
:101A6000299F700D389F700D112480819181AC01E8
:101A7000249FC001259F900D349F900D11240C943C
:101A8000DB0CCF92DF92EF92FF926B01770FEE08A3
:101A9000FF08009731F0BC01A701960188E00E9481
:101AA000E003C701B601FF90EF90DF90CF900C9458
:101AB000DD066CE271E00C94410D1F93CF93DF9330
:101AC000182FC82FD0E0AE016CE772E081E892E0F9
:101AD0000E94FA1DECE7F2E08FEF808385E58183B9
:101AE00082E0810F828387E083831483BE016B5F72
:101AF0007F4FCF01DF91CF911F910C944E0C4F92ED
:101B00005F926F927F928F929F92AF92BF92CF928D
:101B1000DF92EF92FF920F931F93CF93DF937C019D
:101B20008B01D62F0E94B8064B015C0180915202B6
:101B300081116AC0C02FD13208F0C0E281E08093E9
:101B40005202809351029FEF9093500210924F02E5
:101B50009C0F90934E0280932D0280912D02EE0CEB
:101B6000FF1C8E2980932D0280912C02813009F078
:101B700087C010922C020E94B8066B017C018091F4
:101B80002D028093BB008091540290915502A09148
:101B90005602B0915702892B8A2B8B2BA1F00E9401
:101BA000B8068090540290905502A0905602B090D2
:101BB00057026C197D098E099F0986169706A8069B
:101BC000B90608F442C08091BC0083FDD8CF85ECF3
:101BD0008093BC000E94B8066B017C018091520288
:101BE000813009F44FC080914F028C1710F4C091DE
:101BF0004F02AEE2B2E0E0E9F1E080E08C1751F193
:101C00009D9191938F5FFACF8091540290915502EC
:101C1000A0915602B0915702892B8A2B8B2B09F485
:101C200085CF0E94B80640905402509055026090B3
:101C3000560270905702681979098A099B0946165D
:101C400057066806790608F071CF809153020E940A
:101C5000A80AC0E010921402C0931302C017110624
:101C60009CF1CCE7D2E0C80184589D4F7C01CE1591
:101C7000DF05E1F184E294E00E94C90B8993F7CF7C
:101C800085EEA6CF8091540290915502A091560204
:101C9000B0915702892B8A2B8B2B09F49FCF0E947E
:101CA000B8068090540290905502A0905602B090D1
:101CB00057026C197D098E099F0986169706A8069A
:101CC000B90608F08BCFC1CFDF91CF911F910F9153
:101CD000FF90EF90DF90CF90BF90AF909F908F904C
:101CE0007F906F905F904F900C947A0C802FDF91D3
:101CF000CF911F910F91FF90EF90DF90CF90BF9009
:101D0000AF909F908F907F906F905F904F900C94CA
:101D10005D0DEF92FF920F931F93CF93DF93EC0132
:101D20007B0189859A850E94711D9E858B859817F8
:101D300001F184E090E08E9D80018F9D100D9E9DAD
:101D4000100D11241D830C83C8010E94D51C9A8795
:101D50008987009789F0A80170E060E00E940C1E5E
:101D6000FB82EA82DF91CF911F910F91FF90EF905C
:101D7000089583E090E0DFCF1D821C821B821A82CF
:101D8000F1CF85ED8093BC00809154029091550273
:101D9000A0915602B09157020796A11DB11D23E0F4
:101DA000B695A795979587952A95D1F72091BC0070
:101DB00024FD03C0109252020895409154025091A4
:101DC00055026091560270915702452B462B472BC6
:101DD00069F30097A105B10541F02AE22A95F1F7D0
:101DE00000C00197A109B109E1CF809153020C9481
:101DF000A80AFF920F931F93CF93DF93909328022B
:101E0000809327028091270290912802D0E0C0E0C1
:101E10008038910544F08FE790E0909328028093FA
:101E20002702CFEFDFEF80912702909128028038C0
:101E30009F4F44F480E89FEF9093280280932702FD
:101E4000CFEFDFEF009127021091280290E080E0B1
:101E50000E94221C081729F0602F90E080E00E9469
:101E60002A1CCE01DF91CF911F910F91FF90089511
:101E70002091270230912802820F931F909328020D
:101E80008093270280912702909128020C94F90EEA
:101E90001F920F920FB60F9211242F933F934F93DF
:101EA0005F936F937F938F939F93AF93BF93EF93C2
:101EB000FF9380910A0290910B02A0910C02B091C5
:101EC0000D02892B8A2B8B2BD1F190910902E09185
:101ED0000702F091080280818927808380910A029D
:101EE00090910B02A0910C02B0910D0218161906E8
:101EF0001A061B069CF480910A0290910B02A09195
:101F00000C02B0910D020197A109B10980930A0258
:101F100090930B02A0930C02B0930D02FF91EF91EE
:101F2000BF91AF919F918F917F916F915F914F91F1
:101F30003F912F910F900FBE0F901F901895809199
:101F40000001E0E9F0E0E4919FEF90930001E130BF
:101F500051F030F0E23069F060E00E947D03DECFA6
:101F600010926E00F9CF90916F009D7F90936F005B
:101F7000F3CF909170009D7F9093700091E09093CB
:101F8000B0009091B100987F94609093B10010924E
:101F9000B300E2CF1F920F920FB60F9211242F932E
:101FA0003F934F935F936F937F938F939F93AF93E1
:101FB000BF93EF93FF9387E893E00E949C02FF9109
:101FC000EF91BF91AF919F918F917F916F915F91B1
:101FD0004F913F912F910F900FBE0F901F9018952A
:101FE0001F920F920FB60F9211242F938F939F93EE
:101FF000EF93FF93E0919703F09198038081E09134
:102000009D03F0919E0382FD1BC090818091A003EF
:102010008F5F8F732091A103821741F0E091A0039D
:10202000F0E0E957FC4F958F8093A003FF91EF916B
:102030009F918F912F910F900FBE0F901F90189529
:102040008081F4CF1F920F920FB60F9211242F931D
:102050003F938F939F93AF93BF938091F50190919E
:10206000F601A091F701B091F8013091F40123E05D
:10207000230F2D3758F50196A11DB11D2093F401B2
:102080008093F5019093F601A093F701B093F801C6
:102090008091F9019091FA01A091FB01B091FC01AE
:1020A0000196A11DB11D8093F9019093FA01A093AF
:1020B000FB01B093FC01BF91AF919F918F913F9134
:1020C0002F910F900FBE0F901F90189526E8230FA9
:1020D0000296A11DB11DD2CF1F920F920FB60F9283
:1020E00011242F933F934F935F936F937F938F931D
:1020F0009F93AF93BF93EF93FF93E0910701F0910C
:1021000008010995FF91EF91BF91AF919F918F9138
:102110007F916F915F914F913F912F910F900FBEE3
:102120000F901F9018951F920F920FB60F921124C7
:102130002F933F934F935F936F937F938F939F93CF
:10214000AF93BF93EF93FF93E0910501F0910601E8
:102150000995FF91EF91BF91AF919F918F917F91E1
:102160006F915F914F913F912F910F900FBE0F9004
:102170001F9018951F920F920FB60F9211242F9354
:102180003F934F935F936F937F938F939F93AF93FF
:10219000BF93EF93FF938091B900887F803609F455
:1021A0004AC0F0F5883209F4A7C018F5803109F467
:1021B0009BC0B8F4882309F4F9C0883009F494C0AE
:1021C000FF91EF91BF91AF919F918F917F916F910F
:1021D0005F914F913F912F910F900FBE0F901F90E5
:1021E0001895883109F488C0803251F780935002E5
:1021F00014C0803409F49DC040F48033B9F38833AF
:10220000F9F68093500285ECB0C0803509F485C0A2
:10221000883509F496C0883499F60E94C10ED0CF53
:10222000883909F48CC038F5883729F050F488369D
:1022300011F0803729F683E0809352021092F30167
:1022400057C0883809F47BC0803919F0803809F00C
:10225000B7CF8091F301803208F071C0E091F301B3
:1022600081E08E0F8093F3018091BB00F0E0ED528E
:10227000FE4F80833DC0803B39F0E0F4803A09F4A2
:1022800079C0883A09F09CCF84E080935202109282
:10229000D2011092D101E0911102F0911202099540
:1022A0008091D10181110FC081E08093D101109202
:1022B000B10109C0803C09F4A6CF883C09F4A3CF42
:1022C000883B09F07DCFE091D20181E08E0F8093B1
:1022D000D201F0E0EF54FE4F80818093BB009091DB
:1022E000D2018091D10129C080912D028093BB0041
:1022F00085EC8093BC0064CF90914F0280914E0298
:10230000981758F5E0914F0281E08E0F80934F02AD
:10231000F0E0E25DFD4F8081E9CFE0914F0281E086
:102320008E0F80934F028091BB00F0E0E25DFD4F85
:10233000808390914F0280914E029817C8F285E8F1
:10234000D8CFE0914F0281E08E0F80934F028091B1
:10235000BB00F0E0E25DFD4F80838091510281116E
:102360005CCF81E080932C0284EA8093BC001092C1
:10237000520226CF85EC8093BC00109252028091CD
:10238000F301803230F4E091F301F0E0ED52FE4FC2
:1023900010826091F30170E0E0910F02F091100261
:1023A00083ED91E009951092F3010ACF109250024B
:1023B00034CF1F920F920FB60F9211242F933F9399
:1023C0004F935F936F937F938F939F93AF93BF933D
:1023D000CF93DF93EF93FF9380918501C0915404D5
:1023E000D0E087FF24C01092850010928400809175
:1023F00085018F5F8093850180918501082E000CF7
:10240000990B8C179D0724F4809185018C30C4F1C1
:102410008091840090918500049680349C4908F452
:102420007AC08091840090918500049676C0809156
:102430008501082E000C990B8C179D07C4F6E091BE
:1024400085018E2FEE0F990BFC01EE0FFF1FE80F99
:10245000F91FE05DFB4F808186FFC9CFE0918501C8
:102460008E2FEE0F990BFC01EE0FFF1FE80FF91FE7
:10247000E05DFB4F808160E08F730E947D03B7CFEA
:102480002091840030918500E09185018E2FEE0F20
:10249000990BFC01EE0FFF1FE80FF91FE05DFB4FEA
:1024A00081819281820F931F90938900809388008D
:1024B000E09185018E2FEE0F990BFC01EE0FFF1FAF
:1024C000E80FF91FE05DFB4F808186FF11C0E091AE
:1024D00085018E2FEE0F990BFC01EE0FFF1FE80F09
:1024E000F91FE05DFB4F808161E08F730E947D03E7
:1024F000FF91EF91DF91CF91BF91AF919F918F911C
:102500007F916F915F914F913F912F910F900FBEEF
:102510000F901F90189580E49CE990938900809318
:1025200088008FEF80938501E3CF10928A03109289
:10253000890388EE93E0A0E0B0E080938B03909352
:102540008C03A0938D03B0938E032AE431E0309383
:1025500088032093870325EC30E030939403209385
:10256000930324EC30E0309396032093950320EC02
:1025700030E0309398032093970321EC30E03093C0
:102580009A032093990322EC30E030939C0320932C
:102590009B0326EC30E030939E0320939D03109222
:1025A000A0031092A1031092A2031092A303109211
:1025B0002704109226048093280490932904A09362
:1025C0002A04B0932B048CE591E09093250480932A
:1025D000240410927E0482E0809357048BEA93E0F7
:1025E00090935604809355048EE690E090930A01F0
:1025F00080930901EEE6F4E027E734E04FEF68EB63
:102600007BE0809154048C3008F040C091E0980F3A
:1026100090935404808390E0DC01AA0FBB1FA80FA5
:10262000B91FA05DBB4F12967C936E9311973396A2
:102630002E173F0731F781E0809358041092590418
:1026400010925B0410925A0410925D0410925C0484
:102650002FEF3FEF30935F0420935E0410926004ED
:1026600010926204109261048093630410926404D7
:1026700092E0909365048093660410926704109230
:1026800068041092690410926A0408954083CFCFC1
:10269000CF93DF93CDB7DEB729970FB6F894DEBF9F
:1026A0000FBECDBF789484B5826084BD84B581604F
:1026B00084BD85B5826085BD85B5816085BD80910D
:1026C0006E00816080936E00109281008091810085
:1026D000826080938100809181008160809381007D
:1026E000809180008160809380008091B10084603F
:1026F0008093B1008091B00081608093B0008091A0
:102700007A00846080937A0080917A00826080935E
:102710007A0080917A00816080937A0080917A00BB
:10272000806880937A001092C10014BE0FB6F894AE
:10273000A89580916000886180936000109260008D
:102740000FBEE0919703F091980382E08083E091BF
:102750009303F09194031082E0919503F091960316
:1027600080E1808310929F03E0919B03F0919C0392
:1027700086E08083E0919903F0919A0380818061E3
:102780008083E0919903F0919A038081886080832F
:10279000E0919903F0919A03808180688083E091B1
:1027A0009903F0919A0380818F7D808361E08DE0B1
:1027B0000E94AF0360E08DE00E947D0361E084E051
:1027C0000E94AF0361E087E00E94AF0361E08CE00C
:1027D0000E94AF0361E088E00E94AF0383E084BD04
:1027E00085BD91E0909380009BE090938100809361
:1027F000B00084E08093B10090E080E00E94221C51
:1028000090E0909328028093270280912702909174
:102810002802803891054CF080912702909128027F
:102820009A9590932802809327020091570460E0C4
:10283000802F0E94AF0380E0023021F081E003305E
:1028400009F08FEF62E070E00E94FA0110920E0230
:10285000109285031092840362E370E084EF91E0AC
:102860000E94410D61E08FE00E94AF0360E08FE0C5
:102870000E947D03B1E9EB2EB0E0FB2EF7016491DD
:10288000662349F087E893E00E94BE02FFEFEF1A4B
:10289000FF0A892B99F742E050E061E871E087E890
:1028A00093E00E941E02A8E52A2EA4E03A2E01E041
:1028B00087E893E00E947C02181619060CF09EC669
:1028C0000093290287E893E00E945A0297FD96C67A
:1028D00040912A0250912B029A012F5F3F4F309373
:1028E0002B0220932A0244585D4FDA018C93223048
:1028F000310509F453C078F52130310509F43FC0A2
:10290000609103017091040180912A0290912B0241
:102910008617970708F40BC480917D02843509F06F
:102920004DC010918002173109F4A7C208F00AC106
:10293000173009F45EC208F0D7C0133009F4E5C1BE
:1029400008F0BCC0113009F4C7C1123009F4D2C17B
:102950000E947A0CE8C32330310529F12430310577
:1029600079F620917D02243559F620917E0230E0DF
:102970002C5F3F4F982F8827820F931F1AC0E4E0E7
:10298000F0E0F0930401E09303018F3F910509F417
:10299000CEC310922B0210922A02B2CF8455910915
:1029A0000297B8F7ADCF20917D020396253509F047
:1029B000A7CF9093040180930301A2CF853509F03E
:1029C000B2CF10917F021B31C0F5F0E11F9F900143
:1029D000112425513E4F80E1E7E1F2E011928A9502
:1029E000E9F72115310509F49ECF47E1C42E42E0F5
:1029F000D42E50E040E090E080E0F901E40FF51FB4
:102A0000E491EE2309F48FCFD6018D936D01EC3460
:102A1000E9F1A0F5E434E1F1E634C1F1E23409F47E
:102A20000196FC0134966E177F0708F47CC34F5F54
:102A30005F4F4031510509F776CF8FE7810F8C301A
:102A400060F4812F8158990B9C01E4E0220F331F21
:102A5000EA95E1F7255D3E4FBECF30E020E01B3F19
:102A600008F4B9CFA12FAB5FBB0B9D0154E0220F3F
:102A7000331F5A95E1F725523F4FADCFE236B1F003
:102A8000E33741F0E33569F60296CBCF0496C9CF20
:102A90000896C7CFFC01E058FD4FDF010D900020E4
:102AA000E9F78E1B9F0B8A0F9B1FBBCFFC01E458DD
:102AB000FD4FE48101968E0F911DB3CF153009F4BF
:102AC00093C1F0901702163008F47EC181E00E9495
:102AD000420CBC01EF2DF0E0E458FD4F84818150A1
:102AE000990B0E94860C34CF123109F496C170F410
:102AF000193009F48BC108F482C11A3009F028CFCB
:102B000080E00E94420C0E94F90E22CF143109F499
:102B100044C308F499C1153109F01ACFE0911702A6
:102B2000F0E0E458FD4F848160E0825F0E94AF03D3
:102B3000E0911702F0E0E458FD4F8481825F0E942B
:102B40005403BFC2173809F428C308F05BC0133818
:102B500009F4BAC270F5113809F47DC208F092C2C6
:102B6000103809F0F5CE8FEF80937C0285E58093D5
:102B70007D0286E080937E0210937F020E94CC0843
:102B800080917B04809380029091770480917804F7
:102B900090938102809382029091790480917A04CB
:102BA000909383028093840269E070E08CE792E066
:102BB00017C5153809F4D2C2E0911702163808F487
:102BC000C4C28E2F90E0FC01E058FD4FA080B12CD4
:102BD000FC01EF57FD4F7F016F01C6018E199F0960
:102BE0008A159B050CF0B4CE61E0D6018C910E9451
:102BF000AF03F601618180810E947D03F2E0CF0E78
:102C0000D11CEBCF1B3809F421C358F5E090170213
:102C1000193809F401C308F4D0C28E2D90E0FC01EC
:102C2000E058FD4FA080B12CDC01AF57BD4F7D01B6
:102C30006D01C6018E199F098A159B050CF088CE7F
:102C4000F60162818181762F682F54E07595679532
:102C50005A95E1F780810E944606F3E0CF0ED11C21
:102C6000E8CF1E3F09F4B8C408F0BDC41D3809F010
:102C70006FCEE0901902F12CF701E058FD4FA080D3
:102C8000B12CE0911802F0E0E458FD4F748080E030
:102C90000E94420C4C0197012F573D4F7901690169
:102CA000C6018E199F098A159B050CF06DC4D601CB
:102CB00012966C91129711968C911197762F682F1E
:102CC00094E0759567959A95E1F78C910E94460678
:102CD000B3E0CB0ED11CE4CF61E08DE00E94AF03E6
:102CE000E0911702F0E0E458FD4F64818DE00E940E
:102CF0007D032ECE81E00E94420C7C0180E00E9488
:102D0000420CB7010E94410D23CE81E00E94420C8B
:102D10007C01E0911702F0E0E458FD4F84813EE031
:102D2000B32EB80EE0911902F0E0E458FD4F848113
:102D3000882371F061E08B2D0E94AF0360E08B2D42
:102D40000E947D0361E070E080E090E00E94DD067B
:102D500060E08B2D0E94AF03E114F10419F4EE241E
:102D6000E394F12C84E68E9D60018F9DD00C11249C
:102D7000F12CE12C412C512C3201EC14FD0479F0A2
:102D80008B2D0E94A306092E000CAA0BBB0B480E2C
:102D9000591E6A1E7B1EBFEFEB1AFB0AEECF97018E
:102DA00050E040E0C301B2010E946A1CA1E7B2E01A
:102DB0000E94571CDC01CB0167E0B695A79597955B
:102DC00087956A95D1F726C0E0911802F0E0E458A3
:102DD000FD4F648170E0EF2DF0E0E458FD4F8481F9
:102DE00090E00E94240DB4CD70E060E090E080E0BF
:102DF000F8CF80E00E94420C0E94380FA9CD80E0FD
:102E00000E94420C919581959109F6CF80912702FD
:102E1000909128020E94590C86C1E0911702F0E0BF
:102E2000E458FD4F61E084810E94AF03A091180235
:102E3000B0E0A458BD4FE0911702F0E0E458FD4F18
:102E400014966C91848153CFE0911702F0E0E4581E
:102E5000FD4F848161E0825F0E94AF03E091180220
:102E6000F0E0E458FD4FA0911702B0E0A458BD4F28
:102E700014968C916481825F3ACFE0911702F0E062
:102E8000E458FD4FE480F12C5701AA0CBB1CC5018E
:102E90008E0D9F1DFC01E259FB4F6F018081282F91
:102EA00030E0F901EE0FFF1FE20FF31FE05DFB4F73
:102EB000908196FD5EC0F701ED5CFE4F90808C30F6
:102EC00008F057C061E0892D0E94AF03D6018C91B4
:102ED000282F30E0F901EE0FFF1FE20FF31FE05D36
:102EE000FB4FB92DBF739B2E9081907C992A9082C5
:102EF000F601118212822CE0622F0E949B1C829F9D
:102F0000B001112430E020E0AB01420F531FFA0161
:102F1000EE0FFF1FE40FF51FE05DFB4F908196FD64
:102F200016C02F5F3F4F2C30310571F781110FC054
:102F30001092800082E080938100109285001092B0
:102F40008400B19A80916F00826080936F00F501D8
:102F5000EE0DFF1DE259FB4FE0818E2F90E0FC014A
:102F6000EE0FFF1FE80FF91FE05DFB4F80818064CB
:102F70008083E0911702F0E0E458FD4FC480D12C2B
:102F80004601880C991CF401EC0DFD1DE259FB4F24
:102F9000828198E5A92E92E0B92EA81AB10887FD82
:102FA000B394AA0CBB1CAA0CBB1C818138E8E32E8D
:102FB000F12CE81AF10887FDF394EE0CFF1CEE0CDF
:102FC000FF1C27010F2C000C66087708E0911802FF
:102FD000F0E0E458FD4FA481B0E0A53BB10514F04A
:102FE000A4EBB0E095010B2C000C440B550B2419FD
:102FF0003509460957090E94621C24EB30E040E085
:1030000050E00E94381C420E531E641E751EF401CF
:10301000EC0DFD1DE259FB4F80818C3008F098CCFF
:103020004E145F042CF075014A145B040CF4720119
:10303000F2E0EF1AF108EE0CFF1C2FB7F89490E0C5
:10304000FC01EE0FFF1FE80FF91FE05DFB4FF2825E
:10305000E1822FBF7DCC10921402109213021092C5
:10306000590210927B020E948A0A2CE132E03093CE
:103070001202209311028DE192E09093100280934E
:103080000F0266CCE0911702F0E0E458FD4F848116
:103090000093580280937A021092590210927B0298
:1030A0006091180270E0FB01E058FD4F408150E054
:1030B0006F577D4F84E294E00E94E30B81E00E9411
:1030C000C90A0E946A0C2FC0E0911702F0E0E45890
:1030D000FD4F84810093580280937A021092590226
:1030E00010927B026091180270E0FB01E058FD4FE6
:1030F000408150E06F577D4F84E294E00E94E30BE3
:1031000080E00E94C90AE0911902F0E0E458FD4F06
:10311000648170E0E0911702F0E0E458FD4F848193
:1031200090E00E947F0D10922B0210922A02809153
:103130002A0290912B028F3F910509F008F4B8CB39
:1031400010922B0210922A02B2CBA0911802B0E08A
:10315000A458BD4F14966C9170E0DECFD12CF12CA9
:10316000E12C00935802D0927A02109259021092E8
:103170007B0281E00E94C90A811107C0F701E4586F
:10318000FD4FD082D70111967D01D394BFE7DB12AA
:10319000E8CF8E2D0E945D0DC6CFE0911702F0E0C2
:1031A000E458FD4F60E084810E94AF03E091170274
:1031B000F0E0E458FD4F8481C2CC81E00E94420CD3
:1031C0006C01EE2DF0E0E458FD4F748060E0872D37
:1031D0000E94AF03C114D10419F4CC24C394D12CA0
:1031E000812C912C5401F12CE12C872D0E94A306F7
:1031F000092E000CAA0BBB0B880E991EAA1EBB1E23
:103200002FEFE21AF20AEC14FD0479F7970150E06F
:1032100040E0C501B401C8CD82E00E94420C4C01DF
:1032200081E00E94420C092C000CAA08BB08EE2D7C
:10323000F0E0E458FD4FA5019401BC0184810E9497
:10324000E003C501B4010E94DD0682CB8091180223
:1032500090E09C012F573D4F690180589D4FDC0144
:103260008C9190E063E070E00E94A71C5B0180916C
:10327000150290911602892B09F072C0E091170295
:10328000F0E0E458FD4F948030921602209215022F
:103290009091660480916304009366040093630434
:1032A0001092640422E02093650400935804209156
:1032B000610430916204232B51F0981741F0609122
:1032C0005A0470915B0488E594E00E94890EB50170
:1032D00088E594E00E94890EE92CF12C8091590434
:1032E000882349F080915E0490915F0497FD03C0AC
:1032F00060E00E94AF03F0925F04E0925E04809170
:103300005904882341F061E0892D0E94AF0360E0F9
:10331000892D0E947D03F701E953FF4FE491F0E00E
:10332000EE0FFF1FE354FF4F8591949190936C042F
:1033300080936B04F701E755FF4FE491E0936D0430
:1033400080915E0490915F0497FD08C061E00E9447
:10335000AF0360E080915E040E947D0300935904F6
:10336000E0901502F0901602F60150E040E0A4163D
:10337000B50609F451C0D70112968D919C9113970F
:1033800048175907C8F54F018C189D0822816181A3
:10339000708118963C91332361F0739FC001112412
:1033A000792F369FC0011124692F329F900111247B
:1033B000232FD7011E967C901E9719968D919C9174
:1033C0001A971B963C9173121BC0880D991DD7014B
:1033D0001B963C91DC01A30FB11D7C93D7011C9679
:1033E0003C91DC01A30FB11D6C93D7011D963C915C
:1033F000830F911DDC012C934F5F5F4F3396B7CF46
:103400004A01880C991C880C991C880D991DDC01B7
:10341000A70DB11D1C92DBCFF70181859285892B09
:1034200009F496CA0E94B806D7011F968D909D9008
:10343000AD90BC905297681579058A059B0528F4D4
:10344000F7016787708B818B928BD7011F968D90C8
:103450009D90AD90BC905297681979098A099B0993
:103460006C32714081059105E8F2F894F70184818E
:1034700095819A8389830184F285E02D6F012FEF76
:10348000C21AD20A80818987D7019C915396ED9107
:10349000FC91549755968C91992309F43AC09081E8
:1034A000982B98879081809589238F838F818C8337
:1034B00088E08B8338854F8169855B812C81898188
:1034C0009A81D601308367FD232F5A952083242FBC
:1034D00039F0661F00C000004083000000C0F2CF3A
:1034E00058E06D9140830000019761F7D701549631
:1034F000FC93EE93539769875B832C839A8389832C
:1035000078940E94B806F7016787708B818B928B45
:103510001FCA9081982B98879081809589238F83EB
:103520008F818E8388E08D8338854F8169855D81A9
:103530002E8189819A81D601308367FD232F00C0B7
:1035400000C0208300C000C000C000C000C0408395
:103550000000242F5A9541F0661F000000C000C0F3
:1035600000C000C000C0E8CF58E06D9100C04083AB
:1035700000C0019709F7D7015496FC93EE93539737
:1035800069875D832E83BACF8114910409F4E0C961
:10359000B401990C880B990B0E94DD06E1E090E0E4
:1035A00080E07E1202C083E391E04C0184E09694B7
:1035B00087948A95E1F76701C6018E199F098A15DC
:1035C0009B050CF0C5C9B401D6018C910E9446063A
:1035D000B3E0CB0ED11CF0CF69E170E08AE691E058
:1035E0000E944E0CA0CD88E198E00FB6F894A89503
:1035F000809360000FBE90936000FFCF80912902FE
:10360000811173C00E94CC087C0180917B048534B9
:10361000D1F118F0883408F447C0E114F10409F43A
:1036200064C0E2E0EE16F10479F42091790430915F
:103630007A048091770490917804B901681B790B22
:10364000820F931F0E94DB0C80917B048C3109F464
:10365000CDC008F064C08D3009F4ACC0C0F588302E
:1036600009F4BDC020F5873009F48FC0F2E0EF16F1
:10367000F10431F070E060E090E080E00E94DB0C4B
:1036800070E060E060C08FEF9FEF0E94380F892BE1
:1036900021F6809127029091280266E970E08A5F06
:1036A0009E4F0E94410DB9CF81E090E0EECF89306E
:1036B00009F472C08C30D1F686E091E00E94590D79
:1036C00087E490E090930201809301010EC086315F
:1036D00009F469C0B8F4853149F66091010170912F
:1036E000020190E080E00E94240D80E090E0892BB0
:1036F00009F4DDC80E948802882309F4D8C80E9412
:103700000000D5C8883109F45CC0893109F0AECF1A
:10371000609101017091020183E090E0E4CF8A346E
:1037200009F479C0A8F4823409F467C018F480342D
:10373000A1F29CCF833409F1843409F097CF6091D2
:1037400001017091020182E090E00E94860CCDCFD1
:103750008E35F1F168F4823509F456C08A3509F0E6
:1037600085CF88EB91E00E94590D8AEB90E0AACFBB
:10377000833629F3843609F079CF60910101709185
:103780000201719561957109DECF6091010170911F
:10379000020181E090E0A7CF6091010170910201E8
:1037A00082E090E0A0CF609101017091020184E07D
:1037B00090E099CF609101017091020185E090E065
:1037C00092CF86E291E00E94590D8EE590E07ACF8B
:1037D0008AE491E00E94590D85E790E073CF8DE572
:1037E00091E00E94590D8CE890E06CCF88E891E060
:1037F0000E94590D83EA90E065CF8EEE91E00E9421
:10380000590D81ED90E05ECF8BE092E00E94590D62
:1038100088EE90E057CF8BE492E00E94590D8FEF35
:1038200090E050CF80916104909162040E94711DDC
:1038300080915E0490915F0497FD03C060E00C945A
:10384000AF030895F999FECF92BD81BDF89A9927EB
:1038500080B50895262FF999FECF1FBA92BD81BD7C
:1038600020BD0FB6F894FA9AF99A0FBE0196089502
:10387000052E97FB1EF400940E944F1C57FD07D0A5
:103880000E946A1C07FC03D04EF40C944F1C509508
:103890004095309521953F4F4F4F5F4F089590953C
:1038A0008095709561957F4F8F4F9F4F08950E942F
:1038B0008C1CA59F900DB49F900DA49F800D911D11
:1038C00011240895B7FF0C94571C0E94571C821BAB
:1038D000930B0895A1E21A2EAA1BBB1BFD010DC07C
:1038E000AA1FBB1FEE1FFF1FA217B307E407F507B0
:1038F00020F0A21BB30BE40BF50B661F771F881F8C
:10390000991F1A9469F760957095809590959B0121
:10391000AC01BD01CF010895A29FB001B39FC001CA
:10392000A39F700D811D1124911DB29F700D811DEB
:103930001124911D0895991B79E004C0991F9617D1
:1039400008F0961B881F7A95C9F78095089597FB14
:10395000072E16F4009407D077FD09D00E94C11CF1
:1039600007FC05D03EF4909581959F4F0895709582
:1039700061957F4F0895EE0FFF1F0590F491E02DA4
:103980000994AA1BBB1B51E107C0AA1FBB1FA617A6
:10399000B70710F0A61BB70B881F991F5A95A9F7F8
:1039A00080959095BC01CD0108950F931F93CF93FF
:1039B000DF938230910510F482E090E0E091810481
:1039C000F091820430E020E0B0E0A0E0309799F47C
:1039D0002115310509F44AC0281B390B2430310563
:1039E000D8F58A819B816115710589F1FB0193836B
:1039F0008283FE0111C040815181028113814817E9
:103A00005907E0F04817590799F4109761F012969A
:103A10000C93129713961C933296CF01DF91CF919E
:103A20001F910F9108950093810410938204F4CFA5
:103A30002115310551F04217530738F0A901DB0178
:103A40009A01BD01DF01F801C1CFEF01F9CF9093D9
:103A5000820480938104CDCFFE01E20FF31F819396
:103A600091932250310939832883D7CF20917F0445
:103A700030918004232B41F420910D0130910E01EF
:103A80003093800420937F0420910B0130910C012E
:103A90002115310541F42DB73EB740910F015091EA
:103AA0001001241B350BE0917F04F0918004E21794
:103AB000F307A0F42E1B3F0B2817390778F0AC0151
:103AC0004E5F5F4F2417350748F04E0F5F1F50932E
:103AD000800440937F04819391939FCFF0E0E0E0D6
:103AE0009CCFCF93DF930097E9F0FC0132971382CC
:103AF0001282A0918104B0918204ED0130E020E0B7
:103B00001097A1F420813181820F931F20917F04AF
:103B1000309180042817390709F061C0F0938004C0
:103B2000E0937F04DF91CF910895EA01CE17DF077C
:103B3000E8F54A815B819E0141155105B1F7E90124
:103B4000FB83EA8349915991C40FD51FEC17FD07F8
:103B500061F4808191810296840F951FE901998318
:103B60008883828193819B838A83F0E0E0E01296D0
:103B70008D919C9113970097B9F52D913C911197D8
:103B8000CD010296820F931F20917F043091800413
:103B90002817390739F6309751F5109282041092A0
:103BA0008104B0938004A0937F04BCCFD383C283ED
:103BB00040815181840F951FC817D90761F44E5F6A
:103BC0005F4F88819981480F591F518340838A81B3
:103BD0009B81938382832115310509F0B0CFF09347
:103BE0008204E09381049ECFFD01DC01C0CF1382EB
:103BF0001282D7CF6817790768F4FB01DC01E40F64
:103C0000F51FA40FB51F02C002900E924150504004
:103C1000D8F708950C94131EDC0101C06D93415038
:103C20005040E0F70895FB01DC0102C001900D92C5
:103C300041505040D8F7089511E0CFECD1E004C0D6
:103C4000FE010E94BB1C2196C03DD107C9F7F89424
:023C5000FFCFA4
:103C5200FFFF000400620A620A6E00000083048013
:103C620000010001000000010001000000FFFFFF51
:103C7200FFFFFF01000100FFFF0000000005040636
:103C8200070B0C03090A73700071000000727500C3
:103C920000007600777400000000BE021E024B0294
:103CA2000B037C025A026E0200000000100CE30BB0
:103CB2003F0CB90BDC0BC90BBA0B5043206D6F6480
:103CC200653A2052656D6F636F6E526F626F312E6F
:043CD200320D0A00A5
:00000001FF
