:100000000C9463000C94590D0C94320D0C948B00DD
:100010000C948B000C948B000C948B000C940E0CA5
:100020000C948B000C948B000C948B000C949F0E02
:100030000C948B000C948B000C948B000C948B0014
:100040000C94E80C0C948B000C94B60C0C94900C53
:100050000C948B000C948B000C948B000C948B00F4
:100060000C94800D0C948B000000000024002700ED
:100070002A000000000023002600290000000008DC
:10008000000201000003040700000000000000005F
:10009000010204081020408001020408102001021F
:1000A0000408102000000000250028002B00040494
:1000B0000404040404040202020202020303030310
:1000C000030302005B0F11241FBECFEFD8E0DEBF99
:1000D000CDBF14E0A0E0B1E0E2ECFEE202C005908A
:1000E0000D92A636B107D9F727E0A6E6B4E001C025
:1000F0001D92A234B207E1F710E0C3E6D0E004C0DD
:100100002197FE010E943E17C236D107C9F70E940F
:10011000F90F0C945F170C9400008230F8F4E82F6C
:10012000F0E0EE0FFF1FEB5FFE4F2CE036E0318377
:100130002083813041F0809169008C7F682B60932F
:100140006900E89A089580916900837F660F771FA0
:10015000660F771F682B60936900E99A0895982FBE
:100160002091530581E0213208F043C080912F0592
:100170008111FCCF8091520532E030932F0590938E
:100180002E059FEF90932D0510922C0520932B05A3
:10019000A2E3B5E0EBE0F5E090E0291331C0109266
:1001A0000A0590910A05880F892B80930A05809192
:1001B0000905813049F51092090580910A0580935F
:1001C000BB008091BC0083FDF8CF85EC8093BC0020
:1001D00080912F058230E1F380912D058F3FB1F0A2
:1001E00080912D058032A1F080912D05803391F012
:1001F00084E0109231051092530510923005089555
:100200003D9131939F5FC9CF85EEE0CF80E0F1CF84
:1002100082E0EFCF83E0EDCF08950895AF92BF92D3
:10022000CF92DF92EF92FF920F931F93CF93DF93C2
:100230006C017B018B01040F151FEB015E01AE18F1
:10024000BF08C017D10759F06991D601ED91FC9113
:100250000190F081E02DC6010995892B79F7C50140
:10026000DF91CF911F910F91FF90EF90DF90CF9092
:10027000BF90AF900895FC01538D448D252F30E041
:10028000842F90E0821B930B541710F0CF960895A3
:1002900001970895FC01918D828D981761F0A28DD0
:1002A000AE0FBF2FB11D5D968C91928D9F5F9F7396
:1002B000928F90E008958FEF9FEF0895FC01918D4C
:1002C000828D981731F0828DE80FF11D858D90E0B9
:1002D00008958FEF9FEF0895FC01918D228D892F56
:1002E00090E0805C9F4F821B91098F73992708953E
:1002F0008DE596E00E946C0121E0892B09F420E055
:10030000822F089580E090E0892B29F00E947801E7
:1003100081110C9400000895FC01A48DA80FB92F41
:10032000B11DA35ABF4F2C91848D90E001968F731D
:100330009927848FA689B7892C93A089B1898C913C
:10034000837080648C93938D848D981306C002888B
:10035000F389E02D80818F7D80830895EF92FF9255
:100360000F931F93CF93DF93EC0181E0888F9B8DD8
:100370008C8D98131AC0E889F989808185FF15C092
:100380009FB7F894EE89FF896083E889F9898081B5
:100390008370806480839FBF81E090E0DF91CF9184
:1003A0001F910F91FF90EF900895F62E0B8D10E0A6
:1003B0000F5F1F4F0F731127E02E8C8D8E110CC015
:1003C0000FB607FCFACFE889F989808185FFF5CF60
:1003D000CE010E948C01F1CFEB8DEC0FFD2FF11DB2
:1003E000E35AFF4FF0829FB7F8940B8FEA89FB899D
:1003F00080818062CFCFCF93DF93EC01888D8823FB
:10040000B9F0AA89BB89E889F9898C9185FD03C077
:10041000808186FD0DC00FB607FCF7CF8C9185FF5C
:10042000F2CF808185FFEDCFCE010E948C01E9CF14
:10043000DF91CF910895833081F028F4813099F0D5
:100440008230A9F008958730A9F08830C9F084304F
:10045000B1F4809180008F7D03C0809180008F7700
:1004600080938000089584B58F7784BD089584B506
:100470008F7DFBCF8091B0008F778093B00008957F
:100480008091B0008F7DF9CFCF93DF93282F30E09C
:10049000F901E458FF4F8491F901E057FF4FD491DF
:1004A000F901E255FF4FC491CC23A1F081110E94C4
:1004B0001B02EC2FF0E0EE0FFF1FEE58FF4FA5914F
:1004C000B491EC91ED2381E090E009F480E0DF91BC
:1004D000CF91089580E090E0FACF1F93CF93DF9300
:1004E000282F30E0F901E458FF4F8491F901E057DB
:1004F000FF4FD491F901E255FF4FC491CC23A9F0ED
:10050000162F81110E941B02EC2FF0E0EE0FFF1F4F
:10051000EC55FF4FA591B4918FB7F894EC91111160
:1005200008C0D095DE23DC938FBFDF91CF911F9160
:100530000895DE2BF8CF682F8DE00C946D02CF93D9
:10054000DF9390E0FC01E057FF4F249182559F4FCD
:10055000FC0184918823D1F090E0880F991FFC0161
:10056000E859FF4FA591B491FC01EC55FF4FC5919F
:10057000D49161110EC09FB7F8948C91E22FE09551
:100580008E238C932881E223E8839FBFDF91CF9154
:1005900008958FB7F894EC91E22BEC938FBFF6CFD0
:1005A0004F925F926F927F928F929F92AF92BF9283
:1005B000CF92DF92EF92FF920F931F93CF93DF932F
:1005C00000D000D01F92CDB7DEB78B0129013A01D0
:1005D000909100018917C9F09F3F09F47EC00F90E8
:1005E0000F900F900F900F90DF91CF911F910F916F
:1005F000FF90EF90DF90CF90BF90AF909F908F9043
:100600007F906F905F904F900895E2ECF0E09491AE
:100610009D8397FDE4CF61E00E949F028D81882336
:1006200021F09D81923009F04AC14801B12CA12CE2
:1006300060E072E18AE790E0A50198010E94CF1680
:1006400029833A834B835C8369017A0181E0C81A6C
:10065000D108E108F1089FEFC916D104E104F104C3
:1006600009F00CF401C160E472E48FE090E0A501B0
:1006700098010E94CF1669017A0181E0C81AD10859
:10068000E108F1089D81923009F0A2C08FEFC816F1
:10069000D104E104F10409F00CF4E6C160E970ED65
:1006A00083E090E0A50198010E94CF1669017A01CC
:1006B00091E0C91AD108E108F1088FEFC816D104FA
:1006C000E104F10411F00CF07FC183E09091B100DE
:1006D000987F892B8093B100CFC080930001E2EC1A
:1006E000F0E094919D839F3F09F479CF913041F1DF
:1006F00050F0923009F446C09D8197FD70CF61E0C3
:100700000E949F028ECF14BC15BC94B5926094BD1C
:1007100095B5916095BD282F30E0F901E255FF4F66
:10072000E491F0E0EE0FFF1FEC55FF4F459154911F
:10073000F901E057FF4FE491E093DF041D826BCF96
:1007400010928000109281009091810098609093A7
:10075000810090918100916090938100282F30E07A
:10076000F901E255FF4FE491F0E0EE0FFF1FEC5569
:10077000FF4F45915491F901E057FF4FE491E09309
:10078000DE0449CF1092B0001092B1009091B000F9
:1007900092609093B0009091B10091609093B100FD
:1007A000282F30E0F901E255FF4FE491F0E0EE0F21
:1007B000FF1FEC55FF4F459154915093E90440932E
:1007C000E804F901E057FF4FE491E093EA0423CFF6
:1007D0009FEFC916D104E104F10409F00CF46DC0D7
:1007E00068E478EE81E090E0A50198010E94CF16C0
:1007F00069017A0181E0C81AD108E108F1089D81F8
:10080000992309F4FAC08FEFC816D104E104F1046A
:1008100011F00CF0FBC0EFC064E274EF80E090E0F8
:10082000A50194010E94CF1669017A0181E0C81ADE
:10083000D108E108F10885E09FEFC916D104E10471
:10084000F10409F008F442CF62E17AE780E090E039
:10085000A50194010E94CF1669017A0181E0C81AAE
:10086000D108E108F108E5C081E09D8191112ECF0A
:1008700095B5987F892B85BD2FEF3FEFA9014114D6
:1008800051046104710409F043C09D81913009F461
:100890005EC0923009F46DC09111A1CEC7BC209307
:1008A000E4043093E5044093E6045093E704809118
:1008B0006E00826080936E0092CE82E0D6CFB12C23
:1008C000A12C60E072E18AE790E0A50198010E9406
:1008D000CF1669017A0181E0C81AD108E108F10850
:1008E000C114D10491E0E906F10404F591E08D8191
:1008F000813011F680918100887F892B809381005F
:100900002FEF3FEFA9014114510461047104F9F084
:10091000D801AA0FBB1FA30192010E94EE1628EE78
:1009200033E040E050E00E940117AFCF68E478EE7A
:1009300081E090E0A50198010E94CF1669017A013B
:1009400081E0C81AD108E108F10893E0D0CFD09235
:100950008900C09288002093E0043093E104409322
:10096000E2045093E30480916F00826080936F00F3
:1009700036CEC092B3002093EB043093EC04409346
:10098000ED045093EE0480917000826080937000BB
:1009900026CE84E09FEFC916D104E104F10409F0EA
:1009A00008F466CFC980DA80EB80FC808AE0F59499
:1009B000E794D794C7948A95D1F781E0C81AD108F3
:1009C000E108F10885E054CF68E478EE81E090E03A
:1009D000A50198010E94CF1669017A0181E0C81A29
:1009E000D108E108F1089FEFC916D104E104F10430
:1009F00011F00CF011CF84E069CE83E09FEFC916AF
:100A0000D104E104F10409F00CF432CF62E17AE799
:100A100080E090E0A50194010E94CF1669017A015F
:100A200081E0C81AD108E108F1089D81992309F4F1
:100A3000B0CF86E09FEFC916D104E104F10409F0BC
:100A400008F444CEC980DA80EB80FC809AE0F5940B
:100A5000E794D794C7949A95D1F781E0C81AD10842
:100A6000E108F10887E032CE82E030CE1F93CF93C9
:100A7000DF93182FEB0161E00E949F02209739F469
:100A800060E0812FDF91CF911F910C946D02CF3FD9
:100A9000D10511F461E0F5CFE12FF0E0E458FF4F0C
:100AA000E491E33031F140F4E130B1F0E230E1F0D3
:100AB000C038D1057CF7E4CFE73029F1E83059F1AF
:100AC000E430B1F780918000806280938000D09301
:100AD0008B00C0938A0004C084B5806884BDC7BD04
:100AE000DF91CF911F91089584B5806284BDC8BD08
:100AF000F7CF80918000806880938000D093890038
:100B0000C0938800EDCF8091B00080688093B000E2
:100B1000C093B300E5CF8091B00080628093B000B5
:100B2000C093B400DDCF8E3008F08E5087708064A3
:100B300080937C0080917A00806480937A00809119
:100B40007A0086FDFCCF809178009091790008951D
:100B50003FB7F8948091DA049091DB04A091DC0413
:100B6000B091DD0426B5A89B05C02F3F19F0019672
:100B7000A11DB11D3FBFBA2FA92F982F8827BC01F7
:100B8000CD01620F711D811D911D42E0660F771F1F
:100B9000881F991F4A95D1F708958F929F92AF921F
:100BA000BF92CF92DF92EF92FF926B017C010E9485
:100BB000A8054B015C01C114D104E104F104B9F0B2
:100BC0000E94A805681979098A099B09683E734043
:100BD0008105910580F321E0C21AD108E108F108EE
:100BE00088EE880E83E0981EA11CB11CE4CFFF9014
:100BF000EF90DF90CF90BF90AF909F908F9008952F
:100C00002FB7F8946091D6047091D7048091D804DE
:100C10009091D9042FBF08950F931F930E94A805A8
:100C2000AB01BC0180916E0490916F04A09170049F
:100C3000B09171048A019B01081B190B2A0B3B0B15
:100C4000D901C8010097A140B10520F580916E043B
:100C500090916F04A0917004B09171049A01281BC7
:100C6000390BC90140936E0450936F046093700474
:100C700070937104E0912D07E73090F4F0E0ED5BA4
:100C8000F94F0C943E174D067F06F60633076506AE
:100C9000A40633078FEF9FEFE5CF84E080932D0705
:100CA00080912D0762E070E0843010F063E070E026
:100CB00080913007823009F45BC1833009F45AC156
:100CC0008FEF1F910F910C948D009C0127553A4195
:100CD0002339314110F481E0E1CF8B5693408F35B9
:100CE000914008F0BDC010926A0410926B041092FB
:100CF0006C0410926D041092690483E0CFCF1092BF
:100D00002D079C012B523D402B3C384060F4109243
:100D10006A0410926B0410926C0410926D0410928D
:100D2000690485E0BBCF855996408736944008F02A
:100D3000B7CF0E94000660935806709359068093BF
:100D40005A0690935B06ACCF10922D07855A9140BE
:100D50008B31914008F0A4CF80916904803210F467
:100D600082E09CCF80916A0490916B04A0916C0406
:100D7000B0916D0440916A0450916B0460916C04D1
:100D800070916D04892F9A2FAB2FBB27842795274D
:100D9000A627B7279927BB278F3F9105AF4FB105EE
:100DA00009F07ECF80916A0490916B04A0916C044D
:100DB000B0916D048A2F90E090932C0780932B07BD
:100DC0000E940006609358067093590680935A0655
:100DD00090935B0681E080935C06E0912E07F09192
:100DE0002F07309709F45CCF09955ACF25E020935F
:100DF0002D0740916A0450916B0460916C047091CE
:100E00006D04769567955795479540936A0450937E
:100E10006B0460936C0470936D04209169042F5FE0
:100E2000209369049C01205F34402D34334090F4BA
:100E300080916A0490916B04A0916C04B0916D0450
:100E4000B06880936A0490936B04A0936C04B09391
:100E50006D0426CF855A91408B31914008F420CF04
:100E600010922D071DCF9C012F5A31092F3531408B
:100E700048F58091690480FD15C080916A049091C5
:100E80006B04A0916C04B0916D04880F991FAA1F88
:100E9000BB1F816080936A0490936B04A0936C04E1
:100EA000B0936D04809169048F5F80936904809191
:100EB00069048E3120F580912D07863009F41DCF0D
:100EC00086E0ECCE8D5092408F35914048F680916F
:100ED0006A0490916B04A0916C04B0916D04880F2A
:100EE000991FAA1FBB1F80936A0490936B04A09361
:100EF0006C04B0936D04809169048E5FD6CF8091AD
:100F00006A0490916B04A0916C04B0916D049C01F3
:100F1000306890916804832F82958695877091112F
:100F200004C08370809368049BCF409168048370F1
:100F300050E08417150609F093CF30932C072093C7
:100F40002B070E9400066093580670935906809301
:100F50005A0690935B0682E080935C06E0912E0730
:100F6000F0912F07309709F47BCF81E0099578CF76
:100F700080E0A7CE81E0A5CE8F929F92AF92BF92E4
:100F8000CF92DF92EF92FF920F931F93CF93DF9355
:100F9000F89410915C0610925C06C0912B07D091DA
:100FA0002C078090580690905906A0905A06B09051
:100FB0005B06789481149104A104B10409F413C16F
:100FC0003CE2C32EDD24D394E12CF12CD7FD06C0E6
:100FD000C0900901D0900A01F12CE12C0E9400067A
:100FE000681979098A099B0920913E076C157D05CE
:100FF0008E059F0508F0CBC0211136C0209709F45B
:101000003FC112E0D7FF11E0E0912E07F0912F07CA
:10101000309711F081E009951092400710923F0738
:10102000D7FF35C18C2F8770805A80933E078C2F55
:101030008695869586958051990B04E0880F991FB7
:101040000A95E1F790933B0780933A078D2F8F71B4
:101050008051990B24E0880F991F2A95E1F790930E
:101060003D0780933C0702C01111D6CF0091410784
:10107000002309F471C0D7FF6FC080913A079091A7
:101080003B0740913C0750913D07BC0197FF04C0CE
:1010900066277727681B790B9A0157FF04C0222720
:1010A0003327241B350B260F371F283231050CF44C
:1010B00069C0DC0197FD1196B595A795E1E0A417ED
:1010C000B5070CF0E0E0BA0157FF02C06F5F7F4F39
:1010D00075956795861797070CF4EE5FBA0157FF71
:1010E00002C06F5F7F4F7595679571956195710926
:1010F000861797070CF4EC5FCC27DD27C41BD50BB4
:10110000AC17BD070CF4E85FF0E0E050FC4F6081E5
:1011100060933F07633761F028F4613789F13695B2
:10112000279507C0643739F16637C9F79E0101C0BA
:101130009C012F3F310519F010F02FEF30E0209384
:101140004007023049F480913E07803629F48091AF
:101150003F07811180933E07812F90E0DF91CF916F
:101160001F910F91FF90EF90DF90CF90BF90AF90C5
:101170009F908F90089522273327281B390BD9CFB2
:101180009A01D7CF10923F0710924007DACF22235F
:1011900019F31092400710923F0710923D071092EA
:1011A0003C0710923B0710923A0710923E071092AC
:1011B00058061092590610925A0610925B06E0915A
:1011C0002E07F0912F07309711F080E009950E94CB
:1011D00000066093540670935506809356069093CC
:1011E000570611E0B9CF0E940006C0905406D09077
:1011F0005506E0905606F0905706DC01CB018C199D
:101200009D09AE09BF09CD2B79F04091090150919C
:101210000A0170E060E0481759076A077B0720F46D
:1012200010922C0710922B0727E0B695A79597955B
:1012300087952A95D1F70097A105B10509F48CCFC0
:101240008F709927AA27BB270097A105B10551F4F4
:10125000E0912E07F0912F0781E0309709F47CCFC1
:1012600009957ACF0197A105B10509F075CFE091F5
:101270002E07F0912F07309709F46ECF80E0F0CF62
:10128000112309F4F3CE1092400710923F07C09348
:101290003E0710923D0710923C0710923B071092B8
:1012A0003A07E4CE089585ED8093BC008091BC00A0
:1012B00084FDFCCF10922F0508952091B204260FD3
:1012C0003327331F21323105ECF420912F05FC0127
:1012D00090E080E0243069F082E00895A091B204AB
:1012E0002191AC014E565B4FA40FB52FB11D2C932D
:1012F0000196861798F38091B204680F6093B20448
:1013000080E0089581E008950895E091F4048091CB
:10131000F304E81730F4F0E0EE58FB4F808190E0E2
:1013200008958FEF9FEF08959091F4048091F30456
:101330002FEF3FEF981748F4E92FF0E0EE58FB4FFE
:10134000208130E09F5F9093F404C901089580915B
:10135000F3049091F404891B990B0895CF92DF92C6
:10136000EF92FF920F931F93CF93DF937C01CB01FA
:101370008A0120913005222389F0EB016B01C40E14
:10138000D51ECC15DD0569F06991D701ED91FC9171
:101390000190F081E02DC7010995F3CF642F0E94E1
:1013A0005D09C801DF91CF911F910F91FF90EF90E0
:1013B000DF90CF900895CF93DF931F92CDB7DEB724
:1013C0006983209130052223F9F0209153052032C2
:1013D00058F021E030E0FC013383228390E080E08C
:1013E0000F90DF91CF91089580913105E82FF0E0C3
:1013F000EE5CFA4F998190838F5F809331058093E3
:10140000530581E090E0ECCF61E0CE0101960E94AF
:101410005D09F7CF90E080E008950F931F93CF937D
:10142000DF938B018330910511F580916704811161
:101430000BC081E08093670461E089E00E949F0215
:1014400061E08AE00E949F0261E0101611060CF034
:1014500060E089E00E946D02612F661F6627661FAB
:101460008AE0DF91CF911F910F910C946D02EC01F6
:10147000CC0FDD1F6F3F710509F0A4F461308FEFD1
:1014800078079CF077FD13C0C95DDE4F61E089816C
:101490000E946D02B8018881DF91CF911F910F9159
:1014A0000C9436050FEF10E0EFCF01E01FEFC95DA0
:1014B000DE4F60E089810E946D0266277727601BFE
:1014C000710BE9CFCF93DF93EC01FB018091050510
:1014D0009091060597FD29C080910505909106051C
:1014E000092E000CAA0BBB0B20E031E040E050E0DD
:1014F000281B390B4A0B5B0BDB010E94F916672F87
:10150000782F892F992787FD9A95FB01BF0190E0DD
:1015100080E00E940D0A662777276C1B7D0B81E017
:1015200090E0DF91CF910C940D0A20910505309148
:101530000605032E000C440B550B3F5F4F4F5F4FCA
:10154000DE010E94F916672F782F892F992787FDD2
:101550009A95EB01DBCF9B01880F991F880F991F8C
:10156000FC01E55FFE4F82819381289FB001299F96
:10157000700D389F700D112480819181AC01249FE2
:10158000C001259F900D349F900D11240C94620A88
:10159000CF92DF92EF92FF926B01770FEE08FF0878
:1015A000009731F0BC01A701960188E00E94D002AB
:1015B000C701B601FF90EF90DF90CF900C94CD055E
:1015C000E4E5F5E02FEF208325E5218323E0228366
:1015D00022E023838483958346E050E0BF018DE5BC
:1015E00096E00C940E01E4E5F5E09FEF908395E51D
:1015F000918392E0928391E09383848345E050E06D
:10160000BF018DE596E00C940E01E4E5F5E08FEF67
:10161000808385E58183128243E050E0BF018DE540
:1016200096E00C940E01E82FF0E0EB50FB4FE081C8
:10163000EC5FF0E0EC5AFA4F9181808108956CE202
:1016400071E00C94C80A1F93CF93DF93182FC82F13
:10165000D0E0AE0164E575E089E595E00E944417AD
:10166000E4E5F5E08FEF808385E5818382E0810FFB
:10167000828387E083831483AE014B5F5F4FBF019A
:101680008DE596E0DF91CF911F910C940E01FF92B2
:101690000F931F93CF93DF939093060580930505D7
:1016A0008091050590910605D0E0C0E08038910555
:1016B00044F08FE790E09093060580930505CFEF07
:1016C000DFEF809105059091060580389F4F44F427
:1016D00080E89FEF9093060580930505CFEFDFEF3D
:1016E000009105051091060590E080E00E94B91672
:1016F000081729F0602F90E080E00E94C116CE010B
:10170000DF91CF911F910F91FF90089520910505D2
:1017100030910605820F931F90930605809305056F
:1017200080910505909106050C94470BEF92FF926E
:101730000F931F93CF93DF93AC0180912F058111FD
:10174000FCCF962F613208F090E281E080932F0564
:1017500080932E052FEF20932D0510922C05290F35
:1017600020932B0580930A0520910A05440F551FED
:10177000822F842B80930A05809109058130B9F569
:101780001092090580910A058093BB008091BC00EE
:1017900083FDF8CF85EC8093BC0080912F058130CC
:1017A000E1F380912C05891710F490912C05EBE062
:1017B000F5E0A2E7B4E080E089131BC01092F404C6
:1017C0008093F30486171706C4F0EB0104E515E0D7
:1017D000CB018C5A9A4F7C010E151F05B1F08AEF90
:1017E00096E00E949409F80181938F01F5CF85EE70
:1017F000D2CF21912D938F5FDFCFDF91CF911F91BA
:101800000F91FF90EF900C94050B8C2FDF91CF91EF
:101810001F910F91FF90EF900C94230B1F920F924A
:101820000FB60F9211242F933F934F935F936F93B3
:101830007F938F939F93AF93BF93EF93FF93809189
:10184000EB049091EC04A091ED04B091EE04892B8F
:101850008A2B8B2BD1F19091EA04E091E804F0916E
:10186000E9048081892780838091EB049091EC04C6
:10187000A091ED04B091EE04181619061A061B0685
:101880009CF48091EB049091EC04A091ED04B09154
:10189000EE040197A109B1098093EB049093EC0445
:1018A000A093ED04B093EE04FF91EF91BF91AF913F
:1018B0009F918F917F916F915F914F913F912F9168
:1018C0000F900FBE0F901F90189580910001E2ECD1
:1018D000F0E0E4919FEF90930001E13051F030F09F
:1018E000E23069F060E00E946D02DECF10926E007F
:1018F000F9CF90916F009D7F90936F00F3CF9091FF
:1019000070009D7F9093700091E09093B000909153
:10191000B100987F94609093B1001092B300E2CF31
:101920001F920F920FB60F9211242F933F934F9354
:101930005F936F937F938F939F93AF93BF93EF9337
:10194000FF938DE596E00E948C01FF91EF91BF918E
:10195000AF919F918F917F916F915F914F913F9147
:101960002F910F900FBE0F901F9018951F920F92FE
:101970000FB60F9211242F938F939F93EF93FF93A2
:10198000E0916D06F0916E068081E0917306F09112
:10199000740682FD1BC09081809176068F5F8F73E5
:1019A00020917706821741F0E0917606F0E0E35A45
:1019B000F94F958F80937606FF91EF919F918F91CC
:1019C0002F910F900FBE0F901F9018958081F4CF2C
:1019D0001F920F920FB60F9211242F933F938F9364
:1019E0009F93AF93BF938091D6049091D704A09119
:1019F000D804B091D9043091D50423E0230F2D37BA
:101A000058F50196A11DB11D2093D5048093D604ED
:101A10009093D704A093D804B093D9048091DA04AA
:101A20009091DB04A091DC04B091DD040196A11D2E
:101A3000B11D8093DA049093DB04A093DC04B0938F
:101A4000DD04BF91AF919F918F913F912F910F90A6
:101A50000FBE0F901F90189526E8230F0296A11D28
:101A6000B11DD2CF1F920F920FB60F9211242F9358
:101A70003F934F935F936F937F938F939F93AF9316
:101A8000BF93EF93FF93E0910701F091080109954F
:101A9000FF91EF91BF91AF919F918F917F916F9146
:101AA0005F914F913F912F910F900FBE0F901F901C
:101AB00018951F920F920FB60F9211242F933F93F8
:101AC0004F935F936F937F938F939F93AF93BF9346
:101AD000EF93FF93E0910501F09106010995FF91C5
:101AE000EF91BF91AF919F918F917F916F915F9196
:101AF0004F913F912F910F900FBE0F901F9018950F
:101B00001F920F920FB60F9211242F933F934F9372
:101B10005F936F937F938F939F93AF93BF93EF9355
:101B2000FF938091B900887F803609F44AC0F0F5B0
:101B3000883209F4A7C018F5803109F49BC0B8F4C5
:101B4000882309F4F9C0883009F494C0FF91EF911B
:101B5000BF91AF919F918F917F916F915F914F91C5
:101B60003F912F910F900FBE0F901F9018958831C5
:101B700009F488C0803251F780932D0514C0803459
:101B800009F49DC040F48033B9F38833F9F68093AB
:101B90002D0585ECB0C0803509F485C0883509F481
:101BA00096C0883499F60E945309D0CF883909F439
:101BB0008CC038F5883729F050F4883611F080371A
:101BC00029F683E080932F051092D40457C08838FB
:101BD00009F47BC0803919F0803809F0B7CF8091C3
:101BE000D404803208F071C0E091D40481E08E0FFB
:101BF0008093D4048091BB00F0E0EC54FB4F8083D1
:101C00003DC0803B39F0E0F4803A09F479C0883A6D
:101C100009F09CCF84E080932F051092B3041092BA
:101C2000B204E091F104F091F20409958091B204BC
:101C300081110FC081E08093B2041092920409C018
:101C4000803C09F4A6CF883C09F4A3CF883B09F077
:101C50007DCFE091B30481E08E0F8093B304F0E078
:101C6000EE56FB4F80818093BB009091B30480912E
:101C7000B20429C080910A058093BB0085EC809353
:101C8000BC0064CF90912C0580912B05981758F5D6
:101C9000E0912C0581E08E0F80932C05F0E0E55F4C
:101CA000FA4F8081E9CFE0912C0581E08E0F80937F
:101CB0002C058091BB00F0E0E55FFA4F80839091A6
:101CC0002C0580912B059817C8F285E8D8CFE091B4
:101CD0002C0581E08E0F80932C058091BB00F0E0F5
:101CE000E55FFA4F808380912E0581115CCF81E002
:101CF0008093090584EA8093BC0010922F0526CFBB
:101D000085EC8093BC0010922F058091D404803222
:101D100030F4E091D404F0E0EC54FB4F1082609179
:101D2000D40470E0E091EF04F091F00484EB94E0CF
:101D300009951092D4040ACF10922D0534CF1F922A
:101D40000F920FB60F9211242F933F934F935F93EF
:101D50006F937F938F939F93AF93BF93CF93DF93B3
:101D6000EF93FF9380916604C0912A07D0E087FF2C
:101D700024C01092850010928400809166048F5FC9
:101D80008093660480916604082E000C990B8C17D2
:101D90009D0724F4809166048C30C4F18091840006
:101DA00090918500049680349C4908F47AC0809113
:101DB000840090918500049676C080916604082E78
:101DC000000C990B8C179D07C4F6E09166048E2FCA
:101DD000EE0F990BFC01EE0FFF1FE80FF91FEA5FF2
:101DE000F84F808186FFC9CFE09166048E2FEE0FF9
:101DF000990BFC01EE0FFF1FE80FF91FEA5FF84F88
:101E0000808160E08F730E946D02B7CF20918400C3
:101E100030918500E09166048E2FEE0F990BFC0146
:101E2000EE0FFF1FE80FF91FEA5FF84F81819281E3
:101E3000820F931F9093890080938800E09166043D
:101E40008E2FEE0F990BFC01EE0FFF1FE80FF91F0D
:101E5000EA5FF84F808186FF11C0E09166048E2F03
:101E6000EE0F990BFC01EE0FFF1FE80FF91FEA5F61
:101E7000F84F808161E08F730E946D02FF91EF91B6
:101E8000DF91CF91BF91AF919F918F917F916F9192
:101E90005F914F913F912F910F900FBE0F901F9028
:101EA000189580E49CE990938900809388008FEFD7
:101EB00080936604E3CF1092600610925F0688EE6E
:101EC00093E0A0E0B0E08093610690936206A09357
:101ED0006306B093640624E134E030935E062093F9
:101EE0005D0625EC30E030936A062093690624EC09
:101EF00030E030936C0620936B0620EC30E030939A
:101F00006E0620936D0621EC30E03093700620932E
:101F10006F0622EC30E0309372062093710626ECB7
:101F200030E0309374062093730610927606109278
:101F3000770610927806109279061092FD0610929C
:101F4000FC068093FE069093FF06A0930007B093D3
:101F5000010786E294E09093FB068093FA061092C4
:101F6000410782E0809330078BE992E090932F073E
:101F700080932E0760E082E00E949F0262E070E0A2
:101F800080E00E948D0010922D0710922C07109275
:101F90002B0780914107811127C08EE690E0909336
:101FA0000A0180930901E1E3F7E02AE337E04FEF0C
:101FB00068EB7BE080912A078C30C8F491E0980FA1
:101FC00090932A07808390E0DC01AA0FBB1FA80F23
:101FD000B91FAA5FB84F12967C936E9311973396F0
:101FE0002E173F0739F708958CE291E0D8CF408350
:101FF000F6CF789484B5826084BD84B5816084BD59
:1020000085B5826085BD85B5816085BD80916E0096
:10201000816080936E0010928100809181008260C7
:102020008093810080918100816080938100809104
:1020300080008160809380008091B10084608093F3
:10204000B1008091B00081608093B00080917A00EF
:10205000846080937A0080917A00826080937A0015
:1020600080917A00816080937A0080917A00806804
:1020700080937A001092C10014BE0FB6F894A89510
:1020800080916000886180936000109260000FBEB4
:1020900061E08DE00E949F0260E08DE00E946D0291
:1020A00061E084E00E949F0261E087E00E949F025D
:1020B00061E08CE00E949F0261E088E00E949F0244
:1020C00083E084BD85BD91E0909380009BE0909378
:1020D00081008093B00084E08093B10090E080E0C4
:1020E0000E94B91690E090930605809305058091B3
:1020F000050590910605803891054CF08091050505
:10210000909106059A95909306058093050562E3E4
:1021100070E084EF91E00E94C80AE0916D06F091B2
:102120006E0682E08083E0916906F0916A06108273
:10213000E0916B06F0916C0680E180831092750649
:10214000E0917106F091720686E08083E0916F065F
:10215000F0917006808180618083E0916F06F0913C
:102160007006808188608083E0916F06F091700630
:10217000808180688083E0916F06F0917006808195
:102180008F7D808361E08FE00E949F0260E08FE09E
:102190000E946D0247E150E064E374E08DE596E053
:1021A0000E940E0142E050E063E674E08DE596E0A7
:1021B0000E940E01C4EB8C2E912CA12CB12C772403
:1021C00073948DE596E00E946C01181619060CF0C8
:1021D000C0C4709207058DE596E00E944A0197FD04
:1021E000B8C4E091080521E02E0F20930805F0E027
:1021F000EC5AFA4F8083223009F46EC0233009F480
:1022000070C0213059F424E030E030930401209371
:1022100003018F3F9105A9F2109208052091030157
:1022200030910401809108058217130650F2109135
:1022300057051B3108F05BC080E1189FF0011124A5
:10224000E05BFD4F80E1A5EFB4E01D928A95E9F7D0
:10225000309751F175EFE72E74E0F72EAF01405F34
:102260005F4F90E080E061916623F1F0D7018D939C
:102270007D01EF01219768816C3409F462C00CF094
:1022800057C0643409F45FC0663409F45AC062343C
:1022900009F40196BC016C5F7F4F2617370708F4DD
:1022A00070C34E175F07F9F6173109F42CC208F016
:1022B000A3C0173009F4D3C108F070C0133009F47B
:1022C00073C108F056C0113009F455C1123009F439
:1022D00060C10E94050B55C38535910509F09CCF5F
:1022E0009DCF0396909304018093030197CF8FE7CE
:1022F000810F8D3060F4A12FA158BB0BFD01B4E01C
:10230000EE0FFF1FBA95E1F7E058FE4F9BCFF0E0CC
:10231000E0E01B3F08F496CF812F8B5F990BFC0107
:10232000A4E0EE0FFF1FAA95E1F7E05DFE4F8ACF14
:102330006236B9F0633749F0633509F0ABCF0296E6
:10234000A9CF0496A7CF0896A5CFEC01C85ADA4FBB
:10235000DE010D900020E9F78C1B9D0B8A0F9B1F5F
:1023600099CFEC01CC5ADA4F6C810196860F911D02
:1023700091CF153009F46EC1C091F504163008F400
:102380005AC181E00E94130BBC01D0E0CC5ADA4F55
:102390008C818150990B0E940D0A9BCF123109F458
:1023A00072C170F4193009F467C108F45EC11A30C3
:1023B00009F08FCF80E00E94130B0E94470B89CF5A
:1023C000143109F490C108F475C1153109F081CFB9
:1023D000E091F504F0E0EC5AFA4F848160E0825F0E
:1023E0000E949F02E091F504F0E0EC5AFA4F8481DC
:1023F000825F0E94440293C2163809F4C8C208F0F2
:102400005EC0123809F46CC2C8F5103809F47BC3F9
:10241000113809F05ECF1092F4041092F304109278
:1024200031051092530510922F0570922E051092CF
:10243000090561E082E10E946D0261E083E10E9492
:102440006D028091B9008E7F8093B9008091B900B0
:102450008D7F8093B90088E48093B80085E48093F1
:10246000BC002CE031E03093F2042093F1048DE0C5
:1024700091E09093F0048093EF042BCF143809F48B
:1024800083C208F44FC210E0D0E0C0E07092300583
:1024900010935205109231051092530581E00E946D
:1024A000AF00811105C0FE01EC5AFA4F108321964E
:1024B0001F5F1F3759F78C2F0E94230B62C21A38F7
:1024C00009F4C4C208F5C091F504183809F484C2AF
:1024D00008F47CC282E00E94130B6C0181E00E9430
:1024E000130B0D2C000CEE08FF08EC2FF0E0EC5A5B
:1024F000FA4FA7019601BC0184810E94D002C70156
:10250000B6010E94CD05E5CE1E3F09F4E8C208F0F1
:10251000EFC21D3809F0DDCEC091F704D0E0FE0116
:10252000E85AFA4FC080D12CE091F604F0E0EC5A62
:10253000FA4F548080E00E94130B7C01C75ADA4F97
:102540008E01C8018C1B9D0B8C159D050CF0A0C243
:10255000D80112968C91129711966C911197782F41
:1025600094E0759567959A95E1F78C910E943605F0
:102570000D5F1F4FE6CF61E08DE00E949F02E0916A
:10258000F504F0E0EC5AFA4F64818DE00E946D0290
:10259000A0CE81E00E94130BEC0180E00E94130B9F
:1025A000BE010E94C80A95CE81E00E94130BEC0187
:1025B000E091F504F0E0EC5AFA4F84816EE0562E7B
:1025C000580EE091F704F0E0EC5AFA4F848188232A
:1025D00071F061E0852D0E949F0260E0852D0E94D0
:1025E0006D0261E070E080E090E00E94CD0560E067
:1025F000852D0E949F02209711F4C1E0D0E084E66F
:102600008C9F80018D9F100D1124D0E0C0E0C12C63
:10261000D12C7601C017D10709F403C2852D0E9481
:102620009305092E000CAA0BBB0BC80ED91EEA1E7F
:10263000FB1E2196EFCFE091F604F0E0EC5AFA4F42
:10264000648170E0D0E0CC5ADA4F8C8190E00E9437
:10265000AB0A3FCE70E060E090E080E0F8CF80E031
:102660000E94130B0E94860B34CE80E00E94130B55
:10267000919581959109F6CF809105059091060578
:102680000E94E00A7EC1E091F504F0E0EC5AFA4FB6
:1026900061E084810E949F02A091F604B0E0AC5AF0
:1026A000BA4FE091F504F0E0EC5AFA4F14966C91B1
:1026B00084816CCFE091F504F0E0EC5AFA4F84810C
:1026C00061E0825F0E949F02E091F604F0E0EC5A24
:1026D000FA4FA091F504B0E0AC5ABA4F14968C9121
:1026E0006481825F53CFE091F504F0E0EC5AFA4F39
:1026F00060E084810E949F02E091F504F0E0EC5AD2
:10270000FA4F848176CEE091F504F0E0EC5AFA4F6E
:10271000C481D0E07E01EE0CFF1C87010C0F1D1F51
:102720000F5C184FF8014081842F90E09C01220F2C
:10273000331F820F931FFC01EA5FF84F808186FDF3
:102740005EC0FE01E35DFE4FD0804C3008F057C004
:1027500061E08D2D0E949F02D8018C91482F50E09E
:102760009A01220F331F240F351FF901EA5FF84F3A
:10277000BD2DBF73DB2E9081907CD92AD082F801C9
:10278000118212822CE0622F0E943217829FB001C8
:10279000112450E040E0FB01E40FF51F9F01220FE0
:1027A000331FE20FF31FEA5FF84F908196FD16C0CA
:1027B0004F5F5F4F4C30510571F781110FC0109280
:1027C000800082E080938100109285001092840046
:1027D000B19A80916F00826080936F00CE0DDF1DF3
:1027E000CF5CD84FE8818E2F90E0FC01EE0FFF1FE9
:1027F000E80FF91FEA5FF84F808180648083E091E1
:10280000F504F0E0EC5AFA4F048110E07801EE0C88
:10281000FF1CF701E00FF11FEF5CF84F828178E5B4
:10282000C72E72E0D72EC81AD10887FDD394CC0CDE
:10283000DD1CCC0CDD1C8181C8E8D0E0C81BD109AF
:1028400087FDD395CC0FDD1FCC0FDD1F1E010D2E94
:10285000000C44085508E091F604F0E0EC5AFA4FF9
:10286000A481B0E0A53BB10514F0A4EBB0E0960163
:102870000D2C000C440B550B221933094409550942
:102880000E94F916A50194010E94CF16BA01A90170
:10289000420D531D641D751D0E0D1F1DF801EF5CCB
:1028A000F84F20812C3008F014CD4C175D072CF028
:1028B000E6014C155D050CF4EA012297CC0FDD1FF3
:1028C0004FB7F894822F90E09C01220F331F820FA4
:1028D000931FFC01EA5FF84FD283C1834FBFF9CC4D
:1028E000E091F504F0E0EC5AFA4F848170923005E3
:1028F0008093520510923105109253056091F604B1
:1029000070E0FB01E85AFA4F408150E0675A7A4F75
:102910008AEF96E00E94AE0981E00E94AF000E941B
:10292000F30A2FC0E091F504F0E0EC5AFA4F8481ED
:102930007092300580935205109231051092530524
:102940006091F60470E0FB01E85AFA4F408150E0D4
:10295000675A7A4F8AEF96E00E94AE0980E00E94A3
:10296000AF00E091F704F0E0EC5AFA4F648170E0B8
:10297000E091F504F0E0EC5AFA4F848190E00E9477
:10298000960B109208051DCCE091F604ECCFE09078
:10299000F5048E2D90E0FC01E85AFA4F008110E01A
:1029A000DC01A75ABA4F7D01ED01CE018E199F09B6
:1029B000801791070CF08DCC61E088810E949F0206
:1029C000698188810E946D022296EFCFD0E0CC5AB7
:1029D000DA4F60E08C818ECE81E00E94130B8C0177
:1029E000D0E0CC5ADA4F5C8060E0852D0E949F02D7
:1029F0000115110511F401E010E0C12CD12C760174
:102A0000D0E0C0E0852D0E949305092E000CAA0B92
:102A1000BB0BC80ED91EEA1EFB1E2196C017D1079C
:102A200089F79E0150E040E0C701B6010E940117FE
:102A3000A1E7B2E00E94EE16DC01CB0137E0B695CB
:102A4000A795979587953A95D1F71ACEC091F50439
:102A5000D0E0FE01E85AFA4F008110E0C75ADA4F81
:102A60007E01C7018C1B9D0B801791070CF031CCA8
:102A7000F70182816181782F24E0759567952A9509
:102A8000E1F780810E943605F3E0EF0EF11CE9CFFB
:102A9000E114F10409F41DCCB701FF0C880B990B6C
:102AA0000E94CD05B1E083E391E05B1611F090E068
:102AB00080E07C0184E0F694E7948A95E1F78E014A
:102AC000C8018C1B9D0B8C159D050CF002CCB70129
:102AD000F80180810E9436050D5F1F4FF1CF49E15B
:102AE00050E06CE474E08DE596E00E940E0149CF61
:102AF00088E198E00FB6F894A895809360000FBE27
:102B000090936000FFCF8FEF8093540585E580930D
:102B1000550586E080935605109357050E94BC0723
:102B200080913E078093580590913A0780913B072A
:102B30009093590580935A0590913C0780913D07E9
:102B400090935B0580935C0549E050E064E575E097
:102B5000CACF8091070581116FC00E94BC07EC01AC
:102B600080913E078534B1F118F0883408F443C0F1
:102B7000209709F461C0C230D10579F420913C0757
:102B800030913D0780913A0790913B07B901681B4E
:102B9000790B820F931F0E94620A80913E078C314D
:102BA00009F4CBC008F062C08D3009F4AAC0B0F5BA
:102BB000883009F4BBC010F5873009F48DC0229726
:102BC00031F070E060E090E080E00E94620A70E026
:102BD00060E060C08FEF9FEF0E94860B892B41F66B
:102BE000809105059091060566E970E08A5F9E4F29
:102BF0000E94C80ABDCF81E090E0EECF893009F491
:102C000072C08C30E1F686E091E00E941F0B87E4F1
:102C100090E090930201809301010EC0863109F487
:102C200069C0B8F4853159F66091010170910201D3
:102C300090E080E00E94AB0A80E090E0892B09F4EC
:102C4000BECA0E947801882309F4B9CA0E94000014
:102C5000B6CA883109F45CC0893109F0B0CF6091FF
:102C600001017091020183E090E0E4CF8A3409F41D
:102C700079C0A8F4823409F467C018F48034A1F252
:102C80009ECF833409F1843409F099CF609101011A
:102C90007091020182E090E00E940D0ACDCF8E3546
:102CA000F1F168F4823509F456C08A3509F087CF0E
:102CB00088EB91E00E941F0B8AEB90E0AACF83364D
:102CC00029F3843609F07BCF6091010170910201F4
:102CD000719561957109DECF6091010170910201DA
:102CE00081E090E0A7CF609101017091020182E044
:102CF00090E0A0CF609101017091020184E090E02A
:102D000099CF609101017091020185E090E092CF2E
:102D100086E291E00E941F0B8EE590E07ACF8AE474
:102D200091E00E941F0B85E790E073CF8DE591E065
:102D30000E941F0B8CE890E06CCF88E891E00E9425
:102D40001F0B83EA90E065CF8EEE91E00E941F0B8F
:102D500081ED90E05ECF8BE092E00E941F0B88EE49
:102D600090E057CF8BE492E00E941F0B8FEF90E032
:102D700050CFF999FECF92BD81BDF89A992780B5C1
:102D80000895262FF999FECF1FBA92BD81BD20BDAF
:102D90000FB6F894FA9AF99A0FBE01960895052E87
:102DA00097FB1EF400940E94E61657FD07D00E9480
:102DB000011707FC03D04EF40C94E616509540958D
:102DC000309521953F4F4F4F5F4F089590958095D7
:102DD000709561957F4F8F4F9F4F08950E942317E5
:102DE000A59F900DB49F900DA49F800D911D11245F
:102DF0000895B7FF0C94EE160E94EE16821B930BFB
:102E00000895A1E21A2EAA1BBB1BFD010DC0AA1F2B
:102E1000BB1FEE1FFF1FA217B307E407F50720F043
:102E2000A21BB30BE40BF50B661F771F881F991FBE
:102E30001A9469F760957095809590959B01AC0107
:102E4000BD01CF010895A29FB001B39FC001A39F10
:102E5000700D811D1124911DB29F700D811D1124D3
:102E6000911D0895991B79E004C0991F961708F0E9
:102E7000961B881F7A95C9F780950895EE0FFF1F5E
:102E80000590F491E02D09946817790768F4FB0127
:102E9000DC01E40FF51FA40FB51F02C002900E92D3
:102EA00041505040D8F708950C945617FB01DC01AF
:102EB00002C001900D9241505040D8F70895F89407
:022EC000FFCF42
:102EC200FFFF000400520952096E000100010000D8
:102ED20000010001000000FFFFFFFFFFFF010001F2
:102EE20000FFFF00000000050406070B0C03090A9F
:102EF20000000000000000000000000000000000D0
:102F020000000000000000000000000000000000BF
:102F120073730000000000000000000000000000C9
:102F2200000000000000000000000000000000009F
:102F3200000000000000000000000000000000008F
:102F420042420000000000000000000000000000FB
:102F520042620000000000000000000000000000CB
:102F62004262420000000000000000000000000079
:102F720042420000000000000000000000000000CB
:102F8200000000000000000000000000000000003F
:102F920062000000000000000000000000000000CD
:102FA20042000000000000000000000000000000DD
:102FB200425300000000000000000000000000007A
:102FC2004253530000000000000000000000000017
:102FD200620000000000000000000000000000008D
:102FE20000000000000000000000000000000000DF
:102FF200424200000000000000000000000000004B
:1030020053426200000000000000000000000000C7
:1030120000000000000000000000000000000000AE
:10302200420000000000000000000000000000005C
:1030320053530000000000000000000000000000E8
:1030420042534200000000000000000000000000A7
:1030520042420000000000000000000000000000EA
:10306200000000000000000000000000000000005E
:1030720042530000000000000000000000000000B9
:1030820053000000000000000000000000000000EB
:1030920053000000000000000000000000000000DB
:1030A200000000000000000000000000000000001E
:1030B20053000000000000000000000000000000BB
:1030C20000000000000000000000000000000000FE
:1030D20000000000000000000000000000000000EE
:1030E20000000000000000000000000000000000DE
:1030F20000000000000000000000000000000000CE
:1031020000000000000000000000000000000000BD
:1031120000000000000000000000000000000000AD
:10312200000000000000000000000000000000009D
:103132004242000000000000000000000000000009
:1031420042420000000000000000000000000000F9
:10315200420000000000000000000000000000002B
:10316200420000000000000000000000000000001B
:10317200000000000000000000000000000000004D
:1031820042420000000000000000000000000000B9
:10319200000000000000000000000000000000002D
:1031A200000000000000000000000000000000001D
:1031B200000000000000000000000000000000000D
:1031C2007370007100000072750000007600777461
:1031D20000000000AE010E013B01FB016C014A013F
:1031E2005E0100000000DB09AE090A0A8409A70992
:1031F200940985095043206D6F64653A2052656DCC
:103202006F636F6E526F626F312E32005043206DCA
:103212006F64653A2052656D6F636F6E526F626FB5
:06322200312E320D0A00FE
:00000001FF
