:100000000C94D7010C945F100C9438100C94FF01E1
:100010000C94FF010C94FF010C94FF010C94140F3D
:100020000C94FF010C94FF010C94FF010C94A5119A
:100030000C94FF010C94FF010C94FF010C94FF0140
:100040000C94EE0F0C94FF010C94BC0F0C94960FC3
:100050000C94FF010C94FF010C94FF010C94FF0120
:100060000C9486100C94FF0100000000240027006F
:100070002A000000000023002600290000000008DC
:10008000000201000003040700000000000000005F
:10009000010204081020408001020408102001021F
:1000A0000408102000000000250028002B00040494
:1000B0000404040404040202020202020303030310
:1000C0000303025043206D6F64653A2052656D6FE3
:1000D000636F6E526F626F312E32000000000000BD
:1000E0000000000000000000000000000000000010
:1000F000000000000000000000000073730000001A
:1001000000000000000000000000000000000000EF
:1001100000000000000000000000000000000000DF
:10012000000000000000000000000042420000004B
:10013000000000000000000000000042620000001B
:1001400000000000000000000000004262420000C9
:10015000000000000000000000000042420000001B
:10016000000000000000000000000000000000008F
:10017000000000000000000000000062000000001D
:10018000000000000000000000000042000000002D
:1001900000000000000000000000004253000000CA
:1001A0000000000000000000000000425353000067
:1001B00000000000000000000000006200000000DD
:1001C000000000000000000000000000000000002F
:1001D000000000000000000000000042420000009B
:1001E0000000000000000000000000534262000018
:1001F00000000000000000000000000000000000FF
:1002000000000000000000000000004200000000AC
:100210000000000000000000000000535300000038
:1002200000000000000000000000004253420000F7
:10023000000000000000000000000042420000003A
:1002400000000000000000000000000000000000AE
:100250000000000000000000000000425300000009
:10026000000000000000000000000053000000003B
:10027000000000000000000000000053000000002B
:10028000000000000000000000000000000000006E
:10029000000000000000000000000053000000000B
:1002A000000000000000000000000000000000004E
:1002B000000000000000000000000000000000003E
:1002C000000000000000000000000000000000002E
:1002D000000000000000000000000000000000001E
:1002E000000000000000000000000000000000000E
:1002F00000000000000000000000000000000000FE
:1003000000000000000000000000000000000000ED
:100310000000000000000000000000424200000059
:100320000000000000000000000000424200000049
:10033000000000000000000000000042000000007B
:10034000000000000000000000000042000000006B
:10035000000000000000000000000000000000009D
:100360000000000000000000000000424200000009
:10037000000000000000000000000000000000007D
:10038000000000000000000000000000000000006D
:10039000000000000000000000000000000000005D
:1003A00000000000000000000000000061121124A5
:1003B0001FBECFEFD8E0DEBFCDBF11E0A0E0B1E0BF
:1003C000E8E3F5E302C005900D92AE37B107D9F727
:1003D00024E0AEE7B1E001C01D92A136B207E1F71B
:1003E00011E0C7EDD1E004C02197FE010E94791A07
:1003F000C63DD107C9F70E94E9120C949A1A0C94D1
:1004000000008230F8F4E82FF0E0EE0FFF1FEB5F02
:10041000FE4F23E237E031832083813041F0809129
:1004200069008C7F682B60936900E89A0895809139
:100430006900837F660F771F660F771F682B6093B5
:100440006900E99A089508950895AF92BF92CF92F6
:10045000DF92EF92FF920F931F93CF93DF936C0184
:100460007B018B01040F151FEB015E01AE18BF0865
:10047000C017D10759F06991D601ED91FC91019017
:10048000F081E02DC6010995892B79F7C501DF912F
:10049000CF911F910F91FF90EF90DF90CF90BF9081
:1004A000AF900895FC01538D448D252F30E0842FAB
:1004B00090E0821B930B541710F0CF96089501978C
:1004C0000895FC01918D828D981761F0A28DAE0F79
:1004D000BF2FB11D5D968C91928D9F5F9F73928F00
:1004E00090E008958FEF9FEF0895FC01918D828D2C
:1004F000981731F0828DE80FF11D858D90E00895F9
:100500008FEF9FEF0895FC01918D228D892F90E050
:10051000805C9F4F821B91098F73992708958FE705
:1005200093E00E94830221E0892B09F420E0822FCE
:10053000089580E090E0892B29F00E948F028111BC
:100540000C9400000895FC01A48DA80FB92FB11DD3
:10055000A35ABF4F2C91848D90E001968F739927F9
:10056000848FA689B7892C93A089B1898C918370D7
:1005700080648C93938D848D981306C00288F389D0
:10058000E02D80818F7D80830895EF92FF920F93FD
:100590001F93CF93DF93EC0181E0888F9B8D8C8D2F
:1005A00098131AC0E889F989808185FF15C09FB723
:1005B000F894EE89FF896083E889F98980818370E6
:1005C000806480839FBF81E090E0DF91CF911F9195
:1005D0000F91FF90EF900895F62E0B8D10E00F5FB6
:1005E0001F4F0F731127E02E8C8D8E110CC00FB68C
:1005F00007FCFACFE889F989808185FFF5CFCE0124
:100600000E94A302F1CFEB8DEC0FFD2FF11DE35AF9
:10061000FF4FF0829FB7F8940B8FEA89FB898081A6
:100620008062CFCFCF93DF93EC01888D8823B9F020
:10063000AA89BB89E889F9898C9185FD03C08081ED
:1006400086FD0DC00FB607FCF7CF8C9185FFF2CF6A
:10065000808185FFEDCFCE010E94A302E9CFDF911B
:10066000CF910895833081F028F4813099F0823061
:10067000A9F008958730A9F08830C9F08430B1F42A
:10068000809180008F7D03C0809180008F77809360
:100690008000089584B58F7784BD089584B58F7DDB
:1006A000FBCF8091B0008F778093B0000895809148
:1006B000B0008F7DF9CFCF93DF93282F30E0F90181
:1006C000E458FF4F8491F901E057FF4FD491F901AD
:1006D000E255FF4FC491CC23A1F081110E94320357
:1006E000EC2FF0E0EE0FFF1FEE58FF4FA591B491F5
:1006F000EC91ED2381E090E009F480E0DF91CF916F
:10070000089580E090E0FACF1F93CF93DF93282FD6
:1007100030E0F901E458FF4F8491F901E057FF4FB1
:10072000D491F901E255FF4FC491CC23A9F0162FC3
:1007300081110E943203EC2FF0E0EE0FFF1FEC5509
:10074000FF4FA591B4918FB7F894EC91111108C0A7
:10075000D095DE23DC938FBFDF91CF911F91089559
:10076000DE2BF8CF682F8DE00C948403CF93DF93BA
:1007700090E0FC01E057FF4F249182559F4FFC0110
:1007800084918823D1F090E0880F991FFC01E859EB
:10079000FF4FA591B491FC01EC55FF4FC591D49149
:1007A00061110EC09FB7F8948C91E22FE0958E23D3
:1007B0008C932881E223E8839FBFDF91CF91089536
:1007C0008FB7F894EC91E22BEC938FBFF6CF4F925A
:1007D0005F926F927F928F929F92AF92BF92CF92D1
:1007E000DF92EF92FF920F931F93CF93DF9300D08E
:1007F00000D01F92CDB7DEB78B0129013A0190914D
:1008000000018917C9F09F3F09F47EC00F900F9037
:100810000F900F900F90DF91CF911F910F91FF904C
:10082000EF90DF90CF90BF90AF909F908F907F9090
:100830006F905F904F900895E2ECF0E094919D836B
:1008400097FDE4CF61E00E94B6038D81882321F0FB
:100850009D81923009F04AC14801B12CA12C60E081
:1008600072E18AE790E0A50198010E940A1A2983A3
:100870003A834B835C8369017A0181E0C81AD1080D
:10088000E108F1089FEFC916D104E104F10409F071
:100890000CF401C160E472E48FE090E0A5019801DE
:1008A0000E940A1A69017A0181E0C81AD108E10898
:1008B000F1089D81923009F0A2C08FEFC816D104D3
:1008C000E104F10409F00CF4E6C160E970ED83E0A5
:1008D00090E0A50198010E940A1A69017A0191E04D
:1008E000C91AD108E108F1088FEFC816D104E10454
:1008F000F10411F00CF07FC183E09091B100987F7A
:10090000892B8093B100CFC080930001E2ECF0E02E
:1009100094919D839F3F09F479CF913041F150F03C
:10092000923009F446C09D8197FD70CF61E00E942E
:10093000B6038ECF14BC15BC94B5926094BD95B52A
:10094000916095BD282F30E0F901E255FF4FE49109
:10095000F0E0EE0FFF1FEC55FF4F45915491F90168
:10096000E057FF4FE491E093F8011D826BCF1092A6
:100970008000109281009091810098609093810096
:1009800090918100916090938100282F30E0F901CF
:10099000E255FF4FE491F0E0EE0FFF1FEC55FF4FE3
:1009A00045915491F901E057FF4FE491E093F7012D
:1009B00049CF1092B0001092B1009091B0009260B7
:1009C0009093B0009091B10091609093B100282F66
:1009D00030E0F901E255FF4FE491F0E0EE0FFF1F28
:1009E000EC55FF4F45915491509302024093010200
:1009F000F901E057FF4FE491E093030223CF9FEF0B
:100A0000C916D104E104F10409F00CF46DC068E4E6
:100A100078EE81E090E0A50198010E940A1A690130
:100A20007A0181E0C81AD108E108F1089D81992373
:100A300009F4FAC08FEFC816D104E104F10411F0F3
:100A40000CF0FBC0EFC064E274EF80E090E0A50121
:100A500094010E940A1A69017A0181E0C81AD1083A
:100A6000E108F10885E09FEFC916D104E104F10423
:100A700009F008F442CF62E17AE780E090E0A50156
:100A800094010E940A1A69017A0181E0C81AD1080A
:100A9000E108F108E5C081E09D8191112ECF95B567
:100AA000987F892B85BD2FEF3FEFA9014114510499
:100AB0006104710409F043C09D81913009F45EC066
:100AC000923009F46DC09111A1CEC7BC2093FD01F5
:100AD0003093FE014093FF015093000280916E001D
:100AE000826080936E0092CE82E0D6CFB12CA12C92
:100AF00060E072E18AE790E0A50198010E940A1A7D
:100B000069017A0181E0C81AD108E108F108C1142D
:100B1000D10491E0E906F10404F591E08D81813082
:100B200011F680918100887F892B809381002FEFBF
:100B30003FEFA9014114510461047104F9F0D80197
:100B4000AA0FBB1FA30192010E94291A28EE33E0CD
:100B500040E050E00E943C1AAFCF68E478EE81E0BC
:100B600090E0A50198010E940A1A69017A0181E0CA
:100B7000C81AD108E108F10893E0D0CFD0928900DB
:100B8000C09288002093F9013093FA014093FB0151
:100B90005093FC0180916F00826080936F0036CE8D
:100BA000C092B300209304023093050240930602E2
:100BB000509307028091700082608093700026CE6F
:100BC00084E09FEFC916D104E104F10409F008F4B0
:100BD00066CFC980DA80EB80FC808AE0F594E794E8
:100BE000D794C7948A95D1F781E0C81AD108E10853
:100BF000F10885E054CF68E478EE81E090E0A5014B
:100C000098010E940A1A69017A0181E0C81AD10884
:100C1000E108F1089FEFC916D104E104F10411F0D5
:100C20000CF011CF84E069CE83E09FEFC916D104A8
:100C3000E104F10409F00CF432CF62E17AE780E0DC
:100C400090E0A50194010E940A1A69017A0181E0ED
:100C5000C81AD108E108F1089D81992309F4B0CFA1
:100C600086E09FEFC916D104E104F10409F008F40D
:100C700044CEC980DA80EB80FC809AE0F594E7945A
:100C8000D794C7949A95D1F781E0C81AD108E108A2
:100C9000F10887E032CE82E030CE1F93CF93DF930E
:100CA000182FEB0161E00E94B603209739F460E051
:100CB000812FDF91CF911F910C948403CF3FD105F9
:100CC00011F461E0F5CFE12FF0E0E458FF4FE4913B
:100CD000E33031F140F4E130B1F0E230E1F0C0381E
:100CE000D1057CF7E4CFE73029F1E83059F1E43061
:100CF000B1F780918000806280938000D0938B0058
:100D0000C0938A0004C084B5806884BDC7BDDF91EC
:100D1000CF911F91089584B5806284BDC8BDF7CF7F
:100D200080918000806880938000D0938900C09378
:100D30008800EDCF8091B00080688093B000C093B0
:100D4000B300E5CF8091B00080628093B000C09383
:100D5000B400DDCF8E3008F08E50877080648093B1
:100D60007C0080917A00806480937A0080917A0080
:100D700086FDFCCF809178009091790008953FB76F
:100D8000F8948091F3019091F401A091F501B09154
:100D9000F60126B5A89B05C02F3F19F00196A11DAD
:100DA000B11D3FBFBA2FA92F982F8827BC01CD01B5
:100DB000620F711D811D911D42E0660F771F881F14
:100DC000991F4A95D1F708958F929F92AF92BF9243
:100DD000CF92DF92EF92FF926B017C010E94BF06DF
:100DE0004B015C01C114D104E104F104B9F00E948B
:100DF000BF06681979098A099B09683E7340810515
:100E0000910580F321E0C21AD108E108F10888EECB
:100E1000880E83E0981EA11CB11CE4CFFF90EF90D8
:100E2000DF90CF90BF90AF909F908F9008952FB795
:100E3000F8946091EF017091F0018091F10190912F
:100E4000F2012FBF08950F931F930E94BF06AB01BD
:100E5000BC018091860190918701A0918801B09199
:100E600089018A019B01081B190B2A0B3B0BD90135
:100E7000C8010097A140B10520F5809186019091AD
:100E80008701A0918801B09189019A01281B390B33
:100E9000C901409386015093870160938801709344
:100EA0008901E0910802E73090F4F0E0E65AF84F4B
:100EB0000C94791A640796070D084A087C07BB074B
:100EC0004A088FEF9FEFE5CF84E08093080280917E
:100ED000080262E070E0843010F063E070E080911E
:100EE0004F04823009F45BC1833009F45AC18FEF9B
:100EF0001F910F910C9401029C0127553A4123390F
:100F0000314110F481E0E1CF8B5693408F35914011
:100F100008F0BDC0109282011092830110928401EA
:100F2000109285011092810183E0CFCF10920802C8
:100F30009C012B523D402B3C384060F410928201C2
:100F40001092830110928401109285011092810108
:100F500085E0BBCF855996408736944008F0B7CFDF
:100F60000E941707609378037093790380937A0344
:100F700090937B03ACCF10920802855A91408B313D
:100F8000914008F0A4CF80918101803210F482E07A
:100F90009CCF8091820190918301A0918401B091B6
:100FA000850140918201509183016091840170918B
:100FB0008501892F9A2FAB2FBB2784279527A6273A
:100FC000B7279927BB278F3F9105AF4FB10509F090
:100FD0007ECF8091820190918301A0918401B09194
:100FE00085018A2F90E090937D0380937C030E947B
:100FF0001707609378037093790380937A03909333
:101000007B0381E080937E03E0914D04F0914E04D8
:10101000309709F45CCF09955ACF25E02093080258
:10102000409182015091830160918401709185010A
:101030007695679557954795409382015093830124
:101040006093840170938501209181012F5F20932B
:1010500081019C01205F34402D34334090F4809115
:10106000820190918301A0918401B0918501B068C3
:101070008093820190938301A0938401B0938501B2
:1010800026CF855A91408B31914008F420CF1092A1
:1010900008021DCF9C012F5A31092F35314048F5E8
:1010A0008091810180FD15C0809182019091830122
:1010B000A0918401B0918501880F991FAA1FBB1FC1
:1010C00081608093820190938301A0938401B09307
:1010D0008501809181018F5F8093810180918101E1
:1010E0008E3120F580910802863009F41DCF86E00C
:1010F000ECCE8D5092408F35914048F68091820120
:1011000090918301A0918401B0918501880F991F6E
:10111000AA1FBB1F8093820190938301A093840137
:10112000B0938501809181018E5FD6CF809182013D
:1011300090918301A0918401B09185019C01306858
:1011400090918001832F829586958770911104C0BC
:101150008370809380019BCF40918001837050E029
:101160008417150609F093CF30937D0320937C03F9
:101170000E941707609378037093790380937A0332
:1011800090937B0382E080937E03E0914D04F09185
:101190004E04309709F47BCF81E0099578CF80E049
:1011A000A7CE81E0A5CE8F929F92AF92BF92CF92B1
:1011B000DF92EF92FF920F931F93CF93DF93F894F8
:1011C00010917E0310927E03C0917C03D0917D0329
:1011D0008090780390907903A0907A03B0907B037D
:1011E000789481149104A104B10409F413C13CE280
:1011F000C32EDD24D394E12CF12CD7FD06C0C09082
:101200000901D0900A01F12CE12C0E9417076819FE
:1012100079098A099B0920915D046C157D058E056D
:101220009F0508F0CBC0211136C0209709F43FC1BB
:1012300012E0D7FF11E0E0914D04F0914E04309799
:1012400011F081E0099510925F0410925E04D7FFBF
:1012500035C18C2F8770805A80935D048C2F8695C2
:10126000869586958051990B04E0880F991F0A9501
:10127000E1F790935A04809359048D2F8F71805118
:10128000990B24E0880F991F2A95E1F790935C044D
:1012900080935B0402C01111D6CF0091600400233B
:1012A00009F471C0D7FF6FC08091590490915A041E
:1012B00040915B0450915C04BC0197FF04C0662719
:1012C0007727681B790B9A0157FF04C02227332721
:1012D000241B350B260F371F283231050CF469C04B
:1012E000DC0197FD1196B595A795E1E0A417B50728
:1012F0000CF0E0E0BA0157FF02C06F5F7F4F7595B9
:101300006795861797070CF4EE5FBA0157FF02C086
:101310006F5F7F4F75956795719561957109861718
:1013200097070CF4EC5FCC27DD27C41BD50BAC175B
:10133000BD070CF4E85FF0E0E05DFE4F6081609374
:101340005E04633761F028F4613789F1369527959B
:1013500007C0643739F16637C9F79E0101C09C01A7
:101360002F3F310519F010F02FEF30E020935F048C
:10137000023049F480915D04803629F480915E0446
:10138000811180935D04812F90E0DF91CF911F91B7
:101390000F91FF90EF90DF90CF90BF90AF909F9014
:1013A0008F90089522273327281B390BD9CF9A0114
:1013B000D7CF10925E0410925F04DACF222319F384
:1013C00010925F0410925E0410925C0410925B0411
:1013D00010925A041092590410925D0410927803EE
:1013E0001092790310927A0310927B03E0914D04DE
:1013F000F0914E04309711F080E009950E94170794
:1014000060937403709375038093760390937703CE
:1014100011E0B9CF0E941707C0907403D0907503F4
:10142000E0907603F0907703DC01CB018C199D09E5
:10143000AE09BF09CD2B79F04091090150910A0105
:1014400070E060E0481759076A077B0720F41092A4
:101450007D0310927C0327E0B695A7959795879515
:101460002A95D1F70097A105B10509F48CCF8F70AB
:101470009927AA27BB270097A105B10551F4E09150
:101480004D04F0914E0481E0309709F47CCF09952A
:101490007ACF0197A105B10509F075CFE0914D0410
:1014A000F0914E04309709F46ECF80E0F0CF112315
:1014B00009F4F3CE10925F0410925E04C0935D04B1
:1014C00010925C0410925B0410925A04109259041A
:1014D000E4CE08952091CB01260F3327331F21320C
:1014E0003105ECF420914A02FC0190E080E02430C8
:1014F00069F082E00895A091CB012191AC0145559E
:101500005E4FA40FB52FB11D2C930196861798F34B
:101510008091CB01680F6093CB0180E0089581E05A
:10152000089510924A0281E08093490210922402A9
:1015300061E082E10E94840361E083E10E94840310
:10154000E9EBF0E080818E7F808380818D7F8083D6
:1015500088E48093B80085E48093BC000895CF931D
:10156000DF9391E09093AA018823B9F0C091B8006D
:10157000D091BA008091BC008A7B8093BC0060E06F
:1015800082E10E94840360E083E10E9484030E9460
:10159000910AD093BA00C093B800DF91CF9108951B
:1015A0008F929F92AF92BF92CF92DF92EF92FF9273
:1015B0000F931F93CF93DF93D0917302D13208F032
:1015C000D7C0182FC09172020E94BF066B017C0128
:1015D00080914A0281116BC082E080934A0210938D
:1015E00049028FEF8093480210924702D09346023F
:1015F000A2E5B2E0E6E2F2E080E0D81391C01092FA
:10160000250280912502CC0FC82BC0932502809122
:101610002402813009F088C0109224020E94BF0683
:101620006B017C01809125028093BB0080914C026C
:1016300090914D02A0914E02B0914F02892B8A2BBE
:101640008B2BA1F00E94BF0600914C0210914D021D
:1016500020914E0230914F026C197D098E099F092D
:10166000061717072807390708F442C08091BC0005
:1016700083FDD8CF85EC8093BC000E94BF066B0130
:101680007C0180914A02823009F450C08091480266
:101690008F3F09F46FC080914802803209F46CC01A
:1016A00080914802803309F469C084E026C08091AB
:1016B0004C0290914D02A0914E02B0914F02892BA5
:1016C0008A2B8B2B09F484CF0E94BF0680904C029A
:1016D00090904D02A0904E02B0904F026C197D097F
:1016E0008E099F0986169706A806B90608F070CFDE
:1016F00080914B020E94AF0A85E010925102109235
:10170000730210925002DF91CF911F910F91FF90C1
:10171000EF90DF90CF90BF90AF909F908F90089503
:101720009D9191938F5F69CF85EEA5CF80914C02FB
:1017300090914D02A0914E02B0914F02892B8A2BBD
:101740008B2B09F49ECF0E94BF0600914C02109192
:101750004D0220914E0230914F026C197D098E0985
:101760009F09061717072807390708F08ACFC0CF47
:1017700081E0C3CF80E0C1CF82E0BFCF83E0BDCFA7
:101780000895E0910E0280910D02E81730F4F0E028
:10179000E657FE4F808190E008958FEF9FEF089508
:1017A00090910E0280910D022FEF3FEF981748F4B1
:1017B000E92FF0E0E657FE4F208130E09F5F9093E5
:1017C0000E02C901089580910D0290910E02891BAD
:1017D000990B0895CF92DF92EF92FF920F931F9390
:1017E000CF93DF937C01CB018A0120915002222309
:1017F00089F0EB016B01C40ED51ECC15DD0569F037
:101800006991D701ED91FC910190F081E02DC70124
:101810000995F3CF642F0E946A0AC801DF91CF9126
:101820001F910F91FF90EF90DF90CF900895CF938D
:10183000DF931F92CDB7DEB7698320915002222338
:10184000F9F020917302203258F021E030E0FC01E1
:101850003383228390E080E00F90DF91CF91089551
:1018600080915102E82FF0E0EE5AFD4F998190836C
:101870008F5F809351028093730281E090E0ECCF00
:1018800061E0CE0101960E946A0AF7CF90E080E005
:1018900008950F931F93CF93DF938B0183309105AE
:1018A00011F580917F0181110BC081E080937F0150
:1018B00061E089E00E94B60361E08AE00E94B6031D
:1018C00061E0101611060CF060E089E00E948403CC
:1018D000612F661F6627661F8AE0DF91CF911F91F7
:1018E0000F910C948403EC01CC0FDD1F6F3F710549
:1018F00009F0A4F461308FEF78079CF077FD13C0F6
:10190000C95DDE4F61E089810E948403B80188814E
:10191000DF91CF911F910F910C944D060FEF10E0C6
:10192000EFCF01E01FEFC95DDE4F60E089810E94CB
:10193000840366277727601B710BE9CFCF93DF9372
:10194000EC01FB0180911F029091200297FD29C0BC
:1019500080911F0290912002092E000CAA0BBB0B54
:1019600020E031E040E050E0281B390B4A0B5B0BD4
:10197000DB010E94341A672F782F892F992787FD62
:101980009A95FB01BF0190E080E00E94490C662718
:1019900077276C1B7D0B81E090E0DF91CF910C9459
:1019A000490C20911F0230912002032E000C440BA1
:1019B000550B3F5F4F4F5F4FDE010E94341A672F78
:1019C000782F892F992787FD9A95EB01DBCF9B0113
:1019D000880F991F880F991FFC01E55FFE4F8281D8
:1019E0009381289FB001299F700D389F700D11249D
:1019F00080819181AC01249FC001259F900D349F6F
:101A0000900D11240C949E0CCF92DF92EF92FF92D6
:101A10006B01770FEE08FF08009731F0BC01A701BA
:101A2000960188E00E94E703C701B601FF90EF909E
:101A3000DF90CF900C94E406E4E7F2E02FEF2083F0
:101A400025E5218323E0228322E023838483958379
:101A500046E050E0BF018FE793E00C942502E4E7F5
:101A6000F2E09FEF908395E5918392E0928391E07D
:101A70009383848345E050E0BF018FE793E00C94AB
:101A80002502E4E7F2E08FEF808385E5818312820F
:101A900043E050E0BF018FE793E00C942502E82F6C
:101AA000F0E0E15FFD4FE081EC5FF0E0EC58FD4FCE
:101AB0009181808108956CE271E00C94040D1F9374
:101AC000CF93DF93182FC82FD0E0AE0164E772E008
:101AD00089E792E00E947F1AE4E7F2E08FEF8083CB
:101AE00085E5818382E0810F828387E0838314838D
:101AF000AE014B5F5F4FBF018FE793E0DF91CF9166
:101B00001F910C94250285ED8093BC0080914C02BE
:101B100090914D02A0914E02B0914F020796A11DE7
:101B2000B11D23E0B695A795979587952A95D1F78E
:101B30002091BC0024FD03C010924A0208954091F8
:101B40004C0250914D0260914E0270914F02452B14
:101B5000462B472B69F30097A105B10541F025E31A
:101B60002A95F1F700000197A109B109E1CF809111
:101B70004B020C94AF0AFF920F931F93CF93DF9306
:101B80009093200280931F0280911F029091200267
:101B9000D0E0C0E08038910544F08FE790E090936A
:101BA000200280931F02CFEFDFEF80911F02909100
:101BB000200280389F4F44F480E89FEF90932002EA
:101BC00080931F02CFEFDFEF00911F0210912002E0
:101BD00090E080E00E94F419081729F0602F90E04F
:101BE00080E00E94FC19CE01DF91CF911F910F91EF
:101BF000FF90089520911F0230912002820F931FC1
:101C00009093200280931F0280911F0290912002E6
:101C10000C94BB0D4F925F926F927F928F929F9226
:101C2000AF92BF92CF92DF92EF92FF920F931F93EA
:101C3000CF93DF937C018B01D62F0E94BF064B010F
:101C40005C0180914A0281116AC0C02FD13208F034
:101C5000C0E281E080934A02809349029FEF909313
:101C60004802109247029C0F9093460280932502EF
:101C700080912502EE0CFF1C8E2980932502809115
:101C80002402813009F087C0109224020E94BF060E
:101C90006B017C01809125028093BB0080914C02F6
:101CA00090914D02A0914E02B0914F02892B8A2B48
:101CB0008B2BA1F00E94BF0680904C0290904D02A9
:101CC000A0904E02B0904F026C197D098E099F09B9
:101CD00086169706A806B90608F442C08091BC0093
:101CE00083FDD8CF85EC8093BC000E94BF066B01BA
:101CF0007C0180914A02813009F44FC080914702F3
:101D00008C1710F4C0914702A6E2B2E0EAE8F1E0D5
:101D100080E08C1751F19D9191938F5FFACF809164
:101D20004C0290914D02A0914E02B0914F02892B2E
:101D30008A2B8B2B09F485CF0E94BF0640904C0262
:101D400050904D0260904E0270904F0268197909D0
:101D50008A099B09461657066806790608F071CF6E
:101D600080914B020E94AF0AC0E010920E02C09315
:101D70000D02C01711069CF1C4E7D2E0C8018C58CF
:101D80009D4F7C01CE15DF05E1F18CE194E00E94CE
:101D9000D00B8993F7CF85EEA6CF80914C0290911E
:101DA0004D02A0914E02B0914F02892B8A2B8B2BB2
:101DB00009F49FCF0E94BF0680904C0290904D0284
:101DC000A0904E02B0904F026C197D098E099F09B8
:101DD00086169706A806B90608F08BCFC1CFDF910B
:101DE000CF911F910F91FF90EF90DF90CF90BF9018
:101DF000AF909F908F907F906F905F904F900C94DA
:101E0000410D802FDF91CF911F910F91FF90EF90A7
:101E1000DF90CF90BF90AF909F908F907F906F900A
:101E20005F904F900C945F0D1F920F920FB60F9220
:101E300011242F933F934F935F936F937F938F93CF
:101E40009F93AF93BF93EF93FF9380910402909180
:101E50000502A0910602B0910702892B8A2B8B2BD9
:101E6000D1F190910302E0910102F0910202808190
:101E7000892780838091040290910502A091060237
:101E8000B0910702181619061A061B069CF48091D9
:101E9000040290910502A0910602B09107020197F9
:101EA000A109B1098093040290930502A093060250
:101EB000B0930702FF91EF91BF91AF919F918F91E6
:101EC0007F916F915F914F913F912F910F900FBE36
:101ED0000F901F90189580910001E2ECF0E0E491E2
:101EE0009FEF90930001E13051F030F0E23069F063
:101EF00060E00E948403DECF10926E00F9CF9091D3
:101F00006F009D7F90936F00F3CF909170009D7F45
:101F10009093700091E09093B0009091B100987F01
:101F200094609093B1001092B300E2CF1F920F9291
:101F30000FB60F9211242F933F934F935F936F939C
:101F40007F938F939F93AF93BF93EF93FF938FE70D
:101F500093E00E94A302FF91EF91BF91AF919F91F7
:101F60008F917F916F915F914F913F912F910F9042
:101F70000FBE0F901F9018951F920F920FB60F92E1
:101F800011242F938F939F93EF93FF93E0918F03EF
:101F9000F09190038081E0919503F091960382FD8A
:101FA0001BC09081809198038F5F8F73209199035C
:101FB000821741F0E0919803F0E0E158FC4F958FD3
:101FC00080939803FF91EF919F918F912F910F90A4
:101FD0000FBE0F901F9018958081F4CF1F920F9223
:101FE0000FB60F9211242F933F938F939F93AF932C
:101FF000BF938091EF019091F001A091F101B09118
:10200000F2013091EE0123E0230F2D3758F50196B0
:10201000A11DB11D2093EE018093EF019093F0017B
:10202000A093F101B093F2018091F3019091F4013A
:10203000A091F501B091F6010196A11DB11D80930B
:10204000F3019093F401A093F501B093F601BF91D1
:10205000AF919F918F913F912F910F900FBE0F9055
:102060001F90189526E8230F0296A11DB11DD2CF0F
:102070001F920F920FB60F9211242F933F934F93FD
:102080005F936F937F938F939F93AF93BF93EF93E0
:10209000FF93E0910701F09108010995FF91EF91FD
:1020A000BF91AF919F918F917F916F915F914F9170
:1020B0003F912F910F900FBE0F901F9018951F9278
:1020C0000F920FB60F9211242F933F934F935F936C
:1020D0006F937F938F939F93AF93BF93EF93FF93F0
:1020E000E0910501F09106010995FF91EF91BF91F3
:1020F000AF919F918F917F916F915F914F913F91A0
:102100002F910F900FBE0F901F9018951F920F9256
:102110000FB60F9211242F933F934F935F936F93BA
:102120007F938F939F93AF93BF93EF93FF93809190
:10213000B900887F803609F44AC0F0F5883209F486
:10214000A7C018F5803109F49BC0B8F4882309F4BE
:10215000F9C0883009F494C0FF91EF91BF91AF911D
:102160009F918F917F916F915F914F913F912F91AF
:102170000F900FBE0F901F901895883109F488C0FA
:10218000803251F78093480214C0803409F49DC016
:1021900040F48033B9F38833F9F68093480285EC34
:1021A000B0C0803509F485C0883509F496C08834FC
:1021B00099F60E94830DD0CF883909F48CC038F588
:1021C000883729F050F4883611F0803729F683E0FB
:1021D00080934A021092ED0157C0883809F47BC001
:1021E000803919F0803809F0B7CF8091ED01803245
:1021F00008F071C0E091ED0181E08E0F8093ED0158
:102200008091BB00F0E0E353FE4F80833DC0803BF4
:1022100039F0E0F4803A09F479C0883A09F09CCFAB
:1022200084E080934A021092CC011092CB01E0919D
:102230000B02F0910C0209958091CB0181110FC026
:1022400081E08093CB011092AB0109C0803C09F47E
:10225000A6CF883C09F4A3CF883B09F07DCFE0915D
:10226000CC0181E08E0F8093CC01F0E0E555FE4F6C
:1022700080818093BB009091CC018091CB0129C0DB
:10228000809125028093BB0085EC8093BC0064CFD5
:102290009091470280914602981758F5E0914702C5
:1022A00081E08E0F80934702F0E0EA5DFD4F808170
:1022B000E9CFE091470281E08E0F80934702809141
:1022C000BB00F0E0EA5DFD4F808390914702809172
:1022D00046029817C8F285E8D8CFE091470281E01E
:1022E0008E0F809347028091BB00F0E0EA5DFD4FC6
:1022F00080838091490281115CCF81E08093240228
:1023000084EA8093BC0010924A0226CF85EC809329
:10231000BC0010924A028091ED01803230F4E091CD
:10232000ED01F0E0E353FE4F10826091ED0170E0AB
:10233000E0910902F0910A028DEC91E0099510926A
:10234000ED010ACF1092480234CF1F920F920FB6C0
:102350000F9211242F933F934F935F936F937F932B
:102360008F939F93AF93BF93CF93DF93EF93FF939D
:1023700080917E01C0914C04D0E087FF24C0109270
:1023800085001092840080917E018F5F80937E0192
:1023900080917E01082E000C990B8C179D0724F468
:1023A00080917E018C30C4F18091840090918500F1
:1023B000049680349C4908F47AC0809184009091FE
:1023C0008500049676C080917E01082E000C990B42
:1023D0008C179D07C4F6E0917E018E2FEE0F990BAE
:1023E000FC01EE0FFF1FE80FF91FE85DFB4F808136
:1023F00086FFC9CFE0917E018E2FEE0F990BFC0175
:10240000EE0FFF1FE80FF91FE85DFB4F808160E0D2
:102410008F730E948403B7CF209184003091850090
:10242000E0917E018E2FEE0F990BFC01EE0FFF1F46
:10243000E80FF91FE85DFB4F81819281820F931FA6
:102440009093890080938800E0917E018E2FEE0F9B
:10245000990BFC01EE0FFF1FE80FF91FE85DFB4F22
:10246000808186FF11C0E0917E018E2FEE0F990BC7
:10247000FC01EE0FFF1FE80FF91FE85DFB4F8081A5
:1024800061E08F730E948403FF91EF91DF91CF9100
:10249000BF91AF919F918F917F916F915F914F917C
:1024A0003F912F910F900FBE0F901F90189580E4D1
:1024B0009CE990938900809388008FEF80937E0140
:1024C000E3CF109282031092810388EE93E0A0E0A4
:1024D000B0E08093830390938403A0938503B0932B
:1024E000860324E431E03093800320937F0325ECBE
:1024F00030E030938C0320938B0324EC30E0309356
:102500008E0320938D0320EC30E0309390032093D2
:102510008F0321EC30E0309392032093910322EC5F
:1025200030E0309394032093930326EC30E0309313
:10253000960320939503109298031092990310929A
:102540009A0310929B0310921F0410921E04809312
:10255000200490932104A0932204B093230486E5E1
:1025600091E090931D0480931C041092600482E01B
:1025700080934F0482EB93E090934E0480934D043C
:102580008EE690E090930A0180930901E0E5F4E083
:1025900029E534E04FEF68EB7BE080914C048C3010
:1025A000B0F491E0980F90934C04808390E0DC01AC
:1025B000AA0FBB1FA80FB91FA85DBB4F12967C9333
:1025C0006E93119733962E173F0739F7089540837E
:1025D000F9CF789484B5826084BD84B5816084BD70
:1025E00085B5826085BD85B5816085BD80916E00B1
:1025F000816080936E0010928100809181008260E2
:10260000809381008091810081608093810080911E
:1026100080008160809380008091B100846080930D
:10262000B1008091B00081608093B00080917A0009
:10263000846080937A0080917A00826080937A002F
:1026400080917A00816080937A0080917A0080681E
:1026500080937A001092C10014BE0FB6F894A8952A
:1026600080916000886180936000109260000FBECE
:10267000E0918F03F091900382E08083E0918B03DF
:10268000F0918C031082E0918D03F0918E0380E134
:10269000808310929703E0919303F091940386E076
:1026A0008083E0919103F091920380818061808327
:1026B000E0919103F0919203808188608083E091A2
:1026C0009103F0919203808180688083E09191036F
:1026D000F091920380818F7D808361E08DE00E9484
:1026E000B60360E08DE00E94840361E084E00E9414
:1026F000B60361E087E00E94B60361E08CE00E94CF
:10270000B60361E088E00E94B60383E084BD85BD26
:1027100091E0909380009BE0909381008093B000C3
:1027200084E08093B10090E080E00E94F41990E092
:102730009093200280931F0280911F0290912002AB
:10274000803891054CF080911F02909120029A955B
:102750009093200280931F02D0914F0460E08D2F50
:102760000E94B60380E0D23021F08FEFD33009F41D
:1027700081E062E070E00E94010210920802109273
:102780007D0310927C0362E370E084EF91E00E948D
:10279000040D61E08FE00E94B60360E08FE00E94CC
:1027A000840303EC10E0F8016491662341F08FE7A5
:1027B00093E00E94C5020F5F1F4F892BA1F742E0F3
:1027C00050E06BE771E08FE793E00E94250283E21F
:1027D000282E82E0382ED1E01CE0D12E02E0C02E5F
:1027E0008FE793E00E948302181619060CF0EAC4E2
:1027F000D09321028FE793E00E94610297FDE2C42B
:1028000040912202509123029A012F5F3F4F309353
:102810002302209322024C585D4FDA018C93223020
:10282000310509F453C078F52130310509F43FC072
:102830006091030170910401809122029091230222
:102840008617970708F4C7C380917502843509F08D
:102850004DC0C0917802C73109F47AC208F00AC1AC
:10286000C73009F421C208F0D7C0C33009F4BEC193
:1028700008F0BCC0C13009F4A0C1C23009F4ABC13A
:102880000E94410DA4C32330310529F124303105C4
:1028900079F620917502243559F62091760230E0C0
:1028A0002C5F3F4F982F8827820F931F1AC0E4E0B8
:1028B000F0E0F0930401E09303018F3F910509F4E8
:1028C0008AC31092230210922202B2CF845591093A
:1028D0000297B8F7ADCF209175020396253509F020
:1028E000A7CF9093040180930301A2CF853509F00F
:1028F000B2CFC0917702CB31C0F5F0E1CF9F90010C
:10290000112425503E4F80E1EFE0F2E011928A95CC
:10291000E9F72115310509F49ECFEFE0EE2EE2E054
:10292000FE2E50E040E090E080E0F901E40FF51F5A
:10293000E491EE2309F48FCFD7018D937D01EC3420
:10294000E9F1A0F5E434E1F1E634C1F1E23409F44F
:102950000196FC0134966E177F0708F438C34F5F69
:102960005F4F4031510509F776CF8FE78C0F8D30DF
:1029700060F48C2F8158990B9C01A4E0220F331F27
:10298000AA95E1F7255D3E4FBECF30E020E0CB3F7A
:1029900008F4B9CFAC2FAB5FBB0B9D01F4E0220F65
:1029A000331FFA95E1F725523F4FADCFE236B1F034
:1029B000E33741F0E33569F60296CBCF0496C9CFF1
:1029C0000896C7CFFC01E858FD4FDF010D900020AD
:1029D000E9F78E1B9F0B8A0F9B1FBBCFFC01EC58A6
:1029E000FD4FE48101968E0F911DB3CFC53009F4E0
:1029F00056C110910F02C63008F441C181E00E9417
:102A00004F0DBC01E12FF0E0EC58FD4F8481815067
:102A1000990B0E94490C34CFC23109F459C170F4AA
:102A2000C93009F44EC108F445C1CA3009F028CFB5
:102A300080E00E944F0D0E94BB0D22CFC43109F4EB
:102A400077C108F45CC1C53109F01ACFE0910F02DB
:102A5000F0E0EC58FD4F848160E0825F0E94B60395
:102A6000E0910F02F0E0EC58FD4F8481825F0E94FC
:102A70005B037BC2C63809F4BFC208F042C0C2384B
:102A800009F454C2D8F4C03809F476C3C13809F047
:102A9000F7CE10920E0210920D0210925102109277
:102AA00073020E94910A30920C0220920B0224E2DF
:102AB00032E030930A0220930902E2CEC43809F4CE
:102AC00098C208F455C2F12C10E000E0D0935002F7
:102AD000F0927202109251021092730281E00E94F1
:102AE000D00A811106C0F801EC58FD4FF0820F5F4B
:102AF0001F4FF3943FE7F312E9CF802F0E945F0D41
:102B000066C2CA3809F4D5C218F570900F02C838E9
:102B100009F492C2E72DC93808F40CC182E00E9482
:102B20004F0D4C0181E00E944F0D092C000CAA08AA
:102B3000BB08E72DF0E0EC58FD4FA5019401BC0166
:102B400084810E94E703C501B4010E94E40698CE87
:102B5000CE3F09F4FDC208F004C3CD3809F090CE91
:102B60000091110210E0F801E858FD4FA080B12C4F
:102B7000E0911002F0E0EC58FD4F748080E00E947C
:102B80004F0D4C0107581D4F7801C701801B910B59
:102B90008A159B050CF0B4C2F70162818181762F02
:102BA000682F94E0759567959A95E1F780810E946A
:102BB0004D06F3E0EF0EF11CE8CF61E08DE00E94DE
:102BC000B603E0910F02F0E0EC58FD4F64818DE018
:102BD0000E94840355CE81E00E944F0D8C0180E05D
:102BE0000E944F0DB8010E94040D4ACE81E00E9460
:102BF0004F0D8C01E0910F02F0E0EC58FD4F848105
:102C00006EE0762E780EE0911102F0E0EC58FD4F68
:102C10008481882371F061E0872D0E94B60360E013
:102C2000872D0E94840361E070E080E090E00E94C4
:102C3000E40660E0872D0E94B6030115110511F42A
:102C400001E010E084E6809F7001819FF00C112468
:102C500010E000E0812C912C54010E151F0509F4A1
:102C600013C2872D0E94AA06092E000CAA0BBB0BCB
:102C7000880E991EAA1EBB1E0F5F1F4FEECFE0915C
:102C80001002F0E0EC58FD4F648170E0E12FF0E0BD
:102C9000EC58FD4F848190E00E94E70CF1CD70E08C
:102CA00060E090E080E0F8CF80E00E944F0D0E944D
:102CB000FA0DE6CD80E00E944F0D91958195910926
:102CC000F6CF80911F02909120020E941C0D7FC1BF
:102CD000E0910F02F0E0EC58FD4F61E084810E942A
:102CE000B603A0911002B0E0AC58BD4FE0910F02C6
:102CF000F0E0EC58FD4F14966C91848169CFE0911F
:102D00000F02F0E0EC58FD4F848161E0825F0E9489
:102D1000B603E0911002F0E0EC58FD4FA0910F02D5
:102D2000B0E0AC58BD4F14968C916481825F50CF57
:102D3000E0910F02F0E0EC58FD4F60E084810E94CA
:102D4000B603E0910F02F0E0EC58FD4F84818FCE86
:102D5000E0910F02F0E0EC58FD4F048110E05801C3
:102D6000AA0CBB1CC501800F911FFC01E05BFB4F4F
:102D70007F014081842F90E09C01220F331F820F3E
:102D8000931FFC01E85DFB4F808186FD5EC0F8016A
:102D9000E35DFE4F90804C3008F057C061E0892D14
:102DA0000E94B603D7018C91282F30E0A901440F6F
:102DB000551F240F351FF901E85DFB4FB92DBF7377
:102DC0009B2E9081907C992A9082F7011182128229
:102DD0006D2D0E946D1A8D9DF001112450E040E090
:102DE000BF01640F751F9B01220F331F260F371F72
:102DF000D901A85DBB4F9C9196FD15C04F5F5F4FF9
:102E00004C30510569F781110EC010928000C092BC
:102E100081001092850010928400B19A80916F0019
:102E2000826080936F000A0D1B1DF801E05BFB4F71
:102E3000208130E0C901880F991F820F931FFC0188
:102E4000E85DFB4F808180648083E0910F02F0E0B9
:102E5000EC58FD4FE480F12C4701880C991CF401DB
:102E6000EE0DFF1DE05BFB4F8281A8E5AA2EA2E0DC
:102E7000BA2EA81AB10887FDB394AA0CBB1CAA0CE1
:102E8000BB1C818108E810E0081B110987FD139520
:102E9000000F111F000F111F2801012E000C6608E2
:102EA0007708E0911002F0E0EC58FD4FA481B0E00B
:102EB000A53BB10514F0A4EBB0E095010B2C000C80
:102EC000440B550B24193509460957090E94341A39
:102ED00024EB30E040E050E00E940A1A420E531EFC
:102EE000641E751EF401EE0DFF1DE05BFB4F20819B
:102EF0002C3008F0C5CC401651062CF085014A1440
:102F00005B040CF4820102501109000F111F4FB72E
:102F1000F89430E0C901880F991F820F931FFC01BC
:102F2000E85DFB4F128301834FBFAACCE0910F02F3
:102F3000F0E0EC58FD4F8481D093500280937202F0
:102F400010925102109273026091100270E0FB0126
:102F5000E858FD4F408150E067587D4F8CE194E088
:102F60000E94EA0B81E00E94D00A0E942F0D2FC020
:102F7000E0910F02F0E0EC58FD4F8481D0935002B5
:102F800080937202109251021092730260911002AB
:102F900070E0FB01E858FD4F408150E067587D4FDD
:102FA0008CE194E00E94EA0B80E00E94D00AE0915C
:102FB0001102F0E0EC58FD4F648170E0E0910F02E7
:102FC000F0E0EC58FD4F848190E00E940A0E1092D0
:102FD00023021092220280912202909123028F3FBD
:102FE000910509F008F4FCCB109223021092220202
:102FF000F2CBE0911002DDCF00910F0210E0F8015A
:10300000E858FD4FA080B12C07581D4F7801C7012B
:10301000801B910B8A159B050CF032CC61E0D70127
:103020008C910E94B603F701618180810E94840324
:10303000F2E0EF0EF11CEBCF81E00E944F0D7C011E
:10304000E72DF0E0EC58FD4F748060E0872D0E9482
:10305000B603E114F10419F4EE24E394F12C812C6D
:10306000912C540110E000E0872D0E94AA06092E41
:10307000000CAA0BBB0B880E991EAA1EBB1E0F5F6D
:103080001F4F0E151F0581F7980150E040E0C50164
:10309000B4010E943C1AA1E7B2E00E94291ADC01A7
:1030A000CB0137E0B695A795979587953A95D1F7D7
:1030B0000CCE00910F0210E0F801E858FD4FA080FF
:1030C000B12C07581D4F7801C701801B910B8A1541
:1030D0009B050CF0D5CBD70112966C9112971196E7
:1030E0008C911197762F682F24E0759567952A9516
:1030F000E1F78C910E944D06B3E0EB0EF11CE4CF9A
:103100008114910409F4BCCBB401990C880B990B80
:103110000E94E40621E083E391E0721611F090E052
:1031200080E07C0184E0F694E7948A95E1F7480119
:10313000C401801B910B8A159B050CF0A1CBB70134
:10314000D4018C910E944D06B3E08B0E911CF0CF00
:1031500049E150E064E671E08FE793E00E942502C8
:1031600036CF88E198E00FB6F894A8958093600078
:103170000FBE90936000FFCF8FEF8093740285E5C0
:103180008093750286E080937602C09377020E9456
:10319000D30880915D0480937802909159048091C6
:1031A0005A049093790280937A0290915B04809103
:1031B0005C0490937B0280937C0249E050E064E7DA
:1031C00072E0CACF80912102811171C00E94D308A0
:1031D0008C0180915D048534C1F118F0883408F4C5
:1031E00045C00115110509F462C00230110579F4DA
:1031F00020915B0430915C048091590490915A04B1
:10320000B901681B790B820F931F0E949E0C80915D
:103210005D048C3109F4CCC008F063C08D3009F432
:10322000ABC0B8F5883009F4BCC018F5873009F494
:103230008EC00230110531F070E060E090E080E077
:103240000E949E0C70E060E060C08FEF9FEF0E94D4
:10325000FA0D892B31F680911F029091200266E9C8
:1032600070E08A5F9E4F0E94040DBBCF81E090E02A
:10327000EECF893009F472C08C30D9F686E091E047
:103280000E945B0D87E490E090930201809301011E
:103290000EC0863109F469C0B8F4853151F66091E9
:1032A00001017091020190E080E00E94E70C80E053
:1032B00090E0892B09F48FCA0E948F02882309F4B9
:1032C0008ACA0E94000087CA883109F45CC089312B
:1032D00009F0AFCF609101017091020183E090E0AD
:1032E000E4CF8A3409F479C0A8F4823409F467C0C1
:1032F00018F48034A1F29DCF833409F1843409F0AD
:1033000098CF609101017091020182E090E00E94EB
:10331000490CCDCF8E35F1F168F4823509F456C0F1
:103320008A3509F086CF88EB91E00E945B0D8AEB2D
:1033300090E0AACF833629F3843609F07ACF6091E2
:10334000010170910201719561957109DECF609163
:1033500001017091020181E090E0A7CF609101012D
:103360007091020182E090E0A0CF60910101709124
:10337000020184E090E099CF609101017091020117
:1033800085E090E092CF86E291E00E945B0D8EE5B1
:1033900090E07ACF8AE491E00E945B0D85E790E0AF
:1033A00073CF8DE591E00E945B0D8CE890E06CCFCF
:1033B00088E891E00E945B0D83EA90E065CF8EEE95
:1033C00091E00E945B0D81ED90E05ECF8BE092E09A
:1033D0000E945B0D88EE90E057CF8BE492E00E9454
:1033E0005B0D8FEF90E050CFF999FECF92BD81BD7C
:1033F000F89A992780B50895262FF999FECF1FBA1C
:1034000092BD81BD20BD0FB6F894FA9AF99A0FBE0D
:1034100001960895052E97FB1EF400940E94211A30
:1034200057FD07D00E943C1A07FC03D04EF40C94C1
:10343000211A50954095309521953F4F4F4F5F4F42
:10344000089590958095709561957F4F8F4F9F4F10
:1034500008950E945E1AA59F900DB49F900DA49FA1
:10346000800D911D11240895B7FF0C94291A0E9414
:10347000291A821B930B0895A1E21A2EAA1BBB1BCB
:10348000FD010DC0AA1FBB1FEE1FFF1FA217B30730
:10349000E407F50720F0A21BB30BE40BF50B661F46
:1034A000771F881F991F1A9469F76095709580950A
:1034B00090959B01AC01BD01CF010895A29FB00181
:1034C000B39FC001A39F700D811D1124911DB29F58
:1034D000700D811D1124911D0895991B79E004C080
:1034E000991F961708F0961B881F7A95C9F7809543
:1034F0000895EE0FFF1F0590F491E02D09946817D1
:10350000790768F4FB01DC01E40FF51FA40FB51F78
:1035100002C002900E9241505040D8F708950C948A
:10352000911AFB01DC0102C001900D924150504004
:08353000D8F70895F894FFCFCD
:10353800FFFF000400690A690A6E0001000100002B
:1035480000010001000000FFFFFFFFFFFF01000175
:1035580000FFFF00000000050406070B0C03090A22
:1035680073700071000000727500000076007774B7
:1035780000000000C5022502520212038302610204
:10358800750200000000170CEA0B460CC00BE30B99
:10359800D00BC10B5043206D6F64653A2052656DA6
:0E35A8006F636F6E526F626F312E320D0A002C
:00000001FF
