:100000000C9463000C948B000C948B000C948B006C
:100010000C948B000C948B000C948B000C94350783
:100020000C948B000C948B000C948B000C948B0024
:100030000C948B000C948B000C948B000C948B0014
:100040000C940F080C948B000C94DD070C94B707EC
:100050000C948B000C948B000C948B000C948B00F4
:100060000C9459080C948B00000000002400270019
:100070002A0000000000250028002B0000000000DE
:1000800023002600290004040404040404040202DA
:100090000202020203030303030301020408102007
:1000A0004080010204081020010204081020000012
:1000B0000008000201000003040700000000000027
:1000C00000000200780911241FBECFEFD8E0DEBF88
:1000D000CDBF12E0A0E0B1E0EEE1FBE102C005908F
:1000E0000D92AE38B107D9F725E0AEE8B2E001C015
:1000F0001D92A631B207E1F710E0C3E6D0E004C0DC
:100100002197FE010E945D0DC236D107C9F70E94FA
:10011000B1090C948D0D0C940000982F20916C0364
:1001200081E0213208F043C0809148038111FCCF67
:1001300080916B0332E030934803909347039FEF25
:10014000909346031092450320934403ABE4B3E03D
:10015000E4E2F3E090E0291331C010922303909180
:100160002303880F892B80932303809122038130FE
:1001700049F510922203809123038093BB00809164
:10018000BC0083FDF8CF85EC8093BC0080914803D0
:100190008230E1F3809146038F3FB1F080914603B6
:1001A0008032A1F080914603803391F084E0109278
:1001B0004A0310926C031092490308953D913193C4
:1001C0009F5FC9CF85EEE0CF80E0F1CF82E0EFCF37
:1001D00083E0EDCF08950895AF92BF92CF92DF9262
:1001E000EF92FF920F931F93CF93DF936C017B01EC
:1001F0008B01040F151FEB015E01AE18BF08C0177D
:10020000D10759F06991D601ED91FC910190F081EF
:10021000E02DC6010995892B79F7C501DF91CF91B2
:100220001F910F91FF90EF90DF90CF90BF90AF9014
:100230000895FC01538D448D252F30E0842F90E0EC
:10024000821B930B541710F0CF96089501970895D1
:10025000FC01918D828D981761F0A28DAE0FBF2F9A
:10026000B11D5D968C91928D9F5F9F73928F90E0F0
:1002700008958FEF9FEF0895FC01918D828D98175F
:1002800031F0828DE80FF11D858D90E008958FEF9C
:100290009FEF0895FC01918D228D892F90E0805C65
:1002A0009F4F821B91098F73992708958DE694E0E3
:1002B0000E944A0121E0892B09F420E0822F089551
:1002C00080E090E0892B29F00E94560181110C9466
:1002D00000000895FC01A48DA80FB92FB11DA35AE9
:1002E000BF4F2C91848D90E001968F739927848F56
:1002F000A689B7892C93A089B1898C918370806479
:100300008C93938D848D981306C00288F389E02D19
:1003100080818F7D80830895EF92FF920F931F93CA
:10032000CF93DF93EC0181E0888F9B8D8C8D9813A8
:100330001AC0E889F989808185FF15C09FB7F894B4
:10034000EE89FF896083E889F98980818370806400
:1003500080839FBF81E090E0DF91CF911F910F914B
:10036000FF90EF900895F62E0B8D10E00F5F1F4F5A
:100370000F731127E02E8C8D8E110CC00FB607FC69
:10038000FACFE889F989808185FFF5CFCE010E94F7
:100390006A01F1CFEB8DEC0FFD2FF11DE35AFF4FFA
:1003A000F0829FB7F8940B8FEA89FB898081806285
:1003B000CFCFCF93DF93EC01888D8823B9F0AA8942
:1003C000BB89E889F9898C9185FD03C0808186FD10
:1003D0000DC00FB607FCF7CF8C9185FFF2CF80815F
:1003E00085FFEDCFCE010E946A01E9CFDF91CF9169
:1003F0000895833081F028F4813099F08230A9F09B
:1004000008958730A9F08830C9F08430B1F4809124
:1004100080008F7D03C0809180008F778093800063
:10042000089584B58F7784BD089584B58F7DFBCF03
:100430008091B0008F778093B00008958091B000D4
:100440008F7DF9CFCF93DF93282F30E0F901E2556C
:10045000FF4F8491F901E656FF4FD491F901EA5715
:10046000FF4FC491CC23A1F081110E94F901EC2F20
:10047000F0E0EE0FFF1FE458FF4FA591B491EC910F
:10048000ED2381E090E009F480E0DF91CF910895C1
:1004900080E090E0FACF1F93CF93DF93282F30E0D6
:1004A000F901E255FF4F8491F901E656FF4FD491CF
:1004B000F901EA57FF4FC491CC23A9F0162F8111FF
:1004C0000E94F901EC2FF0E0EE0FFF1FEE58FF4FF6
:1004D000A591B4918FB7F894EC91111108C0D09503
:1004E000DE23DC938FBFDF91CF911F910895DE2B28
:1004F000F8CFCF93DF9390E0FC01E656FF4F2491B5
:100500008A579F4FFC0184918823C9F090E0880F9F
:10051000991FFC01E859FF4FA591B491FC01EE58D9
:10052000FF4FC591D49161110DC09FB7F8948C9184
:10053000209582238C938881282328839FBFDF9175
:10054000CF910895623051F49FB7F8943C91822F77
:10055000809583238C93E8812E2BEFCF8FB7F8946F
:10056000EC912E2B2C938FBFEACF8E3008F08E505B
:100570008770806480937C0080917A00806480938F
:100580007A0080917A0086FDFCCF8091780090916E
:10059000790008953FB7F89480910003909101038A
:1005A000A0910203B091030326B5A89B05C02F3F7D
:1005B00019F00196A11DB11D3FBFBA2FA92F982F89
:1005C0008827BC01CD01620F711D811D911D42E084
:1005D000660F771F881F991F4A95D1F7089585EDFB
:1005E0008093BC008091BC0084FDFCCF1092480336
:1005F00008952091D802260F3327331F2132310569
:10060000ECF420914803FC0190E080E0243069F094
:1006100082E00895A091D8022191AC0148545D4F29
:10062000A40FB52FB11D2C930196861798F38091D6
:10063000D802680F6093D80280E0089581E00895A1
:100640000895E091100380910F03E81730F4F0E073
:10065000E856FD4F808190E008958FEF9FEF089559
:100660009091100380910F032FEF3FEF981748F4FC
:10067000E92FF0E0E856FD4F208130E09F5F909336
:100680001003C901089580910F0390911003891BF5
:10069000990B0895CF92DF92EF92FF920F931F93E1
:1006A000CF93DF937C01CB018A0120914903222360
:1006B00089F0EB016B01C40ED51ECC15DD0569F088
:1006C0006991D701ED91FC910190F081E02DC70176
:1006D0000995F3CF642F0E94F902C801DF91CF91F1
:1006E0001F910F91FF90EF90DF90CF900895CF93DF
:1006F000DF931F92CDB7DEB7698320914903222390
:10070000F9F020916C03203258F021E030E0FC0138
:100710003383228390E080E00F90DF91CF910895A2
:1007200080914A03E82FF0E0E55BFC4F99819083CC
:100730008F5F80934A0380936C0381E090E0ECCF5D
:1007400061E0CE0101960E94F902F7CF90E080E0CF
:100750000895EDE6F3E02FEF208325E5218323E0E4
:10076000228322E023838483958346E050E0BF0107
:100770008DE694E00C94EC00EDE6F3E09FEF9083BF
:1007800095E5918392E0928391E09383848345E0A1
:1007900050E0BF018DE694E00C94EC00EDE6F3E050
:1007A0008FEF808385E58183128243E050E0BF01B3
:1007B0008DE694E00C94EC00E82FF0E0EF5EFC4F47
:1007C000E081EC5FF0E0E359FC4F91818081089576
:1007D0002F923F924F925F926F927F928F929F9251
:1007E000AF92BF92CF92DF92EF92FF920F931F933F
:1007F000CF93DF9300D000D01F92CDB7DEB78B012F
:100800001A012A01550F660877089091000189178F
:1008100021F19F3F09F49CC00E94CA026B017C0138
:10082000411451046104710409F445C20E94CA02D2
:100830006C197D098E099F09683E734081059105F9
:1008400078F391E0491A51086108710828EEC20E48
:1008500023E0D21EE11CF11CE3CFE2ECF0E0249196
:100860002D8327FDD9CF61E00E9479022D812223BB
:1008700021F08D81823009F05DC14801B12CA12C9D
:1008800060E072E18AE790E0A50198010E942C0DDA
:1008900029833A834B835C8369017A0191E0C91A09
:1008A000D108E108F1082FEFC216D104E104F104E8
:1008B00009F00CF414C160E472E48FE090E0A5014B
:1008C00098010E942C0D69017A0181E0C81AD108B3
:1008D000E108F1089D81923009F0B5C082E02FEF68
:1008E000C216D104E104F10409F00CF49DC160E9E1
:1008F00070ED83E090E0A50198010E942C0D690144
:100900007A0181E0C81AD108E108F10883E09FEF7D
:10091000C916D104E104F10409F00CF485C168E4BE
:1009200078EE81E090E0A50198010E942C0D69010C
:100930007A0181E0C81AD108E108F1089FEFC916D1
:10094000D104E104F10411F00CF0A1C084E06CC109
:1009500080930001E2ECF0E094919D839F3F09F4C5
:100960005BCF913041F150F0923009F446C09D8147
:1009700097FD52CF61E00E9479027BCF14BC15BC79
:1009800094B5926094BD95B5916095BD282F30E0E7
:10099000F901EA57FF4FE491F0E0EE0FFF1FEE5828
:1009A000FF4F45915491F901E656FF4FE491E093D2
:1009B0008F021D8258CF109280001092810090917A
:1009C0008100986090938100909181009160909354
:1009D0008100282F30E0F901EA57FF4FE491F0E061
:1009E000EE0FFF1FEE58FF4F45915491F901E65667
:1009F000FF4FE491E0938E0236CF1092B000109238
:100A0000B1009091B00092609093B0009091B100CD
:100A100091609093B100282F30E0F901EA57FF4F21
:100A2000E491F0E0EE0FFF1FEE58FF4F4591549117
:100A30005093050340930403F901E656FF4FE491F8
:100A4000E093060310CF2FEFC216D104E104F104A6
:100A500009F00CF46DC068E478EE81E090E0A50147
:100A600098010E942C0D69017A0181E0C81AD10811
:100A7000E108F1089D81992309F4F8C08FEFC816A9
:100A8000D104E104F10409F00CF460CFF8C064E291
:100A900074EF80E090E0A50194010E942C0D6901A3
:100AA0007A0181E0C81AD108E108F10885E09FEFDA
:100AB000C916D104E104F10409F008F4B5C062E1FB
:100AC0007AE780E090E0A50194010E942C0D690175
:100AD0007A0191E0C91AD108E108F108E2C081E089
:100AE0002D812111A1C095B5987F892B85BD2FEF50
:100AF0003FEFA901411451046104710409F043C09E
:100B00008D81813009F45DC0823009F46CC081119F
:100B100083CEC7BC209394023093950240939602F3
:100B20005093970280916E00826080936E0074CE25
:100B300082E0D6CFB12CA12C60E072E18AE790E090
:100B4000A50198010E942C0D69017A0181E0C81A63
:100B5000D108E108F108C114D10491E0E906F104DB
:100B6000FCF491E02D81213011F680918100887F85
:100B7000892B809381002FEF3FEFA901411451048D
:100B800061047104F1F09801220F331FD1010E941A
:100B90004B0D28EE33E040E050E00E940A0DB0CF4C
:100BA00068E478EE81E090E0A50198010E942C0DA8
:100BB00069017A0181E0C81AD108E108F10893E0DF
:100BC000D1CFD0928900C0928800209390023093B8
:100BD0009102409392025093930280916F00826041
:100BE00080936F0019CEC092B30020930703309317
:100BF00008034093090350930A03809170008260B8
:100C00008093700009CEC980DA80EB80FC809AE086
:100C1000F594E794D794C7949A95D1F721E0C21A36
:100C2000D108E108F10887E09091B100987F892B05
:100C30008093B1005CCF84E02FEFC216D104E104B1
:100C4000F10409F008F44FCFC980DA80EB80FC8012
:100C50008AE0F594E794D794C7948A95D1F791E008
:100C6000C91AD108E108F10885E03DCF83E02FEFF4
:100C7000C216D104E104F10409F00CF434CF62E1AE
:100C80007AE780E090E0A50194010E942C0D6901B3
:100C90007A0181E0C81AD108E108F1089D81992301
:100CA00051F28FEFC816D104E104F10411F008F0FD
:100CB000AACF86E0B9CF0F900F900F900F900F90B2
:100CC000DF91CF911F910F91FF90EF90DF90CF9028
:100CD000BF90AF909F908F907F906F905F904F905C
:100CE0003F902F9008951F93CF93DF9381508630CC
:100CF000E0F4C82FD0E0CC0FDD1FCE5FDE4F1881AF
:100D0000812F0E944B0261E0812F0E947902C981EC
:100D1000CC2359F060E08C2F0E944B0261E08C2FB5
:100D2000DF91CF911F910C947902DF91CF911F91A8
:100D300008951F93CF93DF93182FC82FD0E0AE01F3
:100D40006DE673E082E793E00E94720DEDE6F3E05A
:100D50008FEF808385E5818382E0810F828387E046
:100D600083831483AE014B5F5F4FBF018DE694E038
:100D7000DF91CF911F910C94EC00EF92FF920F93B3
:100D80001F93CF93DF93AC01809148038111FCCF77
:100D9000962F613208F090E281E0809348038093BF
:100DA00047032FEF2093460310924503290F20930A
:100DB00044038093230320912303440F551F822F64
:100DC000842B80932303809122038130B9F5109204
:100DD0002203809123038093BB008091BC0083FD9C
:100DE000F8CF85EC8093BC00809148038130E1F31B
:100DF00080914503891710F490914503E4E2F3E0F4
:100E0000A8E9B2E080E089131BC010921003809320
:100E10000F0386171706C4F0EB010DE613E0CB01B4
:100E200083599C4F7C010E151F05B1F08AE095E0B7
:100E30000E943003F80181938F01F5CF85EED2CF68
:100E400021912D938F5FDFCFDF91CF911F910F9174
:100E5000FF90EF900C94CE038C2FDF91CF911F91D8
:100E60000F91FF90EF900C9499061F920F920FB67E
:100E70000F9211242F933F934F935F936F937F9320
:100E80008F939F93AF93BF93EF93FF93809107034B
:100E900090910803A0910903B0910A03892B8A2B32
:100EA0008B2BD1F190910603E0910403F09105039F
:100EB0008081892780838091070390910803A09106
:100EC0000903B0910A03181619061A061B069CF4AA
:100ED0008091070390910803A0910903B0910A0340
:100EE0000197A109B1098093070390930803A09388
:100EF0000903B0930A03FF91EF91BF91AF919F91C6
:100F00008F917F916F915F914F913F912F910F90B2
:100F10000FBE0F901F90189580910001E2ECF0E059
:100F2000E4919FEF90930001E13051F030F0E23016
:100F300069F060E00E944B02DECF10926E00F9CFA4
:100F400090916F009D7F90936F00F3CF9091700010
:100F50009D7F9093700091E09093B0009091B100CC
:100F6000987F94609093B1001092B300E2CF1F92EB
:100F70000F920FB60F9211242F933F934F935F93CD
:100F80006F937F938F939F93AF93BF93EF93FF9351
:100F90008DE694E00E946A01FF91EF91BF91AF91BD
:100FA0009F918F917F916F915F914F913F912F9181
:100FB0000F900FBE0F901F9018951F920F920FB6B3
:100FC0000F9211242F938F939F93EF93FF93E091B0
:100FD0007D04F0917E048081E0918304F09184048B
:100FE00082FD1BC09081809186048F5F8F7320915A
:100FF0008704821741F0E0918604F0E0E359FB4F4B
:10100000958F80938604FF91EF919F918F912F91FF
:101010000F900FBE0F901F9018958081F4CF1F92F4
:101020000F920FB60F9211242F933F938F939F939C
:10103000AF93BF938091FC029091FD02A091FE02BC
:10104000B091FF023091FB0223E0230F2D3758F5BA
:101050000196A11DB11D2093FB028093FC02909389
:10106000FD02A093FE02B093FF02809100039091D5
:101070000103A0910203B09103030196A11DB11DCC
:101080008093000390930103A0930203B0930303A2
:10109000BF91AF919F918F913F912F910F900FBE74
:1010A0000F901F90189526E8230F0296A11DB11DE1
:1010B000D2CF1F920F920FB60F9211242F933F930E
:1010C0004F935F936F937F938F939F93AF93BF9350
:1010D000EF93FF938091B900887F803609F44AC06E
:1010E000F0F5883209F4A7C018F5803109F49BC0E7
:1010F000B8F4882309F4F9C0883009F494C0FF914A
:10110000EF91BF91AF919F918F917F916F915F917F
:101110004F913F912F910F900FBE0F901F901895F8
:10112000883109F488C0803251F78093460314C097
:10113000803409F49DC040F48033B9F38833F9F664
:101140008093460385ECB0C0803509F485C08835AE
:1011500009F496C0883499F60E94EF02D0CF8839FE
:1011600009F48CC038F5883729F050F4883611F02E
:10117000803729F683E0809348031092FA0257C023
:10118000883809F47BC0803919F0803809F0B7CF6E
:101190008091FA02803208F071C0E091FA0281E099
:1011A0008E0F8093FA028091BB00F0E0E652FD4F73
:1011B00080833DC0803B39F0E0F4803A09F479C087
:1011C000883A09F09CCF84E0809348031092D902BA
:1011D0001092D802E0910D03F0910E0309958091D1
:1011E000D80281110FC081E08093D8021092B8021A
:1011F00009C0803C09F4A6CF883C09F4A3CF883B02
:1012000009F07DCFE091D90281E08E0F8093D90261
:10121000F0E0E854FD4F80818093BB009091D902AB
:101220008091D80229C0809123038093BB0085EC74
:101230008093BC0064CF909145038091440398173C
:1012400058F5E091450381E08E0F80934503F0E06F
:10125000EC5DFC4F8081E9CFE091450381E08E0F8A
:10126000809345038091BB00F0E0EC5DFC4F8083F0
:1012700090914503809144039817C8F285E8D8CF30
:10128000E091450381E08E0F809345038091BB0080
:10129000F0E0EC5DFC4F80838091470381115CCFCF
:1012A00081E08093220384EA8093BC00109248037B
:1012B00026CF85EC8093BC00109248038091FA02FF
:1012C000803230F4E091FA02F0E0E652FD4F1082F5
:1012D0006091FA0270E0E0910B03F0910C038AED4B
:1012E00092E009951092FA020ACF1092460334CF89
:1012F000EDE6F4E01382128288EE93E0A0E0B0E025
:1013000084839583A683B7832CE432E031832083E2
:1013100025EC30E03587248724EC30E037872687BA
:1013200020EC30E0318B208B21EC30E0338B228BB2
:1013300022EC30E0358B248B26EC30E0378B268B8B
:10134000118E128E138E148EEAE0F5E01382128253
:1013500084839583A683B7838EE592E0918380830F
:101360000895789484B5826084BD84B5816084BD1D
:1013700085B5826085BD85B5816085BD80916E0033
:10138000816080936E001092810080918100826064
:1013900080938100809181008160809381008091A1
:1013A00080008160809380008091B1008460809390
:1013B000B1008091B00081608093B00080917A008C
:1013C000846080937A0080917A00826080937A00B2
:1013D00080917A00816080937A0080917A008068A1
:1013E00080937A001092C10014BE0FB6F894A895AD
:1013F00080916000886180936000109260000FBE51
:1014000060E081E00E94730661E08FE00E94790253
:1014100060E08FE00E944B0261E08CE00E94790264
:1014200044E650E06BE072E08CE00E94E803E0915B
:101430007D04F0917E0482E08083E0917904F09154
:101440007A041082E0917B04F0917C0480E1808337
:1014500010928504E0918104F091820486E08083FB
:10146000E0917F04F0918004808180618083E0912D
:101470007F04F0918004808188608083E0917F0404
:10148000F0918004808180688083E0917F04F091F6
:10149000800480818F7D80834FE050E06CE672E0B5
:1014A0008DE694E00E94EC0042E050E06BE872E0D0
:1014B0008DE694E00E94EC0071E1272E73E0372E58
:1014C000E0E08E2EE0E09E2EFAEECF2EF0E0DF2E52
:1014D000ABEEAA2EA0E0BA2E8DE694E00E944A015F
:1014E000181619060CF08AC28DE694E00E942801B5
:1014F00097FD84C2E091210321E02E0F2093210368
:10150000F0E0E359FC4F8083223009F464C02330BB
:1015100009F466C0213041F424E0209301018F3F9B
:101520009105D1F2109221032091010180912103B4
:10153000821790F210917003153008F055C080E1C9
:10154000189FF0011124E850FE4FD10180E11D9257
:101550008A95E9F7309751F141E1E42E43E0F42E0A
:10156000AF01405F5F4F90E080E030E06191662323
:10157000E9F0D7018D937D01EF01219768816C34EB
:1015800009F45CC00CF051C0643409F459C06634ED
:1015900009F454C0623409F40196BC016C5F7F4FBA
:1015A00026173707A8F04E175F0701F7143809F41C
:1015B000ACC108F093C0143009F42CC108F056C037
:1015C000123009F4D0C008F0DBC0113009F4B9C002
:1015D0001092210381CF8535910509F0A3CFA4CFC7
:1015E0008D5F80930101A0CF8FE7810F893060F478
:1015F000A12FA158BB0BFD0164E0EE0FFF1F6A9500
:10160000E1F7E859FE4FA1CFF0E0E0E01B3F08F41E
:101610009CCF812F8B5F990BFC0154E0EE0FFF1FD5
:101620005A95E1F7E85EFE4F90CF6236B9F0633726
:1016300049F0633509F0B1CF0296AFCF0496ADCF34
:101640000896ABCFEC01CF58DC4FDE010D900020A7
:10165000E9F78C1B9D0B8A0F9B1F9FCFEC01C35991
:10166000DC4F6C810196860F911D97CF123809F4DB
:10167000FAC008F019C1113809F0AACF109210036E
:1016800010920F0310924A0310926C0310924803B9
:1016900081E0809347031092220361E082E10E947F
:1016A0004B0261E083E10E944B028091B9008E7F82
:1016B0008093B9008091B9008D7F8093B900F8E4E0
:1016C000F093B80025E42093BC00D0920E03C092A2
:1016D0000D03B0920C03A0920B0342C0183809F41A
:1016E00054C1B8F4163809F430C108F411C1E091BE
:1016F0001103F0E0E359FC4F60E084810E9479021D
:10170000E0911103F0E0E359FC4F84810E94220232
:10171000A7C01E3F09F45EC108F065C1193809F081
:1017200057CF82E00E94DC03EC0181E00E94DC03E1
:10173000E0911103F0E0E359FC4FAE01BC0184815C
:101740001CC0A0911203B0E0A359BC4FE09111035B
:10175000F0E0E359FC4F14966C9184810E9473066B
:101760000E94CE0335CF81E00E94DC03EC0180E0D3
:101770000E94DC03AE01BC018CE00E94E803F0CFC4
:1017800081E00E94DC03E0911103F0E0E359FC4F9B
:10179000C481C150C430C8F5009711F481E090E0D5
:1017A000B4E6B89F8001B99F100D1124F12CE12CF3
:1017B000412C512C3201D0E0C25FDE4F0E151F05C7
:1017C00079F088810E94B502092E000CAA0BBB0B90
:1017D000480E591E6A1E7B1EEFEFEE1AFE0AEECF70
:1017E000980150E040E0C301B2010E940A0DA1E758
:1017F000B2E00E94520DDC01CB0127E0B695A7951F
:10180000979587952A95D1F702C090E080E00E94D5
:10181000A903DECEE0911103F0E0E359FC4FC4814F
:10182000C150C330D8F4D0E0CC0FDD1FCE5EDE4F08
:10183000188162E0812F0E947902C981CC2341F096
:1018400060E08C2F0E944B0261E08C2F0E94790295
:10185000812F0E94220221E0892B09F020E0822FB3
:101860000E94BC03B5CEE0911103F0E0E359FC4FB8
:10187000848191E09093490380936B0310924A0313
:1018800010926C036091120370E0FB01EF58FC4F63
:10189000408150E06E587C4F8AE095E00E944A03F8
:1018A00081E00E948D00DCCFE0911103F0E0E3596C
:1018B000FC4F848191E09093490380936B031092D5
:1018C0004A0310926C036091120370E0FB01EF5821
:1018D000FC4F408150E06E587C4F8AE095E00E94BA
:1018E0004A0380E00E948D00E0911303F0E0E35989
:1018F000FC4F648170E0E0911103F0E0E359FC4F8C
:10190000848190E00E94BD0663CEE0911203EECF89
:1019100010E0D0E0C0E001E00093490310936B03B6
:1019200010924A0310926C0381E00E948D00811195
:1019300005C0FE01E359FC4F108321961F5F1F373E
:1019400059F78C2F0E94990643CEC0911103D0E025
:10195000FE01EF58FC4F008110E0CE58DC4F7E01B5
:10196000C7018C1B9D0B801791070CF0F9CE61E02D
:10197000D7018C910E947902F701618180810E94D8
:101980004B02F2E0EF0EF11CEBCF81E00E94DC0392
:10199000EC01E0911103F0E0E359FC4FF480892B56
:1019A00011F4C1E0D0E0412C512C320110E000E0F4
:1019B0008F2D0E94B502092E000CAA0BBB0B480EFE
:1019C000591E6A1E7B1E0F5F1F4FC017D10781F77C
:1019D0009E0107CF41E150E06CE772E08DE694E0B4
:1019E0000E94EC00F5CD88E198E00FB6F894A89538
:1019F000809360000FBE90936000FFCF811491042C
:101A000009F46ACD0E945601882309F465CD0E942D
:101A1000000062CDA1E21A2EAA1BBB1BFD010DC066
:101A2000AA1FBB1FEE1FFF1FA217B307E407F5078E
:101A300020F0A21BB30BE40BF50B661F771F881F6A
:101A4000991F1A9469F760957095809590959B0100
:101A5000AC01BD01CF010895052E97FB1EF4009443
:101A60000E94430D57FD07D00E940A0D07FC03D0CA
:101A70004EF40C94430D50954095309521953F4F71
:101A80004F4F5F4F089590958095709561957F4F6A
:101A90008F4F9F4F08950E94630DB7FF0895821BDB
:101AA000930B08950E94630DA59F900DB49F900D18
:101AB000A49F800D911D11240895EE0FFF1F059026
:101AC000F491E02D0994A29FB001B39FC001A39FA0
:101AD000700D811D1124911DB29F700D811D112467
:101AE000911D08956817790768F4FB01DC01E40F84
:101AF000F51FA40FB51F02C002900E924150504036
:101B0000D8F708950C94840DFB01DC0102C001900C
:0E1B10000D9241505040D8F70895F894FFCF41
:101B1E00FF040D0002030405060708090A0B101145
:101B2E00121302040507080A00000000000000005E
:101B3E000000000000000000000000000000000097
:101B4E0000000000000000007373000000000000A1
:101B5E000000000000000000000000000000000077
:101B6E000000000000000000000000000000000067
:101B7E0000000000000000004242000000000000D3
:101B8E0000000000000000004262000000000000A3
:101B9E000000000000000000426242000000000051
:101BAE0000000000000000004242000000000000A3
:101BBE000000000000000000000000000000000017
:101BCE0000000000000000006200000000000000A5
:101BDE0000000000000000004200000000000000B5
:101BEE000000000000000000425300000000000052
:101BFE0000000000000000004253530000000000EF
:101C0E0000000000000000000000000000000000C6
:101C1E000000000000000000424200000000000032
:101C2E000000000000000000535300000000000000
:101C3E000000000000000000425300000000000001
:101C4E000000000000000000420000000000000044
:101C5E000000000000000000000000008C01EC00FD
:101C6E001901D9014A0128013C0100000000770347
:101C7E004A03A60320034303300321035043206D80
:101C8E006F64653A20756E6F312E30005043206DB3
:0E1C9E006F64653A20756E6F312E300D0A00AE
:00000001FF
