:100000000C9463000C948B000C948B000C948B006C
:100010000C948B000C948B000C948B000C94350783
:100020000C948B000C948B000C948B000C948B0024
:100030000C948B000C948B000C948B000C948B0014
:100040000C940F080C948B000C94DD070C94B707EC
:100050000C948B000C948B000C948B000C948B00F4
:100060000C9459080C948B00000000002400270019
:100070002A0000000000250028002B0000000000DE
:1000800023002600290004040404040404040202DA
:100090000202020203030303030301020408102007
:1000A0004080010204081020010204081020020010
:1000B0000000080002010000030407000000000027
:1000C00000000000780911241FBECFEFD8E0DEBF8A
:1000D000CDBF12E0A0E0B1E0E2E2FCE102C0059099
:1000E0000D92A03CB107D9F725E0A0ECB2E001C029
:1000F0001D92A834B207E1F710E0C3E6D0E004C0D7
:100100002197FE010E94DF0DC236D107C9F70E9478
:10011000B1090C940F0E0C940000982F20919E03AF
:1001200081E0213208F043C080917A038111FCCF35
:1001300080919D0332E030937A03909379039FEF8F
:10014000909378031092770320937603ADE7B3E0A2
:10015000E6E5F3E090E0291331C010925503909149
:100160005503880F892B8093550380915403813068
:1001700049F510925403809155038093BB00809100
:10018000BC0083FDF8CF85EC8093BC0080917A039E
:100190008230E1F3809178038F3FB1F08091780352
:1001A0008032A1F080917803803391F084E0109246
:1001B0007C0310929E0310927B0308953D9131932E
:1001C0009F5FC9CF85EEE0CF80E0F1CF82E0EFCF37
:1001D00083E0EDCF08950895AF92BF92CF92DF9262
:1001E000EF92FF920F931F93CF93DF936C017B01EC
:1001F0008B01040F151FEB015E01AE18BF08C0177D
:10020000D10759F06991D601ED91FC910190F081EF
:10021000E02DC6010995892B79F7C501DF91CF91B2
:100220001F910F91FF90EF90DF90CF90BF90AF9014
:100230000895FC01538D448D252F30E0842F90E0EC
:10024000821B930B541710F0CF96089501970895D1
:10025000FC01918D828D981761F0A28DAE0FBF2F9A
:10026000B11D5D968C91928D9F5F9F73928F90E0F0
:1002700008958FEF9FEF0895FC01918D828D98175F
:1002800031F0828DE80FF11D858D90E008958FEF9C
:100290009FEF0895FC01918D228D892F90E0805C65
:1002A0009F4F821B91098F73992708958FE994E0DE
:1002B0000E944A0121E0892B09F420E0822F089551
:1002C00080E090E0892B29F00E94560181110C9466
:1002D00000000895FC01A48DA80FB92FB11DA35AE9
:1002E000BF4F2C91848D90E001968F739927848F56
:1002F000A689B7892C93A089B1898C918370806479
:100300008C93938D848D981306C00288F389E02D19
:1003100080818F7D80830895EF92FF920F931F93CA
:10032000CF93DF93EC0181E0888F9B8D8C8D9813A8
:100330001AC0E889F989808185FF15C09FB7F894B4
:10034000EE89FF896083E889F98980818370806400
:1003500080839FBF81E090E0DF91CF911F910F914B
:10036000FF90EF900895F62E0B8D10E00F5F1F4F5A
:100370000F731127E02E8C8D8E110CC00FB607FC69
:10038000FACFE889F989808185FFF5CFCE010E94F7
:100390006A01F1CFEB8DEC0FFD2FF11DE35AFF4FFA
:1003A000F0829FB7F8940B8FEA89FB898081806285
:1003B000CFCFCF93DF93EC01888D8823B9F0AA8942
:1003C000BB89E889F9898C9185FD03C0808186FD10
:1003D0000DC00FB607FCF7CF8C9185FFF2CF80815F
:1003E00085FFEDCFCE010E946A01E9CFDF91CF9169
:1003F0000895833081F028F4813099F08230A9F09B
:1004000008958730A9F08830C9F08430B1F4809124
:1004100080008F7D03C0809180008F778093800063
:10042000089584B58F7784BD089584B58F7DFBCF03
:100430008091B0008F778093B00008958091B000D4
:100440008F7DF9CFCF93DF93282F30E0F901E1556D
:10045000FF4F8491F901E656FF4FD491F901EA5715
:10046000FF4FC491CC23A1F081110E94F901EC2F20
:10047000F0E0EE0FFF1FE458FF4FA591B491EC910F
:10048000ED2381E090E009F480E0DF91CF910895C1
:1004900080E090E0FACF1F93CF93DF93282F30E0D6
:1004A000F901E155FF4F8491F901E656FF4FD491D0
:1004B000F901EA57FF4FC491CC23A9F0162F8111FF
:1004C0000E94F901EC2FF0E0EE0FFF1FEE58FF4FF6
:1004D000A591B4918FB7F894EC91111108C0D09503
:1004E000DE23DC938FBFDF91CF911F910895DE2B28
:1004F000F8CFCF93DF9390E0FC01E656FF4F2491B5
:100500008A579F4FFC0184918823C9F090E0880F9F
:10051000991FFC01E859FF4FA591B491FC01EE58D9
:10052000FF4FC591D49161110DC09FB7F8948C9184
:10053000209582238C938881282328839FBFDF9175
:10054000CF910895623051F49FB7F8943C91822F77
:10055000809583238C93E8812E2BEFCF8FB7F8946F
:10056000EC912E2B2C938FBFEACF8E3008F08E505B
:100570008770806480937C0080917A00806480938F
:100580007A0080917A0086FDFCCF8091780090916E
:10059000790008953FB7F894809132039091330326
:1005A000A0913403B091350326B5A89B05C02F3F19
:1005B00019F00196A11DB11D3FBFBA2FA92F982F89
:1005C0008827BC01CD01620F711D811D911D42E084
:1005D000660F771F881F991F4A95D1F7089585EDFB
:1005E0008093BC008091BC0084FDFCCF10927A0304
:1005F000089520910A03260F3327331F2132310536
:10060000ECF420917A03FC0190E080E0243069F062
:1006100082E00895A0910A032191AC0146515D4FFB
:10062000A40FB52FB11D2C930196861798F38091D6
:100630000A03680F60930A0380E0089581E008953B
:100640000895E091420380914103E81730F4F0E00F
:10065000E653FD4F808190E008958FEF9FEF08955E
:1006600090914203809141032FEF3FEF981748F498
:10067000E92FF0E0E653FD4F208130E09F5F90933B
:100680004203C90108958091410390914203891B5F
:10069000990B0895CF92DF92EF92FF920F931F93E1
:1006A000CF93DF937C01CB018A0120917B0322232E
:1006B00089F0EB016B01C40ED51ECC15DD0569F088
:1006C0006991D701ED91FC910190F081E02DC70176
:1006D0000995F3CF642F0E94F902C801DF91CF91F1
:1006E0001F910F91FF90EF90DF90CF900895CF93DF
:1006F000DF931F92CDB7DEB7698320917B0322235E
:10070000F9F020919E03203258F021E030E0FC0106
:100710003383228390E080E00F90DF91CF910895A2
:1007200080917C03E82FF0E0E358FC4F998190839F
:100730008F5F80937C0380939E0381E090E0ECCFF9
:1007400061E0CE0101960E94F902F7CF90E080E0CF
:100750000895EFE9F3E02FEF208325E5218323E0DF
:10076000228322E023838483958346E050E0BF0107
:100770008FE994E00C94EC00EFE9F3E09FEF9083B5
:1007800095E5918392E0928391E09383848345E0A1
:1007900050E0BF018FE994E00C94EC00EFE9F3E046
:1007A0008FEF808385E58183128243E050E0BF01B3
:1007B0008FE994E00C94EC00E82FF0E0ED5BFC4F47
:1007C000E081EC5FF0E0E156FC4F9181808108957B
:1007D0002F923F924F925F926F927F928F929F9251
:1007E000AF92BF92CF92DF92EF92FF920F931F933F
:1007F000CF93DF9300D000D01F92CDB7DEB78B012F
:100800001A012A01550F660877089091000189178F
:1008100021F19F3F09F49CC00E94CA026B017C0138
:10082000411451046104710409F445C20E94CA02D2
:100830006C197D098E099F09683E734081059105F9
:1008400078F391E0491A51086108710828EEC20E48
:1008500023E0D21EE11CF11CE3CFEEEAF0E024918C
:100860002D8327FDD9CF61E00E9479022D812223BB
:1008700021F08D81823009F05DC14801B12CA12C9D
:1008800060E072E18AE790E0A50198010E94AE0D58
:1008900029833A834B835C8369017A0191E0C91A09
:1008A000D108E108F1082FEFC216D104E104F104E8
:1008B00009F00CF414C160E472E48FE090E0A5014B
:1008C00098010E94AE0D69017A0181E0C81AD10831
:1008D000E108F1089D81923009F0B5C082E02FEF68
:1008E000C216D104E104F10409F00CF49DC160E9E1
:1008F00070ED83E090E0A50198010E94AE0D6901C2
:100900007A0181E0C81AD108E108F10883E09FEF7D
:10091000C916D104E104F10409F00CF485C168E4BE
:1009200078EE81E090E0A50198010E94AE0D69018A
:100930007A0181E0C81AD108E108F1089FEFC916D1
:10094000D104E104F10411F00CF0A1C084E06CC109
:1009500080930001EEEAF0E094919D839F3F09F4BB
:100960005BCF913041F150F0923009F446C09D8147
:1009700097FD52CF61E00E9479027BCF14BC15BC79
:1009800094B5926094BD95B5916095BD282F30E0E7
:10099000F901EA57FF4FE491F0E0EE0FFF1FEE5828
:1009A000FF4F45915491F901E656FF4FE491E093D2
:1009B000C1021D8258CF1092800010928100909148
:1009C0008100986090938100909181009160909354
:1009D0008100282F30E0F901EA57FF4FE491F0E061
:1009E000EE0FFF1FEE58FF4F45915491F901E65667
:1009F000FF4FE491E093C00236CF1092B000109206
:100A0000B1009091B00092609093B0009091B100CD
:100A100091609093B100282F30E0F901EA57FF4F21
:100A2000E491F0E0EE0FFF1FEE58FF4F4591549117
:100A30005093370340933603F901E656FF4FE49194
:100A4000E093380310CF2FEFC216D104E104F10474
:100A500009F00CF46DC068E478EE81E090E0A50147
:100A600098010E94AE0D69017A0181E0C81AD1088F
:100A7000E108F1089D81992309F4F8C08FEFC816A9
:100A8000D104E104F10409F00CF460CFF8C064E291
:100A900074EF80E090E0A50194010E94AE0D690121
:100AA0007A0181E0C81AD108E108F10885E09FEFDA
:100AB000C916D104E104F10409F008F4B5C062E1FB
:100AC0007AE780E090E0A50194010E94AE0D6901F3
:100AD0007A0191E0C91AD108E108F108E2C081E089
:100AE0002D812111A1C095B5987F892B85BD2FEF50
:100AF0003FEFA901411451046104710409F043C09E
:100B00008D81813009F45DC0823009F46CC081119F
:100B100083CEC7BC2093C6023093C7024093C8025D
:100B20005093C90280916E00826080936E0074CEF3
:100B300082E0D6CFB12CA12C60E072E18AE790E090
:100B4000A50198010E94AE0D69017A0181E0C81AE1
:100B5000D108E108F108C114D10491E0E906F104DB
:100B6000FCF491E02D81213011F680918100887F85
:100B7000892B809381002FEF3FEFA901411451048D
:100B800061047104F1F09801220F331FD1010E941A
:100B9000CD0D28EE33E040E050E00E948C0DB0CF48
:100BA00068E478EE81E090E0A50198010E94AE0D26
:100BB00069017A0181E0C81AD108E108F10893E0DF
:100BC000D1CFD0928900C09288002093C202309386
:100BD000C3024093C4025093C50280916F008260AB
:100BE00080936F0019CEC092B300209339033093E5
:100BF0003A0340933B0350933C0380917000826022
:100C00008093700009CEC980DA80EB80FC809AE086
:100C1000F594E794D794C7949A95D1F721E0C21A36
:100C2000D108E108F10887E09091B100987F892B05
:100C30008093B1005CCF84E02FEFC216D104E104B1
:100C4000F10409F008F44FCFC980DA80EB80FC8012
:100C50008AE0F594E794D794C7948A95D1F791E008
:100C6000C91AD108E108F10885E03DCF83E02FEFF4
:100C7000C216D104E104F10409F00CF434CF62E1AE
:100C80007AE780E090E0A50194010E94AE0D690131
:100C90007A0181E0C81AD108E108F1089D81992301
:100CA00051F28FEFC816D104E104F10411F008F0FD
:100CB000AACF86E0B9CF0F900F900F900F900F90B2
:100CC000DF91CF911F910F91FF90EF90DF90CF9028
:100CD000BF90AF909F908F907F906F905F904F905C
:100CE0003F902F9008951F93CF93DF9381508630CC
:100CF000E0F4C82FD0E0CC0FDD1FCD5FDE4F1881B0
:100D0000812F0E944B0261E0812F0E947902C981EC
:100D1000CC2359F060E08C2F0E944B0261E08C2FB5
:100D2000DF91CF911F910C947902DF91CF911F91A8
:100D300008951F93CF93DF93182FC82FD0E0AE01F3
:100D40006FE973E084EA93E00E94F40DEFE9F3E0C9
:100D50008FEF808385E5818382E0810F828387E046
:100D600083831483AE014B5F5F4FBF018FE994E033
:100D7000DF91CF911F910C94EC00EF92FF920F93B3
:100D80001F93CF93DF93AC0180917A038111FCCF45
:100D9000962F613208F090E281E080937A0380938D
:100DA00079032FEF2093780310927703290F209374
:100DB00076038093550320915503440F551F822FCE
:100DC000842B80935503809154038130B9F51092A0
:100DD0005403809155038093BB008091BC0083FD38
:100DE000F8CF85EC8093BC0080917A038130E1F3E9
:100DF00080917703891710F490917703E6E5F3E08B
:100E0000AAECB2E080E089131BC0109242038093E9
:100E1000410386171706C4F0EB010FE913E0CB017D
:100E200081569C4F7C010E151F05B1F08CE395E0B7
:100E30000E943003F80181938F01F5CF85EED2CF68
:100E400021912D938F5FDFCFDF91CF911F910F9174
:100E5000FF90EF900C94CE038C2FDF91CF911F91D8
:100E60000F91FF90EF900C9499061F920F920FB67E
:100E70000F9211242F933F934F935F936F937F9320
:100E80008F939F93AF93BF93EF93FF938091390319
:100E900090913A03A0913B03B0913C03892B8A2B9C
:100EA0008B2BD1F190913803E0913603F091370309
:100EB0008081892780838091390390913A03A091A2
:100EC0003B03B0913C03181619061A061B069CF446
:100ED0008091390390913A03A0913B03B0913C0378
:100EE0000197A109B1098093390390933A03A09324
:100EF0003B03B0933C03FF91EF91BF91AF919F9162
:100F00008F917F916F915F914F913F912F910F90B2
:100F10000FBE0F901F90189580910001EEEAF0E04F
:100F2000E4919FEF90930001E13051F030F0E23016
:100F300069F060E00E944B02DECF10926E00F9CFA4
:100F400090916F009D7F90936F00F3CF9091700010
:100F50009D7F9093700091E09093B0009091B100CC
:100F6000987F94609093B1001092B300E2CF1F92EB
:100F70000F920FB60F9211242F933F934F935F93CD
:100F80006F937F938F939F93AF93BF93EF93FF9351
:100F90008FE994E00E946A01FF91EF91BF91AF91B8
:100FA0009F918F917F916F915F914F913F912F9181
:100FB0000F900FBE0F901F9018951F920F920FB6B3
:100FC0000F9211242F938F939F93EF93FF93E091B0
:100FD000AF04F091B0048081E091B504F091B604C3
:100FE00082FD1BC090818091B8048F5F8F73209128
:100FF000B904821741F0E091B804F0E0E156FB4FEC
:10100000958F8093B804FF91EF919F918F912F91CD
:101010000F900FBE0F901F9018958081F4CF1F92F4
:101020000F920FB60F9211242F933F938F939F939C
:10103000AF93BF9380912E0390912F03A091300323
:10104000B091310330912D0323E0230F2D3758F554
:101050000196A11DB11D20932D0380932E03909323
:101060002F03A0933003B09331038091320390910A
:101070003303A0913403B09135030196A11DB11D36
:101080008093320390933303A0933403B0933503DA
:10109000BF91AF919F918F913F912F910F900FBE74
:1010A0000F901F90189526E8230F0296A11DB11DE1
:1010B000D2CF1F920F920FB60F9211242F933F930E
:1010C0004F935F936F937F938F939F93AF93BF9350
:1010D000EF93FF938091B900887F803609F44AC06E
:1010E000F0F5883209F4A7C018F5803109F49BC0E7
:1010F000B8F4882309F4F9C0883009F494C0FF914A
:10110000EF91BF91AF919F918F917F916F915F917F
:101110004F913F912F910F900FBE0F901F901895F8
:10112000883109F488C0803251F78093780314C065
:10113000803409F49DC040F48033B9F38833F9F664
:101140008093780385ECB0C0803509F485C088357C
:1011500009F496C0883499F60E94EF02D0CF8839FE
:1011600009F48CC038F5883729F050F4883611F02E
:10117000803729F683E080937A0310922C0357C0BE
:10118000883809F47BC0803919F0803809F0B7CF6E
:1011900080912C03803208F071C0E0912C0381E033
:1011A0008E0F80932C038091BB00F0E0E45FFC4F36
:1011B00080833DC0803B39F0E0F4803A09F479C087
:1011C000883A09F09CCF84E080937A0310920B0355
:1011D00010920A03E0913F03F0914003099580913A
:1011E0000A0381110FC081E080930A031092EA0282
:1011F00009C0803C09F4A6CF883C09F4A3CF883B02
:1012000009F07DCFE0910B0381E08E0F80930B03FB
:10121000F0E0E651FD4F80818093BB0090910B037D
:1012200080910A0329C0809155038093BB0085EC0F
:101230008093BC0064CF90917703809176039817D8
:1012400058F5E091770381E08E0F80937703F0E00B
:10125000EA5AFC4F8081E9CFE091770381E08E0F5D
:10126000809377038091BB00F0E0EA5AFC4F8083C3
:1012700090917703809176039817C8F285E8D8CFCC
:10128000E091770381E08E0F809377038091BB001C
:10129000F0E0EA5AFC4F80838091790381115CCFA2
:1012A00081E08093540384EA8093BC0010927A0317
:1012B00026CF85EC8093BC0010927A0380912C039A
:1012C000803230F4E0912C03F0E0E45FFC4F1082B8
:1012D00060912C0370E0E0913D03F0913E038CE0BF
:1012E00093E0099510922C030ACF1092780334CF23
:1012F000EFE9F4E01382128288EE93E0A0E0B0E020
:1013000084839583A683B7832DE732E031832083DE
:1013100025EC30E03587248724EC30E037872687BA
:1013200020EC30E0318B208B21EC30E0338B228BB2
:1013300022EC30E0358B248B26EC30E0378B268B8B
:10134000118E128E138E148EECE3F5E0138212824E
:1013500084839583A683B7838FE892E0918380830B
:101360000895789484B5826084BD84B5816084BD1D
:1013700085B5826085BD85B5816085BD80916E0033
:10138000816080936E001092810080918100826064
:1013900080938100809181008160809381008091A1
:1013A00080008160809380008091B1008460809390
:1013B000B1008091B00081608093B00080917A008C
:1013C000846080937A0080917A00826080937A00B2
:1013D00080917A00816080937A0080917A008068A1
:1013E00080937A001092C10014BE0FB6F894A895AD
:1013F00080916000886180936000109260000FBE51
:1014000060E081E00E94730661E08FE00E94790253
:1014100060E08FE00E944B0261E08CE00E94790264
:1014200044E650E06BE072E08CE00E94E803E0915B
:10143000AF04F091B00482E08083E091AB04F091BE
:10144000AC041082E091AD04F091AE0480E18083A1
:101450001092B704E091B304F091B40486E0808365
:10146000E091B104F091B204808180618083E091C9
:10147000B104F091B204808188608083E091B1046E
:10148000F091B204808180688083E091B104F09192
:10149000B20480818F7D80834FE050E06DE972E07F
:1014A0008FE994E00E94EC0042E050E06CEB72E0C7
:1014B0008FE994E00E94EC007AEE272E70E0372E40
:1014C000EBEECE2EE0E0DE2EF4E0AF2EB12C8FE975
:1014D00094E00E944A01181619060CF010C38FE917
:1014E00094E00E94280197FD0AC3E091530321E094
:1014F0002E0F20935303F0E0E156FC4F80832230FF
:1015000009F469C0233009F46BC0213049F4B0926A
:101510000201A09201018F3F9105C9F2109253037D
:10152000209101013091020180915303821713062B
:1015300070F21091A203153008F058C080E1189F96
:10154000F0011124E75DFD4FA3E4B3E080E11D92BB
:101550008A95E9F7309751F143E4E42E43E0F42E05
:10156000AF01405F5F4F90E080E061916623F1F052
:10157000D7018D937D01EF01219768816C3409F4C7
:101580005FC00CF054C0643409F45CC0663409F4E4
:1015900057C0623409F40196BC016C5F7F4F261777
:1015A000370708F4AFC1E417F507F9F6143809F462
:1015B000ACC108F095C0143009F42AC108F058C035
:1015C000123009F4CEC008F0D9C0113009F4B9C006
:1015D0000E94CE0397C18535910509F09FCFA0CF1A
:1015E000039690930201809301019ACF8FE7810FB8
:1015F0008C3060F4A12FA158BB0BFD0164E0EE0F0D
:10160000FF1F6A95E1F7E759FE4F9ECFF0E0E0E05B
:101610001B3F08F499CF812F8B5F990BFC0154E09D
:10162000EE0FFF1F5A95E1F7E75EFE4F8DCF623652
:10163000B9F0633749F0633509F0AECF0296ACCF0D
:101640000496AACF0896A8CFEC01CD55DC4FDE0159
:101650000D900020E9F78C1B9D0B8A0F9B1F9CCFE0
:10166000EC01C156DC4F6C810196860F911D94CF21
:10167000123809F4F6C008F015C1113809F0A8CFE6
:10168000109242031092410310927C0310929E0329
:1016900010927A0381E0809379031092540361E001
:1016A00082E10E944B0261E083E10E944B02809143
:1016B000B9008E7F8093B9008091B9008D7F8093AF
:1016C000B900F8E4F093B80025E42093BC00309210
:1016D000400320923F03D0923E03C0923D0378CF57
:1016E000183809F452C1B8F4163809F42EC108F4B8
:1016F0000FC1E0914303F0E0E156FC4F60E08481CC
:101700000E947902E0914303F0E0E156FC4F8481AE
:101710000E942202A3C01A3809F470C108F45EC105
:101720001E3F09F4E3C11F3F09F052CF88E198E062
:101730000FB6F894A895809360000FBE9093600058
:10174000FFCFA0914403B0E0A156BC4FE09143030A
:10175000F0E0E156FC4F14966C9184810E94730670
:1017600037CF81E00E94DC03EC0180E00E94DC03C3
:10177000AE01BC018CE00E94E8032ACF81E00E9408
:10178000DC03E0914303F0E0E156FC4FC481C1501B
:10179000C430C8F5009711F481E090E0B4E6B89F3A
:1017A0008001B99F100D1124F12CE12C412C512CFA
:1017B0003201D0E0C15FDE4F0E151F0579F0888140
:1017C0000E94B502092E000CAA0BBB0B480E591E35
:1017D0006A1E7B1EEFEFEE1AFE0AEECF980150E074
:1017E00040E0C301B2010E948C0DA1E7B2E00E946B
:1017F000D40DDC01CB0127E0B695A7959795879589
:101800002A95D1F702C090E080E00E94A9037AC037
:10181000E0914303F0E0E156FC4FC481C150C33076
:10182000D8F4D0E0CC0FDD1FCD5EDE4F188162E032
:10183000812F0E947902C981CC2341F060E08C2F76
:101840000E944B0261E08C2F0E947902812F0E943E
:10185000220221E0892B09F020E0822F0E94BC03A4
:1018600051C0E0914303F0E0E156FC4F848191E0E8
:1018700090937B0380939D0310927C0310929E03B0
:101880006091440370E0FB01ED55FC4F408150E056
:101890006C557C4F8CE395E00E944A0381E00E94E6
:1018A0008D00DCCFE0914303F0E0E156FC4F8481F2
:1018B00091E090937B0380939D0310927C031092A0
:1018C0009E036091440370E0FB01ED55FC4F4081A5
:1018D00050E06C557C4F8CE395E00E944A0380E019
:1018E0000E948D00E0914503F0E0E156FC4F6481D9
:1018F00070E0E0914303F0E0E156FC4F848190E01A
:101900000E94BD0610925303E2CDE0914403ECCF58
:1019100010E0D0E0C0E001E000937B0310939D0352
:1019200010927C0310929E0381E00E948D00811131
:1019300005C0FE01E156FC4F108321961F5F1F3743
:1019400059F78C2F0E949906DDCFC0914303D0E058
:10195000FE01ED55FC4F008110E0CC55DC4F7E01BF
:10196000C7018C1B9D0B801791070CF031CE61E0F5
:10197000D7018C910E947902F701618180810E94D8
:101980004B02F2E0EF0EF11CEBCF81E00E94DC0392
:10199000EC01E0914303F0E0E156FC4FF48060E09D
:1019A0008F2D0E947902209711F4C1E0D0E0412CE4
:1019B000512C320110E000E08F2D0E94B502092E5B
:1019C000000CAA0BBB0B480E591E6A1E7B1E0F5F34
:1019D0001F4FC017D10781F79E0101CF82E00E94FF
:1019E000DC03EC0181E00E94DC03E0914303F0E0C2
:1019F000E156FC4FAE01BC018481BDCE0091430392
:101A000010E0F801ED55FC4F8080912C0C551C4FD7
:101A10007801C701801B910B881599050CF0D8CD72
:101A2000D7011296CC91129711968C911197DC2FB9
:101A3000C82F84E0D595C7958A95E1F77C9061E041
:101A4000872D0E947902209729F460E0872D0E945B
:101A50004B0229C0CF3FD10511F461E0F7CFE72D4C
:101A6000F0E0E155FF4FE491E33031F140F4E13033
:101A7000B1F0E230E1F0C038D1057CF7E6CFE730D5
:101A800029F1E83059F1E430B1F7809180008062AB
:101A900080938000D0938B00C0938A0004C084B5EB
:101AA000806884BDC7BD83E0E80EF11CB2CF84B569
:101AB000806284BDC8BDF7CF80918000806880932C
:101AC0008000D0938900C0938800EDCF8091B00052
:101AD00080688093B000C093B300E5CF8091B000E0
:101AE00080628093B000C093B400DDCF41E150E04C
:101AF0006DEA72E08FE994E00E94EC0003CFA0E071
:101B0000B0E0AB2B09F4E3CC0E945601882309F422
:101B1000DECC0E940000DBCCA1E21A2EAA1BBB1B6C
:101B2000FD010DC0AA1FBB1FEE1FFF1FA217B307A9
:101B3000E407F50720F0A21BB30BE40BF50B661FBF
:101B4000771F881F991F1A9469F760957095809583
:101B500090959B01AC01BD01CF010895052E97FB27
:101B60001EF400940E94C50D57FD07D00E948C0DF5
:101B700007FC03D04EF40C94C50D5095409530955C
:101B800021953F4F4F4F5F4F0895909580957095E9
:101B900061957F4F8F4F9F4F08950E94E50DB7FFCE
:101BA0000895821B930B08950E94E50DA59F900D4B
:101BB000B49F900DA49F800D911D11240895EE0FE8
:101BC000FF1F0590F491E02D0994A29FB001B39FEF
:101BD000C001A39F700D811D1124911DB29F700D36
:101BE000811D1124911D08956817790768F4FB0180
:101BF000DC01E40FF51FA40FB51F02C002900E9286
:101C000041505040D8F708950C94060EFB01DC01BA
:101C100002C001900D9241505040D8F70895F894B9
:021C2000FFCFF4
:101C2200FF04000D0002030405060708090A0B1051
:101C320011121302040507080A0000000000000048
:101C42000000000000000000000000000000000092
:101C5200000000000000000000737300000000009C
:101C62000000000000000000000000000000000072
:101C72000000000000000000000000000000000062
:101C820000000000000000000042420000000000CE
:101C9200000000000000000000426200000000009E
:101CA200000000000000000000426242000000004C
:101CB200000000000000000000424200000000009E
:101CC2000000000000000000000000000000000012
:101CD20000000000000000000062000000000000A0
:101CE20000000000000000000042000000000000B0
:101CF200000000000000000000425300000000004D
:101D020000000000000000000042535300000000E9
:101D1200000000000000000000620000000000005F
:101D220000000000000000000000000000000000B1
:101D3200000000000000000000424200000000001D
:101D42000000000000000000000000000000000091
:101D520000000000000000000042420000000000FD
:101D620000000000000000000053530000000000CB
:101D720000000000000000000042530000000000CC
:101D8200000000000000000000420000000000000F
:101D9200000000000000000000000000008C01ECC8
:101DA200001901D9014A0128013C01000000007715
:101DB200034A03A6032003430330032103504320B5
:101DC2006D6F64653A20756E6F312E30005043207E
:101DD2006D6F64653A20756E6F312E300D0A00000A
:00000001FF
