:100000000C9423010C944B010C944B010C944B0168
:100010000C944B010C944B010C944B010C94FB0978
:100020000C944B010C944B010C944B010C944B0120
:100030000C944B010C944B010C944B010C944B0110
:100040000C94D50A0C944B010C94A30A0C947D0AD1
:100050000C944B010C944B010C944B010C944B01F0
:100060000C941F0B0C944B0100000000240027008F
:100070002A0000000000250028002B0000000000DE
:1000800023002600290004040404040404040202DA
:100090000202020203030303030301020408102007
:1000A0004080010204081020010204081020000012
:1000B0000008000201000003040700000000000027
:1000C0000000025043206D6F64653A20756E6F31F9
:1000D0002E300000000000000000000000000000C2
:1000E0000000000000000000000000000000000010
:1000F000000000737300000000000000000000001A
:1001000000000000000000000000000000000000EF
:1001100000000000000000000000000000000000DF
:10012000000000424200000000000000000000004B
:10013000000000426200000000000000000000001B
:1001400000000042624200000000000000000000C9
:10015000000000424200000000000000000000001B
:10016000000000000000000000000000000000008F
:10017000000000620000000000000000000000001D
:10018000000000420000000000000000000000002D
:1001900000000042530000000000000000000000CA
:1001A0000000004253530000000000000000000067
:1001B00000000062000000000000000000000000DD
:1001C000000000000000000000000000000000002F
:1001D000000000424200000000000000000000009B
:1001E0000000005342620000000000000000000018
:1001F00000000000000000000000000000000000FF
:10020000000000424200000000000000000000006A
:100210000000005353000000000000000000000038
:100220000000004253000000000000000000000039
:10023000000000420000000000000000000000007C
:10024000000000003E0C11241FBECFEFD8E0DEBF3F
:10025000CDBF11E0A0E0B1E0EEE6F1E202C0059012
:100260000D92A035B107D9F723E0A0E5B1E001C0B8
:100270001D92AE3DB207E1F711E0C3E2D1E004C048
:100280002197FE010E948510C232D107C9F70E9452
:10029000770C0C94B5100C94000008950895AF925B
:1002A000BF92CF92DF92EF92FF920F931F93CF9363
:1002B000DF936C017B018B01040F151FEB015E01C5
:1002C000AE18BF08C017D10759F06991D601ED915A
:1002D000FC910190F081E02DC6010995892B79F7F9
:1002E000C501DF91CF911F910F91FF90EF90DF90AB
:1002F000CF90BF90AF900895FC01538D448D252F72
:1003000030E0842F90E0821B930B541710F0CF96AF
:10031000089501970895FC01918D828D981761F0E1
:10032000A28DAE0FBF2FB11D5D968C91928D9F5FF8
:100330009F73928F90E008958FEF9FEF0895FC01D7
:10034000918D828D981731F0828DE80FF11D858D8A
:1003500090E008958FEF9FEF0895FC01918D228D1D
:10036000892F90E0805C9F4F821B91098F739927A2
:10037000089585E393E00E94AD0121E0892B09F403
:1003800020E0822F089580E090E0892B29F00E94E0
:10039000B90181110C9400000895FC01A48DA80FEF
:1003A000B92FB11DA35ABF4F2C91848D90E00196B7
:1003B0008F739927848FA689B7892C93A089B189D7
:1003C0008C91837080648C93938D848D981306C078
:1003D0000288F389E02D80818F7D80830895EF92DC
:1003E000FF920F931F93CF93DF93EC0181E0888FEF
:1003F0009B8D8C8D98131AC0E889F989808185FFBF
:1004000015C09FB7F894EE89FF896083E889F98960
:1004100080818370806480839FBF81E090E0DF9162
:10042000CF911F910F91FF90EF900895F62E0B8DB5
:1004300010E00F5F1F4F0F731127E02E8C8D8E1170
:100440000CC00FB607FCFACFE889F989808185FFD7
:10045000F5CFCE010E94CD01F1CFEB8DEC0FFD2F3A
:10046000F11DE35AFF4FF0829FB7F8940B8FEA8992
:10047000FB8980818062CFCFCF93DF93EC01888DA1
:100480008823B9F0AA89BB89E889F9898C9185FD0F
:1004900003C0808186FD0DC00FB607FCF7CF8C919D
:1004A00085FFF2CF808185FFEDCFCE010E94CD0187
:1004B000E9CFDF91CF910895833081F028F4813026
:1004C00099F08230A9F008958730A9F08830C9F0FA
:1004D0008430B1F4809180008F7D03C080918000D2
:1004E0008F7780938000089584B58F7784BD0895B9
:1004F00084B58F7DFBCF8091B0008F778093B00063
:1005000008958091B0008F7DF9CFCF93DF93282F8E
:1005100030E0F901E255FF4F8491F901E656FF4FB3
:10052000D491F901EA57FF4FC491CC23A1F0811176
:100530000E945C02EC2FF0E0EE0FFF1FE458FF4F2B
:10054000A591B491EC91ED2381E090E009F480E075
:10055000DF91CF91089580E090E0FACF1F93CF9381
:10056000DF93282F30E0F901E255FF4F8491F90124
:10057000E656FF4FD491F901EA57FF4FC491CC23BF
:10058000A9F0162F81110E945C02EC2FF0E0EE0F13
:10059000FF1FEE58FF4FA591B4918FB7F894EC91DF
:1005A000111108C0D095DE23DC938FBFDF91CF916E
:1005B0001F910895DE2BF8CFCF93DF9390E0FC01DD
:1005C000E656FF4F24918A579F4FFC018491882360
:1005D000C9F090E0880F991FFC01E859FF4FA591E1
:1005E000B491FC01EE58FF4FC591D49161110DC03B
:1005F0009FB7F8948C91209582238C93888128232F
:1006000028839FBFDF91CF910895623051F49FB747
:10061000F8943C91822F809583238C93E8812E2B34
:10062000EFCF8FB7F894EC912E2B2C938FBFEACF9E
:100630001F93CF93DF93182FEB0161E00E94DC0240
:10064000209739F460E0812FDF91CF911F910C94B6
:10065000AE02CF3FD10511F461E0F5CFE12FF0E01C
:10066000E255FF4FE491E33031F140F4E130B1F075
:10067000E230E1F0C038D1057CF7E4CFE73029F172
:10068000E83059F1E430B1F78091800080628093C6
:100690008000D0938B00C0938A0004C084B580682A
:1006A00084BDC7BDDF91CF911F91089584B580624D
:1006B00084BDC8BDF7CF80918000806880938000A2
:1006C000D0938900C0938800EDCF8091B0008068FE
:1006D0008093B000C093B300E5CF8091B0008062FA
:1006E0008093B000C093B400DDCF8E3008F08E5000
:1006F0008770806480937C0080917A00806480930E
:100700007A0080917A0086FDFCCF809178009091EC
:10071000790008953FB7F8948091C3019091C40186
:10072000A091C501B091C60126B5A89B05C02F3F79
:1007300019F00196A11DB11D3FBFBA2FA92F982F07
:100740008827BC01CD01620F711D811D911D42E002
:10075000660F771F881F991F4A95D1F708958F92CA
:100760009F92AF92BF92CF92DF92EF92FF926B0176
:100770007C010E948A034B015C01C114D104E10495
:10078000F104B9F00E948A03681979098A099B0962
:10079000683E73408105910580F321E0C21AD108BB
:1007A000E108F10888EE880E83E0981EA11CB11CB8
:1007B000E4CFFF90EF90DF90CF90BF90AF909F90ED
:1007C0008F90089520919B01260F3327331F2132EC
:1007D0003105ECF420910B02FC0190E080E0243024
:1007E00069F082E00895A0919B012191AC014558E8
:1007F0005E4FA40FB52FB11D2C930196861798F369
:1008000080919B01680F60939B0180E0089581E0D7
:10081000089510920B0281E080930A021092E50184
:1008200061E082E10E94AE0261E083E10E94AE02DB
:10083000E9EBF0E080818E7F808380818D7F8083F3
:1008400088E48093B80085E48093BC000895CF933A
:10085000DF9391E090937A018823B9F0C091B800BA
:10086000D091BA008091BC008A7B8093BC0060E08C
:1008700082E10E94AE0260E083E10E94AE020E942B
:100880000904D093BA00C093B800DF91CF910895C6
:100890008F929F92AF92BF92CF92DF92EF92FF9290
:1008A0000F931F93CF93DF93D0913402D13208F08E
:1008B000D7C0182FC09133020E948A036B017C01BC
:1008C00080910B0281116BC082E080930B02109328
:1008D0000A028FEF8093090210920802D093070258
:1008E000A3E1B2E0E7EEF1E080E0D81391C010920E
:1008F000E6018091E601CC0FC82BC093E601809100
:10090000E501813009F088C01092E5010E948A0358
:100910006B017C018091E6018093BB0080910D0208
:1009200090910E02A0910F02B0911002892B8A2B98
:100930008B2BA1F00E948A0300910D0210910E02F0
:1009400020910F02309110026C197D098E099F09C8
:10095000061717072807390708F442C08091BC0022
:1009600083FDD8CF85EC8093BC000E948A036B0185
:100970007C0180910B02823009F450C08091090201
:100980008F3F09F46FC080910902803209F46CC076
:1009900080910902803309F469C084E026C0809107
:1009A0000D0290910E02A0910F02B0911002892BBE
:1009B0008A2B8B2B09F484CF0E948A0380900D022E
:1009C00090900E02A0900F02B09010026C197D0959
:1009D0008E099F0986169706A806B90608F070CFFB
:1009E00080910C020E94270485E01092120210925E
:1009F000340210921102DF91CF911F910F91FF905D
:100A0000EF90DF90CF90BF90AF909F908F90089520
:100A10009D9191938F5F69CF85EEA5CF80910D0257
:100A200090910E02A0910F02B0911002892B8A2B97
:100A30008B2B09F49ECF0E948A0300910D02109126
:100A40000E0220910F02309110026C197D098E095F
:100A50009F09061717072807390708F08ACFC0CF64
:100A600081E0C3CF80E0C1CF82E0BFCF83E0BDCFC4
:100A70000895E091D3018091D201E81730F4F0E0BD
:100A8000E65AFE4F808190E008958FEF9FEF089522
:100A90009091D3018091D2012FEF3FEF981748F446
:100AA000E92FF0E0E65AFE4F208130E09F5F9093FF
:100AB000D301C90108958091D2019091D301891B7E
:100AC000990B0895CF92DF92EF92FF920F931F93AD
:100AD000CF93DF937C01CB018A0120911102222365
:100AE00089F0EB016B01C40ED51ECC15DD0569F054
:100AF0006991D701ED91FC910190F081E02DC70142
:100B00000995F3CF642F0E94E203C801DF91CF91D2
:100B10001F910F91FF90EF90DF90CF900895CF93AA
:100B2000DF931F92CDB7DEB7698320911102222394
:100B3000F9F020913402203258F021E030E0FC013D
:100B40003383228390E080E00F90DF91CF9108956E
:100B500080911202E82FF0E0ED5EFD4F99819083C5
:100B60008F5F809312028093340281E090E0ECCF9B
:100B700061E0CE0101960E94E203F7CF90E080E0B1
:100B80000895E5E3F2E02FEF208325E5218323E0BC
:100B9000228322E023838483958346E050E0BF01D3
:100BA00085E393E00C944F01E5E3F2E09FEF90833F
:100BB00095E5918392E0928391E09383848345E06D
:100BC00050E0BF0185E393E00C944F01E5E3F2E0D0
:100BD0008FEF808385E58183128243E050E0BF017F
:100BE00085E393E00C944F01E82FF0E0EC52FE4FC8
:100BF000E081EC5FF0E0EB5CFD4F91818081089536
:100C00002F923F924F925F926F927F928F929F921C
:100C1000AF92BF92CF92DF92EF92FF920F931F930A
:100C2000CF93DF9300D000D01F92CDB7DEB78B01FA
:100C30001A012A01550F660877089091000189175B
:100C4000F1F09F3F09F483C0C301B2010F900F90F0
:100C50000F900F900F90DF91CF911F910F91FF9008
:100C6000EF90DF90CF90BF90AF909F908F907F904C
:100C70006F905F904F903F902F900C94AF03E2ECF9
:100C8000F0E094919D8397FDDFCF61E00E94DC024C
:100C90008D81882321F09D81923009F04AC148015D
:100CA000B12CA12C60E072E18AE790E0A5019801E7
:100CB0000E94541029833A834B835C8369017A0133
:100CC00081E0C81AD108E108F1089FEFC916D104E4
:100CD000E104F10409F00CF401C160E472E48FE076
:100CE00090E0A50198010E94541069017A0181E009
:100CF000C81AD108E108F1089D81923009F0A2C01C
:100D00008FEFC816D104E104F10409F00CF4E5C139
:100D100060E970ED83E090E0A50198010E94541015
:100D200069017A0191E0C91AD108E108F1088FEF51
:100D3000C816D104E104F10411F00CF07EC183E087
:100D40009091B100987F892B8093B100CFC08093A0
:100D50000001E2ECF0E094919D839F3F09F474CF91
:100D6000913041F150F0923009F446C09D8197FDD9
:100D70006BCF61E00E94DC028ECF14BC15BC94B531
:100D8000926094BD95B5916095BD282F30E0F90132
:100D9000EA57FF4FE491F0E0EE0FFF1FEE58FF4FD0
:100DA00045915491F901E656FF4FE491E0935101CA
:100DB0001D826BCF10928000109281009091810073
:100DC0009860909381009091810091609093810050
:100DD000282F30E0F901EA57FF4FE491F0E0EE0FE1
:100DE000FF1FEE58FF4F45915491F901E656FF4F12
:100DF000E491E093500149CF1092B0001092B100FD
:100E00009091B00092609093B0009091B100916089
:100E10009093B100282F30E0F901EA57FF4FE49199
:100E2000F0E0EE0FFF1FEE58FF4F459154915093A5
:100E3000C8014093C701F901E656FF4FE491E093E2
:100E4000C90123CF9FEFC916D104E104F10409F0D1
:100E50000CF46DC068E478EE81E090E0A5019801A3
:100E60000E94541069017A0181E0C81AD108E10892
:100E7000F1089D81992309F4F9C08FEFC816D104B8
:100E8000E104F10411F00CF0FAC0EEC064E274EF7A
:100E900080E090E0A50194010E94541069017A015C
:100EA00081E0C81AD108E108F10885E09FEFC91672
:100EB000D104E104F10409F008F442CF62E17AE7D9
:100EC00080E090E0A50194010E94541069017A012C
:100ED00081E0C81AD108E108F108E4C081E09D81F1
:100EE00091112ECF95B5987F892B85BD2FEF3FEFC0
:100EF000A901411451046104710409F043C09D81AA
:100F0000913009F45DC0923009F46CC091119CCE0F
:100F1000C7BC20935601309357014093580150931A
:100F2000590180916E00826080936E008DCE82E0C8
:100F3000D6CFB12CA12C60E072E18AE790E0A50148
:100F400098010E94541069017A0181E0C81AD10801
:100F5000E108F108C114D10491E0E906F104FCF4C0
:100F600091E08D81813011F680918100887F892BFD
:100F7000809381002FEF3FEFA901411451046104D8
:100F80007104F1F09801220F331FD1010E947310F8
:100F900028EE33E040E050E00E943210B0CF68E429
:100FA00078EE81E090E0A50198010E94541069015B
:100FB0007A0181E0C81AD108E108F10893E0D1CFA5
:100FC000D0928900C092880020935201309353013F
:100FD000409354015093550180916F00826080933B
:100FE0006F0032CEC092B3002093CA013093CB0180
:100FF0004093CC015093CD0180917000826080932A
:10100000700022CE84E09FEFC916D104E104F10400
:1010100009F008F467CFC980DA80EB80FC808AE0B1
:10102000F594E794D794C7948A95D1F781E0C81ACC
:10103000D108E108F10885E055CF68E478EE81E059
:1010400090E0A50198010E94541069017A0181E0A5
:10105000C81AD108E108F1089FEFC916D104E104CC
:10106000F10411F00CF012CF84E06ACE83E09FEF20
:10107000C916D104E104F10409F00CF433CF62E1A4
:101080007AE780E090E0A50194010E945410690184
:101090007A0181E0C81AD108E108F1089D819923FD
:1010A00009F4B0CF86E09FEFC916D104E104F10442
:1010B00009F008F445CEC980DA80EB80FC809AE024
:1010C000F594E794D794C7949A95D1F781E0C81A1C
:1010D000D108E108F10887E033CE82E031CE1F93DA
:1010E000CF93DF9381508630E0F4C82FD0E0CC0F4F
:1010F000DD1FCD5FDE4F1881812F0E94AE0261E0BF
:10110000812F0E94DC02C981CC2359F060E08C2F32
:101110000E94AE0261E08C2FDF91CF911F910C9461
:10112000DC02DF91CF911F9108951F93CF93DF933E
:10113000182FC82FD0E0AE0165E372E08AE392E099
:101140000E949A10E5E3F2E08FEF808385E58183CA
:1011500082E0810F828387E083831483AE014B5F3B
:101160005F4FBF0185E393E0DF91CF911F910C9416
:101170004F0185ED8093BC0080910D0290910E028D
:10118000A0910F02B09110020796A11DB11D23E09E
:10119000B695A795979587952A95D1F72091BC008C
:1011A00024FD03C010920B02089540910D0250914E
:1011B0000E0260910F0270911002452B462B472BB7
:1011C00069F30097A105B10541F025E32A95F1F7F0
:1011D00000000197A109B109E1CF80910C020C94A4
:1011E00027044F925F926F927F928F929F92AF925D
:1011F000BF92CF92DF92EF92FF920F931F93CF9304
:10120000DF937C018B01D62F0E948A034B015C0186
:1012100080910B0281116AC0C02FD13208F0C0E268
:1012200081E080930B0280930A029FEF9093090262
:10123000109208029C0F909307028093E601809120
:10124000E601EE0CFF1C8E298093E6018091E501FA
:10125000813009F087C01092E5010E948A036B017A
:101260007C018091E6018093BB0080910D029091FA
:101270000E02A0910F02B0911002892B8A2B8B2BAA
:10128000A1F00E948A0380900D0290900E02A0901F
:101290000F02B09010026C197D098E099F09861605
:1012A0009706A806B90608F442C08091BC0083FDE9
:1012B000D8CF85EC8093BC000E948A036B017C012F
:1012C00080910B02813009F44FC0809108028C1785
:1012D00010F4C0910802A7EEB1E0EAE5F1E080E089
:1012E0008C1751F19D9191938F5FFACF80910D02F0
:1012F00090910E02A0910F02B0911002892B8A2BBF
:101300008B2B09F485CF0E948A0340900D025090E8
:101310000E0260900F0270901002681979098A0914
:101320009B09461657066806790608F071CF80912A
:101330000C020E942704C0E01092D301C093D20196
:10134000C01711069CF1C5E3D2E0C8018B5C9D4F2C
:101350007C01CE15DF05E1F182ED93E00E944805A6
:101360008993F7CF85EEA6CF80910D0290910E0262
:10137000A0910F02B0911002892B8A2B8B2B09F4BC
:101380009FCF0E948A0380900D0290900E02A09041
:101390000F02B09010026C197D098E099F09861604
:1013A0009706A806B90608F08BCFC1CFDF91CF9181
:1013B0001F910F91FF90EF90DF90CF90BF90AF9073
:1013C0009F908F907F906F905F904F900C94E60568
:1013D000802FDF91CF911F910F91FF90EF90DF90C1
:1013E000CF90BF90AF909F908F907F906F905F90C5
:1013F0004F900C9495081F920F920FB60F921124E4
:101400002F933F934F935F936F937F938F939F930C
:10141000AF93BF93EF93FF938091CA019091CB015B
:10142000A091CC01B091CD01892B8A2B8B2BD1F1CE
:101430009091C901E091C701F091C801808189278D
:1014400080838091CA019091CB01A091CC01B09191
:10145000CD01181619061A061B069CF48091CA01C4
:101460009091CB01A091CC01B091CD010197A10940
:10147000B1098093CA019093CB01A093CC01B093A2
:10148000CD01FF91EF91BF91AF919F918F917F918E
:101490006F915F914F913F912F910F900FBE0F90E1
:1014A0001F90189580910001E2ECF0E0E4919FEF2D
:1014B00090930001E13051F030F0E23069F060E0EB
:1014C0000E94AE02DECF10926E00F9CF90916F00B5
:1014D0009D7F90936F00F3CF909170009D7F9093CC
:1014E000700091E09093B0009091B100987F94606B
:1014F0009093B1001092B300E2CF1F920F920FB6FB
:101500000F9211242F933F934F935F936F937F9389
:101510008F939F93AF93BF93EF93FF9385E393E0F4
:101520000E94CD01FF91EF91BF91AF919F918F915B
:101530007F916F915F914F913F912F910F900FBECF
:101540000F901F9018951F920F920FB60F921124B3
:101550002F938F939F93EF93FF93E0914503F09127
:1015600046038081E0914B03F0914C0382FD1BC048
:10157000908180914E038F5F8F7320914F0382176C
:1015800041F0E0914E03F0E0EB5CFC4F958F8093CF
:101590004E03FF91EF919F918F912F910F900FBE6E
:1015A0000F901F9018958081F4CF1F920F920FB665
:1015B0000F9211242F933F938F939F93AF93BF93D9
:1015C0008091BF019091C001A091C101B091C20171
:1015D0003091BE0123E0230F2D3758F50196A11D50
:1015E000B11D2093BE018093BF019093C001A093D1
:1015F000C101B093C2018091C3019091C401A09137
:10160000C501B091C6010196A11DB11D8093C30112
:101610009093C401A093C501B093C601BF91AF914F
:101620009F918F913F912F910F900FBE0F901F9020
:10163000189526E8230F0296A11DB11DD2CF1F9247
:101640000F920FB60F9211242F933F934F935F93F6
:101650006F937F938F939F93AF93BF93EF93FF937A
:101660008091B900887F803609F44AC0F0F588324D
:1016700009F4A7C018F5803109F49BC0B8F4882399
:1016800009F4F9C0883009F494C0FF91EF91BF913B
:10169000AF919F918F917F916F915F914F913F910A
:1016A0002F910F900FBE0F901F901895883109F45D
:1016B00088C0803251F78093090214C0803409F445
:1016C0009DC040F48033B9F38833F9F68093090262
:1016D00085ECB0C0803509F485C0883509F496C022
:1016E000883499F60E94B908D0CF883909F48CC0A3
:1016F00038F5883729F050F4883611F0803729F60C
:1017000083E080930B021092BD0157C0883809F422
:101710007BC0803919F0803809F0B7CF8091BD01C6
:10172000803208F071C0E091BD0181E08E0F80939E
:10173000BD018091BB00F0E0E356FE4F80833DC0C9
:10174000803B39F0E0F4803A09F479C0883A09F036
:101750009CCF84E080930B0210929C0110929B011D
:10176000E091D001F091D101099580919B01811107
:101770000FC081E080939B0110927B0109C0803CE7
:1017800009F4A6CF883C09F4A3CF883B09F07DCFAC
:10179000E0919C0181E08E0F80939C01F0E0E55880
:1017A000FE4F80818093BB0090919C0180919B01B2
:1017B00029C08091E6018093BB0085EC8093BC003A
:1017C00064CF9091080280910702981758F5E09134
:1017D000080281E08E0F80930802F0E0E951FE4F8D
:1017E0008081E9CFE091080281E08E0F80930802AA
:1017F0008091BB00F0E0E951FE4F80839091080298
:10180000809107029817C8F285E8D8CFE0910802C6
:1018100081E08E0F809308028091BB00F0E0E951D7
:10182000FE4F808380910A0281115CCF81E080931A
:10183000E50184EA8093BC0010920B0226CF85EC70
:101840008093BC0010920B028091BD01803230F475
:10185000E091BD01F0E0E356FE4F10826091BD01C2
:1018600070E0E091CE01F091CF018DE991E0099512
:101870001092BD010ACF1092090234CFE5E3F3E0E4
:101880001382128288EE93E0A0E0B0E08483958317
:10189000A683B7832DE131E03183208325EC30E04E
:1018A0003587248724EC30E03787268720EC30E02A
:1018B000318B208B21EC30E0338B228B22EC30E01B
:1018C000358B248B26EC30E0378B268B118E128ED5
:1018D000138E148EE2EDF3E01382128284839583DB
:1018E000A683B7838FE291E09183808308957894F3
:1018F00084B5826084BD84B5816084BD85B5826015
:1019000085BD85B5816085BD80916E0081608093C5
:101910006E0010928100809181008260809381002E
:10192000809181008160809381008091800081603E
:10193000809380008091B10084608093B100809199
:10194000B00081608093B00080917A0084608093C1
:101950007A0080917A00826080937A0080917A0088
:10196000816080937A0080917A00806880937A0009
:101970001092C10014BE0FB6F894A8958091600033
:10198000886180936000109260000FBE60E081E08B
:101990000E946F0861E08FE00E94DC0260E08FE04F
:1019A0000E94AE0261E08CE00E94DC0244E650E05E
:1019B0006BE072E08CE00E940006E0914503F0913C
:1019C000460382E08083E0914103F091420310825C
:1019D000E0914303F091440380E1808310924D0332
:1019E000E0914903F0914A0386E08083E091470348
:1019F000F0914803808180618083E0914703F091FA
:101A00004803808188608083E0914703F091480318
:101A1000808180688083E0914703F0914803808152
:101A20008F7D8083C3ECD0E0FE016491662339F0A2
:101A300085E393E00E94EF012196892BA9F742E00C
:101A400050E06CE471E085E393E00E944F01AEE466
:101A5000CA2EA1E0DA2EB4E0AB2EB12C7724739419
:101A6000F4E66F2E85E393E00E94AD011816190687
:101A70000CF0EBC285E393E00E948B0197FDE5C279
:101A8000E091E40121E02E0F2093E401F0E0EB5C13
:101A9000FD4F8083223009F466C0233009F468C00A
:101AA000213049F4B0920201A09201018F3F9105CB
:101AB000C9F21092E40160910101709102018091DC
:101AC000E4018617170670F210913802153008F0FD
:101AD00055C0F0E11F9F900111242D503E4FE4EDC1
:101AE000F1E080E111928A95E9F72115310531F194
:101AF000A4EDB1E050E040E090E080E0F901E40FB7
:101B0000F51FE491EE23D1F08D93EC3409F460C01D
:101B100008F055C0E43409F45DC0E63409F458C057
:101B2000E23409F40196FC0134966E177F0708F43D
:101B300099C04F5F5F4F4031510501F7153809F4E7
:101B4000D0C108F092C0143009F460C108F058C048
:101B5000123009F41AC108F025C1113009F405C189
:101B60000E94E6057FC08535910509F0A2CFA3CF7D
:101B7000039690930201809301019DCF8FE7810F1F
:101B80008D3060F4812F8158990B9C01E4E0220F85
:101B9000331FEA95E1F72D5D3E4FA1CF30E020E005
:101BA0001B3F08F49CCFE12FEB5FFF0B9F0154E03C
:101BB000220F331F5A95E1F72D523F4F90CFE23657
:101BC000B9F0E33749F0E33509F0ADCF0296ABCF7A
:101BD0000496A9CF0896A7CFFC01E75CFD4FEF0163
:101BE00009900020E9F78E1B9F0B8C0F9D1F9BCF48
:101BF000FC01EB5CFD4FE48101968E0F911D93CFAC
:101C0000123809F42CC1C0F4113809F0A9CF109290
:101C1000D3011092D20110921202109234020E944B
:101C20000904EDE4F1E0F093D101E093D001D0920A
:101C3000CF01C092CE0194CF133809F430C1E091A6
:101C4000D501143809F08CCFF0E0EB5CFD4F6481D6
:101C500070E0E091D401F0E0EB5CFD4F848190E016
:101C60000E94F1081092E401FDCE193809F482C1F6
:101C700008F041C0C091D401173809F46BC108F4D1
:101C80004CC181E00E94F4058C01D0E0CB5CDD4FBB
:101C9000FC8060E08F2D0E94DC020115110511F41B
:101CA00001E010E0212C312C2101D0E0C0E08F2D8B
:101CB0000E947503092E000CAA0BBB0B280E391EBF
:101CC0004A1E5B1E21960C171D0789F7980150E0EC
:101CD00040E0C201B1010E943210A1E7B2E00E94CF
:101CE0007A10DC01CB0137E0B695A79597958795DB
:101CF0003A95D1F788C01D3809F44CC128F51A3837
:101D000009F02ECFC091D401D0E0FE01E75CFD4F79
:101D1000E080F12CC65CDD4F8E01C8018C1B9D0B51
:101D20008E159F050CF01CCFF80162818181762F02
:101D3000682F24E0759567952A95E1F780810E94C8
:101D400018030D5F1F4FE9CF1E3F09F475C11F3FF8
:101D500009F006CF88E198E00FB6F894A895809333
:101D600060000FBE90936000FFCFA091D501B0E05E
:101D7000AB5CBD4FE091D401F0E0EB5CFD4F1496FD
:101D80006C9184810E946F08EBCE81E00E94F40583
:101D9000EC0180E00E94F405AE01BC018CE00E94E1
:101DA0000006DECE81E00E94F405E091D401F0E06F
:101DB000EB5CFD4FC481C150C43018F5009711F49D
:101DC00081E090E0689E7001699EF00C112410E0A3
:101DD00000E0212C312C2101D0E0C15FDE4F0E1537
:101DE0001F0509F473CF88810E947503092E000C2A
:101DF000AA0BBB0B280E391E4A1E5B1E0F5F1F4F1E
:101E0000EECF90E080E00E94C1052CCFE091D4019C
:101E1000F0E0EB5CFD4FC481C150C330D8F4D0E09A
:101E2000CC0FDD1FCD5EDE4F188162E0812F0E9456
:101E3000DC02C981CC2341F060E08C2F0E94AE020D
:101E400061E08C2F0E94DC02812F0E94850221E03C
:101E5000892B09F020E0822F0E94D40503CFE09166
:101E6000D401F0E0EB5CFD4F84817092110280930D
:101E7000330210921202109234026091D50170E088
:101E8000FB01E75CFD4F408150E0665C7D4F82EDD9
:101E900093E00E94620581E00E944804DDCFE0915A
:101EA000D401F0E0EB5CFD4F8481709211028093CD
:101EB000330210921202109234026091D50170E048
:101EC000FB01E75CFD4F408150E0665C7D4F82ED99
:101ED00093E00E94620580E00E944804E091D601F0
:101EE000B3CE10E0D0E0C0E0709211021093330244
:101EF000109212021092340281E00E944804811173
:101F000005C0FE01EB5CFD4F108321961F5F1F375C
:101F100059F78C2F0E949508A5CED0E0FE01E75C12
:101F2000FD4FE080F12CC65CDD4F8E01C8018C1B9B
:101F30009D0B8E159F050CF013CE61E0F80180819A
:101F40000E94DC02F801618180810E94AE020E5F76
:101F50001F4FECCFD0E0CB5CDD4F60E08C810E9466
:101F6000DC02E091D401F0E0EB5CFD4F84810E9443
:101F7000850272CF82E00E94F405EC0181E00E94AC
:101F8000F405E091D401F0E0EB5CFD4FAE01BC0143
:101F9000848105CFC091D601D0E0FE01E75CFD4F02
:101FA000E080F12CE091D501F0E0EB5CFD4F548036
:101FB00080E00E94F4054C01C65CDD4F8E01C80133
:101FC0008C1B9D0B8E159F0584F4F8016281818125
:101FD000762F682F94E0759567959A95E1F7808143
:101FE0000E9418030D5F1F4FEACF8114910409F47A
:101FF000B7CDB401990C880B990B0E94AF03F1E0A7
:1020000003E311E05F1611F010E000E084E01695A4
:1020100007958A95E1F74E01C4018C1B9D0B8E1527
:102020009F050CF09DCDB801F40180810E9418033A
:10203000F3E08F0E911CF0CF41E150E06DE371E0D1
:1020400085E393E00E944F010DCE80E090E0892B64
:1020500009F404CD0E94B901882309F4FFCC0E9441
:102060000000FCCCA1E21A2EAA1BBB1BFD010DC077
:10207000AA1FBB1FEE1FFF1FA217B307E407F50738
:1020800020F0A21BB30BE40BF50B661F771F881F14
:10209000991F1A9469F760957095809590959B01AA
:1020A000AC01BD01CF010895052E97FB1EF40094ED
:1020B0000E946B1057FD07D00E94321007FC03D01E
:1020C0004EF40C946B1050954095309521953F4FF0
:1020D0004F4F5F4F089590958095709561957F4F14
:1020E0008F4F9F4F08950E948B10B7FF0895821B5A
:1020F000930B08950E948B10A59F900DB49F900D97
:10210000A49F800D911D11240895EE0FFF1F0590CF
:10211000F491E02D0994A29FB001B39FC001A39F49
:10212000700D811D1124911DB29F700D811D112410
:10213000911D08956817790768F4FB01DC01E40F2D
:10214000F51FA40FB51F02C002900E9241505040DF
:10215000D8F708950C94AC10FB01DC0102C001908B
:0E2160000D9241505040D8F70895F894FFCFEB
:10216E00FF04000D0002030405060708090A0B1000
:10217E0011121302040507080A00000000EF014FB8
:10218E00017C013C02AD018B019F01000000008F1C
:10219E00056205BE0538055B054805390550432027
:1021AE006D6F64653A20756E6F312E300D0A00002A
:00000001FF
